:020000040000FA
:10000000D81000204D0100001D4E000049460000A0
:1000100000000000000000000000000000000000E0
:10002000000000000000000000000000635000001D
:100030000000000000000000C14F000065500000FB
:10004000594600004D4600004F4600005146000052
:100050005346000027520000BD0C0000AD12000006
:100060007D09000041070000855200004B4600005A
:1000700061500000F151000015520000554600008B
:100080005F01000025520000295200002B520000A1
:100090002D5200005F0100005F0100005F010000C1
:1000A0005F0100005F0100005F0100005F010000D0
:1000B0005F0100005F0100005F010000C513000048
:1000C000EE36E8FF00F002F800F030F80CA030C87F
:1000D000083824182D18A246671EAB4654465D46C4
:1000E000AC4201D100F022F87E460F3E0FCCB6465E
:1000F0000126334200D0FB1AA246AB4633431847D1
:10010000945B0000B45B000000230024002500265F
:10011000103A01D378C1FBD8520700D330C100D5C3
:100120000B6070471FB51FBD10B510BD00F0AAFAD7
:100130001146FFF7F7FF05F0D3F900F0C2FA03B458
:10014000FFF7F2FF03BC00F0C9FA0000084880473F
:1001500008480047FEE7FEE7FEE7FEE7FEE7FEE7AA
:10016000FEE7000004480549054A064B70470000B9
:10017000D9500000C5000000D80B0020D810002086
:10018000D80C0020D80C0020002203098B4273D326
:10019000030A8B4258D3030B8B423CD3030C8B4294
:1001A00021D312E003460B437FD4002243088B4245
:1001B00074D303098B425FD3030A8B4244D3030BEE
:1001C0008B4228D3030C8B420DD3FF22090212BAB3
:1001D000030C8B4202D31212090265D0030B8B422F
:1001E00019D300E0090AC30B8B4201D3CB03C01A19
:1001F0005241830B8B4201D38B03C01A5241430BF4
:100200008B4201D34B03C01A5241030B8B4201D3E3
:100210000B03C01A5241C30A8B4201D3CB02C01A4E
:100220005241830A8B4201D38B02C01A5241430AC6
:100230008B4201D34B02C01A5241030A8B4201D3B5
:100240000B02C01A5241CDD2C3098B4201D3CB015C
:10025000C01A524183098B4201D38B01C01A52410B
:1002600043098B4201D34B01C01A524103098B420F
:1002700001D30B01C01A5241C3088B4201D3CB00FA
:10028000C01A524183088B4201D38B00C01A5241DD
:1002900043088B4201D34B00C01A5241411A00D28D
:1002A00001465241104670475DE0CA0F00D04942F6
:1002B000031000D34042534000229C4603098B4266
:1002C0002DD3030A8B4212D3FC22890112BA030AEE
:1002D0008B420CD3890192118B4208D38901921170
:1002E0008B4204D389013AD0921100E08909C309F5
:1002F0008B4201D3CB01C01A524183098B4201D3F7
:100300008B01C01A524143098B4201D34B01C01AE1
:10031000524103098B4201D30B01C01A5241C30859
:100320008B4201D3CB00C01A524183088B4201D3C8
:100330008B00C01A5241D9D243088B4201D34B00E3
:10034000C01A5241411A00D20146634652415B1025
:10035000104601D34042002B00D549427047634606
:100360005B1000D3404201B50020C046C04602BD2C
:10037000704770477047000030B50346CA02400D11
:100380001043164D164C0A1502D02043002A06DBF6
:10039000AA1A002A12DDD040FF2A0BDC30BD52051C
:1003A000520D01D140004008AA1A07D4D040404263
:1003B000FF2A01DD002030BD0028FCDD4A00002BB3
:1003C00001D0012000E00020101801225205D04287
:1003D000F0D8C817C043604030BD00001E040000C4
:1003E000000000801F22030C02D10F22000402D063
:1003F000030E03D004E00020014670470002083AD3
:10040000030F01D10001121F830F01D18000921E42
:10041000002801DB4000521E120551184205C0128F
:10042000411810467047C10FC90700D04042012251
:1004300092071143D6E701218907D3E7F0B58B4C2A
:100440000F09254689B0BD437BD01D092646AE4322
:10045000FAD00E465E402740F60F3E43254071D04D
:1004600024012142FBD0FF24AD19A4042D1B0395C8
:1004700001252D05DB02DB0AC9022B43C90A2943EA
:100480001E010901040F130F050121431701880BF9
:10049000820391432D098C46A90B1E438A03954381
:1004A000B30B9A0396433F09BA0B9403A7430296F2
:1004B0002E467E430497B6464E19D7190C46019630
:1004C000544305977E43371B7646BF1B3601B6461D
:1004D000BE0B361900967646BC043719009C01D332
:1004E000641C00946400002F01D001263443029E56
:1004F000049F754366467E430496760034196E0069
:1005000034190094029C019E1C196643751BAE466B
:10051000069465464519059C05956C4359437546F7
:100520000891691A0191049E01465143A41B04914C
:10053000611A009C0791E10605D06109012211436F
:1005400002E072E06EE06109089D00272C0A2D068A
:100550006918049D7C412A0A2D066918019D624193
:10056000AC0DAD026D185441079A910D92025519C8
:100570006141029A644658435443069B059A5A4384
:10058000121A131B9A0E9B015B187A41010B00058E
:10059000C3185141220A200644195A419A4200D2F6
:1005A000491C01204002814203D315230226F64351
:1005B00002E014230326F6432020C51AA94017465B
:1005C000AF40DA400A4320460399D8400914731813
:1005D00019055118039A3843D2075140AC4009D04D
:1005E0000122944006D30022401C5141002C01D12D
:1005F000400840001E4A934212D3012203989206FB
:10060000904207DB0520400709181A480143C01231
:10061000414004E0032040070818C10FC90700202B
:1006200009B0F0BD0020F107FAE705180C464C416F
:1006300011486D42A04115D394181A465A410E48EC
:10064000644290410ED301204A004005824209D302
:100650005A00824206D35940C90F084AC9070020F0
:100660001143DDE700200649DAE700000000FF073C
:10067000FE070000FFFFFF7F0000E0FF0000F07FAB
:100680000000F87F754600F025F8AE460500694683
:100690005346C008C000854618B020B5FFF762FD7C
:1006A00060BC00274908B6460026C0C5C0C5C0C505
:1006B000C0C5C0C5C0C5C0C5C0C5403D49008D4608
:1006C000704710B50446C046C0462046FFF737FDC8
:1006D00010BD000000487047740B0020014918202D
:1006E000ABBEFEE726000200704770B58C18057897
:1006F000401C6B075B0F01D10378401C2A1106D107
:100700000278401C03E00678401C0E70491C5B1EFA
:10071000F9D12B0705D40023521E0DD40B70491CB0
:10072000FAE70378401CCB1A921C03E01D780D7089
:10073000491C5B1C521EF9D5A142D8D3002070BDC4
:1007400010B55520104948620846006A02218843C6
:100750000D4908620846006A022108430A490862F6
:100760000020486204F002FD08480078400840007C
:10077000401C06490870002005490860032005490F
:10078000086001F065F810BD008206402C000020D2
:1007900028000020240000205521064AD16211467D
:1007A000896A012282401143024A91620021D1628A
:1007B000704700000080064010B50121084600F097
:1007C00061FB1B2300220821104600F053F8002093
:1007D00000F03CF800F07CF8002000F067F81020F2
:1007E00000F0AAF803220021022003F06BFE202073
:1007F00000F0A2F803220121022003F063FE012091
:10080000400400F099F803220721022003F05AFE69
:10081000102000F079F8202000F076F80120400444
:1008200000F072F80820002805DBC206D20E012174
:100830009140054A116000BF0121082004F0D8FD55
:1008400000F016F910BD000000E100E05521084A53
:10085000D16211460968012252039143044A116092
:1008600011460968014311600021D1627047000000
:100870000080064030B555240A4DEC622C462468B1
:10088000094D2C40074D2C600C4614431D042C438D
:100890000443044D2D682C43024D2C600024EC626F
:1008A00030BD000000800640F4FF00FC5521074ADF
:1008B000D16211460968C0229143044A1160114671
:1008C0000968014311600021D16270470080064031
:1008D00055200649C862084600680F21090288436E
:1008E000024908600020C86270470000008006408E
:1008F0005521044AD1621146896B814391630021DD
:10090000D1627047008006405521044AD1621146E9
:10091000C9690143D1610021D1627047008006405E
:100920005521044AD1621146896B0143916300212C
:10093000D1627047008006405521044AD1621146B9
:100940000969014311610021D162704700800640AE
:1009500001460548406A01228A401040002801D023
:10096000012070470020FCE7008006400146024855
:100970008A008058704700008080064010B53248D9
:1009800004F09EFC002424E004F0B4FC2F49085538
:1009900008460078BE2818D108464078A02816D10D
:1009A000084680782A4908702848C0782949087084
:1009B000264800792849087024484079274908705A
:1009C000224880792649087001E0002403E0601C79
:1009D000C4B2072CD8DB00BF0420FFF7B9FF002802
:1009E0000DD00420FFF7C2FF1E4908600420FFF766
:1009F000D3FE64211848007804F0E3FA23E00520D0
:100A0000FFF7A6FF00280CD00520FFF7AFFF16491F
:100A100008600520FFF7C0FE1148007803F040FD94
:100A200011E01120FFF794FF00280CD01120FFF7F0
:100A30009DFF0E4908601120FFF7AEFE04480178C3
:100A4000642004F0A1FB10BD004006400C00002013
:100A50001C0000201D0000201E0000201F000020A0
:100A600020000020000000200400002008000020DA
:100A700055200549C862084600681021084302490C
:100A800008600020C86270470080064010B5114819
:100A9000007800280AD11048FFF72AFF01208004BF
:100AA000FFF73EFF01200B49087012E00A48FFF7EC
:100AB0001FFF0A480078002804D105208002FFF7B4
:100AC0002FFF03E001208002FFF72AFF00200149E9
:100AD000087010BDD1000020FFFFFF009C800000C7
:100AE0000449C96802460832012393401943014A68
:100AF000D1607047C042064030B55524194D6C6135
:100B0000002814D1174C403C24683025AC43154DC7
:100B1000403D2C602C4624680D012C43114D403D76
:100B20002C609CB215042C430E4D403D6C60012896
:100B300014D10C4C403C24693025AC43094D403D58
:100B40002C612C4624690D012C43064D403D2C613F
:100B50009CB215042C43034D403D6C610024014DB3
:100B60006C6130BDC042064010B5AA23204C6361C1
:100B700000281BD100290BD11D4B403B9B681B0C4F
:100B80001B041B4C403CA36023469B681343A3609B
:100B900001290BD1164B403BDB681B0C1B04144C8A
:100BA000403CE3602346DB681343E36001281BD12C
:100BB00000290BD10E4B403B9B691B0C1B040C4CBA
:100BC000403CA36123469B691343A36101290BD1D8
:100BD000074B403BDB691B0C1B04054C403CE361AD
:100BE0002346DB691343E3610023014C636110BDBD
:100BF000C0420640AA22194B5A61002814D100298C
:100C000008D1164A403A926801231B049A43134BB9
:100C1000403B9A60012907D1104A403AD2680B0440
:100C20009A430E4B403BDA60012813D1002907D1CB
:100C30000A4A403A926903049A43084B403B9A613E
:100C4000012907D1054A403AD2690B049A43034B64
:100C5000403BDA610022014B5A617047C0420640B6
:100C600055210D4A5161002807D10B4940390968C7
:100C700008221143084A403A1160012807D1064969
:100C80004039096908221143034A403A11610021A1
:100C9000014A516170470000C04206405521064A92
:100CA000516111460969012282401143024A1161D2
:100CB0000021516170470000C04206404F49486919
:100CC00089680222114000297ED04D49097891435C
:100CD0004B4A11700021916111460978C907C90F6B
:100CE00000296CD111464988002908D1434940396F
:100CF000896989B2434A511A414A91604FE040499B
:100D0000498801291DD13D494039896989B23D4A47
:100D1000521A3B49CA605521384A51613749403916
:100D2000096989088900354A403A11611146096903
:100D300003221143314A403A116100212F4A516187
:100D40002DE02F494988022908D12C494039896969
:100D500089B22C4A521A2A490A6120E02849498856
:100D600003291CD125494039896989B2254A521A7B
:100D700023494A615521214A516120494039096975
:100D8000890889001D4A403A116111460969022209
:100D900011431A4A403A11610021184A5161184919
:100DA0004988491C89B2164A5180032907DD002170
:100DB00051801146097849084900491C11700F49B2
:100DC000C9680222114300E015E00C4AD1605521A8
:100DD00051611146096902229143084A11610021BB
:100DE0005161552151611146096902221143034A9B
:100DF000116100215161014948617047C0420640BC
:100E000098060020E8FD000055210D4A5161002898
:100E100007D10B494039096840221143084A403A3A
:100E20001160012807D10649403909694022114360
:100E3000034A403A11610021014A516170470000A4
:100E4000C0420640002905D0054A527C0243044BAB
:100E50005A7404E0024A527C8243014B5A74704730
:100E600000080240002905D0054A927C0243044B49
:100E70009A7404E0024A927C8243014B9A74704750
:100E800000080240002905D0054AD27C0243044BE9
:100E9000DA7404E0024AD27C8243014BDA74704770
:100EA0000008024000B5C0229178F8221140144A8F
:100EB0001278114313480A46E03A130004F08AFA04
:100EC0000E0A0E12161A1E1E1E080C1014181C1ED6
:100ED0000D4813E00D4811E00D480FE00D480DE0FE
:100EE0000D480BE00D4809E00D4807E00D4805E00E
:100EF0000D4803E00D4801E00D4800BF00BF00BDF4
:100F0000201C024040420F000090D003006CDC0225
:100F10000048E80100366E010024F400001BB70011
:100F200000127A00808D5B0000093D00C0C62D00D4
:100F300080841E0010B50D4840680121C902084098
:100F4000C00A002811D00A480078022188430849C5
:100F50000870002088610320FFF7C2FD0448007874
:100F600040084000401C0249087010BDC0420640C5
:100F7000980600205520054988630846C06840004F
:100F80004008C86000208863704700004042064067
:100F900010B501210820FFF755FF0221002000F0C5
:100FA00075F80221012000F071F80221084600F0D6
:100FB0006DF80221032000F069F8002000F0EAF843
:100FC0006421002000F084F86421012000F080F802
:100FD0006421022000F07CF86421032000F078F8FE
:100FE0000021084600F08EF86421012000F08AF804
:100FF0000021022000F086F86421032000F082F82E
:101000003F2000F0DDF83F2000F022F90F2000F033
:1010100031F90021084600F09DF80021012000F080
:1010200099F80021022000F095F80021032000F03B
:1010300091F8FFF79FFF00BF01201349087400BF1C
:1010400000BF887400BF00BF087500BF00BF88756F
:1010500000BF0422002103F035FA042201210846D2
:1010600003F030FA04220221012003F02BFA0422BB
:101070000321012003F026FA0F2000F0DDF80F20F5
:1010800000F032F910BD00000008044010B55522F0
:101090000D4B9A630D4A0C4B403B1A601A4652683E
:1010A00084000F23A3409A43074B403B5A601A46E3
:1010B000526884000B46A3401A43034B403B5A60DE
:1010C0000022014B9A6310BD40420640010101001D
:1010D00010B555220A4B9A638BB2094A2C3A840008
:1010E0001351074A403A12690346083301249C40D1
:1010F0002243034B403B1A610022014B9A6310BD0F
:101100004042064010B55522114B9A63104A143ADA
:101110008300D258130C1B040D4A143A8400135157
:101120008300D2588BB21A43094B143B84001A51E6
:10113000074A403A12690346083301249C4022437F
:10114000034B403B1A610022014B9A6310BD000023
:101150004042064010B555220D4B9A630C4A403A66
:1011600012694300103303249C40A243084B403BC8
:101170001A611A461269430010330C469C40224300
:10118000034B403B1A610022014B9A6310BD0000E3
:10119000404206405521094A91630849403989680F
:1011A0000F2292059143054A403A916011468968A1
:1011B000014391600021014A91637047404206401B
:1011C00055211C4A9163C107C90F002903D102218F
:1011D0000140002908D017494039896801221204CA
:1011E0009143144A403A916004210140002903D1FF
:1011F00008210140002908D00E49403989680122A0
:10120000520491430B4A403A916010210140002959
:1012100003D120210140002908D0064940398968BE
:10122000012292049143034A403A91600021014A0D
:1012300091637047404206405521044A916311462C
:101240008968814391600021916370474042064064
:101250005521074A91630649403989680202914342
:10126000034A403A91600021014A916370470000AF
:10127000404206405521064A916305494039896834
:101280000143034A403A91600021014A916370474B
:10129000404206405521044A916311468968014342
:1012A00091600021916370474042064010B50D489F
:1012B000C06AC007C00F00280CD00A48006B01218B
:1012C00008430849086302F0E9F900F0DFFE03F083
:1012D0004DF805E00348006B0020C0430149086356
:1012E00010BD0000404206405521064A9163054961
:1012F0004039C9680143034A403AD1600021014A9C
:10130000916370474042064010B501210820FFF765
:1013100099FD02210420FFF7B9FE0020FFF73AFFF4
:1013200064210420FFF7D4FE64210420FFF7EAFEC5
:101330001020FFF745FF1020FFF78AFF1020FFF76E
:1013400099FF00210420FFF705FFFFF713FE00BF00
:1013500001201B49087600BF0422114603F0B2F8B1
:101360001020FFF797FF1020FFF7BEFF012110208C
:10137000FFF768FDC823012202211046FFF7BCFBDE
:101380000120FFF76DFCC82200210120FFF7ECFBD4
:1013900000210120FFF72EFC012003F043FE00BFD7
:1013A00004200749087100BF04220221002003F035
:1013B00089F80120FFF772FC0120FFF725FD10BD21
:1013C000000804407047000010B419480021C160B3
:1013D000016141618161C1610162164C4162226C0F
:1013E0009310154A126853439B134360636C9B1020
:1013F00053439B138360A36C53439A1302600F4AB9
:10140000136A8362536A0163C36241630C4B836353
:10141000016441645B428164C3630165D16A002950
:1014200002DDC16410BC70470121C16410BC70476B
:10143000940A0020B0030020A8010020F40200203C
:101440003075000030B436490B68C36049680161EB
:1014500034490A6842614C688461026C8168514376
:10146000CA138264416862434B439A185213C261A3
:101470002D4B52035A60996019680907FCD5D96849
:101480002A4CC16122782A4D521CD2B22270ED8DB5
:10149000AA4243D3002222704C424462C16A026BCA
:1014A00049106143891389180163826B914200DD01
:1014B0000263056BC16B8D4200DA0163856AED1032
:1014C00065432C13056B64194463944201DC224686
:1014D00000E042638A4201DB114600E0416301649F
:1014E00002685143CC134464C16C8C4208DA4164F5
:1014F000C90359609A6019680907FCD5D968016465
:10150000426C016D89180B4A0165914202DD53421C
:10151000C9180165002901DA8918016530BC7047D6
:10152000840000206C000020804306403001002031
:1015300064040020FFFF000010B50E4C0020606323
:10154000A063E06320646064A064E064206560657B
:101550000949A06508774877206608484B228168CA
:10156000322041430648D200006D5043FEF71AFE78
:10157000606610BDF40700203408002074020020CB
:10158000A8010020F0B576480126C37975483604D5
:101590000169754883B0406941188A19881B012B7D
:1015A00035D0724C724D2368646864001C196C431A
:1015B000704DE4132D68AC465D43EF136D4D6D68BF
:1015C000AE466543ED137F1975465D43EB136546E3
:1015D0006543EC131B1B684C9C462368674D6B43AB
:1015E000FF2571356F43DB13FD135B1923606368BF
:1015F000624DFF276B43DD13634671377B43DB137B
:10160000EB186360574D00296DDA11466EE0554FB7
:1016100000247D68002D01DA7C6003E0584B9D4278
:1016200000DD7B60574D7B68AB4202DB6D42AB4215
:1016300000DD2B460025002901DA114602E0B14207
:1016400000DD01465048514A0818904201D2012558
:1016500016E04F48814201D2022511E04D4E8E190D
:10166000964201D203250BE04B4E8E19864201D2E1
:10167000042505E00120C003081A904200D2052588
:10168000062D2ED2280078440079001887440206DF
:101690000C131822FC60BB6003B0F0BD5810B8609A
:1016A0003E484343D81312E058104042B8603B48CC
:1016B0004343D8130BE05842B860FC6003B0F0BD60
:1016C00058104042B86035484343D8134042F86050
:1016D00003B0F0BD5810B86030484343D8134042BF
:1016E000F5E7BC60E9E7B14200DD0146684602F07B
:1016F000A7FB01990098E160A06029492268086869
:1017000063685043C21348685843C01310184A68AE
:10171000236809685A436368D2135943C913511A9D
:101720001E4A43105143C913CA1A104C5B18216852
:10173000081A68616168891AA961A2684900D2180B
:10174000EA610B4A41185143CA1369684843801043
:1017500040425143A86088104042E86003B0F0BDA9
:10176000A4030020E80A00206404002044060020AE
:10177000E64900005C00002080010020907E00000F
:101780008813000078ECFFFFAB2AFFFFAA2A0000B5
:10179000AB2A000055D5FFFFABAAFFFFD96E0000B2
:1017A00088010020F0B5091A214883B0814201DD8B
:1017B00042428918002900DA0918684602F040FB05
:1017C0001C48019A0099C26181611B484268016806
:1017D0001A4803684B43DC13436849425343DB1305
:1017E000E418144B9C6045684D430168ED13514368
:1017F000C9136D18124ADD601168066852684E43BD
:10180000F713466849425643F613BE191E614768EE
:1018100000684F435043F913C01308180949586131
:101820008C6109498D6109490E60486003B0F0BDC3
:10183000FFFF0000E000002084000020F8000020EE
:101840006C000020CC050020F4050020740000206E
:1018500010B5002034490860486034490860486089
:1018600033490860486033490860486088603249FD
:101870000860486031494860086031490860314873
:10188000406F4860002030490881488188812F4896
:101890000078082188432D49087008460078042103
:1018A00088432A4908700846007810218843274950
:1018B00008702448007F8006C00F487008464078B2
:1018C000887000202249486188610865C864C8841E
:1018D0001C48007F082188431A49087700201D49C9
:1018E00008801D481D49086001F054FE02F0D8F838
:1018F000FFF722FE1A4801F0A5FB01F0D1FD1248C6
:101900004079002807D05520164988631648486159
:101910000020886307E05520124988633F200002B9
:1019200048610020886310BD640000206C00002026
:1019300084000020440600207C0000205C00002081
:101940007400002074020020400200202D000020BE
:101950006404002090000020A08601009C0000206C
:10196000E4040020404206402A3F0000F0B5404910
:10197000404A83B00868106049683F4B49004118ED
:10198000594389133D4E516033681A464243D4137C
:1019900072684B4315464D43ED136519384C42436D
:1019A000D913D013081A25606060374D00243549DB
:1019B000EC646846696102F043FA0199009871602D
:1019C000324A30605068A968884201DD401E50608C
:1019D000884201DA401C50602E4D2D48E860686155
:1019E00000F030FF2C4930680A6803465343DF1388
:1019F00073684E6819467143C91353437043791A8B
:101A0000DA13C013254F121825487A6039604078E0
:101A10000028244828D000F08DFF23498888401CE6
:101A200080B28880214B224A984215D98C80214867
:101A3000836F15488360204B406918651F48036811
:101A40002B6043686B601E4B06691E6040695860DE
:101A5000EC6004206C6110601A480078C00701D166
:101A60008C80146003B0F0BD02F01EFAD5E70000D0
:101A70004406002064000020F32400005C000020E5
:101A80006C00002055150000640400207400002044
:101A900010270000CC050020840000207C000020DE
:101AA000A403002050060020E0000020B80B000036
:101AB0002800002074020020940A0020F402002074
:101AC000F40500202D0000201CB539480068394974
:101AD0000860374800683649496849004018364967
:101AE00048438013334948603448006809684843D4
:101AF000C113324840682F4A52685043C013081837
:101B00002F4908602D4800682A4949684843C11395
:101B10002A484068274A12685043C013081A2849C7
:101B2000486001F029FF27484169684602F088F9BA
:101B30002248019A009906C00020234908604860A5
:101B4000224800680A2812D25520214988633F2084
:101B500000024861002088631A4988601D490860B6
:101B600048601D490860486001F014FD06E05520FA
:101B70001749886319484861002088631348006842
:101B8000401C1249086016490969884203D2154869
:101B9000406C00280BD1124800690C4908600020F5
:101BA0000860114988710F494864104908601CBDDC
:101BB0004406002064000020F32400005C000020A4
:101BC0006C000020640400207C000020CC00002079
:101BD0004042064074000020840000202A3F00009C
:101BE00014020020A801002040020020280000204C
:101BF000552019498863002048618863552088630F
:101C00001648008F1549098F8903C913401A1249D4
:101C10004039C8621148008F1049098F8903C913E0
:101C2000411A0D48403841630C48008F0B49098F19
:101C30008903C913411A08484038C1630069152156
:101C400009020843044940390861002002498863B9
:101C500002200349086070474042064064040020A7
:101C6000280000201CB5674800686749086065487F
:101C70000068644949684900401864494843801332
:101C8000614948606248006809684843C113604878
:101C900040685D4A52685043C01308185D490860A7
:101CA0005B480068584949684843C1135848406830
:101CB000554A12685043C013081A5649486001F04B
:101CC0005BFE55484169684602F0BAF85048019AEF
:101CD000009906C0002050498860504800680028DC
:101CE00004DD4E480068401E4C4908604B480068BF
:101CF000002804DA49480068401C48490860474801
:101D0000406845498968884204DD444840680A388B
:101D100042494860414840683F498968884204DA3E
:101D20003E4840680A303D4948603D480068092106
:101D3000C943884205DA3A4800680A3038490860E1
:101D40000CE0374800680A2805DD354800680A3885
:101D50003349086002E0002031490860304840689B
:101D60000921C943884205DA2D4840680A302C49C8
:101D700048600CE02A4840680A2805DD2848406889
:101D80000A382749486002E0002025494860204879
:101D90000068234909684843C1131D484068204A28
:101DA00052685043C013081A1E490860184840681A
:101DB0001B4909684843C11315480068184A52680E
:101DC0005043C01308181749486017484078002846
:101DD00005D1084606C8154802F066F804E0114827
:101DE00006C8124800F0A6FD0D480068002807D17B
:101DF0000B484068002803D10D4948640D4908602C
:101E00001CBD00004406002064000020F3240000F4
:101E10005C0000206C00002064040020740000209E
:101E2000840000207C000020A40300205006002035
:101E3000A80100202800002010B5FFF709FD1D486B
:101E40000078C007C00F002832D055201A49886397
:101E50001A48008F1949098F8903C913401A164976
:101E60004039C8621548008F1449098F8903C91386
:101E7000411A1148403841631048008F0F49098FBB
:101E80008903C913411A0C484038C1630069152100
:101E9000090208430849403908610020064988635F
:101EA0005520886300204861886301200449086048
:101EB00010BD00002D0000204042064064040020B8
:101EC0002800002010B56548806D401C6349886576
:101ED0006349884204DB61484030007F002801D01C
:101EE00002F048FA5F48406C5C4948650846406D1E
:101EF000962807DD032159484030017700205A49D0
:101F0000088039E05548406D962810DC5348406DF4
:101F100064280CDD54480088401C80B25249088077
:101F2000322829DD02214D484030017724E04B481A
:101F3000406D64280BDC4948406D322807DD0121E3
:101F400046484030017700204749088014E0434864
:101F5000406D3121C943884207DC04213F484030AD
:101F6000017700204049088006E000213B484030CE
:101F7000017700203C4908803848806D3849884204
:101F800063DD08463549886508464030007F030018
:101F900003F020FA05041B324D4E5900002033494E
:101FA00008603348406F48603148806F314988602D
:101FB0002F48D030806B304908642D48D030C06B3A
:101FC000486404202D4908603EE00020274908604D
:101FD0002748406F48602648806F2649886024481B
:101FE000D030806B244908642148D030C06B4864ED
:101FF00004202249086027E000201C4908601C4892
:10200000406F48601A48806F1A4988601848D0307D
:10201000806B194908641648D030C06B48640520AD
:102020001649086001210D48403041770CE00BE073
:102030001048406912494018124908650846503056
:1020400002F086F900E000BF00BF0F480078C0072B
:10205000C00F002801D10949086010BDF407002015
:10206000B80B0000A8010020B6000020740000207A
:102070007402002064040020080B002028000020C7
:10208000AB2A0000940A00202D00002010B516484D
:102090000068030003F09EF90A06090C0F121518D8
:1020A0001B1E2124FFF7C8FE1BE0FFF7A1FD18E06F
:1020B000FFF708FF15E0FFF759FC12E000F0FCF80D
:1020C0000FE000F0FFF90CE000F010F809E000F07C
:1020D00001F906E0FFF7F8FC03E0FFF7C3FD00E0BD
:1020E00000BF00BF10BD0000280000201CB501F09B
:1020F000E1F960480068604908605E4800685D4931
:102100004968490040185D49484380135A4948606E
:102110005B48006809684843C11359484068564AFB
:1021200052685043C0130818564908605448006864
:10213000514949684843C113514840684E4A1268A2
:102140005043C013081A4F49486001F015FC4E482F
:102150004169684601F074FE4948019A009906C039
:102160004A488079002805D1494908604648806876
:10217000486001E000F0F4FA44480078012802D0F9
:1021800000F060FB0FE000F0ABFC3F48406D4149C0
:102190004860084640684049C968884203DD3E48B7
:1021A000C0683C494860364800683A490968484375
:1021B000C11333484068374A52685043C013081A65
:1021C000364908602E484068324909684843C113BF
:1021D0002B4800682F4A52685043C01308182F49F3
:1021E00048602A48C079002807D1084600682C4971
:1021F00008602A48406848600FE0FFF7C3F92748A5
:1022000000682849896840182549086023484068C3
:102210002449C9684018224948601C484078002871
:1022200005D11F4806C8204801F03EFE04E01C48C6
:1022300006C81D4800F07EFB1C480078C007C00F90
:10224000002807D0194880781949097F8906C90FE5
:1022500088420ED00D480078012807D10D4840680B
:102260000D498861074840680949486007201149BD
:1022700008601CBD4406002064000020F324000018
:102280005C0000206C00002064040020A4030020F7
:102290007400002084000020F40500207C00002051
:1022A00094000020E80A0020500600202D000020A5
:1022B000740200202800002010B50548007800288E
:1022C00002D100F005FF01E001F032FC10BD00007A
:1022D0003C8000001CB56E4800686E4908606C4880
:1022E00000686B494968490040186B4948438013AE
:1022F000684948606948006809684843C1136748ED
:102300004068644A52685043C01308186449086022
:10231000624800685F4949684843C1135F484068A4
:102320005C4A12685043C013081A5D49486001F0C6
:1023300023FB5C484169684601F082FD5748019AD9
:10234000009906C000205749886057480068002857
:1023500004DD55480068401E534908605248006833
:10236000002804DA50480068401C4F4908604E4875
:1023700040684C498968884204DD4B484068401EEB
:10238000494948604848406846498968884204DAB3
:1023900045484068401C44494860444840687D21A5
:1023A000C90088422EDA41480068002805DA3F4813
:1023B0000068401C3D4908600CE03C48006800286B
:1023C00005DD3A480068401E3849086002E00020F8
:1023D0003649086035484068002805DA33484068C7
:1023E000401C324948600FE030484068002805DD55
:1023F0002E484068401E2D49486005E000202B49CA
:10240000486001E000F01EFA244800682749096886
:102410004843C11321484068244A52685043C013BE
:10242000081A234908601D48406820490968484344
:10243000C1131A4800681D4A52685043C013081857
:102440001B4948601B484078002805D1084606C84B
:10245000194801F029FD04E0154806C8164800F0A7
:1024600069FA01F0A1FE1348007801280FD10F4846
:1024700040681249C8600D4840680A4948650B48E1
:10248000406880030E4908620848406888611CBDA6
:102490004406002064000020F32400005C000020BB
:1024A0006C000020640400207400002084000020E0
:1024B0007C000020A403002050060020CC04002053
:1024C0001C0600201CB500F0F5FF904800689049FC
:1024D00008608E4800688D494968490040188D4958
:1024E000484380138A4948608B480068096848431C
:1024F000C11389484068864A52685043C01308187F
:102500008649086084480068814949684843C11386
:10251000814840687E4A12685043C013081A7F49B8
:10252000486001F029FA7E484169684601F088FC5C
:102530007948019A009906C07A480068002804DDAD
:1025400078480068401E774908607648006800288F
:1025500004DA74480068401C724908607148406899
:102560006F498968884204DD6E484068401E6D49A5
:1025700048606C4840686A498968884204DA69485A
:102580004068401C6749486000F05CF96248006898
:10259000654909684843C1135F484068624A526808
:1025A0005043C013081A614908605B4840685E499F
:1025B00009684843C113584800685B4A5268504351
:1025C000C0130818594948605948C079002807D1F4
:1025D000084600685749086054484068486013E05E
:1025E000FF20913054494860FEF7CCFF4F48006807
:1025F0005149896840184F4908604C4840684E4925
:10260000C96840184B49486049484078002805D1BE
:10261000484806C8494801F047FC04E0454806C858
:10262000464800F087F93E488069401C3C49886173
:102630004349496F884205D24248406C4149896A02
:10264000884250DD3E48406F354988613C487830CB
:10265000406B08653A482830006D3B4908603848AF
:1026600078304068486036487830006937490860FB
:1026700033487830406948602D48007800280DD1F3
:102680002F487830006A324908602D487830406A17
:1026900048602C48006B2F49C8601DE02448007832
:1026A000032804D12748C0682A49C86014E020489C
:1026B000007801280CD11C4840682649C8601A4897
:1026C000406817494865184840682149886103E017
:1026D000144840681F49C86001F0CCFF01F012FEA9
:1026E00006201D4908601D480078C007C00F00285B
:1026F00008D01A48807812495839097F8906C90FCD
:10270000884202D00720144908601CBD44060020FE
:1027100064000020F32400005C0000206C00002016
:102720006404002074000020840000207C0000204D
:10273000A403002094000020E80A00205006002096
:10274000CC020020A8010020CC050020F4050020C8
:102750001C060020CC040020280000202D000020B2
:1027600030B583B00021304B0091019102919878EF
:10277000401CC0B298702D4C2D4AA58DA8423DD961
:1027800099702C4908684043C31348684043C013FC
:102790001818014600900120C003814201DC084660
:1027A00000E000908011019023494000085A0190F8
:1027B000206C0199401A02905068029B916958431D
:1027C000C013081890615169884201DC014600E09D
:1027D00091611069814200DA9061106891698010FE
:1027E000584340134018D061D168884201DC01464B
:1027F00000E0D1619068814200DAD0616846D16919
:1028000001F01EFB0848019A0099C26281620B49DF
:10281000A0684A684243D313094A136009684843D1
:10282000C013506003B030BDE000002064040020FD
:10283000CC070020840000209455000008010020EF
:102840007400002030B53349334B08681A68334DA3
:10285000801A6A68AC69921042435213A218AA61A6
:102860006C69A24201DC144600E0AC612A69944222
:1028700000DAAA612A68D21042431013AA698018AC
:10288000E861EA68904201DC024600E0EA61A8687B
:10289000824201DB104600E0E861214D214A2860B8
:1028A0004043526BC013101A80111F4A4000105A47
:1028B0001E4AD060506149685B689469C91A5368C0
:1028C0009B104B435B13E3189361834201DD034686
:1028D00090611C4613699C4200DA93611368DB1017
:1028E0004B4319139369C918D161814200DDD0614E
:1028F000D1699068814201DB084600E0D0616860E0
:102900000B480168052902D00068062801D100F0B3
:102910002DFD30BD740000206C000020CC0500208F
:10292000840000206404002094550000F405002079
:1029300028000020F8B5634B55104B431E46DB13AF
:1029400076425B1BF613751B044600261046002AD0
:1029500000DD0126002B00DDB61C002D00DD361D3C
:10296000584A6D42AC4651435F420546CA136B421A
:1029700045104942C913521B491B52424942524217
:102980004942072E19D235007D442D796D19AF4487
:10299000140306090C0E11003D4667460FE065461C
:1029A0001F460CE01546074609E01D4607E00546B0
:1029B0000F4604E00D46174601E000252F46424829
:1029C000E919006B81420ADB684301F033FE0546DA
:1029D000C1193D48006B784301F02CFE07463B4887
:1029E000007F000706D40120C003401BC01B41101C
:1029F000C81901E0002138464219072E1DD23300C4
:102A00007B441B79DB189F44180306090D10140042
:102A1000A260606004E06260A16008E06260A060A3
:102A2000E16010E06160A06005E0A2606160E060CC
:102A300009E0A1606060E26005E001208003606061
:102A4000A0600126E0606761256126702048214B67
:102A500046785520152500241F4A20492D02002EB6
:102A6000986319485668008F15D046437600360C97
:102A7000861B4E63966846437600360C861BCE62F4
:102A8000D26842435200120C801AC8630869284376
:102A900008619C63F8BD46437600360C861BCE6207
:102AA000966846437600360C861B4E63D2684243D6
:102AB0005200120C801AC8630869284308619C639D
:102AC000F8BD0000DA6E00006404002074020020EB
:102AD0002D000020404206405006002000420640E3
:102AE0002148224900680968214B401A59689A69AF
:102AF000891041434913511899615A69914201DC87
:102B00000A4600E09A6119698A4200DA99611968F7
:102B1000C9104143081399694018D861D96888429F
:102B200001DC014600E0D9619868814201DB08467A
:102B300000E0D8610F4908600F494043496BC0135A
:102B4000081A80110D494000085A0D49C8604861B3
:102B50000C480168052902D00068062803D100B599
:102B600000F004FC00BD7047740000206C000020E1
:102B7000CC0500208400002064040020945500004F
:102B8000F40500202800002030B40D4A002194698B
:102B90000B468A00121880321568AC4204DD526878
:102BA000944201DA0B4603E0491CC9B20629F0D36E
:102BB00004490A689A4200D103700B6030BC704728
:102BC000FC03002010010020F8B50446B14800F0D5
:102BD000CBFDB148FFF7D8FFB04A25465078803585
:102BE0000028AF4B20780AD0C100AE4808184068D2
:102BF00028636079AC4E0027002805D01DE0C00096
:102C0000C01840682863F4E701206071A749286B69
:102C10004861B04203DBA6494118A44841612661DE
:102C20006661A661E66126626662A662E6626E651C
:102C3000AE65E76727712078A070A0782178884278
:102C40007ED05278002A0CD0964BC900C91849682A
:102C5000984A91420BD1C000C0184068081A8019E8
:102C600009E0C900C9184968924A9142F3D0C000EE
:102C7000C0184068081A904940189049884212D2FA
:102C80008F4A277190688F49081A8008E060516068
:102C9000E06F401CE067012808D821616161A161F3
:102CA000E161A96481E001202071A5E0022809D832
:102CB0002661E06841006161A161E0610818400897
:102CC000A86472E0032813D860692061E168E069B4
:102CD000814201D9616100E06061E161A0616269E6
:102CE000101840180321686401F0A4FCA86459E09E
:102CF000052812D863692361A2696261E169A16153
:102D0000E068E0612062606208189A1810180421D7
:102D1000686401F08FFCA86444E006281BD863694E
:102D20002361A2696261E069A061216A8646E1616E
:102D3000606A206284469B187144E0685A1800E07B
:102D40005CE061465118606208180621686401F071
:102D500071FCA86426E0072804D8A86A282805DCA6
:102D6000062002E0182801D91820E067616920696F
:102D7000E2694018A16989184018216A4018616AFF
:102D800040180621686401F055FCA8646069206160
:102D9000A0696061E069A061206AE061606A206208
:102DA000E0686062E06F062802D84048296B416104
:102DB0003E48296B4069081A0121C903E86488422A
:102DC00002DB3B494018E8640121C903C84201DA2B
:102DD0008019E8643C49884202DC4942884200DAB2
:102DE000E964E96C286D1E224843A96C514301F047
:102DF00021FC6865A86CA8652078A070A96DB14217
:102E000007DA286C01F016FCA862696D4018686248
:102E100002E0AF6238466F6200F014FB234AD064D0
:102E2000686A6863216F884201D3014600E06963E4
:102E3000606F814200D968632079244B01280FD04C
:102E4000E06F062820D8296B5069994212DB194996
:102E5000884213DDCB431E4CC318A34212D90DE0A8
:102E6000286B984201DB576102E01249401850611B
:102E7000E767F8BD144BC918884203DA696B40183C
:102E80005061F8BD5161F8BDA86A1E28F0DB506999
:102E9000F4E70000080B0020E40400202D000020CF
:102EA0002C0700206C070020FFFF000064040020B6
:102EB0000100FFFF55150000AAEAFFFFAA2A000043
:102EC00000100640B2050700AB2A0000AAEA000085
:102ED000FF7F0000F8B54A490446484D00208B6941
:102EE00002468100491980310E68B34204DD496809
:102EF0008B4201DA024603E0401CC0B20628F0D340
:102F000040480168914200D12A7002603E4825463F
:102F100042783E4B80352078002A17D0C000C01878
:102F200040682863A0782178394E002788424DD028
:102F3000002A11D0C900C9184968364A914212D1F5
:102F4000C000C0184068081A801910E0C10032485B
:102F5000081840682863E5E72F4BC900C91849687D
:102F60002C4A9142ECD0C000C0184068081A2B4986
:102F700040182B49884225D22A4927718A682A4855
:102F8000821A9208E260486061692069E26940182B
:102F9000A16989184018216A4018616A4018062101
:102FA000686401F047FBA86461692161A1696161FE
:102FB000E169A161216AE161616A2162E16861629E
:102FC000A86501E0012020712078A070A96DB142B0
:102FD00004DA286C01F02EFBA86201E0AF626F6298
:102FE0002079A96A0128A06F03D04843C00BA060D4
:102FF000F8BD4843C00B4042F9E70000E40400205C
:10300000FC030020100100202D0000206C07002090
:10301000FFFF0000551500002C070020AAEAFFFF63
:10302000AA2A000000100640B205070010B50348A8
:10303000416E03484069FEF7B5FB10BD080B002048
:1030400064040020F8B50026054646708035044625
:10305000EE620A206E632067642060671648174995
:10306000406D3746484340102864009014488068FB
:1030700041001448FDF796F8A06727716771AF62A9
:103080006F62EF6400980A2148430C4901F0D2FABC
:1030900028650D486865A8650C49E767B0004318C6
:1030A0000A585B680019D21852108030761CF6B2AC
:1030B0000260072EF2D3F8BDA8010020AB2A000061
:1030C0007402002020651100FFFF0000AC07002003
:1030D0000EB58E4800688E4908608C4800688B49A0
:1030E0004968490040188B49484380138849486023
:1030F0008948006809684843C11387484068844A82
:1031000052685043C0130818844908608248006818
:103110007F4949684843C1137F4840687C4A126828
:103120005043C013081A7D4948607D48FFF74CFDA5
:103130007C4840697C49884204DD7A484069401AED
:103140007849486177484069002805DA7548406940
:1031500075494018734948617248416901A800F0F7
:103160006FFE6D48029A019906C06E48C08C401CE3
:1031700080B26C49C884498D884222DD00206949AB
:10318000C8846A4841686A48806F814204DD6748A4
:103190004068401E65494860644841686448806FE3
:1031A000814204DA61484068401C604948605F48D9
:1031B00041685F48806F814203DD5D48806F5B49F5
:1031C000486056480268594801685A4801F04FFE65
:1031D00059490860084602F0E9F85849C8604F4864
:1031E000426852484168554801F041FE52494860E2
:1031F00008464068009008460368474806C801A88A
:1032000001F01CFF4E48029A019906C04D484078D3
:10321000002805D14A4806C84B4800F045FE04E0A6
:10322000474806C84848FFF785FB4848406C47496F
:103230004969884205DD46480088401C44490880A9
:1032400007E000204249088042480068401C41498C
:1032500008603F4800881921C90188420FDD00201D
:103260003B4908803B490860304840682D498860E8
:10327000FFF7DCFE01F0FEF905203749086037480A
:103280000078C006C00F002815D13548C068314904
:103290000968884224D200202D4908802D49086001
:1032A000304800784021884340302E490870012082
:1032B0002D49086014E02A48406926490968884277
:1032C0000ED2002022490880224908602548007853
:1032D00002218843801C234908700320224908608A
:1032E0001E480078C007C00F002807D01B48807810
:1032F0000F49097F8906C90F884206D0002014496A
:10330000088014490860144908600EBD4406002076
:1033100064000020F32400005C0000206C0000200A
:10332000E404002064040020FFFF0000740000207B
:1033300074020020CC05002084000020F405002049
:103340007C000020A403002050060020A8010020DB
:10335000B8000020BC000020280000202D00002024
:10336000140200202C0000202400002070B4294DFD
:10337000294A69682868884202DC1078800747D5A6
:10338000264C23682649062B486C02D14B6A98428A
:1033900009DB2368052B03D149690A39884202DB1E
:1033A0001078800734D51F4A00211F481160836FB1
:1033B000AB605368406F834200DA50601B48A961DC
:1033C0001B4B02681A6042685A60C2689A60D960F2
:1033D0001A615961174E0269326042697260C269AE
:1033E000B2608369F36073613261134A036A936266
:1033F000406A11635163D062686910650F481022FA
:103400008164C1640E48017811430170042020607A
:1034100070BC7047640400202C00002028000020AD
:10342000A80100207400002074020020F402002093
:10343000CC050020F4050020940A0020080B002091
:103440002D000020F0B4134900230C68124F134ADA
:1034500001B2002C12D013885C003D5F56683953CE
:10346000751B28185B1C506098B21080FF2801D98A
:10347000002010805068F0BC001270475C00395387
:103480005B1C9BB2FF2BF9D900025060002010801A
:10349000F0E70000280000205C0800201401002054
:1034A0000348002141600170816241637047000060
:1034B0005C0A00200EB533480068002802DB314862
:1034C000006802E02F480068404202902D484068A2
:1034D000002802DB2B48406802E02A48406840424E
:1034E000019028488068002802DB2648806802E0B6
:1034F00024488068404200902348006A029988422C
:1035000009DA224800780821884308301F490870EA
:1035100003201F4908601C48006A0199884209DAA3
:103520001A48007808218843083018490870032099
:10353000174908601448006A0099884209DA13485C
:10354000007808218843083010490870032010498A
:1035500008600D48806A0299884202DA0A49029896
:1035600088620948C06A0199884202DA06490198CE
:10357000C8620548006B0099884202DA0249009847
:1035800008630EBD44060020400200202C000020ED
:103590002400002070B42548254A01681160416864
:1035A0005160C36800219360D16051619161D16124
:1035B000136111621F4A0369136043695360C36951
:1035C00093608469D4609161D16154611361116227
:1035D000826F5400184A1460184A036F1360436FD7
:1035E0005360174B1B689360C56FE010154CD56096
:1035F000A66B46433613F3181361E36B916158438E
:103600000013D1614019116250617D220E48D20031
:103610000260642242600D4A8260C1604161816142
:10362000C1610261016270BC70470000F4020020B9
:10363000CC050020F40500201C0100201C06002001
:1036400074030020A8010020CC07002000C0FFFF69
:103650008160C36882689A420DDD0368C268D2182F
:1036600083689A4204DC0368C268D218C26013E01F
:103670008268C26010E0C36882689A420CDA4368CC
:10368000C268D21A83689A4204DB4368C268D21ABD
:10369000C26001E08268C2607047000010B52B482C
:1036A000C0682B49486029488168294881602948B9
:1036B0000078002800D003E02448816A2448816112
:1036C000FDF7E4F9224840682149496B401A204936
:1036D000C96C484380121E49C86108468168806BE6
:1036E000081A1B49C96C48438112194801621A48DB
:1036F000407800280FD11648C06940421749086039
:103700001348006A404248601148C169006A0818BD
:10371000124988600EE00E48C06940420F49486077
:103720000B48006A404208600948C169006A0818ED
:103730000A49886007480078002806D108480068D0
:10374000042802D00748FFF7C5FB10BD8080064063
:10375000FC0300203C8000002D00002044060020D7
:1037600028000020E4040020F0B5764B764904469A
:1037700018680A6883B05043C213626158680968C8
:103780004843C3137149A3610868E0614968216235
:10379000256868438013101A694360628813181AF9
:1037A000A0622069E168C00300F044FF0146A06DFB
:1037B000002801DB861001E0821056428E4200DABA
:1037C0000E46411C624F03290AD34110B00300F09A
:1037D00031FF0546B84201DD3D4602E0C82D00DA62
:1037E000C825A068012201467143C913D203891874
:1037F0004003009100F01EFF0646012000070099DB
:1038000000F018FFA16A02460B466B43606ADB13A7
:10381000C3186843C013081AE16A7343514349133C
:103820005B13C918E162236B704353435A1340136F
:10383000121822636368E06958438013081A6063B2
:10384000216A59438913511A424AA1631368526885
:1038500059435043C913C013081AE063B84201DD4D
:10386000E76303E03C49884200DAE163E26B606CA5
:10387000A16C5043C0134118A164206D814201DD49
:10388000A06403E0636D994200DAA364216C4A43AB
:10389000D113A26C8918E164814204DC606D81421D
:1038A00001DBE06C00E0E064E16DC203521A9212A9
:1038B0005118E165C913C92251438911A165A16855
:1038C000264D4843C0132066616E254A081860667D
:1038D000A968491CA960002802DA8018606626E001
:1038E000904224DD1F4A801860661F48407A0128F4
:1038F0001DD168680022081AAA6069602860002942
:1039000009D06422504300F095FEE8601748006833
:10391000062802D00BE0EA60F8E71548E968406A3B
:10392000884204DA13480178022211430170684684
:10393000616E00F085FA019900986961286103B011
:10394000F0BD00007C000020A801002064000020E1
:1039500030750000A0010020D08AFFFF90010020F8
:10396000FFFF00000100FFFFA4030020280000204B
:10397000400200202C00002070B53C4801683C4DFE
:103980003C4C042917D000683B4E052823D0304614
:10399000FFF7EAFE706E216D40186061306EFFF730
:1039A00051FDE064706E286560693449002857DA7B
:1039B0004018606170BD2E48FDF744FD2E48FFF7AA
:1039C000D3FE286D6061E18D686C00F033FEFFF777
:1039D00039FDE064E8E72A49A06988421BD32648FC
:1039E000FFF7C2FE726E206D264B11186161D97807
:1039F000491CC9B2D97001290BD90021D9702249BB
:103A00004968884201DA401C2065884201DD401E79
:103A100020652A6514E01D48407F00281AD11C4803
:103A2000007A002816D01248FDF70CFD1248FFF767
:103A30009BFE286D6061E86A642801DA401CE86238
:103A4000306EFFF7FFFCE06412481349806DC860D8
:103A50004861A9E70848FFF787FE706E6061EFE7ED
:103A60008842A7DD0D494018606170BD2800002024
:103A7000940A002064040020080B0020FFFF0000CF
:103A8000B80B0000E0000020740300203408002080
:103A9000A4030020F4020020CC0500200100FFFF59
:103AA00010B5FDF791FC00F001F810BD70B51A4C8F
:103AB00000256561A561E56125626562A562E56233
:103AC00025636563A5631548E563016B8910216073
:103AD000416B89106160816BA160C06BE060104830
:103AE00049100269226182682264C068A564E564A5
:103AF00060640C48C06CC00300F09CFD20656566E6
:103B0000A566A565E5650848256660650748056002
:103B100045608560C56070BD080B0020B0030020C3
:103B200074030020A8010020D08AFFFF900100202C
:103B30001CB5FFF7BFFCA8480068A8490860A64864
:103B40000068A549496849004018A54948438013C1
:103B5000A2494860A348006809684843C113A148C6
:103B600040689E4A52685043C01308189E49086036
:103B70009C480068994949684843C113994840687E
:103B8000964A12685043C013081A97494860FFF7D5
:103B9000F3FE96484169684600F052F99148019A4F
:103BA000009906C09148C08C401C80B28F49C884DF
:103BB000498D884221DD00208C49C8848C484068AA
:103BC0008968884204DD8A484068401E8849486008
:103BD0008748406885498968884204DA8448406893
:103BE000401C83494860824841688248806F814216
:103BF00003DD8048806F7E494860FEF723FE7948E8
:103C000000687D4909684843C113764840687A4A8C
:103C100052685043C013081A7849086071484068D8
:103C2000754909684843C1136E480068724A526872
:103C30005043C0130818714948607148C079002882
:103C400007D1084600686F4908606C4840684860C2
:103C500013E0FF2091306C494860FDF793FC674802
:103C60000068694989684018664908606348406887
:103C70006549C96840186349486061484078002830
:103C800005D1604806C8614800F00EF904E05D48BF
:103C900006C85E48FEF74EFE5D48406C5C494969C7
:103CA000884205DD5B480088401C5A49088007E0CF
:103CB00000205849088058480068401C5649086050
:103CC000564800788007C00F002805D15448007876
:103CD000C006C00F002811D04D48406C51490968FA
:103CE000884205DB4A48406C4F490968884205DD37
:103CF0004E480068401C4D49086008E04B48006889
:103D0000002804D049480068401E484908604148DE
:103D100000881921C901884212DD00203D49088030
:103D20003D49086032484068304988603148583021
:103D3000806C3F49886200F09DFC05203D49086089
:103D400037480078C006C00F002815D13A48C0682F
:103D500031490968884226D200202E4908802E4920
:103D600008602E4800784021884340302B49087075
:103D700001203249086016E02F4840692B49096844
:103D8000884210D20020234908802349086027492F
:103D900008602248007802218843801C1F4908706F
:103DA0000320264908601E480078C007C00F00287D
:103DB00007D01B4880780F49097F8906C90F8842C0
:103DC00008D000201349088013490860174908608B
:103DD000184908601CBD0000440600206400002053
:103DE000F32400005C0000206C000020640400202C
:103DF0007400002074020020840000207C00002059
:103E0000A403002094000020E80A002050060020AF
:103E1000A8010020C0000020C40000202C000020C9
:103E20002D0000208480000080800000C800002059
:103E3000940A002028000020140200202400002002
:103E4000F0B40124E4030C192404A50D0324240276
:103E500025400124E403091989040C0E6100FF27A1
:103E60003C1B104E6400002D0FD0FF3D6D1E11D085
:103E7000FF3D6D1E03D0FF3D012D0ED102E0735EAC
:103E8000325F0AE0335F715E02E0715E4B42315F88
:103E90004A4202E0325F5342725E43600260F0BC0D
:103EA0007047000094590000F0B5B84B55104B43D3
:103EB0001E4676429B13B6135B1B761B04460025F9
:103EC00083B01046002A00DD0125002B00DDAD1C6B
:103ED000002E00DD2D1D7642B446AC4E47107143D6
:103EE0008E468913CA1B714649428913C91B494230
:103EF00052424F425B4252424142072D19D22E009C
:103F00007E443679B619B744140611030B090E0026
:103F10001646074610E01E4667460DE006460BE0D3
:103F20000E461F4608E03E46174605E066460F4629
:103F300002E000263746012595482570006BF119EF
:103F400081420ADB704300F075FB0646C1199048B8
:103F5000006B784300F06EFB07468E48007F000739
:103F600006D40120C003801BC01B4210D11901E000
:103F70000022394622630192626388190092A1638C
:103F80002064E163844660648148F219808F4300B5
:103F90009A4210DBB04205DD801B80B20A18081A75
:103FA000A26306E0B8421BDDC01B80B20A1A0818E3
:103FB000A263E06314E07649B04206DD801B80B264
:103FC0006246121A604422646064888FB84207DD3A
:103FD000C01B019980B2091821630099081A606317
:103FE0006D48216B814200DD2063616B814200DD01
:103FF0006063A16B814200DDA063E16B814200DD63
:10400000E063216C814200DD2064616C814200DD4F
:104010006064206B002801DA00202063606B0028B8
:1040200001DA00206063A06B002801DA0020A063A1
:10403000E06B002801DA0020E063206C002801DA40
:1040400000202064606C002801DA002060640126F2
:10405000206BF603311A4E48226C078FB21A79434F
:104060004800000C8446606B7A43301A7843400065
:10407000010CA06BBE46301A78434000030CE06B85
:104080005200301A7843676C4000F61B77467E4337
:104090007600000C120C360C072D37D22F007F440F
:1040A0003F79FF19BF44320B2B031B132300E6613A
:1040B0002362A26160626246A262E16226E06662F9
:1040C000A3612262E0616246A262E1621EE065468F
:1040D0006662A561A3622262E161E06216E0654664
:1040E000E662A5612362A262E16160620EE0A36103
:1040F000E0616346E6622362A262616206E0E66115
:10410000A2616246A36222626162E062234A55278D
:104110005378244E224A002BB763A58BA36920D085
:104120002D042B435363A58C236A2D042B43D362A8
:10413000A36AA48D24042343D363136915242402A2
:10414000234313610022B263B763114A528F891A65
:1041500089B2F161801A80B230620020B06303B08E
:10416000F0BD2D042B43D362A58C236A2D042B4371
:104170005363A36AA48D24042343D36313691524D2
:104180002402234313610022B263DDE76D37000090
:104190006404002074020020FF7F00002D00002036
:1041A0000042064040420640494880784949097F1C
:1041B0008906C90F884209D04748406C4649C96AF8
:1041C000884202DA0820454908607FE04448407987
:1041D00000280CD00120424988713F48406C3E497C
:1041E000C96A884272DA08203C4908606EE03C489F
:1041F0008079002809D03848406C3749C96A88421C
:1042000064DA08203549086060E03348406C324980
:10421000096A884210DC33480068401C3149086054
:1042200031498968884251D900202E4908602A49BD
:1042300048642A49086049E02C4840687D21C9004B
:10424000884234DD22480078C007C00F00283DD0E6
:104250001F4880781F49097F8906C90F884235D1D8
:1042600000202349C861086222480078002804D150
:104270001948006B2049C86015E01E4800780328E3
:1042800004D11548C0681C49C8600CE01948007882
:10429000012804D1154840681749C86003E0174851
:1042A00040681549C86006200C4908600EE00D48BA
:1042B0000068401C0B4908601149884206D900205B
:1042C00008490860044948640449086070470000D0
:1042D0002D00002074020020A801002028000020EA
:1042E00040020020B00000201402002084000020C2
:1042F0001C060020A4030020CC0400207400002031
:1043000080BB000010B50C4CA16A606C884205DDD2
:104310000A48416E0A484069FDF744FA0948216B92
:10432000806F484308494968890340180749086273
:104330008013886110BD0000A8010020080B002038
:1043400064040020F4020020740000201C060020F9
:10435000054A0168914202DB5342C91801600029F5
:1043600001DA891801607047FFFF000010B500F006
:10437000ABFF10BD1CB53C483C49086400204864B4
:104380003B4800683B49086039480068384949683B
:104390004900401838494843801336494860374837
:1043A000006809684843C11334484068314A52687C
:1043B0005043C013081832490860304800682D493E
:1043C00049684843C1132D4840682A4A126850433F
:1043D000C013081A2A494860FFF7CEFA2348406EF6
:1043E00028494861084641696846FFF729FD234886
:1043F000019A009906C000202349086048601F48C0
:10440000006809684843C1131C4840681E4A526846
:104410005043C013081A1D490860184840681A49DB
:1044200009684843C11315480068174A5268504349
:10443000C01308181549486015484078002805D170
:10444000084606C81348FFF72FFD04E00F4806C8CA
:104450001048FEF76FFA10480078C007C00F002818
:1044600001D10E4908601CBD10270000080B002078
:104470004406002064000020F32400005C000020BB
:104480006C00002064040020840000207C000020D8
:10449000A4030020500600202D000020280000204A
:1044A00010B50446002C08D01020FCF7F3FE620083
:1044B00000210120FCF758FB02E01020FCF7BCFEB5
:1044C00010BD000070B50C46D5B20123A340D9B28F
:1044D0002B0000F07FFF07052747676C7F91AB003B
:1044E000534B1B5C8B43524E3354514B403B1B5C34
:1044F0000B434F4E403E33544D4B103B1B5C8B43A4
:104500004B4E103E33544A4B303B1B5C8B43484E62
:10451000303E3354464B203B1B5C8B43444E203E85
:10452000335483E0424B1B5C8B43414E3354404B2E
:10453000403B1B5C0B433E4E403E33543C4B103BD8
:104540001B5C8B433A4E103E3354394B303B1E5C60
:104550000E431E54364B203B1B5C8B43344E203E97
:10456000335463E0324B1B5C8B43314E3354304B3E
:10457000403B1B5C0B432E4E403E33542C4B103BB8
:104580001B5C8B432A4E103E3354294B303B1B5C43
:104590008B43274E303E3354254B203B1E5C8E43CD
:1045A0001E5443E0224B1E5C0E431E543EE0204B43
:1045B0001E5C8E431E541E4B403B1B5C8B431C4EAB
:1045C000403E33541A4B103B1B5C8B43184E103E3D
:1045D00033542BE0164B1B5C8B43154E3354144B5A
:1045E000403B1E5C8E431E54114B103B1B5C0B4327
:1045F0000F4E103E335419E00D4B1B5C8B430C4E99
:1046000033540B4B403B1E5C0E431E54084B103B77
:104610001E5C8E431E54064B303B1E5C8E431E5464
:10462000034B203B1E5C0E431E5400BF00BF70BDF9
:1046300060000440034A5060916010680007FCD598
:10464000D068704780430640704770477047704796
:1046500070477047704700000020002805DBC20645
:10466000D20E01219140024A116000BF7047000044
:1046700080E200E00020134908700846007802211B
:1046800088431049087008460078042188430D4982
:10469000087008460078082188430A4908700846CF
:1046A00000784021884307490870084600781021A7
:1046B000884304490870002003490870C870887056
:1046C000704700002C0000204002002031480068A4
:1046D000052803D02F480068062823D12E48406CB7
:1046E0002E490968884205DB2B48406C2C49096833
:1046F000884205DD2B480088401C2A49088002E0DA
:10470000002028490880274800880A280DDD00205D
:10471000244908802448007802218843801C2249CB
:10472000087002E000201F49088020480078002817
:104730002ED118480068052803D0164800680628BE
:1047400023D11B48806815490968884205D3184859
:10475000806813490968884205D916480088401CBA
:104760001449088002E0002012490880114800889E
:104770000A280DDD00200F4908800B48007802212F
:104780008843801C0849087002E00020094908801D
:104790007047000028000020A8010020848000004D
:1047A00080800000400000202C0000203C800000A1
:1047B000E40400204200002000B500F047F8FFF7B5
:1047C00085FF00F0BFFA00BD10B50448006800285E
:1047D00003D10349C86CFEF735FE10BD2800002048
:1047E0006404002010B5134AD26C134BDB695A43A2
:1047F0001046114AD16CFBF7D5FC0F4948640846B6
:10480000406C14300D490860084600680C49484364
:10481000C1130948806C0B4A5043C013081806495D
:1048200088640846406C0849C96D484380120249B3
:10483000086310BD64040020A80100204C00002083
:104840006606000099790000FC03002050480068CB
:10485000042807D04E480068052803D04C4800685B
:1048600006287DD14B4800788007C00F002803D070
:1048700049488068002874DD48480078401CC0B270
:10488000464908706428F6DD502008704448806A64
:104890004349C96A4900884206DC4148806A404968
:1048A000096B490088420BDD3D48806A3C49C98953
:1048B000884205DD3A480089401C3949088102E0F8
:1048C0000020374908813648C06A3549896A49005D
:1048D000884206DC3248C06A3149096B4900884287
:1048E0000BDD2F48C06A2E49C989884205DD2C4856
:1048F0004089401C2A49488102E00020284948811B
:104900002748006B2649896A4900884206DC24480A
:10491000006B2349C96A490088420BDD2048006BBF
:104920001F49C989884205DD1D488089401C1C49F2
:10493000888102E000201A49888100201849886295
:10494000C862086308460089642807DC0846408975
:10495000642803DC08468089642817DD002001E014
:1049600011E013E00D4908700D49088148818881E4
:104970000C48007804218843001D0A490870032070
:104980000949086002E000200449087070470000EF
:10499000280000202D000020640400203E0000209C
:1049A000400200202C00002024000020F8B5002048
:1049B0000090CE48C168C06B081ACC49096D4843C5
:1049C0008112CA484162406AC94948600846406845
:1049D000002801DA00204860C5490968C44A5268C5
:1049E0005143C813FBF71FFD0446C24AC24BFBF7F5
:1049F00025FD0646FBF7C0FC0090C0484069C04951
:104A0000081ABB49C9684843C213BC4840690099A9
:104A10004843C0131018B649C860BA480068062851
:104A20007AD1B948007F08218843B7490877B74849
:104A3000007800282ED1B648C068B6490968411AE6
:104A4000AA48C06D96225043801281420ADDB248C6
:104A5000007802218843801CAF4908700020AF49CC
:104A6000088017E0AB480068A949C968401A11D10D
:104A7000AA480088401C80B2A8490880A8498842FA
:104A800008DB0846A5490880A3480078022188432E
:104A9000A14908709F48808C401C80B29D49888441
:104AA000098D88427EDB00209A4988840846016887
:104AB0009748FEF7CDFD9548007802280AD199481D
:104AC0000078002805D10120924908859048C068E7
:104AD0008860CAE08D48007800281ED1914800788F
:104AE00000280CD001208B4908858148C2680846FF
:104AF000816C8D4800F093F986498860B5E00A2002
:104B0000844908857A48026B8148C168864800F06C
:104B1000CFF980498860A8E0BCE07C480078032891
:104B20001CD18048007800280BD00A2079490885DC
:104B30006F48026B416B7C4800F071F975498860E1
:104B400093E00120734908856948C2687048C168CC
:104B5000754800F064F96F49886086E06B4800781A
:104B60000128B6D16F48007800282BD16F484068E3
:104B70006849896D884205DC5D48406C6C4909686C
:104B800088422CDD6348018D3220FBF70BFB69491D
:104B90000988491C89B2674A118088421FDA0120BE
:104BA000604900E075E0087080035F490860FF20FD
:104BB0004830486060484068800308625E4840684A
:104BC00088610CE05248C1685C480068FF38913841
:104BD000814204DA00205349087056490880514840
:104BE000007800282DD000204F4908610846006950
:104BF00088600120474908853D48416C4C48006861
:104C00003238814209DA494842684248816D464853
:104C100000F005F93F4948650EE03548416C4448CD
:104C20000068401F814207DB3148026B416B3E4800
:104C300000F0F5F8374948653648406D3F4908604F
:104C400013E00A20334908853D48008936498860C9
:104C50003B484089C8600846806808610846C068CB
:104C600048612B48C0682B4948652A488068294913
:104C7000C968884203DD2748C068264988602548FE
:104C800080682449096988422FDA2248006921494D
:104C900088602AE00020234908701E49888417484C
:104CA0003038006A2049086014483038406A48604B
:104CB00016480078022803D10120164908850EE025
:104CC00012480078002803D10A201249088506E01E
:104CD0000E480078032802D101200E4908850E48AD
:104CE0000078022188430C490870F8BDFC030020BD
:104CF000A801002052B81E85EB51F43F7403002038
:104D0000FF7F00002800002074020020A403002080
:104D1000CC040020640400202D0000203600002078
:104D200010270000500000201C0600206C0000200E
:104D3000EC8000005200002084000020540000207D
:104D4000200700202F4800682F490969884215D99B
:104D50002E480088401C2D49088008460088642899
:104D600006DD2B4800782021884320302849087030
:104D70000020284908802849088041E0214800682F
:104D800021494969884215D222480088401C21499E
:104D9000088008460088642806DD1D4800788021C8
:104DA000884380301A4908700020184908801A4941
:104DB000088025E0134800681349896988421FD29A
:104DC000104800681049C969884219D912480088FA
:104DD000401C114908800846008864280BDD0C48F7
:104DE0000078202188430A4908700846007880210D
:104DF0008843074908700020044908800549088055
:104E000070470000A801002040020020440000205C
:104E10002C0000204600002048000020704710B4FD
:104E2000891A02684A43D3134268002A19D04A43B8
:104E3000046A51106118016242699203914203DCD5
:104E400002699203914200DA0262016A8913816168
:104E5000C268C9188A4202DD82688A4203DDC261E3
:104E600002E08169F4E7C161C06910BC7047891A2A
:104E7000026892104A435313426892104A435113F6
:104E80008269511842698A4202DB02698A4202DD64
:104E90001146826100E08161C268C9188A4202DD60
:104EA00082688A4201DDC26100E0C161C069704769
:104EB00070B41B4D8B1A2C68E410624312134C43E0
:104EC0002113EA602C694C43E413AC600168C910FB
:104ED0005943CE126E60416800291BD04910056A03
:104EE00059436918016243699B03994203DC0369D2
:104EF0009B03994200DA0362016A89138161A31955
:104F0000C918891AC2688A4202DD82688A4203DDB2
:104F1000C26102E08169F2E7C161C06970BC70479B
:104F20001C01002010B5024601208840C3B20120B8
:104F3000034CE076034810180078184010BD0000BC
:104F4000600804400000044010B501211020FBF768
:104F500079FF6423012202210020FBF7CDFD002010
:104F6000FBF77EFE002211461046FBF7FDFD0022F6
:104F700001211046FBF7F8FD00210846FBF73AFE39
:104F800001210020FBF736FE00BF03200B49087308
:104F900000BF00BF0120087200BF042206210220CA
:104FA000FFF790FA042211460220FFF78BFA002047
:104FB000FBF774FE0020FBF727FF10BD200804401C
:104FC000704770B505460C46002D04D0012D0DD05C
:104FD000022D23D116E0002211461046FBF7C4FD36
:104FE000002201211046FBF7BFFD18E06420021BE0
:104FF00000210846FBF7B8FD642201210020FBF7E1
:10500000B3FD0CE0642200210846FBF7ADFD6420EF
:10501000021B01210020FBF7A7FD00E000BF00BF3D
:1050200070BD0000012803D10121034AD17202E0C2
:105030000021014AD17270470004024070B4039C01
:105040000D4616465D436643ED13F613AD1B5A43FA
:105050006143D213C91351180560416070BC704799
:105060007047704710B515480069012109040843CD
:10507000124908611248007840084000401C10495D
:105080000870FFF799FBFFF79FFBFFF7ABFBFFF7FC
:105090008DFCFBF74FFF0B484088002804DD0948D2
:1050A0004088401E0749488006488088002804DD63
:1050B00004488088401E0349888010BD00E000E05D
:1050C000D00000201402002000B5FBF7EBFE0149E0
:1050D000086000BDD400002000B580201B49487145
:1050E0001A201A49203908732B2048733C208873F2
:1050F0004D20C873002016494860FBF7D3FE1549C0
:1051000008600020C043144908601449086014482E
:1051100014490860114903221202891848600F4996
:10512000891888600D498918C8600C498918086178
:105130000A49891848610949891888610749891805
:10514000C861AC200849487000BD0000200402403E
:1051500000B00140D400002080E200E000E100E067
:10516000C0C0C0C000E400E00010024000B55520FF
:10517000044988633F20000248610020886300F0F2
:105180000BF900BD4042064070B505460C46002CA8
:1051900004D0012C0FD0022C27D119E00220FCF7FB
:1051A0004BF80820FCF748F80120FCF745F80420EC
:1051B000FCF742F81AE00220FCF76CF80820FCF734
:1051C0003BF80120FCF738F80420FCF763F80DE009
:1051D0000220FCF731F80820FCF75CF80120FCF70E
:1051E00059F80420FCF728F800E000BF00BF70BDAC
:1051F00010B5054800F01BF8044803494860012138
:1052000009040348816510BD00100640B20507007F
:105210006405002010B5024800F009F810BD000038
:105220000011064070477047704770477047012172
:105230004161704708B501210420FBF713FE0020EF
:1052400003460322E121490200900C4800F01CF8BB
:1052500000BF01200A49087200BF04221146002045
:10526000FFF730F900BF002005496031087200BF28
:10527000002203211046FFF725F908BD0040064033
:105280000008044070470000FFB581B00446154691
:105290001E460A9FA06980098001A061A169284675
:1052A000304338430143A161044909680809029960
:1052B000FAF76AFFA06005B0F0BD0000D40000203E
:1052C000002101637047000010B5074C248823B209
:1052D000064CE46C22B2064CA46C21B2044C646C03
:1052E00020B200F015F810BD440600206404002030
:1052F000A801002000BF0548006AC007C00F0028B1
:10530000F9D002480068C0B2704700000040064073
:1053100030B51D4C2478082C09DA1C4C1A4D2D7818
:10532000645D1B4D2D886419194D2C8007E0164CC7
:105330002478082C03D1164C2478144D2C72134C6D
:10534000114D2D78645D134D6C600F4C2478641CF6
:10535000E4B20D4D2C70092C14DB00242C700C4D84
:105360002C800A4D28700404240E6C70A9700C0463
:10537000240EEC702A711404240E6C71AB711C04A1
:10538000240EEC7130BD000058000020C005002044
:105390003C000020004006400348007840084000E0
:1053A00001490870704700002D000020006881B09E
:1053B0004043C013009005480099406B401A80118B
:1053C000009003494000085A01B07047640400206F
:1053D0009455000030B47446641E2578641CAB42BA
:1053E00004D3635D5B00E31830BC18471D46F8E743
:1053F00010B5002819DB1A4A03231B02D2188308B0
:105400009B00D2588307DC0EFF23A3409A438B07EF
:105410001B0E8407E40EA3401A43114B03242402FD
:105420001B198408A4001A5118E00E4A03071B0F29
:10543000083B9B089B00D2588307DC0EFF23A34048
:105440009A438B071B0E8407E40EA3401A43054BB7
:105450000407240F083CA408A4001A5110BD000042
:1054600000E100E01CED00E010B5002819DB1A4A4D
:1054700003231B02D21883089B00D2588307DC0E3B
:10548000FF23A3409A438B071B0E8407E40EA3401F
:105490001A43114B032424021B198408A4001A5137
:1054A00018E00E4A03071B0F083B9B089B00D258CD
:1054B0008307DC0EFF23A3409A438B071B0E840750
:1054C000E40EA3401A43054B0407240F083CA4082C
:1054D000A4001A5110BD000000E100E01CED00E046
:1054E000FFF7F2FD7D21C90025480068FAF74CFE60
:1054F00005462C46601E2349884200D90CE0601EF8
:10550000214948610321081FFFF7AEFF00201E4913
:1055100088610720086100BFFBF74EF9FFF78AFE9C
:10552000FBF736FDFFF710FDFBF7EEFE0022022130
:105530000846FEF7C7FF22E002210846FFF7F2FC0B
:105540001248406880210840C009002817D110483F
:10555000FFF7B6FE00BF55200C49C86208464068F8
:1055600080210843094948600020C86200BF00BF8D
:105570000648406880210840C0090028F8D1DBE7D0
:10558000D4000020FFFFFF0000E000E000800640A4
:1055900000400640A8050008CC09500BA60CDB0D06
:1055A000F70E0010F810E311C312991365142A15B1
:1055B000E915A11653170018A8184C19EC19881AE8
:1055C000211BB61B491CD81C651DEF1D771EFC1E38
:1055D0007F1F00207F20FC207721F1216922DF221C
:1055E0005423C7233924A92418258625F3255E26AC
:1055F000C8263127992700286628CB282F299229E9
:10560000F429552AB52A152B732BD12B2E2C8B2C34
:10561000E62C412D9B2DF52D4E2EA62EFD2E542F22
:10562000AA2F00305530A930FD305131A431F63168
:1056300047329932E9323A338933D93327347634D1
:10564000C33411355E35AA35F73542368D36D83636
:1056500023376D37B737003849389238DA3822396E
:105660006939B039F7393E3A843ACA3A0F3B543B6C
:10567000993BDE3B223C663CAA3CED3C303D733D11
:10568000B63DF83D3A3E7B3EBD3EFE3E3F3F7F3F4E
:10569000C03F004040408040BF40FE403D417C4113
:1056A000BA41F84136427442B142EF422C43694359
:1056B000A543E2431E445A449644D2440D4548450E
:1056C0008345BE45F94533466D46A746E1461B472F
:1056D00055478E47C747004839487148AA48E248AD
:1056E0001A4952498A49C249F949304A684A9E4A88
:1056F000D54A0C4B424B794BAF4BE54B1B4C514CB5
:10570000864CBC4CF14C264D5B4D904DC54DF94D32
:105710002E4E624E964ECA4EFE4E324F664F994FF7
:10572000CD4F0050335066509950CC50FE503151FF
:1057300063519651C851FA512C525D528F52C15249
:10574000F252235355538653B753E85318544954D0
:105750007A54AA54DA540B553B556B559B55CA5590
:10576000FA552A5659568956B856E7561657455788
:105770007457A357D15700582E585D588B58B958B5
:10578000E8581659435971599F59CD59FA59285A11
:10579000555A825AB05ADD5A0A5B375B645B905B9C
:1057A000BD5BEA5B165C435C6F5C9B5CC85CF45C55
:1057B000205D4C5D775DA35DCF5DFB5D265E525E37
:1057C0007D5EA85ED35EFF5E2A5F555F805FAB5F44
:1057D000D55F00602B6055608060AA60D460FF6078
:1057E000296153617D61A761D161FB6125624E62D0
:1057F0007862A162CB62F4621E634763706399634F
:10580000C263EC6314643D6466648F64B864E064EE
:10581000096531655A658265AB65D365FB652366AD
:105820004B6673669B66C366EB6613673A6762678F
:105830008A67B167D967006827684F6876689D688E
:10584000C468EB681269396960698769AE69D469AF
:10585000FB69226A486A6F6A956ABC6AE26A086BE9
:105860002F6B556B7B6BA16BC76BED6B136C396C3E
:105870005F6C846CAA6CD06CF56C1B6D416D666DB1
:105880008B6DB16DD66DFB6D216E466E6B6E906E3D
:10589000B56EDA6EFF6E246F496F6D6F926FB76FE2
:1058A000DB6F0070257049706E709270B670DB709F
:1058B000FF70237147716B719071B471D871FC7175
:1058C0001F72437267728B72AF72D272F6721A7362
:1058D0003D7361738473A873CB73EE731274357464
:1058E00058747B749E74C274E57408752B754E757C
:1058F00070759375B675D975FC751E7641766476AC
:105900008676A976CB76EE761077337755777777EC
:105910009977BC77DE770078227844786678887843
:10592000AA78CC78EE7810793279537975799779AD
:10593000B979DA79FC791D7A3F7A607A827AA37A2A
:10594000C57AE67A077B297B4A7B6B7B8C7BAD7BB8
:10595000CE7BEF7B117C327C527C737C947CB57C5B
:10596000D67CF77C187D387D597D7A7D9A7DBB7D0C
:10597000DB7DFC7D1C7E3D7E5D7E7E7E9E7EBE7ED2
:10598000DF7EFF7E1F7F3F7F607F807FA07FC07FA5
:10599000E07FFF7F0000C90092015B022403ED035A
:1059A000B6047F0548061107D907A2086A09330A19
:1059B000FB0AC40B8C0C540D1C0EE30EAB0F7210C3
:1059C0003A110112C8128F1355141C15E215A816AE
:1059D0006E173318F918BE19821A471B0B1CCF1CFF
:1059E000931D571E1A1FDD1F9F2061212322E522D0
:1059F000A62367242825E825A82667272628E52842
:105A0000A329612A1F2BDC2B992C552D112ECC2E6E
:105A1000872F4130FB30B5316E322633DF33963479
:105A20004D350436BA366F372438D9388C39403A78
:105A3000F23AA53B563C073DB83D683E173FC53F8F
:105A400073402141CE417A422543D0437A442445D4
:105A5000CD4575461C47C34769480F49B449584A64
:105A6000FB4A9D4B3F4CE04C814D204EBF4E5D4F5D
:105A7000FB4F97503351CE51685202539B533254CF
:105A8000C9546055F5558A561D57B0574258D358DA
:105A90006459F359825A0F5B9C5B285CB35C3E5D92
:105AA000C75D4F5ED75E5D5FE35F6860EB606E6110
:105AB000F0617162F1627063EE636C64E864636567
:105AC000DD655666CF664667BC673268A6681969A9
:105AD0008B69FD696D6ADC6A4A6BB76B236C8E6CEF
