:020000040000FA
:10000000301700204D0100009D530000C94B000037
:1000100000000000000000000000000000000000E0
:100020000000000000000000000000009B5A0000DB
:100030000000000000000000FD5800009D5A000074
:10004000D94B0000CD4B0000CF4B0000D14B00003E
:10005000D34B00003B5D0000D9110000E517000004
:10006000F90C0000890A0000C15D0000CB4B0000C4
:10007000995A0000055D0000295D0000D54B000085
:100080005F010000395D00003D5D00003F5D000044
:10009000415D00005F0100005F0100005F010000A2
:1000A0005F0100005F0100005F0100005F010000D0
:1000B0005F0100005F0100005F0100009518000073
:1000C000EE36E8FF00F002F800F030F80CA030C87F
:1000D000083824182D18A246671EAB4654465D46C4
:1000E000AC4201D100F022F87E460F3E0FCCB6465E
:1000F0000126334200D0FB1AA246AB4633431847D1
:10010000187100003871000000230024002500262B
:10011000103A01D378C1FBD8520700D330C100D5C3
:100120000B6070471FB51FBD10B510BD00F01AFC65
:100130001146FFF7F7FF06F005F900F032FC03B4B3
:10014000FFF7F2FF03BC00F067FC0000084880479F
:1001500008480047FEE7FEE7FEE7FEE7FEE7FEE7AA
:10016000FEE7000004480549054A064B70470000B9
:10017000115B0000C5000000301200203017002085
:100180003013002030130020002203098B4273D368
:10019000030A8B4258D3030B8B423CD3030C8B4294
:1001A00021D312E003460B437FD4002243088B4245
:1001B00074D303098B425FD3030A8B4244D3030BEE
:1001C0008B4228D3030C8B420DD3FF22090212BAB3
:1001D000030C8B4202D31212090265D0030B8B422F
:1001E00019D300E0090AC30B8B4201D3CB03C01A19
:1001F0005241830B8B4201D38B03C01A5241430BF4
:100200008B4201D34B03C01A5241030B8B4201D3E3
:100210000B03C01A5241C30A8B4201D3CB02C01A4E
:100220005241830A8B4201D38B02C01A5241430AC6
:100230008B4201D34B02C01A5241030A8B4201D3B5
:100240000B02C01A5241CDD2C3098B4201D3CB015C
:10025000C01A524183098B4201D38B01C01A52410B
:1002600043098B4201D34B01C01A524103098B420F
:1002700001D30B01C01A5241C3088B4201D3CB00FA
:10028000C01A524183088B4201D38B00C01A5241DD
:1002900043088B4201D34B00C01A5241411A00D28D
:1002A00001465241104670475DE0CA0F00D04942F6
:1002B000031000D34042534000229C4603098B4266
:1002C0002DD3030A8B4212D3FC22890112BA030AEE
:1002D0008B420CD3890192118B4208D38901921170
:1002E0008B4204D389013AD0921100E08909C309F5
:1002F0008B4201D3CB01C01A524183098B4201D3F7
:100300008B01C01A524143098B4201D34B01C01AE1
:10031000524103098B4201D30B01C01A5241C30859
:100320008B4201D3CB00C01A524183088B4201D3C8
:100330008B00C01A5241D9D243088B4201D34B00E3
:10034000C01A5241411A00D20146634652415B1025
:10035000104601D34042002B00D549427047634606
:100360005B1000D3404201B50020C046C04602BD2C
:10037000704770477047000030B50346CA02400D11
:100380001043164D164C0A1502D02043002A06DBF6
:10039000AA1A002A12DDD040FF2A0BDC30BD52051C
:1003A000520D01D140004008AA1A07D4D040404263
:1003B000FF2A01DD002030BD0028FCDD4A00002BB3
:1003C00001D0012000E00020101801225205D04287
:1003D000F0D8C817C043604030BD00001E040000C4
:1003E000000000801F22030C02D10F22000402D063
:1003F000030E03D004E00020014670470002083AD3
:10040000030F01D10001121F830F01D18000921E42
:10041000002801DB4000521E120551184205C0128F
:10042000411810467047C10FC90700D04042012251
:1004300092071143D6E701218907D3E7F0B58B4C2A
:100440000F09254689B0BD437BD01D092646AE4322
:10045000FAD00E465E402740F60F3E43254071D04D
:1004600024012142FBD0FF24AD19A4042D1B0395C8
:1004700001252D05DB02DB0AC9022B43C90A2943EA
:100480001E010901040F130F050121431701880BF9
:10049000820391432D098C46A90B1E438A03954381
:1004A000B30B9A0396433F09BA0B9403A7430296F2
:1004B0002E467E430497B6464E19D7190C46019630
:1004C000544305977E43371B7646BF1B3601B6461D
:1004D000BE0B361900967646BC043719009C01D332
:1004E000641C00946400002F01D001263443029E56
:1004F000049F754366467E430496760034196E0069
:1005000034190094029C019E1C196643751BAE466B
:10051000069465464519059C05956C4359437546F7
:100520000891691A0191049E01465143A41B04914C
:10053000611A009C0791E10605D06109012211436F
:1005400002E072E06EE06109089D00272C0A2D068A
:100550006918049D7C412A0A2D066918019D624193
:10056000AC0DAD026D185441079A910D92025519C8
:100570006141029A644658435443069B059A5A4384
:10058000121A131B9A0E9B015B187A41010B00058E
:10059000C3185141220A200644195A419A4200D2F6
:1005A000491C01204002814203D315230226F64351
:1005B00002E014230326F6432020C51AA94017465B
:1005C000AF40DA400A4320460399D8400914731813
:1005D00019055118039A3843D2075140AC4009D04D
:1005E0000122944006D30022401C5141002C01D12D
:1005F000400840001E4A934212D3012203989206FB
:10060000904207DB0520400709181A480143C01231
:10061000414004E0032040070818C10FC90700202B
:1006200009B0F0BD0020F107FAE705180C464C416F
:1006300011486D42A04115D394181A465A410E48EC
:10064000644290410ED301204A004005824209D302
:100650005A00824206D35940C90F084AC9070020F0
:100660001143DDE700200649DAE700000000FF073C
:10067000FE070000FFFFFF7F0000E0FF0000F07FAB
:100680000000F87FF0B5FF252D04C609C209FF2739
:1006900004462E400137CB093E4348402A402B40B8
:1006A0000746002A6BD0002B69D0AA4267D0AB4224
:1006B00065D0002800DA32460125ED0529432C4398
:1006C00009022002090AD21A4B0C7F24E31A434C78
:1006D000000A7C44E35C7D242404121914145B009A
:1006E000A218884201D3521C00E0400049420C4647
:1006F0005C4324115C43DB016415E318040A5C438A
:10070000C502200D0C4644436419250A5D432303AA
:10071000EC0C0D46654300030019EB184C42A34254
:1007200001D35B18401CD4052018002B07D05B00B8
:10073000C91804D3401C002901D1400840003F21C2
:1007400089048A4209D3002A08DC1106090F04D063
:10075000032149074018C00FC007F0BD0122410026
:10076000120689187F2252069142F6D205214907C6
:10077000C84201D59010F0BDFF20C005F0BD002F8C
:1007800000DA32461648AA4207D2AB4205D2190215
:10079000090E17D0F80FC007F0BDFF2563002D0626
:1007A000AB42F9D84900A942F6D8AB4201D1A942DF
:1007B000F2D0A94201D1002101E061004908D00531
:1007C0000843F0BD1102090EFBD0FF200243D00503
:1007D000F0BD0A460146104654E70000026B0000D7
:1007E0000000C07F10B501469E240002CA15A30771
:1007F000002A02D01843002A04DBA21A002A0CDDCA
:10080000D04010BD1206120E01D140004008A21ABD
:1008100003D4D04040420028F3DDFF2248001206F6
:10082000904201D9002010BDC817C043584010BDE8
:100830000102C21504D00123DB071943002A0ADB99
:100840009E239A1A02D40846D0407047FF224100E6
:100850001206914201D900207047C017C04370476B
:100860001F22030C02D10F2200041CD0030E01D161
:100870000002083A030F01D10001121F830F01D1BA
:100880008000921E002801DB4000521ED205511844
:10089000021251181922904004D3491C002801D19A
:1008A0004908490008467047C10FC90700D04042B7
:1008B000012292071143D3E701218907D0E7000005
:1008C00010B5FF231B0644009C421DD84C009C42DF
:1008D0001AD80346124A0B4307D4401A02D3EFF347
:1008E000008010BDEFF3008010BD081A06D2EFF3B0
:1008F000008001219043C907084302E0EFF3008024
:10090000904380F3008810BD0D231B041A4204D0CD
:100910001146002000F006F810BD00F01BF810BDD5
:1009200000000090C80212D54803400F002804D0F0
:10093000C803C043012188407047EFF300800001E5
:10094000000903210907084380F30088704700204D
:100950007047000010B5024800F02BF810BD0000F1
:100960000000C07F754600F053F8AE4605006946AA
:100970005346C008C000854618B020B5FFF7F2FB0B
:1009800060BC00274908B6460026C0C5C0C5C0C522
:10099000C0C5C0C5C0C5C0C5C0C5403D49008D4625
:1009A000704710B50446C046C0462046FFF7C7FB57
:1009B00010BD10B50C461107090F092904D00A29EA
:1009C0000AD008290CD104E011460820FFF7AAFF3D
:1009D00006E0510606D501E0510601D50120C00709
:1009E000214610BDD10607D501010909CC084907E8
:1009F000000E0006044309E0410F20024907000AE7
:100A00000143200E00061D22D14101430846E7E7BD
:100A100000487047CC11002001491820ABBEFEE70A
:100A200026000200704770B58D180478401CA2079C
:100A3000920F01D10278401C231106D10378401C8B
:100A400003E00678401C0E70491C521EF9D1002BA1
:100A500015D002780C2634408A1A401C0C2C03D086
:100A6000A401121B9B1C08E004782402121B401CEA
:100A7000F8E714780C70491C521C5B1EF9D5A9428A
:100A8000D3D3002070BD000010B555201049486236
:100A90000846006A022188430D4908620846006A38
:100AA000022108430A4908620020486205F07AF8EA
:100AB0000848007840084000401C064908700020A3
:100AC0000549086003200549086001F02FF910BDB1
:100AD00000820640200500201C050020180500208B
:100AE00055200549C8620846806A0020C0438862D4
:100AF0000020C86270470000008006405521064A69
:100B0000D1621146896A012282401143024A9162F0
:100B10000021D162704700000080064010B501211D
:100B2000084600F03DFC1B2306220821002000F0AF
:100B30005FF8002000F048F800F088F8002000F08E
:100B400073F8102000F0B6F803220021022003F011
:100B500079FF202000F0AEF803220121022003F0EB
:100B600071FF0120400400F0A5F8032207210220B4
:100B700003F068FF0120800200F09CF803220221AC
:100B8000002003F05FFF102000F07CF8202000F030
:100B900079F80120400400F075F80120800200F08F
:100BA00071F80820002805DBC206D20E0121914011
:100BB000044A116000BF0121082005F0EFFA00F09F
:100BC000E5F910BD00E100E05521084AD162114667
:100BD0000968012252039143044A116011460968D1
:100BE000014311600021D16270470000008006407F
:100BF00030B555240A4DEC622C462468094D2C4032
:100C0000074D2C600C4614431D042C430443044D33
:100C10002D682C43024D2C600024EC6230BD000096
:100C200000800640F4FF00FC5521074AD1621146BE
:100C30000968C0229143044A1160114609680143C2
:100C400011600021D162704700800640552006499E
:100C5000C862084600680F210902884302490860FB
:100C60000020C86270470000008006405521044AF9
:100C7000D1621146896B814391630021D162704733
:100C8000008006405521044AD1621146C9690143DA
:100C9000D1610021D1627047008006405521044A8D
:100CA000D1621146896B014391630021D162704783
:100CB000008006405521044AD1621146096901436A
:100CC00011610021D162704700800640014605484D
:100CD000406A01228A401040002801D0012070475C
:100CE0000020FCE700800640014602488A00805848
:100CF000704700008080064070B58C488C49486081
:100D00008C488D4948608D4805F0A5F98C480088CD
:100D10007D21C900884205DA89480088401C88493D
:100D2000088002E000208649088086480078002874
:100D300036D085480078002832D0824800780300F9
:100D400005F01EFA061B04080D12161BC8207F4969
:100D5000088013E0FF2037307C4908800EE0FF2038
:100D6000A5307A49088009E079487849088005E08B
:100D70000520C0017549088000E000BF00BF704831
:100D8000008872490988884205DA72480178012092
:100D900004F0B6FD04E06F480178002004F0B0FDD7
:100DA0006D496E48008803F0FFFD6D4908606D498C
:100DB0006D48008803F0F8FD6C4908606C480068D5
:100DC0006C490968401A6C4908606C480078002832
:100DD00006D0012825D0022844D003287DD16AE01E
:100DE0000420FFF773FF002818D055206449C8621B
:100DF0000846806A10210843614988620020C86261
:100E00000420FFF771FF554908800420FFF776FEA4
:100E10005A480078401C5949087001E0FFF760FE0D
:100E200082E00520FFF752FF002818D055205449D2
:100E3000C8620846806A1021084351498862002030
:100E4000C8620520FFF750FF474908800520FFF7DB
:100E500055FE4A480078401C4849087001E0FFF7F9
:100E60003FFE61E01120FFF731FF002820D0552020
:100E70004349C8620846806A102108434049886295
:100E80000020C8621120FFF72FFF05462946284899
:100E900005F038FA0446FFF7A5FC3A49086011202E
:100EA000FFF72CFE35480078401C3449087001E0FB
:100EB000FFF716FE38E00A20FFF708FF00282DD0C4
:100EC00055202F49C8620846806A102108432C49E2
:100ED00088620020C8620A2000E022E0FFF704FFD9
:100EE00005462946144805F00DFA0446FFF77AFC3A
:100EF0001F4908600A20FFF701FE00201F49087003
:100F00002148007864280BDA1F480078401C1E49ED
:100F10000870174800681749086001E0FFF7E0FD16
:100F200002E0FFF7DDFD00BF00BF70BD0AD7A33BA5
:100F30009C060020CDCCCC3DAC06002000400640F5
:100F40007A02002000000020720200207C020020B3
:100F50001202000078020020140000205C02002031
:100F6000E8040020380100205E020020EC0400208C
:100F7000680200206C020020640200207902002038
:100F800000800640600200207E02002055200549B6
:100F9000C862084600681021084302490860002022
:100FA000C86270470080064010B5114800780028DC
:100FB0000AD11048FFF75AFE01208004FFF76EFEA9
:100FC00001200B49087012E00A48FFF74FFE0A485B
:100FD0000078002804D105208002FFF75FFE03E0BF
:100FE00001208002FFF75AFE00200149087010BD61
:100FF000C5050020FFFFFF009C8000000449C96870
:1010000002460832012393401943014AD1607047D8
:10101000C042064030B55524194D6C61002814D1EA
:10102000174C403C24683025AC43154D403D2C60A6
:101030002C4624680D012C43114D403D2C609CB280
:1010400015042C430E4D403D6C60012814D10C4C0E
:10105000403C24693025AC43094D403D2C612C4671
:1010600024690D012C43064D403D2C619CB21504B2
:101070002C43034D403D6C610024014D6C6130BD3B
:10108000C042064010B5AA23204C636100281BD142
:1010900000290BD11D4B403B9B681B0C1B041B4CB8
:1010A000403CA36023469B681343A36001290BD1F6
:1010B000164B403BDB681B0C1B04144C403CE360AC
:1010C0002346DB681343E36001281BD100290BD1C1
:1010D0000E4B403B9B691B0C1B040C4C403CA3611A
:1010E00023469B691343A36101290BD1074B403B66
:1010F000DB691B0C1B04054C403CE3612346DB69A8
:101100001343E3610023014C636110BDC0420640FC
:10111000AA22194B5A61002814D1002908D1164A75
:10112000403A926801231B049A43134B403B9A6058
:10113000012907D1104A403AD2680B049A430E4B5A
:10114000403BDA60012813D1002907D10A4A403A0E
:10115000926903049A43084B403B9A61012907D1E5
:10116000054A403AD2690B049A43034B403BDA618B
:101170000022014B5A617047C042064055210D4A7A
:101180005161002807D10B494039096808221143F1
:10119000084A403A1160012807D1064940390969D7
:1011A00008221143034A403A11610021014A51616A
:1011B00070470000C04206405521064A5161114661
:1011C0000969012282401143024A116100215161E3
:1011D00070470000C04206404F49486989680222B2
:1011E000114000297ED04D49097891434B4A117036
:1011F0000021916111460978C907C90F00296CD1F6
:1012000011464988002908D143494039896989B282
:10121000434A511A414A91604FE0404949880129A7
:101220001DD13D494039896989B23D4A521A3B492D
:10123000CA605521384A51613749403909698908DE
:101240008900354A403A1161114609690322114368
:10125000314A403A116100212F4A51612DE02F4956
:101260004988022908D12C494039896989B22C4A18
:10127000521A2A490A6120E02849498803291CD1C9
:1012800025494039896989B2254A521A23494A6158
:101290005521214A5161204940390969890889004D
:1012A0001D4A403A116111460969022211431A4A46
:1012B000403A11610021184A516118494988491C76
:1012C00089B2164A5180032907DD00215180114659
:1012D000097849084900491C11700F49C968022260
:1012E000114300E015E00C4AD160552151611146CF
:1012F000096902229143084A116100215161552177
:1013000051611146096902221143034A116100210A
:101310005161014948617047C0420640F00C00200D
:10132000E8FD000055210D4A5161002807D10B4905
:101330004039096840221143084A403A11600128A7
:1013400007D106494039096940221143034A403A0E
:1013500011610021014A516170470000C0420640FE
:10136000002905D0054A527C0243044B5A7404E01C
:10137000024A527C8243014B5A7470470008024073
:10138000002905D0054A927C0243044B9A7404E07C
:10139000024A927C8243014B9A74704700080240D3
:1013A000002905D0054AD27C0243044BDA7404E0DC
:1013B000024AD27C8243014BDA7470470008024033
:1013C00000B5C0229178F8221140144A12781143D6
:1013D00013480A46E03A130004F0D2FE0E0A0E1239
:1013E000161A1E1E1E080C1014181C1E0D4813E0A1
:1013F0000D4811E00D480FE00D480DE00D480BE0E1
:101400000D4809E00D4807E00D4805E00D4803E0F0
:101410000D4801E00D4800BF00BF00BD201C024088
:1014200040420F000090D003006CDC020048E8014D
:1014300000366E010024F400001BB70000127A0091
:10144000808D5B0000093D00C0C62D0080841E0019
:1014500010B50D4840680121C9020840C00A0028A3
:1014600011D00A48007802218843084908700020FA
:1014700088610320FFF7C2FD04480078400840005F
:10148000401C0249087010BDC0420640F00C00200C
:10149000002106E0002200E0521C034B9A42FBD3DD
:1014A000491C8142F6D3704710270000552005499A
:1014B00088630846C06840004008C8600020886310
:1014C000704700004042064010B501210820FFF798
:1014D00047FF0221002000F075F80221012000F0F2
:1014E00071F80221084600F06DF80221032000F097
:1014F00069F8002000F0EAF86421002000F084F888
:101500006421012000F080F86421022000F07CF8C2
:101510006421032000F078F80021084600F08EF8DE
:101520006421012000F08AF80021022000F086F8F2
:101530006421032000F082F83F2000F0DDF83F2016
:1015400000F022F90F2000F031F90021084600F0E8
:101550009DF80021012000F099F80021022000F000
:1015600095F80021032000F091F8FFF79FFF00BFDE
:1015700001201349087400BF00BF887400BF00BF7A
:10158000087500BF00BF887500BF0422002103F06A
:1015900059FA04220121084603F054FA04220221D8
:1015A000012003F04FFA04220321012003F04AFA3C
:1015B0000F2000F0DDF80F2000F032F910BD000020
:1015C0000008044010B555220D4B9A630D4A0C4B90
:1015D000403B1A601A46526884000F23A3409A4386
:1015E000074B403B5A601A46526884000B46A340A2
:1015F0001A43034B403B5A600022014B9A6310BDD3
:10160000404206400101010010B555220A4B9A6381
:101610008BB2094A2C3A84001351074A403A1269A6
:101620000346083301249C402243034B403B1A618C
:101630000022014B9A6310BD4042064010B555226E
:10164000114B9A63104A143A8300D258130C1B04AE
:101650000D4A143A840013518300D2588BB21A43B6
:10166000094B143B84001A51074A403A1269034659
:10167000083301249C402243034B403B1A61002263
:10168000014B9A6310BD00004042064010B5552240
:101690000D4B9A630C4A403A1269430010330324FD
:1016A0009C40A243084B403B1A611A461269430012
:1016B00010330C469C402243034B403B1A610022EE
:1016C000014B9A6310BD0000404206405521094A73
:1016D00091630849403989680F2292059143054A70
:1016E000403A916011468968014391600021014AA6
:1016F000916370474042064055211C4A9163C107DF
:10170000C90F002903D102210140002908D017493F
:1017100040398968012212049143144A403A916089
:1017200004210140002903D108210140002908D0EB
:101730000E49403989680122520491430B4A403ACC
:10174000916010210140002903D12021014000298E
:1017500008D0064940398968012292049143034A1E
:10176000403A91600021014A91637047404206402F
:101770005521044A91631146896881439160002193
:1017800091637047404206405521074A91630649DC
:101790004039896802029143034A403A916000212E
:1017A000014A916370470000404206405521064AB5
:1017B00091630549403989680143034A403A916081
:1017C0000021014A91637047404206405521044A76
:1017D00091631146896801439160002191637047CC
:1017E0004042064010B50D48C06AC007C00F00282F
:1017F0000CD00A48006B012108430849086302F035
:10180000BBF900F0B1FE03F01FF805E00348006BE0
:101810000020C0430149086310BD0000404206405B
:101820005521064A916305494039C9680143034A75
:10183000403AD1600021014A91637047404206401E
:1018400010B501211020FFF78BFD64230122022136
:101850001046FFF7DFFB0120FFF790FC3222012149
:101860000846FFF70FFC01210846FFF751FC00BFB7
:1018700004200749887300BF04220721002003F0D9
:10188000E1F80120FFF798FC0120FFF74BFD10BDA8
:101890000008044010B5024804F0DDFB10BD000054
:1018A0000040064010B419480021C1600161416147
:1018B0008161C1610162164C4162226C9310154A2C
:1018C000126853439B134360636C9B1053439B13F9
:1018D0008360A36C53439A1302600F4A136A8362B6
:1018E000536A0163C36241630C4B836301644164C7
:1018F0005B428164C3630165D16A002902DDC16472
:1019000010BC70470121C16410BC7047EC1000206E
:10191000080A0020000800204C0900203075000053
:1019200030B436490B68C3604968016134490A68BC
:1019300042614C688461026C81685143CA138264BD
:10194000416862434B439A185213C2612D4B5203B4
:101950005A60996019680907FCD5D9682A4CC16199
:1019600022782A4D521CD2B22270ED8DAA4243D366
:10197000002222704C424462C16A026B49106143EA
:10198000891389180163826B914200DD0263056B44
:10199000C16B8D4200DA0163856AED1065432C133B
:1019A000056B64194463944201DC224600E0426303
:1019B0008A4201DB114600E0416301640268514341
:1019C000CC134464C16C8C4208DA4164C903596089
:1019D0009A6019680907FCD5D9680164426C016DE9
:1019E00089180B4A0165914202DD5342C91801650D
:1019F000002901DA8918016530BC7047780500209C
:101A0000600500208043064024060020BC0A002018
:101A1000FFFF000010B50E4C00206063A063E06380
:101A200020646064A064E064206560650949A06585
:101A300008774877206608484B2281683220414366
:101A40000648D200006D5043FEF7ACFB606610BD47
:101A50004C0E00208C0E0020CC0800200008002036
:101A6000F0B576480126C379754836040169754892
:101A700083B0406941188A19881B012B35D0724CFC
:101A8000724D2368646864001C196C43704DE41344
:101A90002D68AC465D43EF136D4D6D68AE466543F2
:101AA000ED137F1975465D43EB1365466543EC13F3
:101AB0001B1B684C9C462368674D6B43FF257135A3
:101AC0006F43DB13FD135B1923606368624DFF27CF
:101AD0006B43DD13634671377B43DB13EB186360A5
:101AE000574D00296DDA11466EE0554F00247D6890
:101AF000002D01DA7C6003E0584B9D4200DD7B60E5
:101B0000574D7B68AB4202DB6D42AB4200DD2B469A
:101B10000025002901DA114602E0B14200DD01464C
:101B20005048514A0818904201D2012516E04F480A
:101B3000814201D2022511E04D4E8E19964201D20A
:101B400003250BE04B4E8E19864201D2042505E099
:101B50000120C003081A904200D20525062D2ED27E
:101B60002800784400790018874402060C131822D4
:101B7000FC60BB6003B0F0BD5810B8603E48434302
:101B8000D81312E058104042B8603B484343D81382
:101B90000BE05842B860FC6003B0F0BD5810404202
:101BA000B86035484343D8134042F86003B0F0BDF5
:101BB0005810B86030484343D8134042F5E7BC6042
:101BC000E9E7B14200DD0146684602F0A7FB019952
:101BD0000098E160A0602949226808686368504362
:101BE000C21348685843C01310184A68236809682C
:101BF0005A436368D2135943C913511A1E4A4310FA
:101C00005143C913CA1A104C5B182168081A68613D
:101C10006168891AA961A2684900D218EA610B4A71
:101C200041185143CA1369684843801040425143E8
:101C3000A86088104042E86003B0F0BDFC090020B5
:101C400040110020BC0A00209C0C0020E649000046
:101C50005005002074060020907E000088130000CC
:101C600078ECFFFFAB2AFFFFAA2A0000AB2A000096
:101C700055D5FFFFABAAFFFFD96E00007C06002000
:101C8000F0B5091A214883B0814201DD424289182A
:101C9000002900DA0918684602F040FB1C48019A46
:101CA0000099C26181611B48426801681A48036853
:101CB0004B43DC13436849425343DB13E418144B92
:101CC0009C6045684D430168ED135143C9136D187D
:101CD000124ADD601168066852684E43F713466881
:101CE00049425643F613BE191E61476800684F43C8
:101CF0005043F913C0130818094958618C61094908
:101D00008D6109490E60486003B0F0BDFFFF00001F
:101D1000D405002078050020EC0500206005002097
:101D2000240C00204C0C00206805002010B5002079
:101D300034490860486034490860486033490860A5
:101D400048603349086048608860324908604860EC
:101D5000314948600860314908603148406F486047
:101D6000002030490881488188812F480078082167
:101D700088432D49087008460078042188432A4981
:101D800008700846007810218843274908702448C5
:101D9000007F8006C00F4870084640788870002099
:101DA0002249486188610865C864C8841C48007F6E
:101DB000082188431A49087700201D4908801D48DA
:101DC0001D49086001F054FE02F0D8F8FFF722FE2A
:101DD0001A4801F0A5FB01F0D1FD12484079002816
:101DE00007D055201649886316484861002088634B
:101DF00007E05520124988633F2000024861002017
:101E0000886310BD5805002060050020780500207B
:101E10009C0C002070050020500500206805002063
:101E2000CC0800209808002021050020BC0A0020D2
:101E300084050020A0860100900500203C0B0020B6
:101E4000404206402A3F0000F0B54049404A83B076
:101E50000868106049683F4B49004118594389138D
:101E60003D4E516033681A464243D41372684B4367
:101E700015464D43ED136519384C4243D913D01321
:101E8000081A25606060374D00243549EC646846C7
:101E9000696102F043FA019900987160324A30603A
:101EA0005068A968884201DD401E5060884201DA0E
:101EB000401C50602E4D2D48E860686100F030FFF6
:101EC0002C4930680A6803465343DF1373684E6831
:101ED00019467143C91353437043791ADA13C01377
:101EE000254F121825487A60396040780028244828
:101EF00028D000F08DFF23498888401C80B288805C
:101F0000214B224A984215D98C802148836F15486D
:101F10008360204B406918651F4803682B60436845
:101F20006B601E4B06691E6040695860EC600420BF
:101F30006C6110601A480078C00701D18C80146071
:101F400003B0F0BD02F01EFAD5E700009C0C0020A3
:101F500058050020F32400005005002060050020F3
:101F600055150000BC0A002068050020102700005D
:101F7000240C00207805002070050020FC090020BA
:101F8000A80C0020D4050020B80B00001C05002080
:101F9000CC080020EC1000204C0900204C0C002044
:101FA000210500201CB539480068394908603748C8
:101FB000006836494968490040183649484380134B
:101FC000334948603448006809684843C1133248BF
:101FD00040682F4A52685043C01308182F490860C0
:101FE0002D4800682A4949684843C1132A48406877
:101FF000274A12685043C013081A2849486001F064
:1020000029FF27484169684602F088F92248019A69
:10201000009906C0002023490860486022480068F3
:102020000A2812D25520214988633F2000024861C6
:10203000002088631A4988601D49086048601D496E
:102040000860486001F014FD06E0552017498863D8
:10205000194848610020886313480068401C1249F1
:10206000086016490969884203D21548406C002867
:102070000BD1124800690C49086000200860114922
:1020800088710F494864104908601CBD9C0C0020F1
:1020900058050020F32400005005002060050020B2
:1020A000BC0A002070050020C00500204042064008
:1020B00068050020780500202A3F00006C080020F9
:1020C00000080020980800201C0500205520194910
:1020D0008863002048618863552088631648008F14
:1020E0001549098F8903C913401A12494039C8623A
:1020F0001148008F1049098F8903C913411A0D48EF
:10210000403841630C48008F0B49098F8903C9137C
:10211000411A08484038C163006915210902084383
:1021200004494039086100200249886302200349BC
:102130000860704740420640BC0A00201C05002091
:102140001CB56748006867490860654800686449CD
:102150004968490040186449484380136149486010
:102160006248006809684843C113604840685D4A96
:1021700052685043C01308185D4908605B48006806
:10218000584949684843C11358484068554A12683D
:102190005043C013081A5649486001F05BFE554889
:1021A0004169684602F0BAF85048019A009906C0A1
:1021B00000205049886050480068002804DD4E48DF
:1021C0000068401E4C4908604B480068002804DA4B
:1021D00049480068401C48490860474840684549EC
:1021E0008968884204DD444840680A3842494860AA
:1021F000414840683F498968884204DA3E4840685F
:102200000A303D4948603D4800680921C943884279
:1022100005DA3A4800680A30384908600CE0374867
:1022200000680A2805DD354800680A383349086027
:1022300002E0002031490860304840680921C94364
:10224000884205DA2D4840680A302C4948600CE085
:102250002A4840680A2805DD284840680A38274986
:10226000486002E000202549486020480068234972
:1022700009684843C1131D484068204A52685043CA
:10228000C013081A1E490860184840681B490968AD
:102290004843C11315480068184A52685043C01398
:1022A00008181749486017484078002805D10846A3
:1022B00006C8154802F066F804E0114806C812483E
:1022C00000F0A6FD0D480068002807D10B484068C3
:1022D000002803D10D4948640D4908601CBD000069
:1022E0009C0C002058050020F3240000500500201D
:1022F00060050020BC0A0020680500207805002049
:1023000070050020FC090020A80C00200008002017
:102310001C05002010B5FFF709FD1D480078C00717
:10232000C00F002832D055201A4988631A48008F00
:102330001949098F8903C913401A16494039C862DF
:102340001548008F1449098F8903C913411A114890
:10235000403841631048008F0F49098F8903C91322
:10236000411A0C484038C16300691521090208432D
:102370000849403908610020064988635520886370
:1023800000204861886301200449086010BD0000F6
:102390002105002040420640BC0A00201C05002008
:1023A00010B56548806D401C634988656349884263
:1023B00004DB61484030007F002801D002F048FA79
:1023C0005F48406C5C4948650846406D962807DDCB
:1023D000032159484030017700205A49088039E0EC
:1023E0005548406D962810DC5348406D64280CDD3C
:1023F00054480088401C80B252490880322829DDA8
:1024000002214D484030017724E04B48406D64285C
:102410000BDC4948406D322807DD01214648403039
:10242000017700204749088014E04348406D31217E
:10243000C943884207DC04213F484030017700202F
:102440004049088006E000213B48403001770020E9
:102450003C4908803848806D3849884263DD084629
:102460003549886508464030007F030003F088FE48
:1024700005041B324D4E5900002033490860334893
:10248000406F48603148806F314988602F48D030B4
:10249000806B304908642D48D030C06B48640420FC
:1024A0002D4908603EE00020274908602748406F1A
:1024B00048602648806F264988602448D030806B69
:1024C000244908642148D030C06B48640420224964
:1024D000086027E000201C4908601C48406F4860E5
:1024E0001A48806F1A4988601848D030806B1949A3
:1024F00008641648D030C06B48640520164908604F
:1025000001210D48403041770CE00BE01048406954
:1025100012494018124908650846503002F086F901
:1025200000E000BF00BF0F480078C007C00F0028C0
:1025300001D10949086010BD4C0E0020B80B000005
:1025400000080020AA05002068050020CC08002013
:10255000BC0A0020601100201C050020AB2A0000EE
:10256000EC1000202105002010B51648006803007B
:1025700003F006FE0A06090C0F1215181B1E212473
:10258000FFF7C8FE1BE0FFF7A1FD18E0FFF708FF0B
:1025900015E0FFF759FC12E000F0FCF80FE000F046
:1025A000FFF90CE000F010F809E000F001F906E096
:1025B000FFF7F8FC03E0FFF7C3FD00E000BF00BF3A
:1025C00010BD00001C0500201CB501F0E1F96048B9
:1025D0000068604908605E4800685D4949684900D4
:1025E00040185D49484380135A4948605B48006879
:1025F00009684843C11359484068564A52685043D5
:10260000C013081856490860544800685149496881
:102610004843C113514840684E4A12685043C013A2
:10262000081A4F49486001F015FC4E484169684658
:1026300001F074FE4948019A009906C04A48807921
:10264000002805D14949086046488068486001E093
:1026500000F0F4FA44480078012802D000F060FB52
:102660000FE000F0ABFC3F48406D41494860084630
:1026700040684049C968884203DD3E48C0683C491B
:102680004860364800683A4909684843C1133348EE
:102690004068374A52685043C013081A36490860E8
:1026A0002E484068324909684843C1132B480068E6
:1026B0002F4A52685043C01308182F4948602A48CF
:1026C000C079002807D1084600682C4908602A48CC
:1026D000406848600FE0FFF7C3F9274800682849C1
:1026E0008968401825490860234840682449C9681A
:1026F0004018224948601C484078002805D11F48EE
:1027000006C8204801F03EFE04E01C4806C81D48EB
:1027100000F07EFB1C480078C007C00F002807D0DF
:10272000194880781949097F8906C90F88420ED057
:102730000D480078012807D10D4840680D4988618F
:1027400007484068094948600720114908601CBDD6
:102750009C0C002058050020F324000050050020A8
:1027600060050020BC0A0020FC090020680500204C
:10277000780500204C0C0020700500208805002002
:1027800040110020A80C002021050020CC080020CA
:102790001C05002010B505480078002802D100F083
:1027A00005FF01E001F032FC10BD00003C8000009C
:1027B0001CB56E4800686E4908606C4800686B493B
:1027C0004968490040186B4948438013684948608C
:1027D0006948006809684843C11367484068644A0B
:1027E00052685043C0130818644908606248006882
:1027F0005F4949684843C1135F4840685C4A1268B2
:102800005043C013081A5D49486001F023FB5C483F
:102810004169684601F082FD5748019A009906C057
:1028200000205749886057480068002804DD554853
:102830000068401E5349086052480068002804DAC6
:1028400050480068401C4F4908604E4840684C4959
:102850008968884204DD4B484068401E4949486009
:102860004848406846498968884204DA45484068D3
:10287000401C44494860444840687D21C900884262
:102880002EDA41480068002805DA3F480068401CFD
:102890003D4908600CE03C480068002805DD3A48E6
:1028A0000068401E3849086002E000203649086090
:1028B00035484068002805DA33484068401C3249F2
:1028C00048600FE030484068002805DD2E48406829
:1028D000401E2D49486005E000202B49486001E07A
:1028E00000F01EFA24480068274909684843C113CC
:1028F00021484068244A52685043C013081A2349AB
:1029000008601D484068204909684843C1131A48B7
:1029100000681D4A52685043C01308181B4948609C
:102920001B484078002805D1084606C8194801F020
:1029300029FD04E0154806C8164800F069FA01F0C0
:10294000A1FE1348007801280FD10F4840681249B2
:10295000C8600D4840680A4948650B4840688003D4
:102960000E4908620848406888611CBD9C0C002024
:1029700058050020F32400005005002060050020C9
:10298000BC0A0020680500207805002070050020A2
:10299000FC090020A80C0020240B0020740C00204F
:1029A0001CB500F0F5FF90480068904908608E481B
:1029B00000688D494968490040188D494843801393
:1029C0008A4948608B48006809684843C1138948B0
:1029D0004068864A52685043C01308188649086008
:1029E00084480068814949684843C1138148406868
:1029F0007E4A12685043C013081A7F49486001F0AC
:102A000029FA7E484169684601F088FC7948019AB4
:102A1000009906C07A480068002804DD78480068FC
:102A2000401E7749086076480068002804DA744838
:102A30000068401C72490860714840686F498968A5
:102A4000884204DD6E484068401E6D4948606C480D
:102A500040686A498968884204DA69484068401CCD
:102A60006749486000F05CF9624800686549096898
:102A70004843C1135F484068624A52685043C013DC
:102A8000081A614908605B4840685E490968484324
:102A9000C113584800685B4A52685043C013081875
:102AA000594948605948C079002807D1084600684C
:102AB0005749086054484068486013E0FF2091304F
:102AC00054494860FEF7CCFF4F4800685149896877
:102AD00040184F4908604C4840684E49C968401842
:102AE0004B49486049484078002805D1484806C805
:102AF000494801F047FC04E0454806C8464800F054
:102B000087F93E488069401C3C4988614349496FC8
:102B1000884205D24248406C4149896A884250DD6A
:102B20003E48406F354988613C487830406B0865C5
:102B30003A482830006D3B49086038487830406892
:102B40004860364878300069374908603348783043
:102B5000406948602D48007800280DD12F48783012
:102B6000006A324908602D487830406A48602C4835
:102B7000006B2F49C8601DE024480078032804D169
:102B80002748C0682A49C86014E020480078012816
:102B90000CD11C4840682649C8601A48406817494B
:102BA0004865184840682149886103E01448406836
:102BB0001F49C86002F01EF801F012FE06201D49F0
:102BC00008601D480078C007C00F002808D01A48C8
:102BD000807812495839097F8906C90F884202D086
:102BE0000720144908601CBD9C0C002058050020DB
:102BF000F32400005005002060050020BC0A0020DE
:102C0000680500207805002070050020FC090020E0
:102C10008805002040110020A80C00202409002075
:102C200000080020240C00204C0C0020740C002014
:102C3000240B00201C0500202105002030B583B0A6
:102C40000021304B0091019102919878401CC0B254
:102C500098702D4C2D4AA58DA8423DD999702C49CC
:102C600008684043C31348684043C013181801461E
:102C700000900120C003814201DC084600E0009082
:102C80008011019023494000085A0190206C01995D
:102C9000401A02905068029B91695843C01308186B
:102CA00090615169884201DC014600E09161106940
:102CB000814200DA90611068916980105843401396
:102CC0004018D061D168884201DC014600E0D16142
:102CD0009068814200DAD0616846D16901F01EFB3C
:102CE0000848019A0099C26281620B49A0684A684B
:102CF0004243D313094A136009684843C013506024
:102D000003B030BDD4050020BC0A0020240E0020F2
:102D100078050020D86A0000FC0500206805002026
:102D200030B53349334B08681A68334D801A6A68E6
:102D3000AC69921042435213A218AA616C69A24274
:102D400001DC144600E0AC612A69944200DAAA6111
:102D50002A68D21042431013AA698018E861EA6811
:102D6000904201DC024600E0EA61A868824201DB91
:102D7000104600E0E861214D214A28604043526B33
:102D8000C013101A80111F4A4000105A1E4AD0600A
:102D9000506149685B689469C91A53689B104B433A
:102DA0005B13E3189361834201DD034690611C4687
:102DB00013699C4200DA93611368DB104B431913CB
:102DC0009369C918D161814200DDD061D1699068F1
:102DD000814201DB084600E0D06168600B48016871
:102DE000052902D00068062801D100F02DFD30BD74
:102DF0006805002060050020240C002078050020D4
:102E0000BC0A0020D86A00004C0C00201C050020E1
:102E1000F8B5634B55104B431E46DB1376425B1BE4
:102E2000F613751B044600261046002A00DD012615
:102E3000002B00DDB61C002D00DD361D584A6D420A
:102E4000AC4651435F420546CA136B4245104942A6
:102E5000C913521B491B5242494252424942072E52
:102E600019D235007D442D796D19AF44140306093C
:102E70000C0E11003D4667460FE065461F460CE00C
:102E80001546074609E01D4607E005460F4604E0E3
:102E90000D46174601E000252F464248E919006B10
:102EA00081420ADB684301F085FE0546C1193D48B1
:102EB000006B784301F07EFE07463B48007F000729
:102EC00006D40120C003401BC01B4110C81901E0FB
:102ED000002138464219072E1DD233007B441B794E
:102EE000DB189F44180306090D101400A2606060EF
:102EF00004E06260A16008E06260A060E16010E050
:102F00006160A06005E0A2606160E06009E0A1602E
:102F10006060E26005E0012080036060A06001263F
:102F2000E0606761256126702048214B4678552076
:102F3000152500241F4A20492D02002E98631948A8
:102F40005668008F15D046437600360C861B4E63BC
:102F5000966846437600360C861BCE62D2684243A2
:102F60005200120C801AC8630869284308619C63E8
:102F7000F8BD46437600360C861BCE629668464303
:102F80007600360C861B4E63D26842435200120C08
:102F9000801AC8630869284308619C63F8BD000073
:102FA000DA6E0000BC0A0020CC08002021050020B9
:102FB00040420640A80C0020004206402148224919
:102FC00000680968214B401A59689A698910414381
:102FD0004913511899615A69914201DC0A4600E08F
:102FE0009A6119698A4200DA99611968C9104143E6
:102FF000081399694018D861D968884201DC0146F4
:1030000000E0D9619868814201DB084600E0D861A0
:103010000F4908600F494043496BC013081A8011DB
:103020000D494000085A0D49C86048610C480168C4
:10303000052902D00068062803D100B500F004FC81
:1030400000BD70476805002060050020240C0020AA
:1030500078050020BC0A0020D86A00004C0C002033
:103060001C05002030B40D4A002194690B468A00EB
:10307000121880321568AC4204DD5268944201DABD
:103080000B4603E0491CC9B20629F0D304490A687B
:103090009A4200D103700B6030BC7047540A002084
:1030A00004060020F8B50446B14800F0CBFDB14855
:1030B000FFF7D8FFB04A2546507880350028AF4B3F
:1030C00020780AD0C100AE480818406828636079AB
:1030D000AC4E0027002805D01DE0C000C018406895
:1030E0002863F4E701206071A749286B4861B0426A
:1030F00003DBA6494118A448416126616661A661C7
:10310000E66126626662A662E6626E65AE65E767A4
:1031100027712078A070A078217888427ED05278DC
:10312000002A0CD0964BC900C9184968984A9142A8
:103130000BD1C000C0184068081A801909E0C90006
:10314000C9184968924A9142F3D0C000C01840683B
:10315000081A904940189049884212D28F4A277124
:1031600090688F49081A8008E0605160E06F401C49
:10317000E067012808D821616161A161E161A9646A
:1031800081E001202071A5E0022809D82661E068CD
:1031900041006161A161E06108184008A86472E023
:1031A000032813D860692061E168E069814201D990
:1031B000616100E06061E161A0616269101840181E
:1031C0000321686401F0F6FCA86459E0052812D8D0
:1031D00063692361A2696261E169A161E068E061FC
:1031E0002062606208189A1810180421686401F0BF
:1031F000E1FCA86444E006281BD863692361A26946
:103200006261E069A061216A8646E161606A2062CC
:1032100084469B187144E0685A1800E05CE06146FF
:103220005118606208180621686401F0C3FCA864A4
:1032300026E0072804D8A86A282805DC062002E032
:10324000182801D91820E06761692069E2694018EF
:10325000A16989184018216A4018616A401806213E
:10326000686401F0A7FCA86460692061A0696061DE
:10327000E069A061206AE061606A2062E0686062E3
:10328000E06F062802D84048296B41613E48296B0F
:103290004069081A0121C903E864884202DB3B49FE
:1032A0004018E8640121C903C84201DA8019E864C2
:1032B0003C49884202DC4942884200DAE964E96C10
:1032C000286D1E224843A96C514301F073FC6865C8
:1032D000A86CA8652078A070A96DB14207DA286CA7
:1032E00001F068FCA862696D4018686202E0AF6294
:1032F00038466F6200F014FB234AD064686A686342
:10330000216F884201D3014600E06963606F81420A
:1033100000D968632079244B01280FD0E06F06287C
:1033200020D8296B5069994212DB1949884213DD74
:10333000CB431E4CC318A34212D90DE0286B984210
:1033400001DB576102E0124940185061E767F8BDA0
:10335000144BC918884203DA696B40185061F8BDF4
:103360005161F8BDA86A1E28F0DB5069F4E700003F
:10337000601100203C0B002021050020840D00205E
:10338000C40D0020FFFF0000BC0A00200100FFFF69
:1033900055150000AAEAFFFFAA2A00000010064007
:1033A000B2050700AB2A0000AAEA0000FF7F000078
:1033B000F8B54A490446484D00208B690246810011
:1033C000491980310E68B34204DD49688B4201DA45
:1033D000024603E0401CC0B20628F0D34048016812
:1033E000914200D12A7002603E48254642783E4B09
:1033F00080352078002A17D0C000C01840682863A4
:10340000A0782178394E002788424DD0002A11D06B
:10341000C900C9184968364A914212D1C000C01883
:103420004068081A801910E0C10032480818406846
:103430002863E5E72F4BC900C91849682C4A914217
:10344000ECD0C000C0184068081A2B4940182B491E
:10345000884225D22A4927718A682A48821A920806
:10346000E260486061692069E2694018A1698918D1
:103470004018216A4018616A40180621686401F00A
:1034800099FBA86461692161A1696161E169A16138
:10349000216AE161616A2162E1686162A86501E017
:1034A000012020712078A070A96DB14204DA286C47
:1034B00001F080FBA86201E0AF626F622079A96A27
:1034C0000128A06F03D04843C00BA060F8BD48435B
:1034D000C00B4042F9E700003C0B0020540A0020DA
:1034E0000406002021050020C40D0020FFFF00007D
:1034F00055150000840D0020AAEAFFFFAA2A00004B
:1035000000100640B205070010B50348416E03489D
:103510004069FEF7B5FB10BD60110020BC0A002019
:10352000F8B500260546467080350446EE620A204E
:103530006E6320676420606716481749406D374600
:1035400048434010286400901448806841001448A3
:10355000FCF728FEA06727716771AF626F62EF64A6
:1035600000980A2148430C4901F024FB28650D48C6
:103570006865A8650C49E767B00043180A585B689E
:103580000019D21852108030761CF6B20260072E55
:10359000F2D3F8BD00080020AB2A0000CC080020C0
:1035A00020651100FFFF0000040E00200EB58E48BC
:1035B00000688E4908608C4800688B49496849005A
:1035C00040188B49484380138849486089480068FF
:1035D00009684843C11387484068844A5268504389
:1035E000C013081884490860824800687F49496808
:1035F0004843C1137F4840687C4A12685043C01357
:10360000081A7D4948607D48FFF74CFD7C484069B9
:103610007C49884204DD7A484069401A784948610B
:1036200077484069002805DA7548406975494018AF
:10363000734948617248416901A800F06FFE6D4806
:10364000029A019906C06E48C08C401C80B26C4939
:10365000C884498D884222DD00206949C8846A48AF
:1036600041686A48806F814204DD67484068401EB7
:1036700065494860644841686448806F814204DA63
:1036800061484068401C604948605F4841685F4845
:10369000806F814203DD5D48806F5B49486056481A
:1036A0000268594801685A4801F0EAFF5949086020
:1036B000084602F051FD5849C8604F4842685248D8
:1036C0004168554801F0DCFF5249486008464068AF
:1036D000009008460368474806C801A802F0CAF9E6
:1036E0004E48029A019906C04D484078002805D1FD
:1036F0004A4806C84B4800F045FE04E0474806C863
:103700004848FFF785FB4848406C4749496988426B
:1037100005DD46480088401C4449088007E0002039
:103720004249088042480068401C414908603F48BF
:1037300000881921C90188420FDD00203B4908801B
:103740003B490860304840682D498860FFF7DCFE3F
:1037500001F050FA05203749086037480078C00664
:10376000C00F002815D13548C06831490968884222
:1037700024D200202D4908802D4908603048007867
:103780004021884340302E49087001202D490860AF
:1037900014E02A4840692649096888420ED2002070
:1037A0002249088022490860254800780221884380
:1037B000801C234908700320224908601E480078B5
:1037C000C007C00F002807D01B4880780F49097F29
:1037D0008906C90F884206D0002014490880144980
:1037E0000860144908600EBD9C0C0020580500209C
:1037F000F324000050050020600500203C0B002051
:10380000BC0A0020FFFF000068050020CC08002053
:10381000240C0020780500204C0C002070050020AE
:10382000FC090020A80C002000080020AC050020A6
:10383000B00500201C050020210500206C08002098
:10384000200500201805002070B4294D294A696818
:103850002868884202DC1078800747D5264C236808
:103860002649062B486C02D14B6A984209DB236833
:10387000052B03D149690A39884202DB1078800799
:1038800034D51F4A00211F481160836FAB60536815
:10389000406F834200DA50601B48A9611B4B0268ED
:1038A0001A6042685A60C2689A60D9601A615961A8
:1038B000174E0269326042697260C269B260836900
:1038C000F36073613261134A036A9362406A116361
:1038D0005163D062686910650F4810228164C16429
:1038E0000E480178114301700420206070BC7047BD
:1038F000BC0A0020200500201C0500200008002034
:1039000068050020CC0800204C090020240C002071
:103910004C0C0020EC10002060110020210500203C
:10392000F0B4134900230C68124F134A01B2002C63
:1039300012D013885C003D5F56683953751B2818F8
:103940005B1C506098B21080FF2801D900201080C5
:103950005068F0BC001270475C0039535B1C9BB28E
:10396000FF2BF9D90002506000201080F0E7000022
:103970001C050020B40E002008060020034800218A
:10398000416001708162416370470000B410002003
:103990000EB533480068002802DB3148006802E0B9
:1039A0002F480068404202902D484068002802DB02
:1039B0002B48406802E02A4840684042019028486D
:1039C0008068002802DB2648806802E0244880687E
:1039D000404200902348006A0299884209DA22484E
:1039E00000780821884308301F49087003201F49C8
:1039F00008601C48006A0199884209DA1A48007870
:103A000008218843083018490870032017490860C6
:103A10001448006A0099884209DA1348007808219E
:103A200088430830104908700320104908600D4889
:103A3000806A0299884202DA0A4902988862094833
:103A4000C06A0199884202DA06490198C8620548AD
:103A5000006B0099884202DA0249009808630EBDA3
:103A60009C0C00209808002020050020180500204C
:103A700070B42548254A0168116041685160C368E7
:103A800000219360D16051619161D1611361116234
:103A90001F4A0369136043695360C3699360846973
:103AA000D4609161D161546113611162826F5400DD
:103AB000184A1460184A036F1360436F5360174B22
:103AC0001B689360C56FE010154CD560A66B46432C
:103AD0003613F3181361E36B916158430013D161FE
:103AE0004019116250617D220E48D20002606422AA
:103AF00042600D4A8260C16041618161C1610261C1
:103B0000016270BC704700004C090020240C0020AA
:103B10004C0C002010060020740C0020CC09002062
:103B200000080020240E002000C0FFFF8160C36851
:103B300082689A420DDD0368C268D21883689A428F
:103B400004DC0368C268D218C26013E08268C260F5
:103B500010E0C36882689A420CDA4368C268D21ADD
:103B600083689A4204DB4368C268D21AC26001E0EB
:103B70008268C2607047000010B52B48C0682B49AE
:103B800048602948816829488160294800780028D0
:103B900000D003E02448816A24488161FDF704FADB
:103BA000224840682149496B401A2049C96C484362
:103BB00080121E49C86108468168806B081A1B493B
:103BC000C96C48438112194801621A48407800289C
:103BD0000FD11648C0694042174908601348006A6F
:103BE000404248601148C169006A0818124988605B
:103BF0000EE00E48C06940420F4948600B48006A19
:103C0000404208600948C169006A08180A4988608A
:103C100007480078002806D108480068042802D028
:103C20000748FFF7C5FB10BD80800640540A0020FE
:103C30003C800000210500209C0C00201C05002079
:103C40003C0B0020F0B5764B7649044618680A68AC
:103C500083B05043C2136261586809684843C31374
:103C60007149A3610868E061496821622568684379
:103C70008013101A694360628813181AA0622069C1
:103C8000E168C00300F096FF0146A06D002801DB4B
:103C9000861001E0821056428E4200DA0E46411C28
:103CA000624F03290AD34110B00300F083FF054699
:103CB000B84201DD3D4602E0C82D00DAC825A06803
:103CC000012201467143C913D203891840030091B0
:103CD00000F070FF064601200007009900F06AFF1F
:103CE000A16A02460B466B43606ADB13C318684344
:103CF000C013081AE16A7343514349135B13C9188F
:103D0000E162236B704353435A134013121822632A
:103D10006368E06958438013081A6063216A594355
:103D20008913511A424AA163136852685943504398
:103D3000C913C013081AE063B84201DDE76303E06A
:103D40003C49884200DAE163E26B606CA16C50434D
:103D5000C0134118A164206D814201DDA06403E01D
:103D6000636D994200DAA364216C4A43D113A26CBB
:103D70008918E164814204DC606D814201DBE06C02
:103D800000E0E064E16DC203521A92125118E1653D
:103D9000C913C92251438911A165A168264D484321
:103DA000C0132066616E254A08186066A968491C20
:103DB000A960002802DA8018606626E0904224DDBF
:103DC0001F4A801860661F48407A01281DD1686824
:103DD0000022081AAA6069602860002909D06422BC
:103DE000504300F0E7FEE86017480068062802D05C
:103DF0000BE0EA60F8E71548E968406A884204DAAF
:103E0000134801780222114301706846616E00F088
:103E100085FA019900986961286103B0F0BD00003E
:103E200070050020000800205805002030750000B3
:103E300094060020D08AFFFF84060020FFFF0000C8
:103E40000100FFFFFC0900201C050020980800204D
:103E50002005002070B53C4801683C4D3C4C0429CD
:103E600017D000683B4E052823D03046FFF7EAFE06
:103E7000706E216D40186061306EFFF751FDE06497
:103E8000706E286560693449002857DA401860610F
:103E900070BD2E48FDF744FD2E48FFF7D3FE286D78
:103EA0006061E18D686C00F085FEFFF739FDE0642C
:103EB000E8E72A49A06988421BD32648FFF7C2FEDB
:103EC000726E206D264B11186161D978491CC9B2F8
:103ED000D97001290BD90021D9702249496888423B
:103EE00001DA401C2065884201DD401E20652A65FC
:103EF00014E01D48407F00281AD11C48007A002891
:103F000016D01248FDF70CFD1248FFF79BFE286DF6
:103F10006061E86A642801DA401CE862306EFFF7ED
:103F2000FFFCE06412481349806DC8604861A9E74E
:103F30000848FFF787FE706E6061EFE78842A7DDF3
:103F40000D494018606170BD1C050020EC10002078
:103F5000BC0A002060110020FFFF0000B80B000029
:103F6000D4050020CC0900208C0E0020FC09002084
:103F70004C090020240C00200100FFFF10B5FDF7C4
:103F800091FC00F001F810BD70B51A4C0025656178
:103F9000A561E56125626562A562E56225636563E9
:103FA000A5631548E563016B89102160416B891099
:103FB0006160816BA160C06BE060104849100269CC
:103FC000226182682264C068A564E56460640C486C
:103FD000C06CC00300F0EEFD20656566A566A565B2
:103FE000E5650848256660650748056045608560A9
:103FF000C56070BD60110020080A0020CC090020B7
:1040000000080020D08AFFFF840600201CB5FFF7BF
:10401000BFFCA8480068A8490860A6480068A549F0
:10402000496849004018A54948438013A24948609F
:10403000A348006809684843C113A14840689E4AE4
:1040400052685043C01308189E4908609C48006895
:10405000994949684843C11399484068964A12688B
:104060005043C013081A97494860FFF7F3FE96487B
:104070004169684600F052F99148019A009906C0DA
:104080009148C08C401C80B28F49C884498D8842B9
:1040900021DD00208C49C8848C48406889688842AA
:1040A00004DD8A484068401E884948608748406867
:1040B00085498968884204DA84484068401C8349FD
:1040C0004860824841688248806F814203DD8048B1
:1040D000806F7E494860FEF723FE794800687D497D
:1040E00009684843C113764840687A4A5268504389
:1040F000C013081A78490860714840687549096812
:104100004843C1136E480068724A52685043C01356
:104110000818714948607148C079002807D10846DD
:1041200000686F4908606C484068486013E0FF20F1
:1041300091306C494860FDF793FC67480068694915
:104140008968401866490860634840686549C968DD
:1041500040186349486061484078002805D16048AC
:1041600006C8614800F00EF904E05D4806C85E48E4
:10417000FEF74EFE5D48406C5C494969884205DDAA
:104180005B480088401C5A49088007E000205849D5
:10419000088058480068401C564908605648007816
:1041A0008007C00F002805D154480078C006C00F12
:1041B000002811D04D48406C51490968884205DB00
:1041C0004A48406C4F490968884205DD4E480068FE
:1041D000401C4D49086008E04B480068002804D0A6
:1041E00049480068401E4849086041480088192134
:1041F000C901884212DD00203D4908803D49086020
:10420000324840683049886031485830806C3F49B6
:10421000886200F0EFFC05203D49086037480078CF
:10422000C006C00F002815D13A48C0683149096856
:10423000884226D200202E4908802E4908602E4848
:1042400000784021884340302B49087001203249D2
:10425000086016E02F4840692B490968884210D24F
:104260000020234908802349086027490860224824
:10427000007802218843801C1F49087003202649CA
:1042800008601E480078C007C00F002807D01B48F0
:1042900080780F49097F8906C90F884208D000201D
:1042A00013490880134908601749086018490860D5
:1042B0001CBD00009C0C002058050020F3240000C9
:1042C0005005002060050020BC0A00206805002081
:1042D000CC0800207805002070050020FC09002093
:1042E0008805002040110020A80C002000080020B4
:1042F000B4050020B805002020050020210500207D
:104300008480000080800000BC050020EC100020AC
:104310001C0500206C08002018050020F0B40124C2
:10432000E4030C192404A50D0324240225400124D0
:10433000E403091989040C0E6100FF273C1B104E91
:104340006400002D0FD0FF3D6D1E11D0FF3D6D1E8E
:1043500003D0FF3D012D0ED102E0735E325F0AE013
:10436000335F715E02E0715E4B42315F4A4202E0B0
:10437000325F5342725E43600260F0BC70470000DF
:10438000D86E0000F0B5B84B55104B431E46764230
:104390009B13B6135B1B761B0446002583B01046A7
:1043A000002A00DD0125002B00DDAD1C002E00DD04
:1043B0002D1D7642B446AC4E471071438E4689138C
:1043C000CA1B714649428913C91B494252424F4296
:1043D0005B4252424142072D19D22E007E4436796B
:1043E000B619B744140611030B090E00164607460A
:1043F00010E01E4667460DE006460BE00E461F46DF
:1044000008E03E46174605E066460F4602E00026F5
:104410003746012595482570006BF11981420ADB6A
:10442000704300F0C7FB0646C1199048006B784303
:1044300000F0C0FB07468E48007F000706D401202D
:10444000C003801BC01B4210D11901E00022394675
:1044500022630192626388190092A1632064E16380
:10446000844660648148F219808F43009A4210DBD1
:10447000B04205DD801B80B20A18081AA26306E06C
:10448000B8421BDDC01B80B20A1A0818A263E063A1
:1044900014E07649B04206DD801B80B26246121AF3
:1044A000604422646064888FB84207DDC01B0199B4
:1044B00080B2091821630099081A60636D48216B66
:1044C000814200DD2063616B814200DD6063A16B8E
:1044D000814200DDA063E16B814200DDE063216C7D
:1044E000814200DD2064616C814200DD6064206BEC
:1044F000002801DA00202063606B002801DA002028
:104500006063A06B002801DA0020A063E06B002844
:1045100001DA0020E063206C002801DA002020642A
:10452000606C002801DA002060640126206BF6032D
:10453000311A4E48226C078FB21A79434800000C9A
:104540008446606B7A43301A78434000010CA06BBC
:10455000BE46301A78434000030CE06B5200301A1C
:104560007843676C4000F61B77467E437600000C6C
:10457000120C360C072D37D22F007F443F79FF19DC
:10458000BF44320B2B031B132300E6612362A2619D
:1045900060626246A262E16226E06662A361226214
:1045A000E0616246A262E1621EE065466662A56164
:1045B000A3622262E161E06216E06546E662A561FF
:1045C0002362A262E16160620EE0A361E061634682
:1045D000E6622362A262616206E0E661A26162466F
:1045E000A36222626162E062234A55275378244E17
:1045F000224A002BB763A58BA36920D02D042B433F
:104600005363A58C236A2D042B43D362A36AA48D24
:1046100024042343D3631369152424022343136121
:104620000022B263B763114A528F891A89B2F161CD
:10463000801A80B230620020B06303B0F0BD2D0458
:104640002B43D362A58C236A2D042B435363A36AA7
:10465000A48D24042343D363136915242402234324
:1046600013610022B263DDE76D370000BC0A002051
:10467000CC080020FF7F00002105002000420640FA
:1046800040420640494880784949097F8906C90F58
:10469000884209D04748406C4649C96A884202DAD4
:1046A0000820454908607FE04448407900280CD044
:1046B0000120424988713F48406C3E49C96A88429E
:1046C00072DA08203C4908606EE03C488079002896
:1046D00009D03848406C3749C96A884264DA0820F2
:1046E0003549086060E03348406C3249096A8842C5
:1046F00010DC33480068401C314908603149896842
:10470000884251D900202E4908602A4948642A4924
:10471000086049E02C4840687D21C900884234DDAA
:1047200022480078C007C00F00283DD01F4880787D
:104730001F49097F8906C90F884235D100202349C6
:10474000C861086222480078002804D11948006B2B
:104750002049C86015E01E480078032804D1154898
:10476000C0681C49C8600CE019480078012804D1D1
:10477000154840681749C86003E017484068154964
:10478000C86006200C4908600EE00D480068401C17
:104790000B4908601149884206D900200849086081
:1047A000044948640449086070470000210500205E
:1047B000CC080020000800201C05002098080020DC
:1047C000A40500206C08002078050020740C00204F
:1047D000FC090020240B00206805002080BB00009D
:1047E00010B50C4CA16A606C884205DD0A48416E28
:1047F0000A484069FDF744FA0948216B806F484335
:10480000084949688903401807490862801388618C
:1048100010BD00000008002060110020BC0A00202C
:104820004C09002068050020740C0020054A01682E
:10483000914202DB5342C9180160002901DA89184C
:1048400001607047FFFF000010B501F007FC10BDCC
:104850001CB53C483C490864002048643B4800685B
:104860003B490860394800683849496849004018A0
:10487000384948438013364948603748006809681A
:104880004843C11334484068314A52685043C0130A
:10489000081832490860304800682D494968484383
:1048A000C1132D4840682A4A12685043C013081AA1
:1048B0002A494860FFF7CEFA2348406E28494861EC
:1048C000084641696846FFF729FD2348019A009987
:1048D00006C000202349086048601F480068096836
:1048E0004843C1131C4840681E4A52685043C013D5
:1048F000081A1D490860184840681A490968484361
:10490000C11315480068174A52685043C01308186D
:104910001549486015484078002805D1084606C862
:104920001348FFF72FFD04E00F4806C81048FEF7B4
:104930006FFA10480078C007C00F002801D10E4957
:1049400008601CBD10270000601100209C0C002096
:1049500058050020F32400005005002060050020C9
:10496000BC0A00207805002070050020FC0900200A
:10497000A80C0020210500201C05002010B50446CD
:10498000084801F068FB002C05D0224601210846AA
:10499000FCF778FB04E0002201210846FCF772FBDB
:1049A00010BD000000400640F0B587B005460C463B
:1049B000002006900026912005902088A84202DC65
:1049C0001D4807B0F0BDFF202330005BA84201DB8B
:1049D0001A48F6E7002007E04100615AA94202DACE
:1049E000411ECEB202E0401C9128F5DD00BF002739
:1049F0000020049003907100625A711C4900615AB2
:104A0000501AFBF751FF07467100615A481BFBF72C
:104A10004BFF39460290FBF735FE04903046FBF71A
:104A20004BFF0190049901F0FBFE0549029001F053
:104A3000EBFF03900398C4E70000A0C10000FA4216
:104A40000000A04170B50C46D5B20123A340D9B2F5
:104A50002B0001F095FB07052747676C7F91AB00A2
:104A6000534B1B5C8B43524E3354514B403B1B5CAE
:104A70000B434F4E403E33544D4B103B1B5C8B431E
:104A80004B4E103E33544A4B303B1B5C8B43484EDD
:104A9000303E3354464B203B1B5C8B43444E203E00
:104AA000335483E0424B1B5C8B43414E3354404BA9
:104AB000403B1B5C0B433E4E403E33543C4B103B53
:104AC0001B5C8B433A4E103E3354394B303B1E5CDB
:104AD0000E431E54364B203B1B5C8B43344E203E12
:104AE000335463E0324B1B5C8B43314E3354304BB9
:104AF000403B1B5C0B432E4E403E33542C4B103B33
:104B00001B5C8B432A4E103E3354294B303B1B5CBD
:104B10008B43274E303E3354254B203B1E5C8E4347
:104B20001E5443E0224B1E5C0E431E543EE0204BBD
:104B30001E5C8E431E541E4B403B1B5C8B431C4E25
:104B4000403E33541A4B103B1B5C8B43184E103EB7
:104B500033542BE0164B1B5C8B43154E3354144BD4
:104B6000403B1E5C8E431E54114B103B1B5C0B43A1
:104B70000F4E103E335419E00D4B1B5C8B430C4E13
:104B800033540B4B403B1E5C0E431E54084B103BF2
:104B90001E5C8E431E54064B303B1E5C8E431E54DF
:104BA000034B203B1E5C0E431E5400BF00BF70BD74
:104BB00060000440034A5060916010680007FCD513
:104BC000D068704780430640704770477047704711
:104BD00070477047704700000020002805DBC206C0
:104BE000D20E01219140024A116000BF70470000BF
:104BF00080E200E000201349087008460078022196
:104C000088431049087008460078042188430D49FC
:104C1000087008460078082188430A490870084649
:104C20000078402188430749087008460078102121
:104C3000884304490870002003490870C8708870D0
:104C400070470000200500209808002031480068C7
:104C5000052803D02F480068062823D12E48406C31
:104C60002E490968884205DB2B48406C2C490968AD
:104C7000884205DD2B480088401C2A49088002E054
:104C8000002028490880274800880A280DDD0020D8
:104C9000244908802448007802218843801C224946
:104CA000087002E000201F49088020480078002892
:104CB0002ED118480068052803D016480068062839
:104CC00023D11B48806815490968884205D31848D4
:104CD000806813490968884205D916480088401C35
:104CE0001449088002E00020124908801148008819
:104CF0000A280DDD00200F4908800B4800780221AA
:104D00008843801C0849087002E000200949088097
:104D1000704700001C05002000080020848000006F
:104D20008080000034050020200500203C80000029
:104D30003C0B00203605002000B500F047F8FFF7D7
:104D400085FF00F0BFFA00BD10B5044800680028D8
:104D500003D10349C86CFEF7E3FD10BD1C0500201C
:104D6000BC0A002010B5134AD26C134BDB695A43BE
:104D70001046114AD16CFBF715FA0F4948640846F2
:104D8000406C14300D490860084600680C494843DF
:104D9000C1130948806C0B4A5043C01308180649D8
:104DA00088640846406C0849C96D4843801202492E
:104DB000086310BDBC0A0020000800204005002048
:104DC0006606000099790000540A002050480068E7
:104DD000042807D04E480068052803D04C480068D6
:104DE00006287DD14B4800788007C00F002803D0EB
:104DF00049488068002874DD48480078401CC0B2EB
:104E0000464908706428F6DD502008704448806ADE
:104E10004349C96A4900884206DC4148806A4049E2
:104E2000096B490088420BDD3D48806A3C49C989CD
:104E3000884205DD3A480089401C3949088102E072
:104E40000020374908813648C06A3549896A4900D7
:104E5000884206DC3248C06A3149096B4900884201
:104E60000BDD2F48C06A2E49C989884205DD2C48D0
:104E70004089401C2A49488102E000202849488195
:104E80002748006B2649896A4900884206DC244885
:104E9000006B2349C96A490088420BDD2048006B3A
:104EA0001F49C989884205DD1D488089401C1C496D
:104EB000888102E000201A49888100201849886210
:104EC000C862086308460089642807DC08464089F0
:104ED000642803DC08468089642817DD002001E08F
:104EE00011E013E00D4908700D490881488188815F
:104EF0000C48007804218843001D0A4908700320EB
:104F00000949086002E00020044908707047000069
:104F10001C05002021050020BC0A002032050020CD
:104F2000980800202005002018050020F8B5002072
:104F30000090CE48C168C06B081ACC49096D48433F
:104F40008112CA484162406AC949486008464068BF
:104F5000002801DA00204860C5490968C44A52683F
:104F60005143C813FBF75FFA0446C24AC24BFBF732
:104F700065FA0646FBF700FA0090C0484069C04950
:104F8000081ABB49C9684843C213BC484069009924
:104F90004843C0131018B649C860BA4800680628CC
:104FA0007AD1B948007F08218843B7490877B748C4
:104FB000007800282ED1B648C068B6490968411A61
:104FC000AA48C06D96225043801281420ADDB24841
:104FD000007802218843801CAF4908700020AF4947
:104FE000088017E0AB480068A949C968401A11D188
:104FF000AA480088401C80B2A8490880A849884275
:1050000008DB0846A5490880A348007802218843A8
:10501000A14908709F48808C401C80B29D498884BB
:10502000098D88427EDB00209A4988840846016801
:105030009748FEF77BFD9548007802280AD19948E9
:105040000078002805D10120924908859048C06861
:105050008860CAE08D48007800281ED19148007809
:1050600000280CD001208B4908858148C268084679
:10507000816C8D4800F0DCFA86498860B5E00A2032
:10508000844908857A48026B8148C168864800F0E7
:10509000ADFB80498860A8E0BCE07C48007803282C
:1050A0001CD18048007800280BD00A207949088557
:1050B0006F48026B416B7C4800F0BAFA7549886012
:1050C00093E00120734908856948C2687048C16847
:1050D000754800F0ADFA6F49886086E06B4800784B
:1050E0000128B6D16F48007800282BD16F4840685E
:1050F0006849896D884205DC5D48406C6C490968E7
:1051000088422CDD6348018D3220FBF74BF869495A
:105110000988491C89B2674A118088421FDA012038
:10512000604900E075E0087080035F490860FF2077
:105130004830486060484068800308625E484068C4
:1051400088610CE05248C1685C480068FF389138BB
:10515000814204DA002053490870564908805148BA
:10516000007800282DD000204F49086108460069CA
:1051700088600120474908853D48416C4C480068DB
:105180003238814209DA494842684248816D4648CE
:1051900000F04EFA3F4948650EE03548416C4448FE
:1051A0000068401F814207DB3148026B416B3E487B
:1051B00000F03EFA374948653648406D3F4908607F
:1051C00013E00A20334908853D4800893649886044
:1051D0003B484089C8600846806808610846C06846
:1051E00048612B48C0682B4948652A48806829498E
:1051F000C968884203DD2748C06826498860254879
:1052000080682449096988422FDA224800692149C7
:1052100088602AE00020234908701E4988841748C6
:105220003038006A2049086014483038406A4860C5
:1052300016480078022803D10120164908850EE09F
:1052400012480078002803D10A201249088506E098
:105250000E480078032802D101200E4908850E4827
:105260000078022188430C490870F8BD540A0020D8
:105270000008002052B81E85EB51F43FCC090020F5
:10528000FF7F00001C050020CC080020FC09002046
:10529000240B0020BC0A0020210500202A05002044
:1052A0001027000044050020740C00206005002039
:1052B000EC8000004605002078050020480500200D
:1052C000780D00202F4800682F490969884215D9B8
:1052D0002E480088401C2D49088008460088642814
:1052E00006DD2B48007820218843203028490870AB
:1052F0000020284908802849088041E021480068AA
:1053000021494969884215D222480088401C214918
:10531000088008460088642806DD1D480078802142
:10532000884380301A4908700020184908801A49BB
:10533000088025E0134800681349896988421FD214
:10534000104800681049C969884219D91248008874
:10535000401C114908800846008864280BDD0C4871
:105360000078202188430A49087008460078802187
:1053700088430749087000200449088005490880CF
:105380007047000000080020980800203805002021
:10539000200500203A0500203C0500207047000051
:1053A000014600200122094BDA725522084B9A600F
:1053B0001A465268D0B24008400002460A43D0B2B2
:1053C0001A46506000229A607047000000040240B4
:1053D0000083064010B502460020002A0FD1552355
:1053E000184CA36023461B68D8B2C008C00003460F
:1053F0000B43D8B2234618600023A36020E0012AA3
:105400000FD155230F4CE36223461B6AD8B2C00864
:10541000C00003460B43D8B2234618620023E36260
:105420000EE05523074CE36223465B6AD8B2C008FE
:10543000C00003460B43D8B2234658620023E36200
:1054400010BD00000083064000280BD15521144AEE
:1054500091601146496808221143114A51600021A8
:1054600091601CE055210E4AD1621146896A0122E1
:10547000520411430A4A9162012806D11146896AF1
:1054800002049143064A916206E00549896A0122B5
:1054900012041143024A91620021014AD16270470D
:1054A0000083064010B502460020002A12D1552381
:1054B0001C4CA36023461B68D8B220240346A34398
:1054C00018464B010343D8B2164B18600023154C05
:1054D000A36026E0012A12D15523124CE362234631
:1054E0001B6AD8B210240346A34318460B0103439A
:1054F000D8B20C4B186200230A4CE36211E055232A
:10550000084CE36223465B6AD8B210240346A343E7
:1055100018460B010343D8B2024B58620023014CDA
:10552000E36210BD0083064010B501210820FBF79F
:1055300037FF032200210846FFF784FA03220121E6
:105540000020FFF77FFA05210020FFF743FF00212D
:10555000084600F03DF801210020FFF7A3FF0020DE
:10556000FFF71EFF0020FFF76FFF0322022100203C
:10557000FFF768FA002000F001F810BD00280BD1F9
:105580005521124A916011460968802211430F4A41
:1055900011600021916018E001280BD155210B4AC0
:1055A000D1621146096A80221143084A1162002122
:1055B000D1620AE05521054AD1621146496A80222A
:1055C0001143024A51620021D162704700830640B4
:1055D000002815D15522154B9A60002906D11A468C
:1055E000126810239A43114B1A6005E00F4A1268A3
:1055F00010231A430D4B1A6000220C4B9A6013E0E3
:1056000055220A4BDA62002905D11A46926A5208DD
:1056100052009A6205E0054A926A01231A43034B3D
:105620009A620022014BDA62704700000083064054
:1056300010B4891A02684A43D3134268002A19D069
:105640004A43046A5110611801624269920391420F
:1056500003DC02699203914200DA0262016A891353
:105660008161C268C9188A4202DD82688A4203DD0C
:10567000C26102E08169F4E7C161C06910BC704792
:10568000891A026892104A435313426892104A439F
:1056900051138269511842698A4202DB02698A42C7
:1056A00002DD1146826100E08161C268C9188A4248
:1056B00002DD82688A4201DDC26100E0C161C06929
:1056C00070470000F0B585B004460E46012E0BD1A0
:1056D000616A206801F098F9F107484005463848AA
:1056E000E061384820622DE0022E2BD1616A2068EB
:1056F00001F08AF905462068334901F059F909D2C9
:105700002068324901F0D2F804D83148E0613148CC
:10571000206217E020682D4901F04AF909D220687B
:105720002D4901F0C3F804D82C48E0612C482062D0
:1057300008E02068284901F03BF903D22948E061DC
:1057400029482062E068294601F06AF8E060E169D2
:10575000E06801F02DF902D8E069E06006E0216A16
:10576000E06801F0A3F801D8206AE060A06903991D
:1057700001F0C6F80290E168606901F0C1F801909B
:105780002069294601F0BCF80090019901F048F821
:105790000746029901F044F8A062E16AA06A01F0AC
:1057A00007F902D8E06AA06206E0216BA06A01F066
:1057B0007DF801D8206BA062A56005B0F0BD0000A7
:1057C0000080BB440080BBC400004842000070421F
:1057D0000000FA430000FAC300008C4200803B4402
:1057E00000803BC400007A4400007AC470B41B4DB2
:1057F0008B1A2C68E410624312134C432113EA60A5
:105800002C694C43E413AC600168C9105943CE12B3
:105810006E60416800291BD04910056A5943691818
:10582000016243699B03994203DC03699B0399422C
:1058300000DA0362016A89138161A319C918891A00
:10584000C2688A4202DD82688A4203DDC26102E0E8
:105850008169F2E7C161C06970BC70471006002021
:1058600010B5024601208840C3B20120034CE07607
:10587000034810180078184010BD0000600804406C
:105880000000044010B501211020FBF769FD6423DE
:10589000012202210020FBF7BDFB0020FBF76EFC7C
:1058A000002211461046FBF7EDFB002201211046B5
:1058B000FBF7E8FB00210846FBF72AFC012100204A
:1058C000FBF726FC00BF03200B49087300BF00BF95
:1058D0000120087200BF042206210220FFF7B2F85F
:1058E000042211460220FFF7ADF80020FBF764FC0C
:1058F0000020FBF717FD10BD200804407047000092
:1059000070B505460C46184800F0A5FB002D04D0E4
:10591000012D0DD0022D23D116E000221146104694
:10592000FBF7B0FB002201211046FBF7ABFB18E0B0
:10593000642200210846FBF7A5FB6420021B01211D
:105940000020FBF79FFB0CE06420021B00210846AF
:10595000FBF798FB642201210020FBF793FB00E09A
:1059600000BF00BF70BD000000400640FEB5054608
:105970000C463A480078002809D0002038490880B1
:105980000025084601782846FFF7BAFF64E01E2C80
:105990002ADB502C28DC002032490870324800787D
:1059A000002802D02E48048018E02046FAF784FF31
:1059B00000902E480168009800F032FF07462C48FE
:1059C0000168384600F09CFF7F21C905019000F076
:1059D00027FF0646FAF72CFF214908802048017866
:1059E0002846FFF78DFF37E01E2C35DA002D2CD02E
:1059F0000F2C1CD006DC002C09D0052C0FD00A2C53
:105A000021D110E0142C16D0192C1CD117E0002045
:105A10001449087000210846FFF772FF14E00120C6
:105A20001049087010E002200E4908700CE00320B5
:105A30000C49087008E004200A49087004E00520B9
:105A40000849087000E000BF06E000200549087022
:105A500000210846FFF754FFFEBD0000F4040020BB
:105A600002000020000000200105002004050020A5
:105A70000805002070B4039C0D4616465D4366433E
:105A8000ED13F613AD1B5A436143D213C9135118DA
:105A90000560416070BC70477047704710B515488D
:105AA000006901210904084312490861124800787D
:105AB00040084000401C10490870FFF73DF9FFF70F
:105AC00043F9FFF74FF9FFF731FAFBF7C1FC0B4839
:105AD0004088002804DD09484088401E0749488066
