:020000040800F2
:100000004814002049010008C51E0008C11E000850
:10001000C31E000871040008993B0008000000009E
:100020000000000000000000000000003B25000868
:100030000907000800000000392500087D25000898
:100040006301000863010008630100086301000800
:1000500063010008630100086301000863010008F0
:1000600063010008630100086301000863010008E0
:1000700063010008630100086301000863010008D0
:1000800063010008630100086301000863010008C0
:1000900063010008630100086301000863010008B0
:1000A00063010008630100086301000863010008A0
:1000B000630100086301000885250008630100084A
:1000C0006301000863010008630100086301000880
:1000D000630100088D3B000863010008630100080C
:1000E0006301000863010008630100086301000860
:1000F0006301000863010008630100086301000850
:10010000630100086301000863010008630100083F
:10011000630100086301000863010008630100082F
:10012000630100086301000863010008630100081F
:10013000DFF810D000F03CF900480047E93D000826
:10014000AFF3008048140020064880470648004767
:10015000FEE7FEE7FEE7FEE7FEE7FEE7FEE7FEE777
:10016000FEE7FEE7812500083101000840EA0103AF
:100170009B0703D009E008C9121F08C0042AFAD25D
:1001800003E011F8013B00F8013B521EF9D2704721
:10019000D2B201E000F8012B491EFBD270470022C9
:1001A000F6E710B513460A4604461946FFF7F0FF76
:1001B000204610BD421C10F8011B0029FBD1801AFB
:1001C000704780EA010210B502F00043400022D0DF
:1001D0004A001FD0010E01EB1261C0F35600C2F3BA
:1001E000560240F4000042F40002A0FB022000048A
:1001F0007F39140400D0401C50EA124001D4400062
:10020000491EC2B20C0604EBD010401C4008802AE4
:1002100002D003E0002010BD20F00100002900DA28
:100220000020184310BD30B480EA010202F00045FE
:1002300030F0004221F0004013D090B1C30DD40D36
:10024000C2F31601C0F31600E41A41F4000140F4B1
:1002500000027D34914201D3641C00E04900002C6F
:1002600002DA30BC002070474FF4000000239142B6
:1002700001D3891A034340084FEA4101F7D151B134
:10028000914202D14FF0004105E002D24FF001014E
:1002900001E06FF0010103EBC450284430BC00F0D2
:1002A0004FB8C10F80EAE0700844CA0796230021C6
:1002B00000F04FB896230022114600F04AB800F033
:1002C000004220F00040C10DC0F3160040F40000D1
:1002D0007F2901DA00207047962903DCC1F19601DD
:1002E000C84001E096398840002AF4D04042704767
:1002F00020F00040C10DC0F3160040F400007F293B
:1003000001DA00207047962903DCC1F19601C8404C
:100310007047963988407047002801DBC0F10040E3
:10032000002901DBC1F1004181427047002801DB57
:10033000C0F10040002901DBC1F100418842704753
:100340000029A8BF7047401C490008BF20F00100E9
:10035000704710B4B0FA80FC00FA0CF050EA0104C7
:1003600004BF10BC704749B1CCF1200421FA04F459
:1003700011FA0CF118BF012121430843A3EB0C0132
:10038000CB1D4FEA00614FEA102042BF002010BC95
:10039000704700EBC35010440029A4BF10BC704745
:1003A000401C490008BF20F0010010BC704700004D
:1003B000064C074D06E0E06840F0010394E80700B2
:1003C00098471034AC42F6D3FFF7B6FE44950008C8
:1003D0006495000870B58C1810F8015B15F00703E0
:1003E00001D110F8013B2A1106D110F8012B03E0CE
:1003F00010F8016B01F8016B5B1EF9D12B0705D4D6
:100400000023521E0DD401F8013BFAE710F8013B1E
:10041000CB1A921C03E013F8015B01F8015B521E3A
:10042000F9D5A142D8D3002070BD000010B50F4906
:100430004FF0804200240A6023224A60C1E9024052
:1004400008460C6101F0C4F80848602148300022D9
:10045000C0E90014022181600146483801F055F8D6
:10046000BDE810400021014801F07CB9E8030020FC
:10047000FEE700002DE9FC5F5A495B4A5C4E0988A3
:10048000128801EB810102EB410258493688544C35
:10049000098801EB810106EB4101C1EB011102EB7F
:1004A0008101544AA1EB0111237812885D08801A5A
:1004B00000EB81064FF46160B6FBF0F1B6FBF0F99A
:1004C00000FB11613C20B1FBF0FAB6FBF0F100FB40
:1004D0001168616A884578D001270097A07B46A201
:1004E000A0EB5300C1B2207B00EB4500C0B201F08D
:1004F000C7FF0097A07B2378227BA0EB5300C1B2FB
:1005000005EB85001044C0B23BA201F0B9FF207892
:10051000CDE900074FF00A0BB9FBFBF2A17B0123E9
:10052000A1EB5000C1B2207B01F026FF2078CDE97D
:100530000007A17B0123A1EB5000C1B2207B4A46FA
:100540002844C0B201F018FF2078CDE90007A17B54
:10055000BAFBFBF2A1EB5000237BC1B205EB4509CE
:1005600009EB0300C0B2012301F006FF2078CDE9BA
:100570000007A17B0123A1EB5000C1B2207B5246B2
:1005800000EB8500C0B201F0F7FE2078CDE900074E
:10059000A17BB8FBFBF2A1EB5000237BC1B203EBC4
:1005A0004900C0B2012301F0E7FE2078CDE9000741
:1005B000A17B227BA1EB5000C1B2C5EBC50010446A
:1005C000C0B20123424601F0D7FEC4F8248001F0F6
:1005D00029FE16B10020BDE8FC9F0120FBE70000CA
:1005E0008C0000207A000020780000207E0000208F
:1005F0007C000020760000203A0000000F49104ADD
:10060000114B0988128801EB810102EB41020D496F
:100610001B88098801EB810103EB4101C1EB01114A
:1006200002EB8101094AA1EB01111288801A10EB3B
:10063000810001D000207047012070477A0000201F
:10064000780000207E0000207C0000207600002042
:100650002DE9F041204F1F4E00EB400407EB8405CD
:1006600081420ED000F03CF837F8240000EB800007
:100670004000FFF71FFEA968FFF7D5FDFFF71FFE3B
:100680003080B6F90000002801DA00203080B6F989
:100690000000FFF706FEAF683946FFF792FD0F49ED
:1006A000FFF7C1FDFFF724FE84B26888A04202D3A1
:1006B000A888A0420BD9044600EB80004000FFF759
:1006C000F9FD3946FFF7AFFDFFF7F9FD3080204611
:1006D000BDE8F0816A0000202403002000002041D2
:1006E00007480849C28A0A8083898B81037C0B836F
:1006F000C3898B84437C0B86008B104488877047AA
:100700006C03002024030020704700001CB500F09B
:10071000B3FA4FF4E01003F0D9FE482003F0DAFA00
:1007200001F008FD002001F0FDFB01211448CDE996
:1007300000011823642234211E2001F054FE01F030
:1007400071FD4FF47A6003F0D5FA40F2E7314720AB
:1007500001F01EFF4FF4E13003F0E2FE03F0ECF88D
:100760006320FFF763FE03F019FA002003F038FA64
:1007700000F00AF803494FF07C5048601CBD0000AF
:10078000B4000020F80400202DE9F0431D4885B096
:10079000816941F004018161816901F004010491E2
:1007A000816941F0040181618069032700F0040040
:1007B000CDE903704FF4006400250126DFF848906E
:1007C0008DE870006946484600F046F94FF48058BD
:1007D00001AACDF8008082E8E0006946484600F0B2
:1007E0003BF92146484600F02FFA084C4146E0828A
:1007F000A082484600F028FA60832083658205B015
:10080000BDE8F083001002400008014058000020BD
:10081000FEB5054601F070FB0124182710264FF69F
:10082000FF72012D07D0022D1FD001F065FBBDE83E
:10083000FE4001F0F7BC1CA0CDE9000700231546DF
:1008400028210294184600F056F819A0CDE90006B8
:1008500000232A4650210294184600F04CF8002349
:1008600015A02A466021029418E018A0CDE90007DF
:100870000023154628210294184600F03CF814A0E5
:10088000CDE9000700232A4640210294184600F0D3
:1008900032F8002311A02A465A210294CDE900061D
:1008A000002000F028F8C2E74552524F52000000E5
:1008B000434F4E5441435400435553544F4D4552BA
:1008C0002053455256494345000000004C4F570005
:1008D0005741544552204C4556454C00504C4541DB
:1008E000534520524546494C4C000000C9B2C0B2A5
:1008F000012201F08DBBF8B50E46DDE9065428460D
:10090000089FFFF757FC80B26043A021A1EB500085
:1009100000EBD070F1B2C0F3470023462A4600979F
:1009200001F0AEFDF8BD00002DE9F05F90F8211058
:100930000024022903D004218163012485E0016899
:100940000A6822F00E020A6001680A6822F00102B9
:100950000A603F4E3E4FB215DFF8F4C0DFF8F0906A
:10096000DFF8ECA0DFF8E8B0DFF8E4E00168783FFA
:1009700013011502ACF1640CA9F15009AAF13C0A6B
:10098000ABF1280BAEF1140E4FF48018B14227D909
:10099000B9420ED0614512D049451DD0514518D0FD
:1009A000594518D0714501D1424615E0294EB14252
:1009B00001D1012210E0274E1436B14201D110229C
:1009C0000AE0244E2836B14206D0224A3C329142F7
:1009D00001D11A4600E02A461E49091F0A602BE091
:1009E000B94213D0614517D0494522D051451DD099
:1009F00059451DD0714501D142461AE0B14202D19C
:100A00004FF0807215E0134EB14201D1012210E087
:100A1000104E1436B14201D110220AE00D4E283694
:100A2000B14206D00B4A3C32914201D11A4600E055
:100A30002A46074980394A60012180F821100021A7
:100A400080F82010416B01B188472046BDE8F09F37
:100A500080000240080402402DE9F84FDFF8C09101
:100A6000002409F1040A0AF1040B23464FF00F0891
:100A70000BF1040ECCE00127A7403A40BA4272D1F4
:100A8000DFF8A0C14D68A5EB0C0665452BD00DDC49
:100A9000032D34D005DC35B3012D19D0022D2FD113
:100AA0001BE0112D16D0122D2AD119E0B6F5881FA2
:100AB00019D006DCB6F5803F15D0B6F5801F1FD1E2
:100AC00011E0B6F5001F0ED0B6F5041F18D10AE0EC
:100AD000CB6815E0CB681B1D12E0CB6808330FE034
:100AE000CB680C330CE08B682BB1012B4FF0080363
:100AF00003D0476104E0042302E0076100E0002323
:100B0000FF2A01D8064601E000F104064FEA8405F9
:100B100001D9A5F12005376808FA05FC27EA0C077A
:100B200003FA05F547EA050737604D68ED006ED515
:100B30003D4DAE6946F00106AE61AD6924F0030695
:100B400005F001050095394D7719BE68A5072D0FF1
:100B500008FA05FC26EA0C06DFF8D4C0604503D18C
:100B60004FF0000C25E052E0DFF8C8C0604502D12C
:100B70004FF0010C1DE0DFF8C0C0604502D14FF01E
:100B8000020C16E0DFF8B4C0604502D14FF0030C50
:100B90000FE0DFF8ACC0604502D14FF0040C08E074
:100BA000DFF8A0C0604502D14FF0050C01E04FF026
:100BB000060C0CFA05FC4CEA060CC7F808C04D6898
:100BC000D9F80060ED034D4601D5164300E0964389
:100BD0002E604D68DAF80060AD03554601D5164326
:100BE00000E096432E604D68DBF80060ED025D4644
:100BF00001D5164300E096432E604D68DEF8006094
:100C0000AD02754601D5164300E096432E60641C84
:100C10000A6832FA04F57FF42EAFBDE8F88F0000C1
:100C200000040140000011100010024000000140CB
:100C300000080140000C0140001001400014014078
:100C400000180140001C01408068084000D00120CD
:100C500070470AB1016170470904FBE701488068E9
:100C6000704700004C00002002488168027811445F
:100C7000816070474C000020074810B5016841F0C2
:100C800010010160052000F057F80F2000F006F871
:100C900000F024F8002010BD0020024070B50D4D7A
:100CA00004464FF47A712878B1FBF0F00A490968DC
:100CB000B1FBF0F000F0DCFA48B9102C07D20022AA
:100CC0002146501E00F018F800206C6070BD012015
:100CD00070BD00004C000020240000207047002858
:100CE00009DB00F01F02012191404009800000F162
:100CF000E020C0F800117047F0B40E4B1B68C3F33E
:100D00000223C3F10704042C00D904241D1D072D60
:100D100001D2002300E0DB1E012606FA04F56D1E59
:100D20000D409D409E40761E164045EA0601F0BCEF
:100D300002F064BF0CED00E0064A00F00701106805
:100D40004FF6FF03184040EA0120034908431060B2
:100D5000704700000CED00E00000FA052DE9F047B7
:100D60000D46040067D0DFF81881D8F8000000F0C5
:100D70000700A8420CD2D8F8001021F0070129433F
:100D8000C8F80010D8F8000000F00700A84252D1BF
:100D900020683C4E810712D5400703D5706840F4A7
:100DA000E06070602078000703D5706840F4605000
:100DB00070607068A16820F0F000084370602078CF
:100DC000C00727D06068012810D03168022810D0F1
:100DD000890700292FDA716821F00301014371604E
:100DE000FFF73CFF074641F288390CE03168890380
:100DF000EFE78901EDE7FFF731FFC11B494502D954
:100E00000320BDE8F0877068616800F00C00B0EB6B
:100E1000810FF0D1D8F80010404601F00701A94237
:100E20000BD9016821F0070129430160006800F037
:100E30000700A84201D00120E3E72078400705D54C
:100E40007068E16820F4E060084370602078000773
:100E500006D57068216920F4605040EAC1007060D6
:100E600000F038F87168084AC1F30311515CC840BA
:100E70000649086006480068FFF710FF0020C0E739
:100E800000200240001002405845000824000020C5
:100E9000500000200448054900684968044AC1F32D
:100EA0000221515CC840704724000020001002401D
:100EB000684500080448054900684968044AC1F3C8
:100EC000C221515CC840704724000020001002403D
:100ED0006845000812A085B00FC88DE80F0014A067
:100EE000144B006804905968134801F00C02042A5E
:100EF00010D0082A0ED1C1F38342C9031DF80200A5
:100F00000AD5596804AAC1F34041515C0A4A5043CA
:100F1000B0FBF1F005B0704708494843FAE700001C
:100F200002030405060708090A0B0C0D0E0F10102A
:100F3000010200000010024000127A0000093D008A
:100F40002DE9F84F04006FD02078BE4DC00747D080
:100F50006868C0F38100012807D06868C0F3810089
:100F6000022809D16868C00306D52868800337D5F0
:100F700060680028E7D033E06068B0F5803F0BD0B0
:100F800010B1B0F5A02F11D0286820F4803028606F
:100F9000286820F4802002E0286840F4803028602F
:100FA000606888B1FFF75AFE064609E0286840F4F9
:100FB00080202860F0E7FFF751FE801B642873D87B
:100FC00028688003F7D50BE0FFF748FE064604E0EB
:100FD000FFF744FE801B6428F1D828688003F7D40B
:100FE0002078DFF8648280074FF0010A4FF0000993
:100FF00039D5686810F00C0F07D06868C0F381001D
:10100000022809D16868C00306D42868800714D56F
:101010002069012808D110E02069B0B1C8F800A00B
:10102000FFF71CFE064605E007E1FFF717FE801BF1
:101030000228C4D828688007F7D52868616920F09D
:10104000F80040EAC10028600DE0C8F80090FFF702
:1010500005FE064604E0FFF701FE801B022823D8A8
:1010600028688007F7D4207800072CD57748A16935
:10107000D9B1C0F800A0FFF7F1FD064604E0FFF784
:10108000EDFD801B02280FD8686A8007F7D57048ED
:101090004FF4FA510068B0FBF1F0009000BF0098E7
:1010A000411E0091FAD20EE07CE0C0F80090FFF7FC
:1010B000D5FD064604E0FFF7D1FD801B022871D85C
:1010C000686A8007F7D4207840075BD5E869002775
:1010D000C00008D4E86940F08050E861E869012761
:1010E00000F0805000905B480168C90511D4016888
:1010F000834641F480710160FFF7B0FD064604E0CD
:10110000FFF7ACFD801B64284CD8DBF80000C0055D
:10111000F6D5E06801280AD008B1052813D0286A5E
:1011200020F001002862286A20F0040002E0286A0A
:1011300040F001002862E06841F2883B88B1FFF787
:101140008DFD064609E0286A40F004002862EEE7BB
:10115000FFF784FD811B59455BD8286A8007F7D5C6
:101160000BE0FFF77BFD064604E0FFF777FD811BF0
:1011700059454ED8286A8007F7D41FB1E86920F096
:101180008050E861E069A8B36968C1F38101022970
:1011900046D00228484606D0C8F86000FFF75EFD3A
:1011A000044639E035E04746C8F86000FFF756FDD1
:1011B000064604E0FFF752FD801B022829D8286864
:1011C0008001F7D4206AB0F5803F05D16868A16836
:1011D00020F4003008436860D4E9080108436968D6
:1011E00021F4741108436860C7F860A0FFF736FD6A
:1011F000044605E023E0FFF731FD001B022808D874
:1012000028688001F7D51AE0FFF728FD001B0228A7
:1012100002D90320BDE8F88F28688001F4D40EE0DD
:101220000128F7D06868226A00F48031914204D125
:10123000616A00F47010884201D00120EAE70020C2
:10124000E8E70000001002400000424280044242F1
:1012500024000020007000404FF0E02104280869BD
:1012600003D020F004000861704740F00400FAE762
:1012700010B5401EB0F1807F01D3012010BD4FF0AA
:10128000E02460610F21601702F0B8FC0020A0612B
:1012900007202061002010BD7047704710B5040082
:1012A00003D094F83D0010B107E0012010BD0020EC
:1012B00084F83C00204600F01FF8022084F83D002E
:1012C000211D206801F07AF9012084F8460084F895
:1012D0003E0084F83F0084F8400084F8410084F820
:1012E000420084F8430084F8440084F8450084F800
:1012F0003D00002010BD000008B500680B49884281
:1013000012D10B48C16941F00401C161C0690322D7
:1013100000F00400009001211E20FFF7EDFCBDE865
:1013200008401E20FFF7DBBC08BD0000000800409D
:101330000010024090F83D10012901D001207047B3
:10134000022180F83D100168CA6842F00102CA60BB
:1013500000680E4988420ED00D4988420BD0B0F18A
:10136000804F08D00B49884205D00B49884202D0F3
:101370000A49884204D1816801F00701062903D097
:10138000016841F00101016000207047002C01401C
:10139000003401400004004000080040000C004000
:1013A000704770B50446006801694FF00005C943F5
:1013B000890715D4C168C943890711D4E91E0161A1
:1013C00001202077206880698007204602D0FFF73F
:1013D000E7FF04E000F098F8204600F0C1F9257717
:1013E00020680169C943490717D4C168C94349073F
:1013F00013D46FF004010161022020772068806916
:1014000010F4407F204602D0FFF7CAFF04E000F04E
:101410007BF8204600F0A4F9257720680169C943CC
:10142000090716D4C168C943090712D46FF008012F
:101430000161042020772068C0698007204602D01F
:10144000FFF7AEFF04E000F05FF8204600F088F9F7
:10145000257720680169C943C90617D4C168C94303
:10146000C90613D46FF010010161082020772068AD
:10147000C06910F4407F204602D0FFF791FF04E0DE
:1014800000F042F8204600F06BF9257720680169EA
:10149000C943C90708D1C168C943C90704D1891E16
:1014A0000161204600F0BCF920680169C9430906C2
:1014B00009D4C168C943090605D46FF080010161F0
:1014C0002046FFF7E9FE20680169C943490609D4AF
:1014D000C168C943490605D46FF040010161204647
:1014E00000F030FB20680169C94389060BD4C1684C
:1014F000C943890607D46FF0200101612046BDE889
:101500007040FFF7CABE70BD704770B5044690F8D2
:101510003C000D4601280AD0012084F83C0042B16D
:10152000042A18D0082A2AD00C2A4DD139E00220EA
:1015300070BD206801F096F82068816941F00801CB
:1015400081612068816921F00401816120688169DD
:101550002A69114311E0206801F0B4F8206881691C
:1015600041F4006181612068816921F480618161B9
:10157000206881692A6941EA0221816124E02068AA
:1015800001F0D6F82068C16941F00801C161206806
:10159000C16921F00401C1612068C1692A69114350
:1015A00011E0206801F0F8F82068C16941F4006199
:1015B000C1612068C16921F48061C1612068C1698D
:1015C0002A6941EA0221C161002084F83C0070BD13
:1015D00010B5040003D094F83D0010B107E00120DD
:1015E00010BD002084F83C00204600F01FF80220C7
:1015F00084F83D00211D206800F0E0FF012084F800
:10160000460084F83E0084F83F0084F8400084F8E7
:10161000410084F8420084F8430084F8440084F8D0
:10162000450084F83D00002010BD00002DE9F04F7A
:10163000054600684FF0804ADFF81081DFF810B1EE
:10164000444C0226032785B04FF00109504529D1AB
:10165000E06940F00100E061E06900F00100049001
:10166000A06940F00400A061A06900F004000490AB
:10167000A06940F00100A061A06900F001000490A1
:10168000D8F8040020F4407040F0E06040F480702E
:10169000C8F80400B00303978DE841026946584634
:1016A000FFF7DAF92C49286888421FD1E06940F039
:1016B0000200E061E06900F002000490A06940F0DF
:1016C0000800A061A06900F008000490A06940F043
:1016D0000100A061A069009600F001000196029649
:1016E000CDE9037069461D48FFF7B6F928685045F3
:1016F00029D1E06940F00100E061E06900F00100FB
:101700000490A06940F00400A061A06900F004000A
:101710000490A06940F00100A061A06900F0010000
:101720000490D8F8040020F4407040F0E06040F4E9
:101730008070C8F80400042003978DE841026946D0
:101740005846FFF789F905B0BDE8F08F0000014069
:10175000000801400010024000040040000C01405D
:101760007047000010B5044649B104290AD0082981
:101770000BD094F8410001280AD0012010BD94F844
:101780003E00F8E794F83F00F5E794F84000F2E7F0
:10179000022081B3042932D0082933D084F84100D3
:1017A0000122206800F050FF184A20681849904232
:1017B00001D0884203D1436C43F400434364206862
:1017C00090420DD088420BD0B0F1804F08D0114923
:1017D000884205D01049884202D01049884204D17D
:1017E000816801F00701062903D0016841F0010179
:1017F0000160002010BDFFE784F83E00D0E784F8C8
:101800003F00CDE784F84000CAE70000002C01400B
:10181000003401400004004000080040000C00407B
:101820002DE9F047B949884274D1B94EDFF8E49206
:101830001021B08B401CB0834846FFF705FA30708A
:101840004021B548FFF700FA7070B278317802276E
:10185000012500244FF496734FF42F7C8A4203D164
:1018600096F80380804519D009B9012A01D010B13A
:1018700006E0B5711AE096F80380B8F1010F02D0C6
:10188000012902D002E0F57108E012B1012802D06E
:1018900004E0B7710EE0F27802B9F771B279012A6B
:1018A00004D0022A06D0012A0DD010E0F26A521CA0
:1018B000F26209E0F26A9A4202DA327A521C327219
:1018C000F462B47103E0F26A624500DBB572F2794A
:1018D000012A02D0022A1ED005E0326B521C32636C
:1018E000624500DBF572B170F0704FF40061C846DC
:1018F0004846FFF7A9F9B0824FF480514046FFF700
:10190000A3F93083B6F91410B6F91620914213D01A
:1019100051B111E0F8E0326B9A4202DA727A521C4D
:1019200072723463F471DEE7B6F91A30984203D06C
:1019300010B9738A5B1C7382914208D039B1B6F931
:101940001A30984203D010B1738A5B1E7382B37948
:1019500096F807C0DFF8C48153EA0C0308D18A4225
:1019600006D1B6F91A10814202D198F8000078B178
:1019700074853485B07B18B1747302F035F9B47393
:10198000B08AF082308B7083307F800706D014E0FD
:10199000308D6428F4D2401C3085F1E7B079F179BC
:1019A000084314D0308A401C80B23082142801D2FF
:1019B000307900E0002002F013F9B08B0A21B0FB6F
:1019C000F1F201FB12004FF0640910B12FE03482F4
:1019D000F0E77079092802D2401C707100E0747140
:1019E00098F8003013B186F80C9000E034734C483E
:1019F000DFF830C1018831B19CF80000022804D022
:101A00008CF8005001E08CF800404748B0F9002005
:101A100046488370C2709CF8002002714171317B8E
:101A20008171717901220144414800F029FAB08B9B
:101A30000C21B0FBF1F201FB120141B93D490A78DA
:101A40003D491AB10A78521C0A7000E00C70B0FBD4
:101A5000F9F209FB120189B9384941F211120988DA
:101A60001140102907D0F473318D642905D3718D8D
:101A7000491C718502E0F773F6E774854FF47A71BB
:101A8000B0FBF1F201FB120129BB2D49097811B31A
:101A9000F18B491C89B2F1833C2903D1318C491C5B
:101AA0003184F483318C0A2903D13484718C491C2C
:101AB0007184718C062903D17484B18C491CB18462
:101AC000B18C0A2903D1B484F18C491CF184F18CC6
:101AD000062900D1F4844EF66021B0FBF1F201FB3F
:101AE0001200002810D1708D40F24E2188420AD396
:101AF0007485707B092802D2401C707303E07473F4
:101B000000F01CFDB573B483BDE8F087B00400207D
:101B10005800002000080140000C01403B0000205C
:101B20003C0000203A000020380000202E00002059
:101B30009C0300200E0000200F0000204000002029
:101B40000D0000207047704770B5026804461068A9
:101B5000D168536910F00F0F52D003F0010501F462
:101B600090762E435FD0C20705D0CA0503D5E26B3D
:101B700042F00102E263420705D5DA0703D0E26BC7
:101B800042F00202E263820705D5DA0703D0E26B76
:101B900042F00402E263020707D501F020022A4363
:101BA00003D0E26B42F00802E263E26B002A33D01A
:101BB000800604D5880602D5204601F045FF20683E
:101BC0004069E16BC0F38010090700D428B32046B8
:101BD00001F02CFF2068416949061AD5416921F0BE
:101BE00040014161606BA0B12D494163606BFEF71C
:101BF0009BFE002810D0606B416BBDE87040084729
:101C0000830610D58B060ED52046BDE8704001F046
:101C10001BBF2046FFF797FF70BD2046FFF793FFDD
:101C20000020E06370BD03062BD50B0629D594F880
:101C300039002128F6D1A068B0F5805F01D1206974
:101C4000B0B1206A411C2162216800784860E08CB4
:101C5000401E0004000CE084E4D12068C16821F03B
:101C60008001C1602068C16841F04001C16070BD61
:101C7000206A0088C0F308005060206A801C20623F
:101C8000E5E74006F3D54806F1D5D168204621F0B6
:101C90004001D160202184F8391000F010F970BDA6
:101CA0001D3A000870B5040004D094F839000025EE
:101CB00010B106E0012070BD84F83850204600F0D5
:101CC00023F8242084F839002068C16821F40051E9
:101CD000C160204601F0FEFE2068016921F49041B8
:101CE00001612068416921F02A0141612068C168D1
:101CF00041F40051C160E563202084F8390084F884
:101D00003A00002070BD000010B500681E4986B082
:101D1000884236D11D48816941F0040181618169A1
:101D200001F004010491816941F00401816181693C
:101D300001F004010491816941F48041816180696D
:101D4000134C00F4804004904FF400700090022087
:101D50000190012002900320039069462046FEF77F
:101D60007BFE211500910021019169462046FEF776
:101D700073FE2520FEF7B3FF032211462520FEF750
:101D8000BBFF06B010BD000000380140001002404B
:101D90000008014090F83A30202B22D1F9B1F2B17D
:101DA00090F83830012B1CD081628285C2850021D9
:101DB000C163222280F83A2080F838100168CA688E
:101DC00042F48072CA6001684A6942F001024A61C5
:101DD0000068C16841F02001C16000207047012007
:101DE000704702207047000070B5006820498842A3
:101DF0003CD1204B0021585CEB280BD0491CC9B2C8
:101E00000929F8D3BDE870401A49092201F10C00F4
:101E1000FFF7C0BF174C00204C340A18082A01D81D
:101E20009A5C02E01A4412F8092C2254401CC0B2F9
:101E30000928F2D32078EB28E4D16078B028E1D1EA
:101E4000608840BAFEF72DFA0B4E3146FEF7EBF9EB
:101E50000A4D6860A08840BAFEF723FA3146FEF7C3
:101E6000E2F9A860E08840BA2880CBE770BD0000A6
:101E70000038014090030020000020414000002075
:101E800090F83930202B18D1A9B1A2B190F8383090
:101E9000012B12D001628284C2840021C1632122FD
:101EA00080F8392080F838100068C16841F080015E
:101EB000C1600020704701207047022070477047C2
:101EC000FEE7FEE77047000030B40021094B0A46E8
:101ED000002000EB800403EB8404401CC0B2625479
:101EE0008028F6D3491CC9B21429F1D330BC00F0C4
:101EF00099B900000805002010B50021084B0A46DA
:101F0000002000EB800403EB8404401CC0B2625448
:101F10008028F6D3491CC9B21429F1D310BD0000A2
:101F20000805002028B1012806D10021A72000F0D3
:101F3000C5BA0021A620FAE7704710B500218D2010
:101F400000F0BCFA0021102000F0B8FA0021BDE832
:101F50001040AE2000F0B2BA10B500218D2000F084
:101F6000ADFA0021142000F0A9FA0021BDE81040CC
:101F7000AF2000F0A3BA2DE9FE4F0026171A8146C4
:101F8000701E3546A3EB010A8846002F02DD4FF094
:101F9000010102E003D14FF00001019102E0C7F11D
:101FA00000070190BAF1000F02DD4FF0010002E0DE
:101FB00003D14FF00000009002E0C7F1000A00904A
:101FC0005046574501DD3C4600E00446601C4FF09A
:101FD000000B029016E008F0FF0109F0FF000C9AD8
:101FE00000F016F83E445544A64202DD0199361B26
:101FF0008944A54202DD00992D1B88440BF10100A4
:102000001FFA80FB02998B45E5DBBDE8FE8F0000DF
:1020100010B5C30800F0070001248440E0B2084C6A
:1020200001EB810104EB8101002ACA5C02D002436A
:10203000CA5410BD60EA0202D043C85410BD00006B
:1020400008050020F0B5384885B0816941F00801E5
:102050008161816901F008010491816941F0080101
:102060008161816901F008010491816941F00801F1
:102070008161816901F008010491816941F00401E5
:102080008161816901F004010491816941F00401D9
:1020900081618069012400F0040004902020CDE9D2
:1020A0000004224E0325694603953046FEF7D4FC12
:1020B000012220213046FEF7CCFD8020CDE900042E
:1020C000694603953046FEF7C7FC01228021304661
:1020D000FEF7BFFDA602164FCDE9006469463846FB
:1020E0000395FEF7B9FC012231463846FEF7B1FDF3
:1020F0000220CDE90004694603953846FEF7ACFCA2
:10210000012202213846FEF7A4FD009469463846B4
:1021100003950194FEF7A0FC012211463846FEF714
:1021200098FD05B0F0BD000000100240000801401D
:10213000000C014010B5FFF785FF354C002202214D
:102140002046FEF786FDC82001F0D4FD01220221C1
:102150002046FEF77EFD0021AE2000F0AFF9002101
:10216000812000F0ABF90021D02000F0A7F9002178
:10217000A42000F0A3F90021A62000F09FF900217F
:10218000A92000F09BF90021022000F097F900211E
:10219000AD2000F093F90021802000F08FF900219C
:1021A000C82000F08BF90021A02000F087F9002161
:1021B000D52000F083F90021402000F07FF90021B4
:1021C000D92000F07BF900212F2000F077F90021C1
:1021D000DB2000F073F900213F2000F06FF90021AF
:1021E000202000F06BF90021DC2000F067F90021CD
:1021F000352000F063F90021302000F05FF9FFF78F
:1022000063FE0021BDE81040AF2000F057B9000088
:10221000000C01400346012000E05843491EC9B2AA
:10222000FBD2704770B5124E00250021B02000F09F
:1022300045F90021284600F041F90021084600F048
:102240003DF90021112000F039F9002404EB84004D
:1022500006EB80000121405D00F030F9641CE4B21F
:10226000802CF3D36D1CEDB2142DDED370BD0000B5
:10227000080500202DE9FC4F1D468A4681468B4605
:102280000090082B0CD0680700D0012000EBD5008F
:1022900069084843C0B2203AD7B20026019058E0FE
:1022A0000620F8E70C2D13D0102D15D0142D17D0C3
:1022B000182D1BD01C2D1FD0202D4DD1284800EBF0
:1022C00087104FF00008845DE0071BD00B9A1CE0DC
:1022D00007EB470023490CE0234800EB0710F0E729
:1022E0002249C7EB071001EB4000EAE7204907EB62
:1022F000C70001EB8000E4E71E49C7EBC70001EB14
:10230000C000DEE70B9848B3002251464846FFF76D
:102310007FFE0AF1010000F0FF0A08F101006408E5
:1023200000F0FF08B8F1080FCED309F1010000F06A
:10233000FF09082D0AD00099A9EB0100B0EB550F59
:1023400004D10BF10800894600F0FF0B761CDA4639
:10235000F6B201988642A5D3BDE8FC8F0122D4E7EE
:102360001A7D000870450008E4490008D44F0008B1
:10237000F65A0008526800082DE9F84F0025DDE9FB
:102380000A691F4692468B468046082E00D10225D8
:1023900000241CE0381B401EC1B20A20FFF73AFFA0
:1023A000BAFBF0F00A21B0FBF1F201FB1200CDF80C
:1023B000009080B13030C2B205EB560101FB0480C1
:1023C000C0B233465946FFF755FF641CE4B2BC4225
:1023D000E0D3BDE8F88F05EB560101FB0480C0B2E5
:1023E00033463022EEE72DE9FF4F81B006460090DC
:1023F0000F464FF0000A8946580700D0012000EB35
:10240000D3000490002032E0002029E00E98002440
:1024100010F80A500AF101001FFA80FAE80701D00B
:102420000F9A02E00F9848B3002239463046FFF772
:10243000EFFD7F1C641C6D08E4B2FFB2082CEDD3E5
:10244000761C0098F6B2311A0398814204D109F142
:102450000800009E00F0FF0908F101004F46C0B2DD
:10246000039980468842D1D30BF10100C0B2049990
:1024700083468842C8D305B0BDE8F08F0122D4E777
:102480002DE9F8411E46154688460446079F0BE095
:102490003346414620460097FFF7ECFE082E0AD04F
:1024A00004EB5600C4B26D1C2A78A2F120005E280D
:1024B000EED9BDE8F881A41DE4B2F4E72DE9F041BE
:1024C0001B4F054609B1012200E0002201213846D8
:1024D000FEF7BFFB4FF48068002241463846FEF706
:1024E000B8FB144E0024002220213046FEF7B1FB39
:1024F000280601D5012200E0002280213046FEF7A7
:10250000A8FB012220213046FEF7A3FB6806641CCD
:10251000050EE4B2082CE6D3012241463846FEF708
:1025200098FB3846BDE8F04101221146FEF791BB09
:10253000000C0140000801407047704710B5FFF7DC
:10254000FCFC094900200246087008490880084937
:10255000087008210748FEF77CFB0022BDE8104008
:1025600080210548FEF775BB3B0000203C000020A1
:102570000D00002000080140000C0140FEF774BB74
:10258000704700000148FEF70CBF0000B0040020B7
:10259000094A10B5074BC2E900310021C2E9021017
:1025A00010461161FEF77AFEBDE810400248FEF7C2
:1025B000C1BE000000080040B0040020F0B5026871
:1025C0001C4D1D4E1D4FDFF878C01E4B4FF0804E46
:1025D000A84209D0984207D0704505D0B04203D038
:1025E000B84201D0604503D122F070044A6822430A
:1025F000A84209D0984207D0704505D0B04203D018
:10260000B84201D0604503D122F44074CA68224325
:102610004C6922F08002224302608A68C2620A6822
:102620008262A84201D0984201D109690163012167
:102630004161F0BD002C0140000400400008004052
:10264000000C00400034014010B501F01F010123CF
:10265000046A8B409C430462036A8A40134303620A
:1026600010BD0000F0B5026A22F001020262026AA7
:1026700043688469114E24F073050C68104F2C4395
:1026800022F002058A682A43B04201D0B84205D13F
:1026900022F00805CA682A4322F00402B04201D0A1
:1026A000B84205D14D6923F440731D438B692B4318
:1026B00043608461496841630262F0BD002C0140BF
:1026C00000340140F0B5026A22F010020262026A90
:1026D000436884690D6824F4E64444EA05248D685F
:1026E00022F0200242EA05120F4D104EA84201D0FE
:1026F000B04206D1CF6822F0800242EA071222F0EF
:102700004002A84201D0B04207D14D6923F4406392
:1027100043EA85038D6943EA850343608461496820
:1027200081630262F0BD0000002C014000340140D2
:10273000F0B5026A22F480720262026A4368C469D8
:1027400022F4007224F073050C68124E2C438D683D
:1027500042EA05220E4DA84201D0B04206D1CF6810
:1027600022F4006242EA072222F48062A84201D0E9
:10277000B04207D14D6923F4405343EA05138D69F4
:1027800043EA05134360C4614968C1630262F0BD56
:10279000002C01400034014030B5026A22F480521E
:1027A0000262036A4268C4690D6824F4E64444EA9C
:1027B00005248D6823F4005343EA0533084DA842ED
:1027C00002D0084DA84204D14D6922F4804242EA69
:1027D00085124260C46149680164036230BD000033
:1027E000002C0140003401400FB42DE9FE4F4FF0A2
:1027F00000094FF028084FF05C0A4FF6FF7B4F4668
:10280000139EFFF779FB10254EA0CDE900050124AA
:102810003B465A460A2102940020FEF76CF82B46EC
:102820004AA2414648460094FFF72AFE00942B46F0
:10283000414634200C9AFFF723FE009438212B46A2
:1028400034200D9AFFF71CFE2B4642A24A2148462F
:102850000094FFF715FE4148CDE9005402780223A9
:102860004A213420FFF788FD2B463DA24A21522001
:102870000094FFF705FE2B463AA2514648460094C5
:10288000FFF7FEFDCDE900541498032382B25146B0
:102890003420FFF771FD2B4634A25146522000949C
:1028A000FFF7EEFD2B4632A26E2148460094FFF75B
:1028B000E7FD48F6A040B6FBF0F2CDE90054012355
:1028C0006E213420FFF758FD4FF46160B6FBF0F243
:1028D000CDE900543E2001236E21FFF74DFD2B462C
:1028E00025A26E2148200094FFF7CAFD3C27B6FBC5
:1028F000F7F0B0FBF7F107FB11010A20B1FBF0F292
:10290000CDE9005401236E215220FFF735FDB6FBBF
:10291000F7F0B0FBF7F107FB1102CDE900540123FA
:102920006E215046FFF728FD66202B4613A26E212C
:102930000094FFF7A5FDBDE8FE0F5DF814EBFFF76F
:1029400071BC000050524556494557004D4F444513
:10295000203A00004245414E203A0000000000208D
:102960006700000042524557203A00006D6C00009D
:1029700054494D45203A0000680000006D000000F9
:102980000FB42DE9F84F0446DDE910215B4BDFF869
:1029900070814FEA224E0F980AB298F800101B6817
:1029A000009307140025DFF85CB10126564BDFF8D1
:1029B0005C91DFF85CA100B2062C26D2DFE804F0BF
:1029C000030E3A61739889F800604F460B98FDF743
:1029D00051FD002819D001243D7086E009B188F826
:1029E0000050BEF1000F20D0ABF80000022119709A
:1029F000FDF757FC0099FDF78FFC07D8022489F8F2
:102A0000005000F08FFFAAF8005072E04F4689F89E
:102A100000600320FDF7F2FD18B1AAF800503D70E8
:102A200067E03221AAF8001063E0ABF800700324DD
:102A30001E705EE0344B02221A70ABF8000031B118
:102A4000FDF72FFC0099FDF767FC52D837E010988E
:102A5000B046C1B2AAF8001089F800607046FDF7D0
:102A600009FDF8B1AAF80050ABF8007056460324EF
:102A700089F8005000F056FF2349358081F8008026
:102A800037E009B188F800501E70ABF8007042B111
:102A90003846FDF706FC0099FDF748FC29D80424C8
:102AA00027E0052425E018480670ABF8007049B10E
:102AB0003846FDF7F6FB0099FDF738FC19D888F881
:102AC000005016E010985746C0F30720AAF80000FF
:102AD000C84689F800601046FDF7CCFC48B10A48AA
:102AE0003D800524057088F8005000F01BFF00E0D1
:102AF0001D702046BDE8F80F5DF814FB440000206F
:102B000010000020380000203B0000200D000020B5
:102B10003C000020FEB50D46012458B164230A464E
:102B2000194600200094FFF726FA66232A46194624
:102B3000009426E0FFF7E0F9012280211448FEF717
:102B400088F8002208211348FEF783F8142512A004
:102B5000CDE9000500234FF6FF763246232102948B
:102B60001846FDF7C8FE0EA0CDE900050023324649
:102B70003C2102941846FDF7BEFE6523A0221946AB
:102B800000940020FFF7F7F9BDE8FE40FFF74ABBCD
:102B9000000C014000080140495427530000000088
:102BA000434F4C4420425245572054494D45000064
:102BB0002DE9FE430D4602004FF018044FF02000AF
:102BC0004FF040084FF03C014FF001073BD09542D9
:102BD00061D0B5FBF1F6B5FBF1F201FB12554FF0F8
:102BE0000A09B6FBF9F2CDE9004701234146FFF798
:102BF000C3FBCDE900472C20012332464146FFF7B5
:102C0000BBFBB5FBF9F2CDE9004744200123414667
:102C1000FFF7B2FBCDE90047502001232A46414689
:102C2000FFF7AAFBCDE900476820012300224146B7
:102C3000FFF7A2FBCDE900477420012300224146A3
:102C4000FFF79AFB27E0FFF757F901220821144804
:102C5000FDF7FFFF012280211248FDF7FAFF102047
:102C600011A1CDE9001000234FF6FF72029719461B
:102C70001846FDF740FE382023460DA24146009736
:102C8000FFF7FEFB5C20234609A241460097FFF7B1
:102C9000F7FB08480580BDE8FE43FFF7C3BA000014
:102CA00000080140000C0140524553455256450072
:102CB0003A0000006A0000202DE9FE431026362766
:102CC000DFF8B8900D464FF02C08012420B399F896
:102CD0000700854214D39DB164232A46194600207B
:102CE0000094FFF748F966232A46009466210020E5
:102CF000FFF741F989F80750BDE8FE43FFF792BAA4
:102D000000246423A022194620460094FFF733F9DB
:102D10006623A0220094E9E7FFF7EEF80122802164
:102D20001748FDF796FF012208211648FDF791FF8D
:102D300015A0CDE9000600234FF6FF720A21029488
:102D40001846FDF7D8FD334613A2414600200094F3
:102D5000FFF796FB334612A2402100200094FFF7B4
:102D60008FFB6E20334610A239460094FFF788FB94
:102D70006523A02219460094B9E700008C000020CA
:102D8000000C01400008014043414E43454C2042A5
:102D9000524557494E473F00484F4C4420544F003E
:102DA00043414E43454C0000524553554D450000AC
:102DB0002DE9F14F84B01C264FF060090A254FF031
:102DC000400A4FF0320B4FF03E08FFF795F81027FE
:102DD0000FA0CDE90007012400234FF6FF7229461A
:102DE00002941846FDF787FDCDE900640223594699
:102DF0005046049AFFF7C0FA3B4609A241464846AE
:102E00000094FFF73DFB05B0BDE8F04FFFF70ABAAD
:102E1000434F464645452041444445440000000098
:102E2000670000002DE9F04F85B083461020049024
:102E30000A200D461C244FF6FF790390FFF75CF83B
:102E40001027884E4FF0000A4FF00108BBF1060F23
:102E500039D2DFE80BF0033D4B4E7EA782A18DE80F
:102E6000820100234F464A4618460399FDF743FD69
:102E700055B34746CDF800807EA23C213820049B04
:102E8000FFF7FEFA00977CA23C214520049BFFF748
:102E9000F7FA0A20B5FBF0F2CDE900470123322111
:102EA0005020FFF769FA5E20234674A23221009772
:102EB000FFF7E6FACDE90047622001232A463221D6
:102EC000FFF75AFAF582C4E0A6F816A06CA11DE03F
:102ED0006CA18DE8820100234F464A4618460399AB
:102EE000FDF709FD282D10D3B58119E0357468A0D0
:102EF00031E06AA18DE8820100234F464A46184618
:102F00000399FDF7F8FC0F2D09D967A18DE812018F
:102F100000233A4632211846FDF7EDFC99E0F58191
:102F2000CDE90048464602232A4632213820FFF7E1
:102F300023FA022301223F215E20CDF800A000F0F9
:102F400011FF00965AA23C216220049BFFF798FAD9
:102F50007FE0757457A08DE8810100234A4618462A
:102F60000399FDF7C8FC3221234644A20846CDF858
:102F70000080FFF785FACDE9004802232A46322176
:102F80003820FFF7F9F93B464DA23C215E20CDF8F1
:102F90000080FFF775FA6E203B464AA23C21CDF82F
:102FA0000080D3E7F08A48A2281A3083CDF8008049
:102FB000DDE903132120FFF763FACDF80080DDE996
:102FC00003132DA24B20FFF75BFACDF80080DDE95B
:102FD00003133FA25020FFF753FA3FA08DE8810171
:102FE00000234A461A211846FDF785FC3B4621A2DC
:102FF0003C213820CDF80080FFF742FA3B461EA264
:103000003C214520CDF80080FFF73AFA0A26B5FBAF
:10301000F6F2CDE90048022332215020FFF7ACF947
:10302000B5FBF6F2CDE90048022332215020FFF72C
:10303000A3F96C20234611A23221CDF80080FFF7BE
:103040001FFACDE90048702001232A463221FFF7FC
:1030500093F9234981F803B005B0BDE8F04FFFF7BD
:10306000E1B800006C030020424C4F4F4D2052410C
:1030700054494F00310000003A0000002E000000CB
:103080004F464600424C4F4F4D2054454D50000096
:10309000424C4F4F4D20464C4F570000425245572F
:1030A0002054454D50000000524F4F4D000000008D
:1030B000430000004252455720464C4F5700000045
:1030C0006D6C00002F730000574154455200000002
:1030D000434F464645450000544F54414C000000C4
:1030E0008C000020FEB505460E461746FEF704FF8D
:1030F0000122102116A08DE80700174C0A2100209C
:10310000E38AA28AFDF7F7FB207E61780095CDE97E
:103110000110BE4206D1208AE38A00EB510081B241
:10312000A28A0DE0E38AA28A218A0020FDF7E3FB50
:10313000207EA1780096CDE90110E38AA28A618AF7
:103140000020FDF7D8FBBDE8FE40FFF76BB800009C
:103150004D4F4445000000008C0000202DE9F04F49
:10316000554BDFF85881564F1888564E85B00109E7
:1031700004D097F90010A8F8001031803188DFF8EA
:1031800048B1524D99464FF0010A814221D00E219B
:10319000B1EB103F1DD1FEF7AFFE18204CA1CDE9D9
:1031A0000010002354464FF6FF72CDF808A03421DA
:1031B0001846FDF7A0FBFFF735F87C702C70002255
:1031C00008215846FDF745FD002280214348FDF7C0
:1031D00040FD78780024A8B10520FDF70FFA40499A
:1031E00028B10C802C7000F09DFB7C7004E03D4AFF
:1031F00002201070322008803188A9F8001005B034
:10320000BDE8F08F98F8000040B23870082803DD60
:10321000A8F800403C7005E0002803DA0820A8F870
:103220000000387097F90000C84680B23080B9F8C5
:103230000010884204D1084397F9021008431DD1B9
:103240002C7000F06FFB012280212448FDF701FD66
:10325000002208215846FDF7FCFC3088B8F8001021
:10326000084326D0BC7097F900001F4900EBC0004E
:1032700001EB800124221D48FCF778FF1B49142232
:1032800010316846FCF772FF18480FC8FFF72AFF95
:1032900017493088A8F8000009780129AFD110300B
:1032A000308000F0B1FB2C7005B0BDE8F04F00F0AD
:1032B00039BB87F802A0D6E7160000206A0000207C
:1032C0002800002014000020000801400D0000200C
:1032D00043414E43454C4C494E470000000C0140D1
:1032E0003C0000203A000020E00100206C03002098
:1032F000610000202DE9F04F87B007460A200590B5
:103300006C2006904FF6FF700490002010241426C5
:10331000DDF844800390FEF7EFFD01254FF0700AC1
:103320004FF01D0B4FF08C09062F7FD2DFE807F01E
:10333000030C11333B7241A08DE8310000234FF69E
:10334000FF721846059901E040A025E0FDF7D3FA89
:103350006CE040A08DE83100DDE904210020039BF2
:10336000FDF7C9FA002000907021022301221920E4
:1033700000F0F8FC51465846234639A20095FFF765
:103380007FF86020334637A200950699FFF778F85A
:1033900008F0FF0228E034A08DE83100DDE90421C7
:1033A0000020039BD2E732A08DE83100DDE9042143
:1033B0000020039BFDF79FFA00200090702102235C
:1033C0000122192000F0CEFC51465846234624A283
:1033D0000095FFF755F86020334622A20095069924
:1033E000FFF74EF8C8F30722CDE900656A200223F3
:1033F0000699FEF7C1FF7E20334621A2009506996B
:10340000FFF73EF8484633461EA200950699FFF79F
:1034100037F80BE0002208211B48FDF71AFC0122B7
:1034200080211A48FDF715FC00F034F8184807729F
:1034300007B0BDE8F04FFEF7F5BE00005741495414
:1034400020544F20535441525400000048454154E9
:10345000494E4700424C4F4F4D494E470000000037
:10346000430000002E000000434F4F4C494E4700E0
:10347000434F4C442042524557494E4700000000FC
:103480006D6C00002F73000000080140000C01402B
:103490008C0000200EB5FEF72FFD0122182107A099
:1034A0008DE8070000234FF6FF7234211846FDF720
:1034B00022FABDE80E40FEF7B5BE0000454E4A4F69
:1034C000592100002DE9FE4F0E468046102087A1AD
:1034D000CDE900100124002318274FF6FF72029453
:1034E0000A211846FDF707FADFF808B234218248AE
:1034F000DFF80892824D4FF0000AB8F1000F32D089
:10350000B8F1010F71D1002E70D0697900296CD10A
:1035100089F8004005217B4E018008463470FDF794
:103520006DF800287ED0ABF800A089F800A086F8DE
:1035300000A000F0F7F9A8462E466C71FEF7DCFCFF
:103540001025294670A08DE8130000234FF6FF795F
:103550004A461846FDF7CFF9B0792946009498B34A
:1035600018236CA24FE086B3012E02D0022E14D095
:103570003FE089F800A0634AABF800A085F804A0FA
:1035800082F800A064A0CDE9000700234FF6FF7287
:1035900002941846FDF7AFF92BE0022189F80010DC
:1035A0004126614F06805F483968FCF7B5FE2879EF
:1035B00002D810B92C7100E008B1A87A30B101210D
:1035C000386800F0D7F814E01BE016E04D4F4FF4D8
:1035D00096703C70FCF74EFF48B1ABF800A087F83E
:1035E00000A000F09FF9AC7203E05DE06CE0ABF886
:1035F0000060BDE8FE4FFEF715BE85F80AA04BA09F
:10360000C1E710234CA26420FEF73AFF4BA0CDE99E
:1036100000052827002339464A4602941846FDF73C
:103620006AF900E042E0484E394630880094C0050F
:1036300002D5182337A201E010233FA26420FEF731
:103640001FFF42A0CDE9000500234A464021029415
:103650001846FDF750F930880094C00402D51823AD
:103660002CA201E0102334A240216420FEF708FFC1
:1036700039A0CDE9000500234A4658210294184696
:10368000FDF739F930784FF05801C006009402D5A3
:10369000182320A201E0102327A26420FEF7F0FEE9
:1036A000FEF7C0FD88F806A0BDE8FE8F1E48012188
:1036B000006800F05FF84120ABF800002248007875
:1036C000C007F1D0AC71EFE726A0CDE900070023D9
:1036D0004FF6FF7202941846FDF70DF912480221C9
:1036E000006800F047F885F805A0DDE7534554541D
:1036F000494E47003C000020380000203B000020DD
:103700008C0000200D00002050554D50202020201E
:10371000000000004E4700004E4F202F2059455317
:103720000000000000008242440000204445534352
:10373000414C494E470000004F4B00004E5443316E
:103740002020202000000000400000204E54433282
:10375000202020200000000054414E4B202020203B
:103760000000000053595354454D20434845434BF6
:10377000000000002DE9F34F83B06C2002901C265E
:1037800014274FF0580810244E20DFF884A101259B
:103790004FF02E09C34601292DD0022957D05D4E86
:1037A000514630688046FCF73EFD10F0FF4F4FF069
:1037B0000A040CD04046FCF79BFD80B2B0FBF4F24B
:1037C000CDE90075012300200299FEF7D5FD306890
:1037D000FCF78EFD81B22046B1FBF0F204FB121221
:1037E000CDE9007501230299FEF7C6FD05B0BDE8DD
:1037F000F04FFEF717BD334647A232210095FEF782
:103800003FFE0398FCF774FDCDE9006502460223F4
:1038100032214846FEF7B0FD51460398FCF7D1FC33
:10382000FCF766FDCDE900650246584601233221CA
:10383000FEF7A2FD00200090022301223F216C2010
:1038400000F090FA102335A23C2100955CE0074679
:10385000234631A241460095FEF712FE0398FCF77D
:1038600047FD0246022341464846CDE90045FEF7A2
:1038700083FD51460398FCF7A4FCFCF739FD024692
:10388000594601230846CDE90045FEF775FD00269F
:10389000022301225B216C20009600F063FA1023C2
:1038A0001EA2594670200095FEF7EAFD4FF0680809
:1038B000234619A2414638460095FEF7E1FD184F10
:1038C0003868FCF715FD0246022341464846CDE91B
:1038D0000045FEF751FD51463868FCF772FCFCF7D5
:1038E00007FD0246012341465846CDE90045FEF753
:1038F00043FD6B21022301226C20009600F032FA76
:10390000102306A2414600957020FEF7B9FD6DE731
:1039100000002041440000202E0000004300000071
:103920004800002003490020C88488844884088413
:10393000C8837047580000202DE9F0412E4C86B016
:10394000A06940F00100A061A06900F001000490AE
:10395000A06940F00400A061A069284900F00400BB
:103960000490486820F0E06040F00070486010204B
:10397000002701250326CDE90007DFF88480CDE983
:10398000025669464046FDF767F8A06940F0080016
:10399000A061A069CDE9025600F008000490402023
:1039A000CDE90007174F69463846FDF755F8A0697D
:1039B00040F00400A061A069CDE9025600F00400C7
:1039C00004900820CDE9000569464046FDF744F81B
:1039D000A06940F00800A061A069CDE9025600F09E
:1039E000080004908020CDE9000569463846FDF7BF
:1039F00033F806B0BDE8F08100100240000001403D
:103A000000080140000C0140034900204872087280
:103A1000C8728872704700005800002010B5406AD4
:103A20000021C185C184FEF78EF810BD0168CA6807
:103A300022F49072CA6001684A6922F001024A6168
:103A4000202180F83A10704710B590F83A102229DA
:103A500001D0022010BD81684FF48053994201D1FA
:103A6000026922B1826A99421BD049B10AE0026818
:103A7000816A5268C2F308020A80816A891C08E0E0
:103A8000016971B10168496801F07F011170816AB3
:103A9000491C8162C18D491E0904090CC18503D0EE
:103AA00016E001684968F1E70168CA6822F020025F
:103AB000CA600168CA6822F48072CA6001684A69F3
:103AC00022F001024A61202180F83A10FEF78CF9B9
:103AD000002010BD70B5044600680169E26821F459
:103AE000405111430161A1682069014360690143AC
:103AF0002068C26841F20C639A430A43C26020689E
:103B00004169A26921F44071114341611E49206855
:103B1000884202D1FDF7CEF901E0FDF7BBF900EBD9
:103B2000C00101EB0011606864228000B1FBF0F37A
:103B3000B3FBF2F36FF018067343B1FBF0F5B1FB82
:103B4000F0F605EB8305322303EB0515B5FBF2F523
:103B5000B6FBF2F605F0F00505EB0615B1FBF0F645
:103B6000B1FBF0F0B0FBF2F06FF01801484306EB48
:103B7000800003EB0010B0FBF2F0216800F00F00B2
:103B80002844886070BD0000003801400148FDF7FE
:103B9000DBBF00009C030020FEE7000010B50F48CB
:103BA0004FF08041002401601721C0E90114632116
:103BB000C0E90314FDF70CFD0848602148300822D5
:103BC000C0E90014014684604838FDF79EFCBDE85A
:103BD000104008210148FDF7C5BD00004C0400203D
:103BE0004FF08041C863704710B5FEF7B5F9024841
:103BF0000188491C018010BD160000200907090E2C
:103C0000002804DB00F1E02080F80014704700F089
:103C10000F0000F1E02080F8141D704702E008C892
:103C2000121F08C1002AFAD170477047002001E036
:103C300001C1121F002AFBD170472DE9F05F154624
:103C40001C46DDF828B00E46074601EB040800EBE1
:103C5000050A1FFA88F11FFA8AF05A46FCF746FE59
:103C60001FFA88F1A7EB05081FFA88F05A46FCF7FF
:103C70003DFEA6EB04091FFA89F11FFA8AF05A46A5
:103C8000FCF734FE1FFA89F11FFA88F05A46FCF758
:103C90002DFE06EB050907EB04081FFA89F11FFA50
:103CA00088F05A46FCF722FE3C1B1FFA89F1A0B2AD
:103CB0005A46FCF71BFE751BA9B21FFA88F05A463C
:103CC000FCF714FEA9B2A0B25A46BDE8F05FFCF7BB
:103CD0000DBE000010B54FF0E02200210446116136
:103CE0000846FDF7B9FA0249E008088010BD000057
:103CF0002C0000204FF47A7170B5B0FBF1F2B0FBEC
:103D0000F1F401FB1205094E03E0304600F010F813
:103D1000641E002CF9D1002D06D04FF47A70684350
:103D2000BDE8704000F004B870BD000040420F00D4
:103D30000B49098848434FF0E021486100238B611B
:103D4000086940F0010008610869C20701D0C0039A
:103D5000FAD5086920F0010008618B617047000006
:103D60002C0000202DE9F84F89461E4690468246D9
:103D70000024714203220A9802EB4105C8B930E0E1
:103D8000274608E03B46224649465046CDF800808B
:103D9000FFF753FF7F1CB742F4DD002D03DA05EB7C
:103DA0008405AD1D04E0A01B05EB80050A35761ED9
:103DB000641CB442E4DDBDE8F88F33462246494630
:103DC0005046CDF80080FFF738FF002D03DA05EBF1
:103DD0008405AD1D04E0A01B05EB80050A35761EA9
:103DE000641CB442E9DDE6E78AB0FCF78FFCF948D1
:103DF000DFF8EC930790DFF8E0B3F84F09F10C001F
:103E0000DFF8E083002401250890F74EB18A080905
:103E100030D0080A31D0080B7ED0B5EB113F7CD1F1
:103E2000F08AB246814279D001220821EF48FCF79E
:103E300010FF01228021EE48FCF70BFF1820EDA1B6
:103E4000CDE9001000234FF6FF720295194618467F
:103E5000FCF751FD99F810004E46002872D09AF8F0
:103E60000010F28A01EB810149004A43B2FBF0F0F5
:103E7000708234E1FFF772F9C7E799F8220007284A
:103E800009D0082875D0F08A8142BED072D201F0E4
:103E90000F00B082B9E74FF001024FF00801D3489C
:103EA000FCF7D7FE01228021D148FCF7D2FEB08A70
:103EB000F18A884213D0FEF71FF82422C8480799D8
:103EC000FCF754F901213079FCF7C2FBB06130797D
:103ED000CA4A00EB400112F82110FEF7A3FF7179E6
:103EE0003079FCF7B5FBC1B2B0613079FEF79AFFCB
:103EF00030797071B18AF18298F80020012A11D0CE
:103F00003A78012A23D0BE4A1278002AB4D0B27976
:103F10008AB3401E307102E0A7E029E109E1521E98
:103F2000B27172E7022806D1F078012803D134710A
:103F3000B079801EB071B07928B13179491E3171E4
:103F4000401E14E0CAE001F00F00B08217E0B26931
:103F5000024305D1801C3071B079801CB071F570BE
:103F6000B079052808D23179491C3171401CB071F3
:103F7000A3E116E075E006E001F58071B1823471CD
:103F8000B471F47062E001F00F00B082FFF73CFD05
:103F90003471B471F470242291490798FCF7E6F863
:103FA00033E7012208219148FCF753FE01228021CA
:103FB0008F48FCF74EFEB08AF18A884203D0F47134
:103FC000ABF800407472707A70B99BF8000040B290
:103FD000F071012803DDABF80050F57104E0002812
:103FE00002DAABF80040F47196F9080096F9071070
:103FF000884201D0FDF780FF824996F907003072B0
:10400000097829B1C0B20021FFF75CFA747203E0AD
:10401000717AC0B2FFF756FAB08AF08298F80010B1
:10402000012908D038780128BAD196F9090098B149
:10403000012811D041E1717A29B1FDF75DFF707A55
:10404000401E707239E100F00F00B08224226449F2
:104050000798FCF78BF830E1401C7072FDF74CFFBD
:104060002BE101F58071B182CFE6F08A81420ED05A
:10407000012208215D48FCF7ECFD012280215C480B
:10408000FCF7E7FD3078ABF80000FEF791FE9BF8F7
:10409000000030703C2801D93C2002E0052803D202
:1040A0000520ABF800003070B17AC0B2884201D070
:1040B000FEF77EFEB08AF08298F80010012903D046
:1040C0003978012902D006E0C0B201E000F5805045
:1040D000B082FFF799FC3078B07296E67482707CFB
:1040E00050B19AF80010328B01EB810149004A432C
:1040F000B2FBF0F0B08200E0B482F08A318B14227F
:1041000008449AF80010143848430A2190FBF1F053
:104110003084B6F91200B6F9141008443C30304926
:10412000F06110316846FCF721F896E80F00FEF7C1
:104130005BFBBAF81400AAF8160098F8001056466F
:1041400001290DD0397801290DD02F49097801298D
:104150008AD100F50050B082FFF756FCF57254E6A4
:10416000C0F30B0001E000F58050AAF81400A4E0B1
:104170004FF0020ABAEB113F4CD12448007810B13D
:10418000FCF746FB17E0707CA8B9F08A814204D0A6
:104190000021B5730846FEF7BDFCB08AF082B57306
:1041A000F17B9F2904D94FF6FF721043B082B4739C
:1041B0000120FEF7AFFC98F8000001288DD1B08AED
:1041C000C0F30B00B082FFF71FFC1148B4730470FA
:1041D0001BE60000DC0200206A00002061000020D5
:1041E0006C03002060000020000000200008014057
:1041F000000C01405245534552564500240300200F
:10420000620000209600002063000020670000206C
:104210003B0000200320B0EB113F1DD1F08A81420A
:1042200003D00020F169FEF7C3FCBBF900100120A8
:10423000F161FEF7BDFCB08AF08298F80010012908
:1042400006D0397801298AD1A0F58050B08234E0B7
:10425000F472C0F30B00F9E70E20B0EB113F2FD141
:10426000F08A814203D000210846FEF725FDF17B4C
:104270000120FEF721FDB08AF082F17B9F290AD34D
:1042800000F00F00B082B473FFF7BEFBB47074701F
:10429000F472FFF747FB3878012804D07F480068A4
:1042A000012804D008E0B08A00F58050CEE7F07B0A
:1042B0009F2801D2B573A8E5B473FFF7A5FBA4E569
:1042C0000F20B0EB113FF6D17548007848B1FCF7EC
:1042D0009FFA7448F47204707348048074733574E0
:1042E000B9E0F08A814223D0012208216F48FCF70F
:1042F000B0FC002280216E48FCF7ABFCF069C0EBFB
:10430000001080003062B07808B1707004E0F07A7C
:1043100008B1747000E07570182268460899FBF7C0
:1043200025FFD9E901237078D9F80010FEF7E2FFE4
:10433000307C28B3317B88420BD01822684608991C
:10434000FBF714FFD9E901237078D9F80010FEF7C4
:10435000D1FF7078022801D0042832D1182055A14D
:10436000CDE9001000234FF6FF7202953421184664
:10437000FCF7C1FA524800210068FFF7FBF920E082
:104380007078012806D0032804D0022804D004281D
:1043900002D006E0012100E0002149480068FFF753
:1043A000E9F9307B317C88420BD0182268460899A5
:1043B000FBF7DCFED9E901237078D9F80010FEF78D
:1043C00099FF307C3073B08AF0821C223D496846E8
:1043D000FBF7CCFED9E900237078316AFEF7D0FAFA
:1043E0007070052824D1B07C70B10620FCF706F966
:1043F00018B12D480480747308E033492A4881F8C5
:1044000000A03221018001E0B5747573387801286D
:104410000ED12548B47404807473FFF783FA307D9D
:1044200000F00F00B082B4707470FFF7EDFAF47210
:104430007078B178824688420BD018226846089975
:10444000FBF794FED9E901235046D9F80010FEF796
:1044500051FF7078B07098F8000001287FF40CAD1F
:10446000707805283FF408AD0D48007848B1B08A4F
:10447000C0F30B00B082FFF7C7FAB4707470F47227
:10448000C3E408480470084804807473B08AA0F537
:104490008050B082FFF7B8FA3574B6E45E000020B1
:1044A000670000203B0000203C0000200008014085
:1044B000000C0140505245504152494E4700000007
:1044C00044000020740300203A00002070B590B032
:1044D000064628216846FBF762FE14210AA8FBF76E
:1044E0005EFE0120010400248DE8130002250996D8
:1044F000CDE907516846FCF723FD00B1FEE70F2028
:10450000CDE90A054FF48060CDE90C4002210AA8EC
:104510000E94FCF723FC002800D0FEE710B070BD1D
:104520000C4910B50A4AC1E9002000208860C86023
:10453000086188610C2048610846FDF7B3FB054916
:104540000922BDE810400C390248FDF723BC0000E9
:10455000003801409C030020000000000000000023
:104560000102030406070809000000000102030419
:1045700000000000000000000000000000F8000043
:1045800000000002000000000038003800000000B9
:10459000000000000010F810F810000103010301F2
:1045A000003048FC488800020207020100303080D9
:1045B000402000020100000300B04848B040000164
:1045C00002020102003800000000000000000000AC
:1045D00000F008080000000102020000000808F0D6
:1045E0000000000202010000004050E050400000C6
:1045F00001000100004040F04040000000010000C8
:1046000000000000000000090700000000404040DA
:104610004040000000000000000000000000000218
:1046200000000000000000804020000201000000A7
:1046300000F0884828F0000102020201002010F872
:1046400000000002020302020090484848300003C4
:10465000020202020010084848B0000102020201F2
:1046600000C0A09088F8000000000003007828280F
:1046700028C800010202020100F0484848900001E9
:104680000202020100080888483800000003000008
:1046900000B0484848B0000102020201003048481A
:1046A00048F000010202020100A00000000000002A
:1046B00000000000002000000000000907000000CA
:1046C0000040A010000000000001000000A0A0A019
:1046D000A0A00000000000000010A04000000001A9
:1046E00000000000001008C8483000000002000070
:1046F00000F008E8A8F000010202020200F04848B9
:1047000048F000030000000300F8484848B00003E8
:104710000202020100F00808081000010202020172
:1047200000F8080808F000030202020100F84848F7
:10473000480800030202020200F848484808000343
:104740000000000000F00808889000010202020149
:1047500000F8404040F8000300000003000808F89B
:1047600008080002020302020098080808F8000185
:104770000202020100F84040A018000300000003FC
:1047800000F80000000000030202020200F820C04E
:1047900020F800030000000300F8204080F8000328
:1047A0000000000300F0080808F000010202020106
:1047B00000F84848483000030000000000F00808F6
:1047C00008F000010202020500F848C84830000362
:1047D000000001020030484848880002020202013D
:1047E000000808F8080800000003000000F80000B6
:1047F00000F800010202020100F8000000F80000C9
:104800000102010000F800E000F8000102010201CD
:104810000018A040A018000300000003001820C0EA
:104820002018000000030000000888482818000332
:104830000202020200F80808000000030202000061
:10484000001020408000000000000001000808F86F
:1048500000000002020300000020100810200000E9
:10486000000000000000000000000002020202023E
:104870000008100000000000000000000000A0A0E0
:10488000C00000010202030000F82020C000000365
:104890000202010000C020202000000102020200EC
:1048A00000C02020F80000010202030000C0A0A008
:1048B000C0000001020202000020F02808000000F1
:1048C0000300000000C02020E00000010A0A0700E9
:1048D00000F82020C0000003000003000020E800D2
:1048E0000000000203020000002028E00000000891
:1048F0000807000000F880402000000300010200CB
:104900000008F800000000020302000000E020E0C0
:1049100020C000030003000300E02020C0000003CB
:104920000000030000C02020C000000102020100BE
:1049300000E02020C000000F0202010000C0202083
:10494000E000000102020F0000E020204000000310
:10495000000000000040A0A02000000202020100B0
:104960000020F820000000000102020000E000002A
:10497000E00000010202010000E00000E000000091
:104980000102010000E000C000E00001020102019C
:1049900000608080600000030000030000E0000071
:1049A000E00000010A0A07000020A0A06000000348
:1049B000020202000040F8080800000003020200A2
:1049C00000F800000000000300000000000808F8E4
:1049D000400000020203000000C020408060000090
:1049E00000000000000000000000000000000000C7
:1049F0000000000000F000000000000000170000B0
:104A000000000000007000007000000000000000C6
:104A1000000000000040F0F040F0400000041F1FC4
:104A2000041F040000E01010F8102000000811110D
:104A30003F110E00006000008060000000180606B4
:104A40000118000000E010101010E000000E11111D
:104A500011110E00007000000000000000000000B6
:104A60000000000000E0101010000000000F101007
:104A70001000000000101010E000000000101010E6
:104A80000F000000000040408040000000010505CC
:104A90000305010000000000C0000000000101014A
:104AA000070101000000000000000000009070708D
:104AB00000000000000000000000000000010101F3
:104AC00001010100000000000000000000100000D3
:104AD00000000000000000008060000000180606D2
:104AE0000100000000E010101090E000000F121212
:104AF00011100F0000402020F000000000101010E6
:104B00001F101000002010101010E00000181414E6
:104B100012111000002010101010E00000081010FA
:104B200011110E0000F000000000F0000001010172
:104B300001011F0000F090909090100000091010EB
:104B400010100F0000E0909090902000000F1010C7
:104B500010100F00003010101010F00000000000C6
:104B60001E01000000E010101010E000000E1111F6
:104B700011110E0000E010101010E00000091212D8
:104B800012120F00004000000000000000040000AE
:104B90000000000000400000000000000090707065
:104BA00000000000000080804020000000010202A0
:104BB00004080000008080808080800000020202E3
:104BC00002020200002040408000000000080404AF
:104BD00002010000002010101010E0000000000092
:104BE0001601000000E01010D050E000000F10107F
:104BF0001714070000E010101010E000001F010162
:104C000001011F0000F010101010E000001F111132
:104C100011110E0000E0101010102000000F1010F5
:104C20001010080000F010101010E000001F10100D
:104C300010100F0000F0101010101000001F1111C4
:104C40001111100000F0101010101000001F0101D1
:104C50000101000000E0101010102000000F1010E3
:104C600010110F0000F000000000F000001F010113
:104C700001011F0000101010F010100000101010A3
:104C80001F101000003010101010F000000C101059
:104C900010100F0000F0000080403000001F0101E4
:104CA0000204180000F0000000000000001F1010B7
:104CB0001010100000F080800080F000001F000045
:104CC00003001F0000F080800000F000001F0000C3
:104CD00001021F0000E010101010E000000F101083
:104CE00010100F0000F010101010E000001F020262
:104CF0000202010000E010101010E000000F101080
:104D00001008170000F010101010E000001F020241
:104D1000060A110000E01010101020000008111108
:104D200011110E0000101010F01010100000000003
:104D30001F00000000F000000000F000000F101045
:104D400010100F0000F000000000F000000708083D
:104D50001008070000F00000800000F0000F1010A5
:104D60000F10100F0070808000807000001C020285
:104D700001021C00007080800080700000000000B4
:104D80001F0000000010101010907000001C121284
:104D90001110100000F0101010000000001F101083
:104DA0001000000000608080000000000000010191
:104DB0000618000000101010F00000000010101085
:104DC0001F000000004020201020400000000000D4
:104DD00000000000000000000000000000101010A3
:104DE0001010100000102020000000000000000043
:104DF000000000000080404040408000000C121283
:104E000012121F0000F0404040408000001F1010B0
:104E100010100F000080404040408000000F101034
:104E200010100800008040404040F000000F1010BB
:104E300010101F000080404040408000000F121200
:104E400012120B00008080E0909020000000001FF4
:104E5000000000000080404040408000004F9090E3
:104E600090907F0000F0404040408000001F000014
:104E700000001F00004050D0400000000010101F34
:104E80001000000000405050C000000000808080F2
:104E90007F00000000F0000000804000001F0202C0
:104EA00005081000001010F0000000000010101F96
:104EB0001000000000C0404080404080001F000003
:104EC0001F00001F00C0404040408000001F000045
:104ED00000001F000080404040408000000F101084
:104EE00010100F0000C040404040800000FF101034
:104EF00010100F00008040404040C000000F101014
:104F00001010FF0000C0808040408000001F0000A3
:104F10000000000000804040404080000009121264
:104F200012120C00008080F0808000000000000F52
:104F30001010080000C000000000C000000F10109A
:104F400010100F0000C000000000C000000708089B
:104F50001008070000C00000C00000C0000F1010C3
:104F60000F10100F00C000000000C0000018050561
:104F70000205180000C000000000C000004F909023
:104F800090907F00004040404040C0000018141442
:104F9000121110000000E0E01010000000010E0EE1
:104FA0001010000000F0000000000000001F0000D2
:104FB0000000000000101010E000000000101010B1
:104FC0000E010000000000000000000000060101CA
:104FD00001020400000000000000000000000000CA
:104FE00000000000000000000000000000000000C1
:104FF0000000F8F80000000000000000DFDF000003
:1050000000000000000000000000000000000000A0
:10501000F8F80000F8F800000000010100000101AC
:1050200000000000000000000000000000006060C0
:10503000F8F860F8F86060003030FFFF30FFFF30B4
:10504000300000000000000000000000E0E018FC5C
:10505000FC18186060003131C6FFFFC6C638380042
:1050600000000003030000000000787878780080DA
:10507000806060003030181E06F1F1F0F000000092
:105080000000000000000000E0E0181818E0E00058
:1050900000003939C6C6C63939C6C6C60000000088
:1050A000000000000000F8F8000000000000000010
:1050B00001010000000000000000000000000000EE
:1050C00000000000E0E018180000000000003F3F72
:1050D000C0C0000000000000000000000000000050
:1050E00000001818E0E0000000000000C0C03F3FD2
:1050F00000000000000000000000000000000000B0
:10510000606080E0E0808060600036361F3F391FBD
:105110001F36360000000000000000000000000004
:1051200000E0E000000000000606063F3F0606061D
:105130000600000000000000000000000000000069
:105140000000000000003030F0F00000000000001F
:105150000303000000000000000000000000000049
:105160000000000006060606060606060600000009
:10517000000000000000000000000000000000002F
:105180000000F0F0F0F0000000000000000000005F
:10519000000000000000000000000080806060004F
:1051A0003030181E06010100000000000000000061
:1051B00000000000E0E01818189898E0E0003F3F79
:1051C000D8DEC6C1C13F3F00000000000000000063
:1051D0000000808060F8F80000000000C1C1C0FF3E
:1051E000FFC0C0C0C00000000000000000000000C0
:1051F00060601818181818E0E000C0C0F0F8D8C6B1
:10520000C6C1C10000000000000000000000606096
:105210001818181818E0E0003030C0C6C6C6C639E5
:10522000390000000000000000000000000080E0E5
:1052300060F8F80000001E1E191918FFFF1818006A
:1052400000000000000000000000F8F8989898980E
:10525000981818003131C1C1C1C1C13E3E000000E3
:105260000000000000000000E0E098989898980086
:1052700000003F3FC1C1C1C1C13E3E00000000006F
:105280000000000000001818181818989878780086
:105290000000F8FE06010100000000000000000010
:1052A00000000000E0E01818181818E0E000393994
:1052B000C6C6C6C6C639390000000000000000009E
:1052C0000000E0E01818181818E0E0000707D8D828
:1052D000D8D8D83F3F0000000000000000000000C8
:1052E000E0E0E0E00000000000003939393900005A
:1052F0000000000000000000000000000000E0E0EE
:10530000E0E00000000000003131F1F10000000099
:105310000000030300000000000000000000808087
:10532000606000000000060619193030000000001F
:10533000000000000000000000008080808080806D
:1053400080808000191919191919191919000000FC
:10535000000000000000000060608080000000008D
:10536000000030301919060600000000000000009F
:1053700000000000000060601818181818E0E00035
:10538000000000D8D806060101000000000000005F
:1053900000000000E0E01898989898E0E0003F3F97
:1053A000C0DFDFDFDF0707000000000000000000B3
:1053B0000000E0E01818181818E0E000FFFF0606EB
:1053C000060606FFFF0000000000000000000000CD
:1053D000F8F81818181818E0E000FFFFC6C6C6C68F
:1053E000C639390000000000000000000000E0E0C5
:1053F00018181818186060003F3FC0C0C0C0C03007
:10540000300000000000000000000000F8F818184C
:10541000181818E0E000FFFFC0C0C0C0C03F3F0048
:1054200000000000000000000000F8F8181818182C
:1054300018181800FFFFC6C6C6C6C6C0C0000000C8
:105440000000000000000000F8F8181818181818DC
:105450001800FFFF06060606060000000000000018
:10546000000000000000E0E0181818181860600044
:105470003F3FC0C0C0D8D83838000000000000004E
:1054800000000000F8F80000000000F8F800FFFF3E
:105490000606060606FFFF000000000000000000F0
:1054A00000001818F8F8181800000000C0C0FFFF2E
:1054B000C0C000000000000000000000000000006C
:1054C00000001818181818F8F8003030C0C0C0C014
:1054D000C03F3F0000000000000000000000F8F89E
:1054E0000080806060181800FFFF061F193030C070
:1054F000C00000000000000000000000F8F80000FC
:10550000000000000000FFFFC0C0C0C0C0C0C0005D
:1055100000000000000000000000F8F860E080607B
:1055200060F8F800FFFF0007070000FFFF00000021
:105530000000000000000000F8F88080000000F883
:10554000F800FFFF0107061818FFFF000000000029
:10555000000000000000E0E01818181818E0E00053
:105560003F3FC0C0C0C0C03F3F000000000000007F
:1055700000000000F8F81818181818E0E000FFFF05
:1055800006060606060101000000000000000000FB
:105590000000E0E01818181818E0E0003F3FC0C015
:1055A000C0F0F0FFFF00000000000000000000005D
:1055B000F8F81818181818E0E000FFFF061E1E364D
:1055C00036C1C10000000000000000000000E0E063
:1055D00018181818186060003131C6C6C6C6C6381B
:1055E000380000000000000000000000181818F843
:1055F000F81818181800000000FFFF000000000055
:1056000000000000000000000000F8F800000000AA
:1056100000F8F8003F3FC0C0C0C0C03F3F000000DE
:105620000000000000000000F8F80000000000F892
:10563000F8001F1F30F0C030301F1F0000000000B6
:10564000000000000000F8F80000000000F8F8007A
:105650003F3FC0F838C0C03F3F00000000000000DE
:105660000000000078788080008080787800F0F07A
:10567000191F061919F0F0000000000000000000DA
:10568000000078788080008080787800000001FF3A
:10569000FE0101000000000000000000000000000A
:1056A00018181818189898787800F0F0D8DEC6C145
:1056B000C1C0C00000000000000000000000F8F8B9
:1056C0001818181800000000FFFFC0C0C0C000007C
:1056D000000000000000000000000000606080800A
:1056E000000000000000000001070618183030001C
:1056F0000000000000000000000018181818F8F85A
:1057000000000000C0C0C0C0FFFF0000000000009B
:105710000000000000000000808060781860608059
:1057200080000101000000000001010000000000F5
:105730000000000000000000000000000000000069
:10574000C0C0C0C0C0C0C0C0C00000000000000099
:105750000000000000181860600000000000000059
:105760000000000000000000000000000000000039
:1057700000000080808080800000000000F9F9D9DE
:10578000D9D9FEFE0000000000000000000000006B
:1057900000F8F88080800000000000FFFFC1C1C158
:1057A0003E3E00000000000000000000000000007D
:1057B0000080808000000000003E3EC1C1C136363E
:1057C0000000000000000000000000000000008059
:1057D0008080F8F80000003E3EC1C1C1FFFF00001C
:1057E0000000000000000000000000000080808039
:1057F00000000000003E3ED9D9D9DEDE00000000E6
:105800000000000000000000008080E0F8989898F8
:105810000000000101FFFF01010100000000000085
:1058200000000000000000000080808080800000F8
:10583000003E3EC1C1C1FFFF00000000000C0C0C87
:105840000303000000F8F88080800000000000FFE3
:10585000FF010101FEFE000000000000000000004A
:1058600000000098980000000000000000FFFF000A
:105870000000000000000000000000000000000028
:10588000000000000098980000000000000000FFE9
:10589000FF000000000C0C0C0C030300000000F8DB
:1058A000F80000008080000000FFFF181818F7F7CC
:1058B00000000000000000000000000000F8F800F8
:1058C00000000000000000FFFF00000000000000DA
:1058D00000000000000000000000808080808080C8
:1058E00080808080FFFF0101FFFF0101FFFF0000BA
:1058F0000000000000000000008080808080000028
:10590000000000FFFF010101FEFE0000000000009A
:105910000000000000000000008080800000000007
:10592000003E3EC1C1C13E3E00000000000000003C
:10593000000000000080808080800000000000FFE8
:10594000FFC1C1C13E3E0000000F0F00000000007B
:10595000000000000080808080800000003E3EC18A
:10596000C1C1FFFF00000000000000000F0F000099
:105970000000008080808000000000FEFE01010128
:105980000100000000000000000000000000000016
:10599000008080808080000000C6C6D9D9D931310E
:1059A000000000000000000000000000008080F8FF
:1059B000F880808000000001013FFFC1C1C10000EC
:1059C00000000000000000000000008080000000D7
:1059D00080800000003F3FC0C0C0FFFF000000000B
:1059E00000000000000000000080800000000000B7
:1059F0008080001F1F30F0C030301F1F00000000EB
:105A00000000000000000080800000000000808096
:105A100000FFFF3038183030FFFF000000000000AA
:105A2000000000000080800000008080000000F77F
:105A3000F7181818F7F70000000000000000000039
:105A4000000000808000000080800000003F3FC018
:105A5000C0C0FFFF0000000C0C0C0C0C0303000086
:105A60000080808080808080000000F1F1D9DFC755
:105A7000C1C10000000000000000000000000000A4
:105A8000E0E018180000000006063939C0C0000028
:105A9000000000000000000000000000F8F8000016
:105AA000000000000000FFFF0000000000000000F8
:105AB000000000000000000000001818E0E00000F6
:105AC00000000000C0C039390606000000000000D8
:105AD00000000000000000000000808000808000C6
