:020000040800F2
:100000005814002049010008BB1F0008351F0008D4
:10001000B91F000871040008C9430008000000006F
:100020000000000000000000000000000F26000893
:1000300011070008000000000D26000851260008E6
:100040006301000863010008630100086301000800
:1000500063010008630100086301000863010008F0
:1000600063010008630100086301000863010008E0
:1000700063010008630100086301000863010008D0
:1000800063010008630100086301000863010008C0
:1000900063010008630100086301000863010008B0
:1000A00063010008630100086301000863010008A0
:1000B0006301000863010008592600086301000875
:1000C0006301000863010008630100086301000880
:1000D00063010008BD4300086301000863010008D4
:1000E0006301000863010008630100086301000860
:1000F0006301000863010008630100086301000850
:10010000630100086301000863010008630100083F
:10011000630100086301000863010008630100082F
:10012000630100086301000863010008630100081F
:10013000DFF810D000F03CF90048004719460008ED
:10014000AFF3008058140020064880470648004757
:10015000FEE7FEE7FEE7FEE7FEE7FEE7FEE7FEE777
:10016000FEE7FEE7552600083101000840EA0103DA
:100170009B0703D009E008C9121F08C0042AFAD25D
:1001800003E011F8013B00F8013B521EF9D2704721
:10019000D2B201E000F8012B491EFBD270470022C9
:1001A000F6E710B513460A4604461946FFF7F0FF76
:1001B000204610BD421C10F8011B0029FBD1801AFB
:1001C000704780EA010210B502F00043400022D0DF
:1001D0004A001FD0010E01EB1261C0F35600C2F3BA
:1001E000560240F4000042F40002A0FB022000048A
:1001F0007F39140400D0401C50EA124001D4400062
:10020000491EC2B20C0604EBD010401C4008802AE4
:1002100002D003E0002010BD20F00100002900DA28
:100220000020184310BD30B480EA010202F00045FE
:1002300030F0004221F0004013D090B1C30DD40D36
:10024000C2F31601C0F31600E41A41F4000140F4B1
:1002500000027D34914201D3641C00E04900002C6F
:1002600002DA30BC002070474FF4000000239142B6
:1002700001D3891A034340084FEA4101F7D151B134
:10028000914202D14FF0004105E002D24FF001014E
:1002900001E06FF0010103EBC450284430BC00F0D2
:1002A0004FB8C10F80EAE0700844CA0796230021C6
:1002B00000F04FB896230022114600F04AB800F033
:1002C000004220F00040C10DC0F3160040F40000D1
:1002D0007F2901DA00207047962903DCC1F19601DD
:1002E000C84001E096398840002AF4D04042704767
:1002F00020F00040C10DC0F3160040F400007F293B
:1003000001DA00207047962903DCC1F19601C8404C
:100310007047963988407047002801DBC0F10040E3
:10032000002901DBC1F1004181427047002801DB57
:10033000C0F10040002901DBC1F100418842704753
:100340000029A8BF7047401C490008BF20F00100E9
:10035000704710B4B0FA80FC00FA0CF050EA0104C7
:1003600004BF10BC704749B1CCF1200421FA04F459
:1003700011FA0CF118BF012121430843A3EB0C0132
:10038000CB1D4FEA00614FEA102042BF002010BC95
:10039000704700EBC35010440029A4BF10BC704745
:1003A000401C490008BF20F0010010BC704700004D
:1003B000064C074D06E0E06840F0010394E80700B2
:1003C00098471034AC42F6D3FFF7B6FE38970008D2
:1003D0005897000870B58C1810F8015B15F00703EA
:1003E00001D110F8013B2A1106D110F8012B03E0CE
:1003F00010F8016B01F8016B5B1EF9D12B0705D4D6
:100400000023521E0DD401F8013BFAE710F8013B1E
:10041000CB1A921C03E013F8015B01F8015B521E3A
:10042000F9D5A142D8D3002070BD000010B50F4906
:100430004FF0804200240A6023224A60C1E9024052
:1004400008460C6101F0CEF80848602148300022CF
:10045000C0E90014022181600146483801F05FF8CC
:10046000BDE810400021014801F086B9F4030020E6
:10047000FEE700002DE9FC5F5A495B4A5C4E0988A3
:10048000128801EB810102EB410258493688544C35
:10049000098801EB810106EB4101C1EB011102EB7F
:1004A0008101544AA1EB0111237812885D08801A5A
:1004B00000EB81064FF46160B6FBF0F1B6FBF0F99A
:1004C00000FB11613C20B1FBF0FAB6FBF0F100FB40
:1004D0001168216A884578D001270097207B46A2C1
:1004E000A0EB5300C1B2A07A00EB4500C0B202F00D
:1004F00031F80097207B2378A27AA0EB5300C1B299
:1005000005EB85001044C0B23BA202F023F820782E
:10051000CDE900074FF00A0BB9FBFBF2217B012369
:10052000A1EB5000C1B2A07A01F090FF2078CDE994
:100530000007217B0123A1EB5000C1B2A07A4A46FB
:100540002844C0B201F082FF2078CDE90007217B6A
:10055000BAFBFBF2A1EB5000A37AC1B205EB45094F
:1005600009EB0300C0B2012301F070FF2078CDE950
:100570000007217B0123A1EB5000C1B2A07A5246B3
:1005800000EB8500C0B201F061FF2078CDE90007E3
:10059000217BB8FBFBF2A1EB5000A37AC1B203EBC5
:1005A0004900C0B2012301F051FF2078CDE90007D6
:1005B000217BA27AA1EB5000C1B2C5EBC50010446B
:1005C000C0B20123424601F041FFC4F8208001F08F
:1005D00093FE16B10020BDE8FC9F0120FBE7000060
:1005E0009C0000207C0000207A0000208000002079
:1005F0007E000020780000203A0000000F49104AD9
:10060000114B0988128801EB810102EB41020D496F
:100610001B88098801EB810103EB4101C1EB01114A
:1006200002EB8101094AA1EB01111288801A10EB3B
:10063000810001D000207047012070477C0000201D
:100640007A000020800000207E000020780000203A
:100650002DE9F041214F204E00EB400507EB8504CA
:1006600081420ED000F040F837F8250000EB800002
:100670004000FFF71FFEA168FFF7D5FDFFF71FFE43
:100680003080B6F90000002801DA00203080B6F989
:100690000000FFF706FEA7683946FFF792FD1049F4
:1006A000FFF7C1FDFFF724FE0E4D80B2288361885D
:1006B000814202D3A18881420BD901EB81002983B9
:1006C0004000FFF7F7FD3946FFF7ADFDFFF7F7FDF7
:1006D0003080288BBDE8F0816E00002030030020C0
:1006E000000020410800002007480849C28A0A800B
:1006F00083898B81037C0B83C3898B84437C0B862A
:10070000008B104488877047780300203003002056
:10071000704700001CB500F0B9FA4FF4E01003F088
:10072000CFFF482003F0EEFE01F06EFD002001F047
:1007300073FC01211448CDE90001182364223421FF
:100740001E2001F0BAFE01F0D7FD4FF47A6003F0ED
:10075000E9FE40F2E731472001F084FF4FF4E13039
:1007600003F0D8FF03F000FD6320FFF75FFE03F006
:100770002DFE002003F04CFE00F00AF803494FF074
:100780007C5048601CBD0000C00000200405002013
:100790002DE9F0431D4885B0816941F00401816174
:1007A000816901F004010491816941F004018161D2
:1007B0008069032700F00400CDE903704FF4006462
:1007C00000250126DFF848908DE87000694648460C
:1007D00000F04CF94FF4805801AACDF8008082E86F
:1007E000E0006946484600F041F92146484600F0DD
:1007F00035FA084C414660832083484600F02EFAC3
:10080000E083A083E58205B0BDE8F08300100240DC
:100810000008014058000020FEB501F0E7FB254824
:100820000124182500784FF6FF771026C8B122A0C2
:10083000CDE9000500233A4628210294184600F02D
:1008400064F81EA0CDE9000500233A464021029439
:10085000184600F05AF800231BA03A465A21029489
:100860001EE018231CA228211920009401F072FE1A
:100870001B48CDE900540288032328215F2001F0A2
:10088000E5FD18A0CDE9000600233A465021029468
:10089000184600F03AF8002314A03A46602102946A
:1008A000CDE90006002000F030F8BDE8FE4001F080
:1008B00023BD0000480000204C4F570057415445CD
:1008C00052204C4556454C00504C45415345205212
:1008D0004546494C4C0000004552524F5200000022
:1008E0003C000020434F4E54414354004355535461
:1008F0004F4D455220534552564943450000000094
:10090000C9B2C0B2012201F0EDBBF8B50E46DDE977
:1009100006542846089FFFF74DFC80B26043A02193
:10092000A1EB500000EBD070F1B2C0F347002346BA
:100930002A46009701F00EFEF8BD00002DE9F05F99
:1009400090F821100024022903D00421816301249E
:1009500085E001680A6822F00E020A6001680A68F0
:1009600022F001020A603F4E3E4FB215DFF8F4C09C
:10097000DFF8F090DFF8ECA0DFF8E8B0DFF8E4E0B3
:100980000168783F13011502ACF1640CA9F150091C
:10099000AAF13C0AABF1280BAEF1140E4FF480180B
:1009A000B14227D9B9420ED0614512D049451DD078
:1009B000514518D0594518D0714501D1424615E02E
:1009C000294EB14201D1012210E0274E1436B14226
:1009D00001D110220AE0244E2836B14206D0224A24
:1009E0003C32914201D11A4600E02A461E49091FB5
:1009F0000A602BE0B94213D0614517D0494522D097
:100A000051451DD059451DD0714501D142461AE0CE
:100A1000B14202D14FF0807215E0134EB14201D1C4
:100A2000012210E0104E1436B14201D110220AE02A
:100A30000D4E2836B14206D00B4A3C32914201D1CC
:100A40001A4600E02A46074980394A60012180F8A9
:100A50002110002180F82010416B01B18847204609
:100A6000BDE8F09F80000240080402402DE9F84FE5
:100A7000DFF8C091002409F1040A0AF1040B2346AF
:100A80004FF00F080BF1040ECCE00127A7403A40CD
:100A9000BA4272D1DFF8A0C14D68A5EB0C066545DE
:100AA0002BD00DDC032D34D005DC35B3012D19D04E
:100AB000022D2FD11BE0112D16D0122D2AD119E0B5
:100AC000B6F5881F19D006DCB6F5803F15D0B6F50F
:100AD000801F1FD111E0B6F5001F0ED0B6F5041F20
:100AE00018D10AE0CB6815E0CB681B1D12E0CB687B
:100AF00008330FE0CB680C330CE08B682BB1012B73
:100B00004FF0080303D0476104E0042302E00761CB
:100B100000E00023FF2A01D8064601E000F10406A8
:100B20004FEA840501D9A5F12005376808FA05FCCC
:100B300027EA0C0703FA05F547EA050737604D6811
:100B4000ED006ED53D4DAE6946F00106AE61AD6972
:100B500024F0030605F001050095394D7719BE68AC
:100B6000A5072D0F08FA05FC26EA0C06DFF8D4C00D
:100B7000604503D14FF0000C25E052E0DFF8C8C01B
:100B8000604502D14FF0010C1DE0DFF8C0C06045A8
:100B900002D14FF0020C16E0DFF8B4C0604502D17C
:100BA0004FF0030C0FE0DFF8ACC0604502D14FF00E
:100BB000040C08E0DFF8A0C0604502D14FF0050C3E
:100BC00001E04FF0060C0CFA05FC4CEA060CC7F8E5
:100BD00008C04D68D9F80060ED034D4601D51643B5
:100BE00000E096432E604D68DAF80060AD0355468C
:100BF00001D5164300E096432E604D68DBF8006097
:100C0000ED025D4601D5164300E096432E604D6827
:100C1000DEF80060AD02754601D5164300E096434C
:100C20002E60641C0A6832FA04F57FF42EAFBDE82A
:100C3000F88F000000040140000011100010024075
:100C40000000014000080140000C0140001001407C
:100C50000014014000180140001C01408068084059
:100C600000D0012070470AB1016170470904FBE719
:100C700001488068704700004C00002002488168ED
:100C800002781144816070474C000020074810B57D
:100C9000016841F010010160052000F057F80F20B5
:100CA00000F006F800F024F8002010BD00200240FB
:100CB00070B50D4D04464FF47A712878B1FBF0F011
:100CC0000A490968B1FBF0F000F0DCFA48B9102CD1
:100CD00007D200222146501E00F018F800206C6058
:100CE00070BD012070BD00004C00002004000020F9
:100CF0007047002809DB00F01F02012191404009E4
:100D0000800000F1E020C0F800117047F0B40E4BF5
:100D10001B68C3F30223C3F10704042C00D9042485
:100D20001D1D072D01D2002300E0DB1E012606FA5F
:100D300004F56D1E0D409D409E40761E164045EA0E
:100D40000601F0BC03F072BB0CED00E0064A00F0B7
:100D5000070110684FF6FF03184040EA01200349DD
:100D600008431060704700000CED00E00000FA0539
:100D70002DE9F0470D46040067D0DFF81881D8F858
:100D8000000000F00700A8420CD2D8F8001021F0B3
:100D900007012943C8F80010D8F8000000F0070048
:100DA000A84252D120683C4E810712D5400703D596
:100DB000706840F4E06070602078000703D57068C8
:100DC00040F4605070607068A16820F0F000084343
:100DD00070602078C00727D06068012810D0316883
:100DE000022810D0890700292FDA716821F0030149
:100DF00001437160FFF73CFF074641F288390CE080
:100E000031688903EFE78901EDE7FFF731FFC11B87
:100E1000494502D90320BDE8F0877068616800F099
:100E20000C00B0EB810FF0D1D8F80010404601F073
:100E30000701A9420BD9016821F00701294301608C
:100E4000006800F00700A84201D00120E3E7207805
:100E5000400705D57068E16820F4E06008437060E1
:100E60002078000706D57068216920F4605040EAB8
:100E7000C100706000F038F87168084AC1F30311CE
:100E8000515CC8400649086006480068FFF710FF3B
:100E90000020C0E700200240001002404C4700083C
:100EA00004000020500000200448054900684968FB
:100EB000044AC1F30221515CC8407047040000207D
:100EC000001002405C470008044805490068496872
:100ED000044AC1F3C221515CC8407047040000209D
:100EE000001002405C47000812A085B00FC88DE8D2
:100EF0000F0014A0144B006804905968134801F0C7
:100F00000C02042A10D0082A0ED1C1F38342C9036F
:100F10001DF802000AD5596804AAC1F34041515C8A
:100F20000A4A5043B0FBF1F005B070470849484306
:100F3000FAE7000002030405060708090A0B0C0D76
:100F40000E0F1010010200000010024000127A0083
:100F500000093D002DE9F84F04006FD02078BE4D08
:100F6000C00747D06868C0F38100012807D06868CF
:100F7000C0F38100022809D16868C00306D528683B
:100F8000800337D560680028E7D033E06068B0F5AB
:100F9000803F0BD010B1B0F5A02F11D0286820F4FD
:100FA00080302860286820F4802002E0286840F41F
:100FB00080302860606888B1FFF75AFE064609E075
:100FC000286840F480202860F0E7FFF751FE801B7E
:100FD000642873D828688003F7D50BE0FFF748FE34
:100FE000064604E0FFF744FE801B6428F1D8286819
:100FF0008003F7D42078DFF8648280074FF0010A7D
:101000004FF0000939D5686810F00C0F07D06868F8
:10101000C0F38100022809D16868C00306D428689B
:10102000800714D52069012808D110E02069B0B1EB
:10103000C8F800A0FFF71CFE064605E007E1FFF731
:1010400017FE801B0228C4D828688007F7D52868B7
:10105000616920F0F80040EAC10028600DE0C8F89E
:101060000090FFF705FE064604E0FFF701FE801B37
:10107000022823D828688007F7D4207800072CD5C9
:101080007748A169D9B1C0F800A0FFF7F1FD064685
:1010900004E0FFF7EDFD801B02280FD8686A800787
:1010A000F7D570484FF4FA510068B0FBF1F00090AA
:1010B00000BF0098411E0091FAD20EE07CE0C0F81B
:1010C0000090FFF7D5FD064604E0FFF7D1FD801B39
:1010D000022871D8686A8007F7D4207840075BD56A
:1010E000E8690027C00008D4E86940F08050E86152
:1010F000E869012700F0805000905B480168C9054D
:1011000011D40168834641F480710160FFF7B0FD9E
:10111000064604E0FFF7ACFD801B64284CD8DBF8E2
:101120000000C005F6D5E06801280AD008B10528FE
:1011300013D0286A20F001002862286A20F00400F9
:1011400002E0286A40F001002862E06841F2883B32
:1011500088B1FFF78DFD064609E0286A40F00400DB
:101160002862EEE7FFF784FD811B59455BD8286AAA
:101170008007F7D50BE0FFF77BFD064604E0FFF79D
:1011800077FD811B59454ED8286A8007F7D41FB1D7
:10119000E86920F08050E861E069A8B36968C1F3AC
:1011A0008101022946D00228484606D0C8F86000CE
:1011B000FFF75EFD044639E035E04746C8F86000B9
:1011C000FFF756FD064604E0FFF752FD801B02289C
:1011D00029D828688001F7D4206AB0F5803F05D16E
:1011E0006868A16820F4003008436860D4E9080109
:1011F0000843696821F4741108436860C7F860A067
:10120000FFF736FD044605E023E0FFF731FD001B44
:10121000022808D828688001F7D51AE0FFF728FDD2
:10122000001B022802D90320BDE8F88F286880013E
:10123000F4D40EE00128F7D06868226A00F4803107
:10124000914204D1616A00F47010884201D00120FB
:10125000EAE70020E8E700000010024000004242F8
:101260008004424204000020007000404FF0E02162
:101270000428086903D020F004000861704740F09A
:101280000400FAE710B5401EB0F1807F01D30120C1
:1012900010BD4FF0E02460610F21601703F0C6F825
:1012A0000020A06107202061002010BD704770471A
:1012B00010B5040003D094F83D0010B107E0012000
:1012C00010BD002084F83C00204600F01FF80220EA
:1012D00084F83D00211D206801F0DAF9012084F82E
:1012E000460084F83E0084F83F0084F8400084F80B
:1012F000410084F8420084F8430084F8440084F8F4
:10130000450084F83D00002010BD000008B50068CD
:101310000B49884212D10B48C16941F00401C161F7
:10132000C069032200F00400009001211E20FFF795
:10133000EDFCBDE808401E20FFF7DBBC08BD000047
:10134000000800400010024090F83D10012901D033
:1013500001207047022180F83D100168CA6842F000
:101360000102CA6000680E4988420ED00D498842C9
:101370000BD0B0F1804F08D00B49884205D00B4903
:10138000884202D00A49884204D1816801F00701ED
:10139000062903D0016841F0010101600020704777
:1013A000002C0140003401400004004000080040CF
:1013B000000C0040704770B50446006801694FF0AA
:1013C0000005C943890715D4C168C943890711D4E9
:1013D000E91E01610120207720688069800720468E
:1013E00002D0FFF7E7FF04E000F098F8204600F095
:1013F000C1F9257720680169C943490717D4C16835
:10140000C943490713D46FF004010161022020771A
:101410002068806910F4407F204602D0FFF7CAFFA1
:1014200004E000F07BF8204600F0A4F9257720685E
:101430000169C943090716D4C168C943090712D411
:101440006FF008010161042020772068C0698007DF
:10145000204602D0FFF7AEFF04E000F05FF8204620
:1014600000F088F9257720680169C943C90617D4B7
:10147000C168C943C90613D46FF010010161082087
:1014800020772068C06910F4407F204602D0FFF723
:1014900091FF04E000F042F8204600F06BF9257758
:1014A00020680169C943C90708D1C168C943C90790
:1014B00004D1891E0161204600F0BCF92068016951
:1014C000C943090609D4C168C943090605D46FF0A8
:1014D000800101612046FFF7E9FE20680169C943E8
:1014E000490609D4C168C943490605D46FF04001D3
:1014F0000161204600F048FB20680169C943890664
:101500000BD4C168C943890607D46FF0200101617B
:101510002046BDE87040FFF7CABE70BD704770B589
:10152000044690F83C000D4601280AD0012084F8BA
:101530003C0042B1042A18D0082A2AD00C2A4DD1E6
:1015400039E0022070BD206801F0F6F8206881695A
:1015500041F0080181612068816921F00401816105
:10156000206881692A69114311E0206801F014F9AB
:101570002068816941F4006181612068816921F4FA
:1015800080618161206881692A6941EA0221816163
:1015900024E0206801F036F92068C16941F00801B3
:1015A000C1612068C16921F00401C1612068C1697D
:1015B0002A69114311E0206801F058F92068C169D7
:1015C00041F40061C1612068C16921F48061C16199
:1015D0002068C1692A6941EA0221C161002084F8BA
:1015E0003C0070BD10B5040003D094F83D0010B16C
:1015F00007E0012010BD002084F83C00204600F0E8
:101600001FF8022084F83D00211D206801F040F8F9
:10161000012084F8460084F83E0084F83F0084F8F6
:10162000400084F8410084F8420084F8430084F8C4
:10163000440084F8450084F83D00002010BD0000FF
:101640002DE9F04F054600684FF0804ADFF8108121
:10165000DFF810B1444C0226032785B04FF0010992
:10166000504529D1E06940F00100E061E06900F0F7
:1016700001000490A06940F00400A061A06900F09E
:1016800004000490A06940F00100A061A06900F08E
:1016900001000490D8F8040020F4407040F0E060AD
:1016A00040F48070C8F80400B00303978DE841024D
:1016B00069465846FFF7DAF92C49286888421FD155
:1016C000E06940F00200E061E06900F0020004908F
:1016D000A06940F00800A061A06900F00800049033
:1016E000A06940F00100A061A069009600F001002F
:1016F00001960296CDE9037069461D48FFF7B6F9D9
:101700002868504529D1E06940F00100E061E069B6
:1017100000F001000490A06940F00400A061A069FD
:1017200000F004000490A06940F00100A061A069ED
:1017300000F001000490D8F8040020F4407040F05C
:10174000E06040F48070C8F80400042003978DE83E
:10175000410269465846FFF789F905B0BDE8F08FA8
:101760000000014000080140001002400004004059
:10177000000C01407047000010B5044649B104292F
:101780000AD008290BD094F8410001280AD0012082
:1017900010BD94F83E00F8E794F83F00F5E794F8A0
:1017A0004000F2E7022081B3042932D0082933D067
:1017B00084F841000122206800F0B0FF184A206838
:1017C0001849904201D0884203D1436C43F400434E
:1017D0004364206890420DD088420BD0B0F1804F16
:1017E00008D01149884205D01049884202D01049DA
:1017F000884204D1816801F00701062903D00168FD
:1018000041F001010160002010BDFFE784F83E00B7
:10181000D0E784F83F00CDE784F84000CAE7000035
:10182000002C01400034014000040040000800404A
:10183000000C00402DE9F047C649884279D1C64ED8
:10184000C64C1021708A401C70822046FFF706FAB1
:1018500030704021C248FFF701FA7070B1783278D9
:101860000125914202D1F378834218D00AB90129A7
:1018700001D010B104E0B57111E0F378012B03D071
:101880000223012A02D002E0F57108E011B101281B
:1018900002D004E0B37102E0F07800B9F3714FF4C4
:1018A00000612046FFF7DAF930834FF4805120467B
:1018B000FFF7D4F9B083B179F279AA4FDFF8A882A3
:1018C0000A434FF000040ED1B6F91A20B6F91830C9
:1018D0009A4208D1B6F91E20824204D1387810B954
:1018E000B8F8000040B1B48574854FF42F79012910
:1018F00008D002291ED016E0708D642870D2401CDA
:1019000070856DE0B07B40B1747302F085FDB473F7
:10191000B079012807D1306B02E0306B401C306396
:10192000484500DBB572F07901280DD0022824D09B
:101930001BE00DE1306B3338F92802D2307A401CBD
:1019400030723463B471EEE7B07B40B1747302F06F
:1019500063FDB473F079012807D1706B02E0706BFE
:10196000401C7063484500DBF572B6F91800B6F903
:101970001A1088421CD050B11AE0706B3338F92825
:1019800002D2707A401C70727463F471EDE7B07B20
:1019900020B1747302F040FDB47309E0B6F91C0085
:1019A000B6F91E10884203D010B9F08A401CF082AC
:1019B000B6F91800B6F91A10884211D080B1B07B80
:1019C00020B1747302F028FDB47309E0B6F91C006D
:1019D000B6F91E10884203D010B1F08A401EF08282
:1019E0003078B0707078F070308B7083B08BF0838B
:1019F000B07C80070ED1B079F179084312D0B08A5B
:101A0000401C80B2B082142801D2307900E000205E
:101A100002F0FEFC708A0A21B0FBF1F201FB120019
:101A200010B131E0B482F2E77079092802D2401C8B
:101A3000707100E07471397811B1307C307300E05E
:101A40003473B8F80000494A434620B110780228A0
:101A500002D0157000E014704548007808B1147089
:101A60001C803D483830817042490978C170117836
:101A7000017198F800104171317B817171790122F7
:101A800001443D4800F036FA708A0C21B0FBF1F2B7
:101A900001FB120141B939490A7839491AB10A786A
:101AA000521C0A7000E00C706421B0FBF1F201FBE3
:101AB000120139B9718D642903D3B18D491CB185E7
:101AC00000E0B4854FF47A71B0FBF1F201FB120132
:101AD00029BB2C49097811B3318C491C89B2318456
:101AE0003C2903D1718C491C71843484718C0A297E
:101AF00003D17484B18C491CB184B18C062903D103
:101B0000B484F18C491CF184F18C0A2903D1F4844A
:101B1000318D491C3185318D062900D134854EF631
:101B20006021B0FBF1F201FB1200002810D1B08D52
:101B300040F24E2188420AD3B485707B092802D234
:101B4000401C707303E0747300F062FDB57374821F
:101B5000BDE8F087BC0400205800002000080140C8
:101B6000000C01403300002034000020320000202F
:101B7000380000201E000020A803002018000020CC
:101B800019000020170000207047704770B50268E8
:101B900004461068D168536910F00F0F52D003F05B
:101BA000010501F490762E435FD0C20705D0CA0527
:101BB00003D5E26B42F00102E263420705D5DA0782
:101BC00003D0E26B42F00202E263820705D5DA0736
:101BD00003D0E26B42F00402E263020707D501F092
:101BE00020022A4303D0E26B42F00802E263E26B78
:101BF000002A33D0800604D5880602D5204602F09C
:101C00003BFB20684069E16BC0F38010090700D4FA
:101C100028B3204602F022FB2068416949061AD504
:101C2000416921F040014161606BA0B12D494163E0
:101C3000606BFEF783FE002810D0606B416BBDE83F
:101C400070400847830610D58B060ED52046BDE8A8
:101C5000704002F011BB2046FFF797FF70BD204691
:101C6000FFF793FF0020E06370BD03062BD50B0642
:101C700029D594F839002128F6D1A068B0F5805F05
:101C800001D12069B0B1206A411C2162216800782D
:101C90004860E08C401E0004000CE084E4D1206821
:101CA000C16821F08001C1602068C16841F0400135
:101CB000C16070BD206A0088C0F308005060206ACF
:101CC000801C2062E5E74006F3D54806F1D5D168CF
:101CD000204621F04001D160202184F8391000F025
:101CE00028F970BD4D42000870B5040004D094F886
:101CF0003900002510B106E0012070BD84F838508D
:101D0000204600F023F8242084F839002068C168B8
:101D100021F40051C160204602F0F4FA2068016904
:101D200021F4904101612068416921F02A0141615B
:101D30002068C16841F40051C160E563202084F847
:101D4000390084F83A00002070BD000010B500682A
:101D50001E4986B0884236D11D48816941F0040190
:101D60008161816901F004010491816941F00401FC
:101D70008161816901F004010491816941F480412C
:101D800081618069134C00F4804004904FF400702E
:101D900000900220019001200290032003906946E8
:101DA0002046FEF763FE211500910021019169464E
:101DB0002046FEF75BFE2520FEF79BFF032211461F
:101DC0002520FEF7A3FF06B010BD0000003801403B
:101DD000001002400008014090F83A30202B22D138
:101DE000F9B1F2B190F83830012B1CD081628285B4
:101DF000C2850021C163222280F83A2080F8381081
:101E00000168CA6842F48072CA6001684A6942F097
:101E100001024A610068C16841F02001C1600020F0
:101E200070470120704702207047000070B50068BD
:101E30002C49884255D12C4B0021585CEB280BD003
:101E4000491CC9B20929F8D3BDE8704026490922C6
:101E500001F10C00FFF7C0BF234C00204C340A18DE
:101E6000082A01D89A5C02E01A4412F8092C22547C
:101E7000401CC0B20928F2D320781C4DEB2815D1A4
:101E80006078B02812D1608840BAFEF70AFA184E7E
:101E90003146FEF7C8F9A860A08840BAFEF701FAFB
:101EA0003146FEF7C0F9E860E079A880A8884FF0D5
:101EB000010110F0FF0F4FF0000204D0E970C307DA
:101EC00003D0297002E0EA70F9E72A70430701D5D0
:101ED000697000E06A70000701D5A970B4E7AA70C4
:101EE000B2E770BD003801409C030020380000209C
:101EF0000000204190F83930202B18D1A9B1A2B1AF
:101F000090F83830012B12D001628284C284002103
:101F1000C163212280F8392080F838100068C16838
:101F200041F08001C160002070470120704702200D
:101F300070477047FEE7000010B5010019481A4CC1
:101F400001D000221CE01949194A09880B090FD059
:101F50000B0A11D00B0B22D00223B3EB113F0ED092
:101F60000F23B3EB113F1AD1117D41B100220CE0D8
:101F7000917C0029E5D1F9E70E49097879B1012270
:101F80000821FEF770FE002203E00821FEF76BFE39
:101F900001222046BDE810408021FEF764BE0122E8
:101FA000F3E7000000080140000C014000000020A1
:101FB00008000020A5000020FEE7704730B4002193
:101FC000094B0A46002000EB800403EB8404401C0C
:101FD000C0B262548028F6D3491CC9B21429F1D387
:101FE00030BC00F089B900001405002010B50021B4
:101FF000084B0A46002000EB800403EB8404401CDD
:10200000C0B262548028F6D3491CC9B21429F1D356
:1020100010BD00001405002028B1012806D10021C0
:10202000A72000F0B5BA0021A620FAE7704710B546
:1020300000218D2000F0ACFA0021102000F0A8FA59
:102040000021BDE81040AE2000F0A2BA2DE9FE4FFD
:102050000026171A8146701E3546A3EB010A8846F2
:10206000002F02DD4FF0010102E003D14FF000012B
:10207000019102E0C7F100070190BAF1000F02DD03
:102080004FF0010002E003D14FF00000009002E0A9
:10209000C7F1000A00905046574501DD3C4600E07C
:1020A0000446601C4FF0000B029016E008F0FF01A0
:1020B00009F0FF000C9A00F015F83E445544A64282
:1020C00002DD0199361B8944A54202DD00992D1BD2
:1020D00088440BF101001FFA80FB02998B45E5DB78
:1020E000BDE8FE8F10B5C30800F00700012484404E
:1020F000E0B2084C01EB810104EB8101002ACA5CCB
:1021000002D00243CA5410BD60EA0202D043C85450
:1021100010BD000014050020F0B5384885B0816975
:1021200041F008018161816901F008010491816930
:1021300041F008018161816901F008010491816920
:1021400041F008018161816901F008010491816910
:1021500041F004018161816901F004010491816908
:1021600041F0040181618069012400F004000490C1
:102170002020CDE90004224E032569460395304610
:10218000FEF774FC012220213046FEF76CFD802012
:10219000CDE90004694603953046FEF767FC01224D
:1021A00080213046FEF75FFDA602164FCDE90064A0
:1021B000694638460395FEF759FC012231463846F8
:1021C000FEF751FD0220CDE900046946039538462B
:1021D000FEF74CFC012202213846FEF744FD009434
:1021E0006946384603950194FEF740FC01221146EA
:1021F0003846FEF738FD05B0F0BD00000010024083
:1022000000080140000C014010B5FFF785FF354C78
:10221000002202212046FEF726FDC82002F082F9A6
:10222000012202212046FEF71EFD0021AE2000F013
:10223000AFF90021812000F0ABF90021D02000F09F
:10224000A7F90021A42000F0A3F90021A62000F0A6
:102250009FF90021A92000F09BF90021022000F045
:1022600097F90021AD2000F093F90021802000F0C3
:102270008FF90021C82000F08BF90021A02000F088
:1022800087F90021D52000F083F90021402000F0DB
:102290007FF90021D92000F07BF900212F2000F0E8
:1022A00077F90021DB2000F073F900213F2000F0D6
:1022B0006FF90021202000F06BF90021DC2000F0F4
:1022C00067F90021352000F063F90021302000F08B
:1022D0005FF9FFF773FE0021BDE81040AF2000F06A
:1022E00057B90000000C01400346012000E05843AC
:1022F000491EC9B2FBD2704770B5124E00250021AD
:10230000B02000F045F90021284600F041F90021F5
:10231000084600F03DF90021112000F039F90024B1
:1023200004EB840006EB80000121405D00F030F9F1
:10233000641CE4B2802CF3D36D1CEDB2142DDED3FB
:1023400070BD0000140500202DE9FC4F1D468A4693
:1023500081468B460090082B0CD0680700D00120E6
:1023600000EBD50069084843C0B2203AD7B2002636
:10237000019058E00620F8E70C2D13D0102D15D051
:10238000142D17D0182D1BD01C2D1FD0202D4DD152
:10239000284800EB87104FF00008845DE0071BD051
:1023A0000B9A1CE007EB470023490CE0234800EBA5
:1023B0000710F0E72249C7EB071001EB4000EAE7FE
:1023C000204907EBC70001EB8000E4E71E49C7EB9B
:1023D000C70001EBC000DEE70B9848B3002251466E
:1023E0004846FFF77FFE0AF1010000F0FF0A08F1FE
:1023F0000100640800F0FF08B8F1080FCED309F11E
:10240000010000F0FF09082D0AD00099A9EB010096
:10241000B0EB550F04D10BF10800894600F0FF0B1B
:10242000761CDA46F6B201988642A5D3BDE8FC8F49
:102430000122D4E70E7F000864470008D84B00084B
:10244000C8510008EA5C0008466A00082DE9F84F08
:102450000025DDE90A691F4692468B468046082E14
:1024600000D1022500241CE0381B401EC1B20A2006
:10247000FFF73AFFBAFBF0F00A21B0FBF1F201FBE3
:102480001200CDF8009080B13030C2B205EB560199
:1024900001FB0480C0B233465946FFF755FF641C68
:1024A000E4B2BC42E0D3BDE8F88F05EB560101FB76
:1024B0000480C0B233463022EEE72DE9FF4F81B0F1
:1024C000064600900F464FF0000A8946580700D094
:1024D000012000EBD3000490002032E0002029E02E
:1024E0000E98002410F80A500AF101001FFA80FA31
:1024F000E80701D00F9A02E00F9848B3002239464E
:102500003046FFF7EFFD7F1C641C6D08E4B2FFB29C
:10251000082CEDD3761C0098F6B2311A039881424C
:1025200004D109F10800009E00F0FF0908F1010044
:102530004F46C0B2039980468842D1D30BF10100C7
:10254000C0B2049983468842C8D305B0BDE8F08F75
:102550000122D4E72DE9F8411E4615468846044677
:10256000079F0BE03346414620460097FFF7ECFEFD
:10257000082E0AD004EB5600C4B26D1C2A78A2F1D2
:1025800020005E28EED9BDE8F881A41DE4B2F4E78E
:102590002DE9F0411B4F054609B1012200E0002260
:1025A00001213846FEF75FFB4FF480680022414668
:1025B0003846FEF758FB144E0024002220213046F6
:1025C000FEF751FB280601D5012200E00022802100
:1025D0003046FEF748FB012220213046FEF743FB40
:1025E0006806641C050EE4B2082CE6D301224146BD
:1025F0003846FEF738FB3846BDE8F0410122114667
:10260000FEF731BB000C01400008014070477047E5
:1026100010B5FFF70CFD0949002002460870084973
:1026200008800849087008210748FEF71CFB0022B3
:10263000BDE8104080210548FEF715BB330000209F
:10264000340000201700002000080140000C014069
:10265000FEF714BB704700000148FEF7ACBE000057
:10266000BC040020094A10B5074BC2E90031002123
:10267000C2E9021010461161FEF71AFEBDE81040D3
:102680000248FEF761BE000000080040BC040020C4
:10269000F0B502681C4D1D4E1D4FDFF878C01E4B73
:1026A0004FF0804EA84209D0984207D0704505D01F
:1026B000B04203D0B84201D0604503D122F070048B
:1026C0004A682243A84209D0984207D0704505D0F5
:1026D000B04203D0B84201D0604503D122F4407427
:1026E000CA6822434C6922F08002224302608A6851
:1026F000C2620A688262A84201D0984201D1096987
:10270000016301214161F0BD002C01400004004043
:1027100000080040000C00400034014010B501F0FA
:102720001F010123046A8B409C430462036A8A40B0
:102730001343036210BD0000F0B5026A22F00102EB
:102740000262026A43688469114E24F073050C68C2
:10275000104F2C4322F002058A682A43B04201D070
:10276000B84205D122F00805CA682A4322F00402C3
:10277000B04201D0B84205D14D6923F440731D43E6
:102780008B692B4343608461496841630262F0BDF9
:10279000002C014000340140F0B5026A22F0100222
:1027A0000262026A436884690D6824F4E64444EADC
:1027B00005248D6822F0200242EA05120F4D104ECA
:1027C000A84201D0B04206D1CF6822F0800242EA8E
:1027D000071222F04002A84201D0B04207D14D6951
:1027E00023F4406343EA85038D6943EA850343602C
:1027F0008461496881630262F0BD0000002C0140E1
:1028000000340140F0B5026A22F480720262026A6A
:102810004368C46922F4007224F073050C68124EF8
:102820002C438D6842EA05220E4DA84201D0B042E9
:1028300006D1CF6822F4006242EA072222F48062C5
:10284000A84201D0B04207D14D6923F4405343EA76
:1028500005138D6943EA05134360C4614968C16388
:102860000262F0BD002C01400034014030B5026A24
:1028700022F480520262036A4268C4690D6824F43B
:10288000E64444EA05248D6823F4005343EA053303
:10289000084DA84202D0084DA84204D14D6922F447
:1028A000804242EA85124260C46149680164036261
:1028B00030BD0000002C0140003401400FB42DE970
:1028C000FE4F4FF000094FF028084FF05C0A4FF61A
:1028D000FF7B4F46139EFFF789FB10254EA0CDE9E5
:1028E000000501243B465A460A2102940020FEF7C7
:1028F0000CF82B464AA2414648460094FFF72AFEB0
:1029000000942B46414634200C9AFFF723FE009496
:1029100038212B4634200D9AFFF71CFE2B4642A28D
:102920004A2148460094FFF715FE4148CDE900547E
:10293000027802234A213420FFF788FD2B463DA26E
:102940004A2152200094FFF705FE2B463AA2514639
:1029500048460094FFF7FEFDCDE900541498032388
:1029600082B251463420FFF771FD2B4634A2514606
:1029700052200094FFF7EEFD2B4632A26E2148460E
:102980000094FFF7E7FD48F6A040B6FBF0F2CDE972
:10299000005401236E213420FFF758FD4FF461608D
:1029A000B6FBF0F2CDE900543E2001236E21FFF783
:1029B0004DFD2B4625A26E2148200094FFF7CAFD4D
:1029C0003C27B6FBF7F0B0FBF7F107FB11010A203B
:1029D000B1FBF0F2CDE9005401236E215220FFF744
:1029E00035FDB6FBF7F0B0FBF7F107FB1102CDE9BF
:1029F000005401236E215046FFF728FD66202B4628
:102A000013A26E210094FFF7A5FDBDE8FE0F5DF84F
:102A100014EBFFF771BC0000505245564945570072
:102A20004D4F4445203A00004245414E203A0000B7
:102A3000080000206700000042524557203A00007D
:102A40006D6C000054494D45203A000068000000BC
:102A50006D000000FEB50D46012458B164230A46FE
:102A6000194600200094FFF7F1FA66232A4619461A
:102A700000941CE0FFF7BAFA142510A0CDE9000578
:102A800000234FF6FF763246232102941846FDF7C5
:102A90003CFF0CA0CDE90005002332463C21029406
:102AA0001846FDF732FF6523A02219460094002046
:102AB000FFF7CCFABDE8FE40FFF71EBC4954275390
:102AC00000000000434F4C442042524557205449D7
:102AD0004D4500002DE9FE430D4602004FF018045D
:102AE0004FF020004FF040084FF03C014FF001073D
:102AF0003BD0954257D0B5FBF1F6B5FBF1F201FBA7
:102B000012554FF00A09B6FBF9F2CDE9004701234F
:102B10004146FFF79BFCCDE900472C2001233246BC
:102B20004146FFF793FCB5FBF9F2CDE9004744209D
:102B300001234146FFF78AFCCDE9004750200123DD
:102B40002A464146FFF782FCCDE900476820012371
:102B500000224146FFF77AFCCDE9004774200123AB
:102B600000224146FFF772FC1DE0FFF73FFA1020FC
:102B70000FA1CDE9001000234FF6FF72029719460E
:102B80001846FDF7C2FE382023460BA241460097A7
:102B9000FFF7E0FC5C20234607A241460097FFF7C1
:102BA000D9FC06480580BDE8FE43FFF7A5BB000041
:102BB00052455345525645003A0000006E00002031
:102BC0002DE9FE4310263627DFF8A4900D464FF07E
:102BD0002C08012420B399F80600854214D39DB136
:102BE00064232A46194600200094FFF72FFA662333
:102BF0002A46009466210020FFF728FA89F806503B
:102C0000BDE8FE43FFF778BB00246423A0221946E9
:102C100020460094FFF71AFA6623A0220094E9E701
:102C2000FFF7E4F913A0CDE9000600234FF6FF7289
:102C30000A2102941846FDF768FE334611A2414668
:102C400000200094FFF786FC334610A240210020AC
:102C50000094FFF77FFC6E2033460EA239460094A5
:102C6000FFF778FC6523A02219460094C3E7000013
:102C70009C00002043414E43454C20425245574959
:102C80004E473F00484F4C4420544F0043414E4371
:102C9000454C0000524553554D4500002DE9F14F7C
:102CA00084B01C264FF060090A254FF0400A4FF00F
:102CB000320B4FF03E08FFF799F910270FA0CDE92E
:102CC0000007012400234FF6FF722946029418469C
:102CD000FDF71BFECDE90064022359465046049AD5
:102CE000FFF7B4FB3B4609A2414648460094FFF774
:102CF00031FC05B0BDE8F04FFFF7FEBA434F464642
:102D00004545204144444544000000006700000060
:102D10002DE9F04F85B00D46814610200A21CDE9FE
:102D200003101C24FFF762F910279F4E4FF0000B91
:102D30004FF001084FF6FF7AB9F1060F39D2DFE8FC
:102D400009F00345777AACD798A18DE8820100237A
:102D50005746524618460399FDF7D7FD55B34746E7
:102D6000CDF8008094A23C213820049BFFF7F2FBB1
:102D7000009792A23C214520049BFFF7EBFB0A2021
:102D8000B5FBF0F2CDE90047012332215020FFF7D7
:102D90005DFB5E2023468AA232210097FFF7DAFB13
:102DA000CDE90047622001232A463221FFF74EFB7E
:102DB000F582F4E0A6F816B082A18DE81201002396
:102DC0003A4632211846FDF7A0FDE8E07EA18DE8E5
:102DD000820100235746524618460399FDF795FD98
:102DE0007C48008AA84209D37BA18DE81201002308
:102DF0003A4632211846FDF788FD17E0CDE9004834
:102E0000474602232A4632213820FFF71FFB0223C0
:102E100001223F215E20CDF800B001F0BBFB0097FE
:102E20006FA23C216220049BFFF794FBB581B6E0C2
:102E300035746CA033E06EA18DE882010023574603
:102E4000524618460399FDF760FD6248C08CA842BF
:102E500009D861A18DE8120100233A4632211846B3
:102E6000FDF753FD17E0CDE90048474602232A4607
:102E700032213820FFF7EAFA022301223F215E20A7
:102E8000CDF800B001F086FB009755A23C216220EE
:102E9000049BFFF75FFBF58181E0757457A08DE817
:102EA00081010023524618460399FDF72EFD322179
:102EB000234643A20846CDF80080FFF74BFBCDE93F
:102EC000004802232A4632213820FFF7BFFA3B464A
:102ED0004DA23C215E20CDF80080FFF73BFB6E2029
:102EE0003B464AA23C21CDF80080FFF733FB56E079
:102EF000F08A47A2281A3083CDF80080DDE9031359
:102F00002120FFF727FBCDF80080DDE903132BA27A
:102F10005320FFF71FFBCDF80080DDE903133EA22D
:102F20005820FFF717FB3EA08DE881010023524691
:102F30001A211846FDF7E9FC3B461FA23C21382028
:102F4000CDF80080FFF706FB3B461CA23C21452044
:102F5000CDF80080FFF7FEFA0A26B5FBF6F2CDE9C0
:102F60000048022332215020FFF770FAB5FBF6F239
:102F7000CDE90048022332215020FFF767FA6C2088
:102F800023460FA23221CDF80080FFF7E3FACDE906
:102F90000048702001232A463221FFF757FA05B076
:102FA000BDE8F04FFFF7A8B978030020424C4F4F1F
:102FB0004D20524154494F00310000003A000000BA
:102FC0002E0000004F464600424C4F4F4D205445C6
:102FD0004D50000030030020524F4F4D00000000C4
:102FE00043000000424C4F4F4D20464C4F570000CD
:102FF000425245572054454D50000000425245571B
:1030000020464C4F570000006D6C00002F730000ED
:10301000434F464645450000574154455200000085
:10302000544F54414C000000FEB505460E4617466D
:10303000FEF7DCFF0122102116A08DE80700174CD7
:103040000A210020A38A628AFDF75FFCA07D6178D7
:103050000095CDE90110BE4206D1E089A38A00EBBC
:10306000510081B2628A0DE0A38A628AE189002060
:10307000FDF74BFCA07DA1780096CDE90110A38A55
:10308000628A218A0020FDF740FCBDE8FE40FFF780
:1030900033B900004D4F4445000000009C00002063
:1030A0002DE9F04F87B080460A2005906C200690ED
:1030B0004FF6FF700490002010241426119F0390F7
:1030C000FEF794FF01254FF0700A4FF06A0B4FF0A6
:1030D0008C09B8F1060F74D2DFE808F0030C113246
:1030E0003A713AA08DE8310000234FF6FF7218467E
:1030F000059901E039A024E0FDF707FC61E039A063
:103100008DE83100DDE904210020039BFDF7FDFB84
:1031100000200090702102230122192001F03AFAC8
:1031200051461D20234632A20095FFF713FA602076
:10313000334630A200950699FFF70CFAFAB228E060
:103140002DA08DE83100DDE904210020039BD3E7A9
:103150002BA08DE83100DDE904210020039BFDF761
:10316000D4FB00200090702102230122192001F0DD
:1031700011FA51461D2023461DA20095FFF7EAF9DA
:10318000602033461BA200950699FFF7E3F9C7F3C9
:103190000722CDE90065584602230699FFF756F944
:1031A0007E2033461AA200950699FFF7D3F94846C8
:1031B000334618A200950699FFF7CCF901E000F01C
:1031C0002DFB07B0BDE8F04FFFF796B857414954C3
:1031D00020544F205354415254000000484541545C
:1031E000494E4700424C4F4F4D494E4700000000AA
:1031F000430000002E000000434F4F4C494E470053
:10320000434F4C442042524557494E47000000006E
:103210006D6C00002F7300000FB45C492DE9F84F6E
:103220000FAD044695E80908DFF864810968DFF806
:1032300054A198F8132000910114534E0127DFF890
:10324000549100254FF0020E00B2062C2DD2DFE87B
:1032500004F0030C37556A9488F80F700B98FDF74B
:1032600009F9002821D001247EE00AB188F8135022
:10327000BAF810204FEA1B4190421BDDE9B1A8F8D3
:10328000160086F800E0FDF70CF80099FDF744F809
:1032900001D8022468E0464688F80F700520FDF743
:1032A000ADF918B1A9F80050F57361E03221A9F821
:1032B00000105DE009B1022400E00324357057E0FE
:1032C00072B1BAF81010884203DD86F800E0A8F861
:1032D0001600FCF7E6FF0099FDF71EF848D831E02C
:1032E000D9B2A9F8001088F80F701814FDF7C2F8C9
:1032F00050B3A9F800503570032435E00AB188F8BE
:103300001350BAF8260081420BDAA8F8161037706D
:103310000846FCF7C6FF0099FDF708F828D80424F2
:1033200026E00424CAE782B1BAF82600814202DA14
:103330003770A8F816100846FCF7B3FF0099FCF7A1
:10334000F5FF15D888F8135012E0C3F30721A9F848
:10335000001088F80F700FFA8BF0FDF78BF838B17A
:10336000A9F800503570052488F80F5000F0F2FEDF
:103370002046BDE8F80F5DF814FB002A9ED088F8BF
:1033800013509BE730030020330000204000002052
:1033900008000020340000202DE9F041194D1A4F9B
:1033A0001A4E288839881A4C884203D020783080F9
:1033B000FFF774FC307820703C2801D93C2002E0F3
:1033C000052802D2052030802070617BC0B288427F
:1033D00001D0FFF763FC0F4928883880097801295C
:1033E00004D00D490978012902D006E0C0B201E0FD
:1033F00000F58050288000F01FFF20786073BDE842
:10340000F081000000000020020000206E0000207B
:1034100008000020600000206100002070B51C4EF4
:103420001C4C30882188884203D000210846FFF7D1
:10343000C7FB194D0120697CFFF7C2FB3088208053
:10344000697C00249F290AD300F00F0030802C747F
:1034500000F0F2FEEC70AC706C7000F07BFE0F4878
:103460000078012804D00E480068012805D00AE041
:10347000308800F58050308006E0687C9F2802D2BA
:103480000120287470BD2C74BDE8704000F0D4BEDB
:103490000000002002000020080000206100002041
:1034A0005E0000202DE9F041414D424E424F2888F8
:1034B0003188424C884213D0FEF798FD24223946C9
:1034C0003F48FCF753FE0121E079FDF7C1F8206287
:1034D000E0793C4A00EB400112F82110FFF718FC9C
:1034E000217AE079FDF7B4F8C1B22062E079FFF704
:1034F0000FFCE0792072344A298831801278002646
:10350000012A0FD0314A1278012A1FD0304A12788E
:10351000002A05D0627ADAB3401EE071521E627250
:10352000BDE8F081032802D1A279012A05D0627A90
:1035300042B1401EE071521E11E0E671607AC01E79
:10354000607221E001F00F00288015E0226A02433A
:1035500007D0627A052A0CD2401CE071521C6272BC
:1035600012E0C01CE071607AC01C60720120A07182
:103570000AE001F580712980E6716672A671242245
:103580000F493846FCF7F2FDBDE8F04100F054BEAB
:1035900001F00F00288000F04FFEE6716672A67100
:1035A0003846BDE8F04124220549FCF7DFBD0000A4
:1035B0000000002002000020E80200200800002097
:1035C000780300203003002060000020610000200C
:1035D000620000202DE9F04F8248DFF80CB2834DE5
:1035E0000078DFF80C92834F89B04FF00108002477
:1035F00040B1FDF711F98BF800402C80FC7387F87F
:103600001380B8E07C487D4EB9F80010028806F1BE
:103610000C000790914218D0F869C0EB00108000B0
:103620007862F87808B1B87005E0787808B1BC70B5
:1036300001E087F80280182268460799FCF796FD9A
:1036400096E80E00B878FFF72BFDF87CDFF8B0A104
:1036500020B3B97B884209D0182268460799FCF745
:1036600085FD96E80E00B878FFF71AFDB8780228B5
:1036700001D0042831D1182162A2CDE90021002314
:10368000CDF808804FF6FF7234211846FDF73DF95A
:103690000021DAF8000000F081FC1EE0B878012873
:1036A00006D0032804D0022804D0042802D006E063
:1036B000012100E00021DAF8000000F06FFCB87B87
:1036C000F97C884209D0182268460799FCF74EFD1C
:1036D00096E80E00B878FFF7E3FCF87CB87346482C
:1036E000B9F800101C220180444968460831FCF7F3
:1036F0003DFDB2460CCEB878796AFFF78DFDB87003
:10370000052826D1387D60B10620FCF777FF10B17F
:103710002C80FC7309E03E4902200870322028808A
:1037200003E087F8148087F80F803A480078012872
:103730000FD13C752C80FC7300F00CFD99F8001043
:1037400001F00F01A9F80010FC70BC7000F074FDCE
:103750007C70BE78F87886420BD0182268460799AC
:10376000FCF704FDDAE901233046DAF80010FFF730
:1037700097FCB878F87028480078012810D1B878FC
:10378000052810D017480078E8B1B9F80010C1F347
:103790000B01A9F8001000F04FFDFC70BC707C70AC
:1037A00009B0BDE8F08F99F8001001F00F01A9F8F9
:1037B000001000F041FDFC70BC707C708BF8004084
:1037C0002C803C75ECE78BF800402C80FC73B9F83A
:1037D0000010A1F58051A9F8001000F02DFD87F828
:1037E0001380DDE73B000020330000203400002080
:1037F00000000020080000200200002078030020C4
:1038000040000020505245504152494E47000000B0
:10381000320000206100002060000020FEB5FEF7AD
:10382000E5FB012514240CA08DE8310000234FF6A0
:10383000FF76324628211846FDF767F80BA08DE881
:1038400031000023324644211846FDF75EF8BDE8FA
:10385000FE40FEF751BD00005748454E20445249F6
:1038600050532053544F502C00000000454E4A4FF7
:1038700059210000F0B5434B434D444E1888444A4B
:1038800085B0010903D096F90410298011801188B0
:103890000127814219D00E211C46B1EB103F14D1F3
:1038A000FEF7A4FB18203BA1CDE9001000234FF642
:1038B000FF72029734211846FDF727F8FEF71CFD2A
:1038C000B774F773278005B0F0BD3446B17C00268D
:1038D00099B10520FCF792FE314940B10E80E673A4
:1038E00000F038FCA67494F904002880EBE72D4A18
:1038F0000220107032200880E5E7297849B2217152
:10390000082902DD2E80267104E0002902DA082150
:103910002980217194F904E0A4461FFA8EF114461F
:1039200011801D46814205D19CF9053041EA000213
:103930001A430CD1014321D08CF805601A490EEBD3
:10394000CE0001EB800124221848FCF70FFC174938
:10395000142210316846FCF709FC14480FC8FFF721
:1039600063FB13492088288009780129ABD11030E6
:10397000208005B0BDE8F04000F05EBC8CF805701A
:10398000DCE70000020000206E000020080000209C
:103990000000002043414E43454C4C494E47000037
:1039A0003400002032000020EC01002078030020C9
:1039B000610000202DE9F0411A481B4D1B4C007896
:1039C0004FF0000810B1FCF727FF19E0184E2888C7
:1039D00001273188884204D0002127740846FFF768
:1039E00039F8288830802774617C9F2905D94FF6E3
:1039F000FF721043288084F810800120FFF72AF816
:103A00000C48007801280AD12888C0F30B002880D0
:103A100000F012FC084984F8108081F80080BDE8AD
:103A2000F08100003B000020000000200800002082
:103A300002000020600000203300002070B5144C0C
:103A4000144E154D20883188884203D00020E96942
:103A5000FFF740F81148B0F900100120E961FFF7C5
:103A600039F80F4920883080097801290AD00D499A
:103A7000097801290BD1A0F580502080BDE8704065
:103A800000F0DABB00216970C0F30B00F5E770BDF0
:103A90000000002002000020080000206E0000202E
:103AA00060000020610000202DE9FE4F0C46182523
:103AB0000026DFF864A2994FDFF864B2DFF8649261
:103AC00010224FF6FF714FF00108E8B3012877D1BB
:103AD00095A3CDE9003200230A46CDF808800A21DB
:103AE0001846FCF712FF002C6BD03879002867D1FC
:103AF0008F488BF800800521018044465D4689F897
:103B000000800846FCF77AFD002878D0AAF800600B
:103B10002E7089F8006000F01DFB3C71FEF766FA1C
:103B20001025294683A08DE8130000234FF6FF7669
:103B300032461846FCF7E9FE7879294600280094B9
:103B40007AD018237EA279E0FFE7002C5BD07DA31A
:103B5000CDE900320023CDF808804FF6FF720A212C
:103B60001846FCF7D2FE012C02D0022C13D0AFE095
:103B70008BF80060AAF80060FE7089F800607E7221
:103B800073A18DE82201342100234FF6FF7200203B
:103B9000FCF7BBFE9CE0664802218BF80010412533
:103BA0000580444687F80980DFF8B4816B48D8F86F
:103BB0000010FCF7B1FBF87804D820B9FC7002E0E3
:103BC00092E093E008B1387A28B10121D8F80000DA
:103BD00000F0E4F97CE0A0464C4689F800804FF400
:103BE0009670FCF747FC58B18BF80060AAF80060AB
:103BF000267000F0AFFA87F808807E7268E06BE00C
:103C0000AAF8005064E048A08DE8050100230C46A6
:103C10000A460A211846FCF778FE8BF8006089F8FE
:103C2000006000F097FA3E7246A08DE82101342131
:103C300000232246ABE7FFE710234AA26420FEF7E9
:103C400089FC2F4648A0CDE90007282500232946F6
:103C5000324602941846FCF758FE4648294600783A
:103C6000009410B1182336A201E010233DA2642075
:103C7000FEF770FC40A0CDE900070023324640214A
:103C800002941846FCF741FE3E480078009410B1BB
:103C900018232BA201E0102332A240216420FEF75A
:103CA00059FC39A0CDE9000700233246582102947F
:103CB0001846FCF72AFE374858210078009410B1C6
:103CC00018231FA201E0102326A26420FEF742FC65
:103CD000BDE8FE4FFEF710BB21480121006800F04F
:103CE0005DF94120AAF80000BDE8FE8F2AA18DE809
:103CF0002201002334214FF6FF721846FCF705FE1F
:103D000017480221006800F049F93E7189F8006007
:103D1000BDE8FE4F00F01EBA340000209C000020D9
:103D2000330000201700002053455454494E4700EB
:103D30001E00002050554D50202020200000000083
:103D40004E47000044455343414C494E4700000054
:103D50004E4F202F205945530000000000008242A2
:103D6000400000204F4B00004E54433120202020C3
:103D700000000000390000204E5443322020202053
:103D8000000000003A00002054414E4B202020202B
:103D9000000000004800002053595354454D204373
:103DA0004845434B000000002DE9F0412F4E304FB5
:103DB000304930883A8800242F4D904202D0AC72AE
:103DC0000C802C73287B60B9087840B2A872012857
:103DD00003DD01200880A87203E0002801DA0C80CE
:103DE000AC7295F90B0095F90A10884201D0FEF7E4
:103DF000FDF8224995F90A00E872097829B1C0B2A4
:103E00000021FFF751FE2C7303E0297BC0B2FFF7BE
:103E10004BFE1B4A3088388012783146012A09D07F
:103E20001848007801281FD195F90C00A0B101288D
:103E300012D015E02A7B144F144E3AB1FEF7D6F893
:103E4000287B401E28733C80347009E03C8034702D
:103E500000F00F00088003E0401C2873FEF7C6F84E
:103E6000BDE8F04100F0E8B9BDE8F08100000020B5
:103E7000020000206E00002008000020A4000020A6
:103E8000600000206100002034000020330000208A
:103E90002DE9F041384E394F394D3088398886B098
:103EA0004FF00108884243D0182136A2CDE9002105
:103EB0000023CDF808804FF6FF7219461846FCF72C
:103EC00024FD324C0022207C48B12978E38A01EBA2
:103ED000810149004B43B3FBF0F0608200E0628255
:103EE000607C48B12978228B01EB810149004A436B
:103EF000B2FBF0F0A08200E0A282E08A218B1422C3
:103F000008442978143848430A2190FBF1F02084B2
:103F1000B4F91200B4F9141008443C301B49E061B4
:103F200010316846FCF722F994E80F00FEF7C6FC52
:103F30001749308838800978012911D01549097846
:103F4000012910D014490978012906D100F5005043
:103F5000308000F071F985F8018006B0BDE8F0818D
:103F6000C0F30B0001E000F58050308006B0BDE8E2
:103F7000F04100F061B900000000002002000020C4
:103F80000800002052455345525645007803002052
:103F90006000002061000020630000202DE9F34F45
:103FA00083B06C201C2614274FF0580810240125DC
:103FB0004FF02E094FF0400AC346029001292DD040
:103FC000022958D05F4E5E4930688046FCF72BF9D5
:103FD00010F0FF4F4FF00A040CD04046FCF788F970
:103FE00080B2B0FBF4F2CDE9007501230020029904
:103FF000FEF72CFA3068FCF77BF981B22046B1FB62
:10400000F0F204FB1212CDE9007501230299FEF7CC
:104010001DFA05B0BDE8F04FFEF76EB94E203346ED
:1040200049A232210095FEF795FA0398FCF760F952
:10403000CDE900650246022332214846FEF706FA22
:104040003F490398FCF7BDF8FCF752F9CDE900654C
:104050000246584601233221FEF7F8F9002000906D
:10406000022301223F216C2000F094FA102337A292
:104070003C2100955FE05027234633A24146384655
:104080000095FEF767FA0398FCF732F9024602231F
:1040900041465046CDE90045FEF7D8F9DFF8A0804B
:1040A00003984146FCF78DF8FCF722F90246594681
:1040B00001230846CDE90045FEF7C8F90026022392
:1040C00001225B216C20009600F064FA10231FA2ED
:1040D000594670200095FEF73DFA4FF068092346D7
:1040E00019A2494638460095FEF734FA184F386849
:1040F000FCF7FEF80246022349465046CDE900454A
:10410000FEF7A4F941463868FCF75BF8FCF7F0F8D5
:104110000246012349465846CDE90045FEF796F987
:104120006B21022301226C20009600F033FA102349
:1041300006A2494600957020FEF70CFA69E70000D8
:1041400000002041400000202E000000430000003D
:1041500044000020034900200885C88488844884DE
:1041600008847047580000202DE9F0412E4C86B09D
:10417000A06940F00100A061A06900F00100049076
:10418000A06940F00400A061A069284900F0040083
:104190000490486820F0E06040F000704860102013
:1041A000002701250326CDE90007DFF88480CDE94B
:1041B000025669464046FCF759FCA06940F00800E9
:1041C000A061A069CDE9025600F0080004904020EB
:1041D000CDE90007174F69463846FCF747FCA06950
:1041E00040F00400A061A069CDE9025600F004008F
:1041F00004900820CDE9000569464046FCF736FCEE
:10420000A06940F00800A061A069CDE9025600F065
:10421000080004908020CDE9000569463846FCF787
:1042200025FC06B0BDE8F08100100240000001400E
:1042300000080140000C0140034900204872087248
:10424000C8728872704700005800002010B5406A9C
:104250000021C185C184FDF798FC10BD0168CA68C2
:1042600022F49072CA6001684A6922F001024A6130
:10427000202180F83A10704710B590F83A102229A2
:1042800001D0022010BD81684FF48053994201D1C2
:10429000026922B1826A99421BD049B10AE00268E0
:1042A000816A5268C2F308020A80816A891C08E0A8
:1042B000016971B10168496801F07F011170816A7B
:1042C000491C8162C18D491E0904090CC18503D0B6
:1042D00016E001684968F1E70168CA6822F0200227
:1042E000CA600168CA6822F48072CA6001684A69BB
:1042F00022F001024A61202180F83A10FDF796FD74
:10430000002010BD70B5044600680169E26821F420
:10431000405111430161A168206901436069014373
:104320002068C26841F20C639A430A43C260206865
:104330004169A26921F44071114341611E4920681D
:10434000884202D1FCF7C0FD01E0FCF7ADFD00EBB7
:10435000C00101EB0011606864228000B1FBF0F342
:10436000B3FBF2F36FF018067343B1FBF0F5B1FB4A
:10437000F0F605EB8305322303EB0515B5FBF2F5EB
:10438000B6FBF2F605F0F00505EB0615B1FBF0F60D
:10439000B1FBF0F0B0FBF2F06FF01801484306EB10
:1043A000800003EB0010B0FBF2F0216800F00F007A
:1043B0002844886070BD0000003801400148FDF7C6
:1043C000E5BB0000A8030020FEE7000010B50F4881
:1043D0004FF08041002401601721C0E901146321DE
:1043E000C0E90314FDF7FEF80848602148300822B0
:1043F000C0E90014014684604838FDF790F8BDE834
:10440000104008210148FDF7B7B90000580400200A
:104410004FF08041C863704710B5FDF7F5FE0248C4
:104420000188491C018010BD020000200907090E07
:10443000002804DB00F1E02080F80014704700F051
:104440000F0000F1E02080F8141D704702E008C85A
:10445000121F08C1002AFAD170477047002001E0FE
:1044600001C1121F002AFBD170472DE9F05F1546EC
:104470001C46DDF828B00E46074601EB040800EBA9
:10448000050A1FFA88F11FFA8AF05A46FCF738FA33
:104490001FFA88F1A7EB05081FFA88F05A46FCF7C7
:1044A0002FFAA6EB04091FFA89F11FFA8AF05A467F
:1044B000FCF726FA1FFA89F11FFA88F05A46FCF732
:1044C0001FFA06EB050907EB04081FFA89F11FFA2A
:1044D00088F05A46FCF714FA3C1B1FFA89F1A0B287
:1044E0005A46FCF70DFA751BA9B21FFA88F05A4616
:1044F000FCF706FAA9B2A0B25A46BDE8F05FFCF795
:10450000FFB9000010B54FF0E02200210446116110
:104510000846FCF7ABFE0249E008088010BD000029
:10452000300000204FF47A7170B5B0FBF1F2B0FBAF
:10453000F1F401FB1205094E03E0304600F010F8DB
:10454000641E002CF9D1002D06D04FF47A70684318
:10455000BDE8704000F004B870BD000040420F009C
:104560000B49098848434FF0E021486100238B61E3
:10457000086940F0010008610869C20701D0C00362
:10458000FAD5086920F0010008618B6170470000CE
:10459000300000202DE9F84F89461E46904682469D
:1045A0000024714203220A9802EB4105C8B930E0A9
:1045B000274608E03B46224649465046CDF8008053
:1045C000FFF753FF7F1CB742F4DD002D03DA05EB44
:1045D0008405AD1D04E0A01B05EB80050A35761EA1
:1045E000641CB442E4DDBDE8F88F334622464946F8
:1045F0005046CDF80080FFF738FF002D03DA05EBB9
:104600008405AD1D04E0A01B05EB80050A35761E70
:10461000641CB442E9DDE6E7FCF77CF8254E264D44
:10462000264C3078FDF788FC2088010912D0010A59
:1046300013D0010B28D000F47040B0F5405F32D0A9
:1046400025DCB0F5805F2BD0B0F5005FE9D1FFF736
:10465000B1F9E6E7FFF70EF9E3E795F8221007292D
:1046600008D0082909D061888842DAD008D200F041
:104670000F0007E0FEF716FFD3E7FFF795FBD0E743
:1046800000F580702080CCE7FEF786FEC9E7B0F524
:10469000604F0BD0B0F5704FC3D1FEF79BFFC0E762
:1046A000FFF7F6FBBDE7FFF7C9F9BAE7FEF7B6FE7D
:1046B000B7E700006600002078030020000000201B
:1046C00070B590B0064628216846FBF768FD1421B6
:1046D0000AA8FBF764FD0120010400248DE8130003
:1046E00002250996CDE907516846FCF733FC00B175
:1046F000FEE70F20CDE90A054FF48060CDE90C40BC
:1047000002210AA80E94FCF733FB002800D0FEE734
:1047100010B070BD0C4910B50A4AC1E90020002054
:104720008860C860086188610C2048610846FDF710
:10473000DBFA05490922BDE810400C390248FDF7B3
:104740004BBB000000380140A8030020000000001F
:104750000000000001020304060708090000000031
:10476000010203040000000000000000000000003F
:1047700000F80000000000020000000000380038CF
:1047800000000000000000000010F810F810000108
:1047900003010301003048FC4888000202070201BF
:1047A00000303080402000020100000300B0484883
:1047B000B0400001020201020038000000000000C9
:1047C0000000000000F008080000000102020000E4
:1047D000000808F00000000202010000004050E064
:1047E0005040000001000100004040F04040000047
:1047F00000010000000000000000000907000000A8
:104800000040404040400000000000000000000068
:1048100000000002000000000000008040200002B4
:104820000100000000F0884828F0000102020201A7
:10483000002010F800000002020302020090484825
:1048400048300003020202020010084848B000018C
:104850000202020100C0A09088F8000000000003DE
:104860000078282828C800010202020100F0484808
:104870004890000102020201000808884838000040
:104880000003000000B0484848B0000102020201E5
:104890000030484848F000010202020100A0000078
:1048A00000000000000000000020000000000009DF
:1048B000070000000040A010000000000001000000
:1048C00000A0A0A0A0A00000000000000010A040D8
:1048D0000000000100000000001008C8483000007F
:1048E0000002000000F008E8A8F000010202020245
:1048F00000F0484848F000030000000300F8484872
:1049000048B000030202020100F00808081000018C
:104910000202020100F8080808F000030202020186
:1049200000F84848480800030202020200F848481C
:10493000480800030000000000F00808889000010B
:104940000202020100F8404040F8000300000003AA
:10495000000808F80808000202030202009808088C
:1049600008F800010202020100F84040A01800030C
:104970000000000300F80000000000030202020231
:1049800000F820C020F800030000000300F82040D9
:1049900080F800030000000300F0080808F00001A0
:1049A0000202020100F848484830000300000000FD
:1049B00000F0080808F000010202020500F848C8EB
:1049C00048300003000001020030484848880002D7
:1049D00002020201000808F80808000000030000B5
:1049E00000F8000000F800010202020100F80000D7
:1049F00000F800000102010000F800E000F80001EA
:104A0000020102010018A040A018000300000003EA
:104A1000001820C02018000000030000000888488B
:104A2000281800030202020200F808080000000330
:104A30000202000000102040800000000000000181
:104A4000000808F80000000202030000002010081F
:104A50001020000000000000000000000000000224
:104A60000202020200081000000000000000000026
:104A70000000A0A0C00000010202030000F82020F6
:104A8000C00000030202010000C02020200000013D
:104A90000202020000C02020F80000010202030010
:104AA00000C0A0A0C0000001020202000020F02807
:104AB000080000000300000000C02020E00000010A
:104AC0000A0A070000F82020C000000300000300CD
:104AD0000020E8000000000203020000002028E09F
:104AE000000000080807000000F8804020000003D4
:104AF000000102000008F8000000000203020000AC
:104B000000E020E020C000030003000300E02020BC
:104B1000C00000030000030000C02020C00000010E
:104B20000202010000E02020C000000F020201008C
:104B300000C02020E000000102020F0000E0202061
:104B400040000003000000000040A0A02000000280
:104B5000020201000020F820000000000102020013
:104B600000E00000E00000010202010000E000009F
:104B7000E00000000102010000E000C000E00001D0
:104B80000201020100608080600000030000030059
:104B900000E00000E00000010A0A07000020A0A0D9
:104BA00060000003020202000040F8080800000054
:104BB0000302020000F800000000000300000000F3
:104BC000000808F8400000020203000000C0204076
:104BD00080600000000000000000000000000000F5
:104BE000000000000000000000F0000000000000D5
:104BF00000170000000000000070000070000000BE
:104C000000000000000000000040F0F040F0400014
:104C100000041F1F041F040000E01010F810200003
:104C2000000811113F110E000060000080600000BC
:104C3000001806060118000000E010101010E00037
:104C4000000E111111110E00007000000000000094
:104C5000000000000000000000E010101000000044
:104C6000000F10101000000000101010E0000000F5
:104C7000001010100F0000000000404080400000B5
:104C8000000105050305010000000000C000000050
:104C90000001010107010100000000000000000008
:104CA0000090707000000000000000000000000094
:104CB00000010101010101000000000000000000EE
:104CC00000100000000000000000000080600000F4
:104CD000001806060100000000E010101090E0002F
:104CE000000F121211100F0000402020F0000000F1
:104CF000001010101F101000002010101010E00005
:104D00000018141412111000002010101010E000F0
:104D10000008101011110E0000F000000000F0005B
:104D20000001010101011F0000F09090909010001F
:104D30000009101010100F0000E0909090902000DB
:104D4000000F101010100F00003010101010F000A5
:104D5000000000001E01000000E010101010E00034
:104D6000000E111111110E0000E010101010E000E3
:104D70000009121212120F00004000000000000093
:104D800000040000000000000040000000000000DF
:104D90000090707000000000000080804020000043
:104DA00000010202040800000080808080808000F2
:104DB00000020202020202000020404080000000C7
:104DC0000008040402010000002010101010E00090
:104DD000000000001601000000E01010D050E000BC
:104DE000000F10101714070000E010101010E00062
:104DF000001F010101011F0000F010101010E00061
:104E0000001F111111110E0000E0101010102000F1
:104E1000000F10101010080000F010101010E0002B
:104E2000001F101010100F0000F0101010101000D4
:104E3000001F11111111100000F0101010101000BF
:104E4000001F01010101000000E0101010102000FF
:104E5000000F101010110F0000F000000000F00013
:104E6000001F010101011F0000101010F0101000C0
:104E7000001010101F101000003010101010F00063
:104E8000000C101010100F0000F0000080403000E7
:104E9000001F01010204180000F0000000000000E3
:104EA000001F10101010100000F080800080F00033
:104EB000001F000003001F0000F080800000F000D1
:104EC000001F000001021F0000E010101010E000A1
:104ED000000F101010100F0000F010101010E00064
:104EE000001F02020202010000E010101010E0009A
:104EF000000F10101008170000F010101010E00044
:104F0000001F0202060A110000E01010101020001D
:104F10000008111111110E0000101010F0101010E7
:104F2000000000001F00000000F000000000F00082
:104F3000000F101010100F0000F000000000F00033
:104F4000000708081008070000F00000800000F0CB
:104F5000000F10100F10100F007080800080700084
:104F6000001C020201021C000070808000807000A2
:104F7000000000001F0000000010101010907000D2
:104F8000001C12121110100000F010101000000090
:104F9000001F101010000000006080800000000062
:104FA000000001010618000000101010F0000000C1
:104FB000001010101F0000000040202010204000B2
:104FC00000000000000000000000000000000000E1
:104FD0000010101010101000001020200000000021
:104FE00000000000000000000080404040408000C1
:104FF000000C121212121F0000F0404040408000CE
:10500000001F101010100F00008040404040800032
:10501000000F101010100800008040404040F000C9
:10502000000F101010101F00008040404040800012
:10503000000F121212120B00008080E090902000EE
:105040000000001F00000000008040404040800041
:10505000004F909090907F0000F0404040408000D2
:10506000001F000000001F00004050D04000000062
:105070000010101F1000000000405050C000000041
:10508000008080807F00000000F000000080400071
:10509000001F020205081000001010F000000000C0
:1050A0000010101F1000000000C0404080404080F1
:1050B000001F00001F00001F00C040404040800053
:1050C000001F000000001F000080404040408000A2
:1050D000000F101010100F0000C040404040800032
:1050E00000FF101010100F00008040404040C00032
:1050F000000F10101010FF0000C0808040408000A2
:10510000001F000000000000008040404040800080
:105110000009121212120C00008080F08080000042
:105120000000000F1010080000C000000000C000C8
:10513000000F101010100F0000C000000000C00091
:10514000000708081008070000C00000C00000C0E9
:10515000000F10100F10100F00C000000000C00062
:10516000001805050205180000C000000000C0007E
:10517000004F909090907F00004040404040C00021
:1051800000181414121110000000E0E010100000CC
:1051900000010E0E1010000000F0000000000000E2
:1051A000001F00000000000000101010E0000000D0
:1051B000001010100E0100000000000000000000B0
:1051C00000060101010204000000000000000000D0
:1051D00000000000000000000000000000000000CF
:1051E000000000000000F8F80000000000000000CF
:1051F000DFDF0000000000000000000000000000F1
:1052000000000000F8F80000F8F8000000000101BC
:10521000000001010000000000000000000000008C
:1052200000006060F8F860F8F86060003030FFFF60
:1052300030FFFF30300000000000000000000000E0
:10524000E0E018FCFC18186060003131C6FFFFC6B2
:10525000C638380000000003030000000000787822
:1052600078780080806060003030181E06F1F1F020
:10527000F00000000000000000000000E0E018184E
:1052800018E0E00000003939C6C6C63939C6C6C6BE
:1052900000000000000000000000F8F8000000001E
:1052A00000000000010100000000000000000000FC
:1052B0000000000000000000E0E0181800000000FE
:1052C00000003F3FC0C000000000000000000000E0
:1052D0000000000000001818E0E0000000000000DE
:1052E000C0C03F3F000000000000000000000000C0
:1052F00000000000606080E0E08080606000363682
:105300001F3F391F1F36360000000000000000005C
:105310000000000000E0E000000000000606063F7C
:105320003F06060606000000000000000000000026
:10533000000000000000000000003030F0F000002D
:105340000000000003030000000000000000000057
:10535000000000000000000006060606060606061D
:105360000600000000000000000000000000000037
:10537000000000000000F0F0F0F00000000000006D
:10538000000000000000000000000000000000809D
:10539000806060003030181E06010100000000002F
:1053A0000000000000000000E0E01818189898E0E5
:1053B000E0003F3FD8DEC6C1C13F3F000000000013
:1053C000000000000000808060F8F800000000008D
:1053D000C1C1C0FFFFC0C0C0C0000000000000008D
:1053E0000000000060601818181818E0E000C0C045
:1053F000F0F8D8C6C6C1C1000000000000000000DF
:10540000000060601818181818E0E0003030C0C6BE
:10541000C6C6C639390000000000000000000000C8
:10542000000080E060F8F80000001E1E191918FF47
:10543000FF18180000000000000000000000F8F84D
:1054400098989898981818003131C1C1C1C1C13ECF
:105450003E0000000000000000000000E0E098981E
:105460009898980000003F3FC1C1C1C1C13E3E00B5
:10547000000000000000000000001818181818981C
:10548000987878000000F8FE060101000000000096
:105490000000000000000000E0E01818181818E0F4
:1054A000E0003939C6C6C6C6C6393900000000005A
:1054B000000000000000E0E01818181818E0E000F4
:1054C0000707D8D8D8D8D83F3F0000000000000018
:1054D00000000000E0E0E0E00000000000003939DA
:1054E000393900000000000000000000000000004A
:1054F0000000E0E0E0E00000000000003131F1F1E8
:105500000000000000000303000000000000000095
:10551000000080806060000000000606191930302D
:10552000000000000000000000000000000080807B
:105530008080808080808000191919191919191923
:105540001900000000000000000000006060808082
:1055500000000000000030301919060600000000AD
:10556000000000000000000000006060181818181B
:1055700018E0E000000000D8D80606010100000095
:105580000000000000000000E0E01898989898E003
:10559000E0003F3FC0DFDFDFDF0707000000000063
:1055A000000000000000E0E01818181818E0E00003
:1055B000FFFF0606060606FFFF00000000000000D1
:1055C00000000000F8F81818181818E0E000FFFFB5
:1055D000C6C6C6C6C639390000000000000000007B
:1055E0000000E0E018181818186060003F3FC0C0C5
:1055F000C0C0C0303000000000000000000000000B
:10560000F8F81818181818E0E000FFFFC0C0C0C074
:10561000C03F3F0000000000000000000000F8F85C
:105620001818181818181800FFFFC6C6C6C6C6C036
:10563000C00000000000000000000000F8F818188A
:10564000181818181800FFFF0606060606000000C6
:1056500000000000000000000000E0E0181818182A
:10566000186060003F3FC0C0C0D8D8383800000084
:105670000000000000000000F8F80000000000F842
:10568000F800FFFF0606060606FFFF000000000008
:105690000000000000001818F8F8181800000000BA
:1056A000C0C0FFFFC0C000000000000000000000FC
:1056B0000000000000001818181818F8F800303022
:1056C000C0C0C0C0C03F3F0000000000000000009C
:1056D0000000F8F80080806060181800FFFF061FC7
:1056E000193030C0C00000000000000000000000C1
:1056F000F8F80000000000000000FFFFC0C0C0C0BC
:10570000C0C0C00000000000000000000000F8F869
:1057100060E0806060F8F800FFFF0007070000FF0E
:10572000FF0000000000000000000000F8F880808A
:10573000000000F8F800FFFF0107061818FFFF003F
:1057400000000000000000000000E0E01818181839
:1057500018E0E0003F3FC0C0C0C0C03F3F000000B5
:105760000000000000000000F8F81818181818E0F1
:10577000E000FFFF0606060606010100000000002B
:10578000000000000000E0E01818181818E0E00021
:105790003F3FC0C0C0F0F0FFFF000000000000006D
:1057A00000000000F8F81818181818E0E000FFFFD3
:1057B000061E1E3636C1C1000000000000000000B9
:1057C0000000E0E018181818186060003131C6C6F3
:1057D000C6C6C63838000000000000000000000007
:1057E000181818F8F81818181800000000FFFF0023
:1057F0000000000000000000000000000000F8F8B9
:105800000000000000F8F8003F3FC0C0C0C0C03F2B
:105810003F0000000000000000000000F8F8000059
:10582000000000F8F8001F1F30F0C030301F1F00CC
:1058300000000000000000000000F8F80000000078
:1058400000F8F8003F3FC0F838C0C03F3F000000FC
:1058500000000000000000007878808000808078E0
:105860007800F0F0191F061919F0F0000000000090
:105870000000000000007878808000808078780048
:10588000000001FFFE010100000000000000000018
:105890000000000018181818189898787800F0F090
:1058A000D8DEC6C1C1C0C00000000000000000007A
:1058B0000000F8F81818181800000000FFFFC0C01A
:1058C000C0C0000000000000000000000000000058
:1058D00060608080000000000000000001070618E2
:1058E0001830300000000000000000000000181810
:1058F0001818F8F800000000C0C0C0C0FFFF00008A
:1059000000000000000000000000000080806078BF
:1059100018606080800001010000000000010100AB
:105920000000000000000000000000000000000077
:1059300000000000C0C0C0C0C0C0C0C0C0000000A7
:105940000000000000000000001818606000000067
:105950000000000000000000000000000000000047
:1059600000000000000000808080808000000000B7
:1059700000F9F9D9D9D9FEFE0000000000000000AE
:105980000000000000F8F88080800000000000FFA8
:10599000FFC1C1C13E3E0000000000000000000049
:1059A000000000000080808000000000003E3EC13A
:1059B000C1C13636000000000000000000000000F9
:1059C000000000808080F8F80000003E3EC1C1C1A8
:1059D000FFFF0000000000000000000000000000C9
:1059E0000080808000000000003E3ED9D9D9DEDE74
:1059F000000000000000000000000000008080E0C7
:105A0000F89898980000000101FFFF0101010000D3
:105A10000000000000000000000000000080808006
:105A200080800000003E3EC1C1C1FFFF00000000B9
:105A3000000C0C0C0303000000F8F88080800000CC
:105A4000000000FFFF010101FEFE00000000000059
:105A50000000000000000098980000000000000016
:105A600000FFFF0000000000000000000000000038
:105A700000000000000000000098980000000000F6
:105A8000000000FFFF000000000C0C0C0C030300E2
:105A9000000000F8F80000008080000000FFFF1800
:105AA0001818F7F7000000000000000000000000D8
:105AB00000F8F80000000000000000FFFF000000F8
:105AC00000000000000000000000000000008080D6
:105AD0008080808080808080FFFF0101FFFF0101C6
