:020000040800F2
:10000000182900204901000879350008AD3400089E
:100010007735000885060008759500080000000087
:10002000000000000000000000000000E53F0008A4
:10003000E10C000800000000593E0008C94000081B
:100040006301000863010008630100086301000800
:1000500063010008630100086301000863010008F0
:1000600063010008630100086301000863010008E0
:1000700063010008630100086301000863010008D0
:1000800063010008630100086301000863010008C0
:1000900063010008630100086301000863010008B0
:1000A00063010008630100086301000863010008A0
:1000B0006301000863010008D140000863010008E3
:1000C0006301000863010008630100086301000880
:1000D00063010008699500086301000863010008D6
:1000E0006301000863010008630100086301000860
:1000F0006301000863010008630100086301000850
:10010000630100086301000863010008630100083F
:10011000630100086301000863010008630100082F
:10012000630100086301000863010008630100081F
:10013000DFF810D000F0FCF900480047819C00086F
:10014000AFF3008018290020064880470648004782
:10015000FEE7FEE7FEE7FEE7FEE7FEE7FEE7FEE777
:10016000FEE7FEE7CD40000831010008202A04DB4D
:10017000203A21FA02F00021704721FA02F3D04020
:10018000C2F12002914008431946704740EA01033A
:100190009B0703D009E008C9121F08C0042AFAD23D
:1001A00003E011F8013B00F8013B521EF9D2704701
:1001B000D2B201E000F8012B491EFBD270470022A9
:1001C000F6E710B513460A4604461946FFF7F0FF56
:1001D000204610BD421C10F8011B0029FBD1801ADB
:1001E000704710B5002200E0521C835C8C5CA34277
:1001F00001D1002BF8D1D8B2E1B2401A10BD30B510
:1002000004460020034600E05B1C934203D2E05CFE
:10021000CD5C401BF8D030BD034611F8012B00F82F
:10022000012B002AF9D118467047F0B480EA010288
:10023000D40F4200B2EB410F02D2024608461146EB
:100240004A0042D0C30DDDB2C1F3C752AD1A202D12
:1002500035DAC1F3160141F4000204B15242C5F18E
:10026000200602FA06F12A411044B3EBD05F23D0F6
:10027000C4B1012DA0EBC35009DCF0BC4FF000422B
:1002800002EAC352DBB200F5000000F004B94000FE
:1002900000F1807000EBC350A0F1807040EAD17093
:1002A000490009E0490841EAC071A0EBC35000F5DC
:1002B0000000400800EBC350F0BC00F0E3B861421E
:1002C000012202EB4101001BF6E7F0BC704781F010
:1002D0000041AAE780F00040A7E780EA010210B5DC
:1002E00002F00043400022D04A001FD0010E01EB73
:1002F0001261C0F35600C2F3560240F4000042F40B
:100300000002A0FB022000047F39140400D0401C2E
:1003100050EA124001D44000491EC2B20C0604EB60
:10032000D010401C4008802A02D003E0002010BDFD
:1003300020F00100002900DA0020184310BD30B47D
:1003400080EA010202F0004530F0004221F0004056
:1003500013D090B1C30DD40DC2F31601C0F3160033
:10036000E41A41F4000140F400027D34914201D3CB
:10037000641C00E04900002C02DA30BC0020704709
:100380004FF400000023914201D3891A034340082F
:100390004FEA4101F7D151B1914202D14FF00041F2
:1003A00005E002D24FF0010101E06FF0010103EB23
:1003B000C450284430BC00F065B8C10F80EAE0703A
:1003C0000844CA079623002100F065B8962300224E
:1003D000114600F060B800F0004220F00040C10D6E
:1003E000C0F3160040F400007F2901DA00207047B6
:1003F000962903DCC1F19601C84001E09639884096
:10040000002AF4D04042704720F00040C10DC0F3F4
:10041000160040F400007F2901DA00207047962979
:1004200003DCC1F19601C840704796398840704797
:10043000002801DBC0F10040002901DBC1F10041CF
:1004400081427047002801DBC0F10040002901DB38
:10045000C1F100418842704730B50B46014600208B
:100460002022012409E021FA02F59D4205D303FA76
:1004700002F5491B04FA02F52844151EA2F10102F7
:10048000F1DC30BD0029A8BF7047401C490008BFFF
:1004900020F00100704710B4B0FA80FC00FA0CF0B4
:1004A00050EA010404BF10BC704749B1CCF12004EC
:1004B00021FA04F411FA0CF118BF01212143084379
:1004C000A3EB0C01CB1D4FEA00614FEA102042BFA5
:1004D000002010BC704700EBC35010440029A4BF9B
:1004E00010BC7047401C490008BF20F0010010BC40
:1004F000704710B541000CD0C0F3C751962908DCF5
:100500007E2909DC06DB410204D000F0004040F007
:100510007E5010BD002010BDC1F19604C4F1200131
:1005200000FA01F1E040FFF7ADFFA04010BD000070
:10053000064C074D06E0E06840F0010394E8070030
:1005400098471034AC42F6D3FFF7F6FDE0F0000810
:1005500000F1000870B58C1810F8015B15F0070366
:1005600001D110F8013B2A1106D110F8012B03E04C
:1005700010F8016B01F8016B5B1EF9D12B0705D454
:100580000023521E0DD401F8013BFAE710F8013B9D
:10059000CB1A921C03E013F8015B01F8015B521EB9
:1005A000F9D5A142D8D3002070BD000010B50F4985
:1005B0004FF0804200240A6023224A60C1E90240D1
:1005C00008460C6102F0A6F9084860214830002274
:1005D000C0E90014022181600146483802F037F971
:1005E000BDE810400021014802F05EBAC8110020A9
:1005F00070B50E460546002408E005EB84004188EE
:1006000035F8240000F00CF8641CE4B2B442F4D3D2
:100610000249002081F8380070BD0000140000205D
:100620002DE9F041134D2B68DC6A5E6B4FF080477B
:10063000E0B16A68DFF840C0521CBCFBF2F2B2FBCA
:10064000F0F2521EDA625008EA602A6850630846E7
:1006500000F002FF00207863052000F0FDFE28680E
:10066000C462EC6028684663BDE8F08100207863CE
:100670000846F2E7C811002000A24A044FF080416A
:1006800048637047FEE7000070B5054600F012F8B9
:1006900004460A280BD20649284603F0B6FC204639
:1006A000BDE87040024A45F2AA5100F063B970BD3E
:1006B0008813002030B591B0002445F2AA55694650
:1006C000204600F0C2F8A84202D0204611B030BD4A
:1006D000641CE4B20A2CF2D30A20F7E72DE9F04FAC
:1006E000ADF5477D05460A287DD2002426460DF546
:1006F000147A0DF52D7B0DF1040845F2AA5984A951
:10070000304600F0A2F8484512D104EB84005BA902
:1007100001EB400100910BEB40030AEB400204EBBC
:10072000C40108EB810184A800F0DBFA641CE4B288
:10073000761CF6B20A2EE2D3A5425FD2641E30E0E8
:1007400005EBC50708EB870606F124013046242295
:10075000FFF71CFD05EB85030AEB43000BEB43029F
:100760005BA948F8270001EB4303C6E90123D0F851
:100770000A100160D0F80E104160418A0181D2F860
:100780000A001060D2F80E005060508A1081D3F831
:100790000A001860D3F80E005860588A6D1C188142
:1007A000EDB2A542CCDBE4B2002008F01BFF00252F
:1007B00046464F460DE005EBC50006EB80001149AB
:1007C00003F023FC0F4A3946284600F0D3F86D1C8D
:1007D000EDB2A542EFD3FF22402174A8FFF7E8FC59
:1007E0004FF4807508E009E005EB0420402274A96D
:1007F00008F08BFF641CE4B20A2CF5D30DF5477D9D
:10080000BDE8F08F88130020F0B593B01D46189C0A
:1008100016460F460A2816D24FF4807101EB0020CD
:10082000422201A908F004FFBDF8040040BAA0F577
:10083000AA41AA3907D12B46324639460DF10600A6
:10084000009400F04EFA13B0F0BD30B50D464FF4F1
:10085000807191B001EB00204222694608F0E8FE69
:10086000BDF80000402244BA28460DF10201FFF70E
:100870008DFC11B0204630BD2DE9F04FADF5377D30
:10088000884607460A286ED2002425460DF5047ACC
:100890000DF51D7B0DF1040945F2AA5674A92846F1
:1008A000FFF7D3FFB04212D104EB84005BA901EB48
:1008B000400100910BEB40030AEB400204EBC40142
:1008C00009EB810174A800F00CFA641CE4B26D1C01
:1008D000EDB20A2DE2D3A7422FD207EBC70109EBF5
:1008E00081050091242241462846FFF74FFC0099DC
:1008F00007EB87020AEB420049F821000BEB4201AB
:100900005BAB03EB4202C5E90112D8F800301D6869
:1009100005605D6845601B890381D8F804000368A1
:100920000B6043684B6000890881D8F808000168B3
:1009300011604168516000891081002008F052FE6A
:1009400000254F460DE005EBC50007EB8000084988
:1009500003F05BFB064A3146284600F00BF86D1C9D
:10096000EDB2A542EFD30DF5377DBDE8F08F000065
:100970008813002010B513464FF4807202EB002458
:1009800092B0080A8DF800008DF801104022194637
:100990000DF10200FFF7FAFB42226946204608F0FB
:1009A000B4FE12B010BD00002DE9FC5F5C495D4A49
:1009B0005E4E0988128801EB810102EB41025A491F
:1009C0003688564C098801EB810106EB4101C1EBE9
:1009D000011102EB8101564AA1EB01112378128823
:1009E0005D08801A00EB81064FF46160B6FBF0F100
:1009F000B6FBF0F900FB11613C20B1FBF0FAB6FB4D
:100A0000F0F100FB1168616B88457CD04FF0000B62
:100A10000127CDE9007BA07C46A2A0EB5300C1B228
:100A2000207C00EB4500C0B203F098F9CDE9007BD3
:100A3000A07C2378227CA0EB5300C1B205EB85009B
:100A40001044C0B23BA203F089F92078CDE9000739
:100A50004FF00A0BB9FBFBF2A17C0123A1EB500084
:100A6000C1B2207C03F0F8F82078CDE90007A17C22
:100A70000123A1EB5000C1B2207C4A462844C0B2F9
:100A800003F0EAF82078CDE90007A17CBAFBFBF27D
:100A9000A1EB5000237CC1B205EB450909EB030033
:100AA000C0B2012303F0D8F82078CDE90007A17C7B
:100AB0000123A1EB5000C1B2207C524600EB85001F
:100AC000C0B203F0C9F82078CDE90007A17CB8FBDB
:100AD000FBF2A1EB5000237CC1B203EB4900C0B292
:100AE000012303F0B9F82078CDE90007A17C227C2E
:100AF000A1EB5000C1B2C5EBC5001044C0B2012348
:100B0000424603F0A9F8C4F8348002F0B7FF16B1EA
:100B10000020BDE8FC9F0120FBE70000A0020020B0
:100B20006A020020680200206E0200206C02002091
:100B3000660200203A0000000F49104A114B098854
:100B4000128801EB810102EB41020D491B880988E3
:100B500001EB810103EB4101C1EB011102EB8101CA
:100B6000094AA1EB01111288801A10EB810001D013
:100B700000207047012070476A02002068020020B0
:100B80006E0200206C020020660200202DE9F05F5A
:100B90000646434FDFF8048100EB460507EB85046A
:100BA000B1420FD000F088F837F8250000EB800044
:100BB0004000FFF70BFCA168FFF7C1FBFFF70BFC40
:100BC000A8F80000B8F900004546002801DA002026
:100BD0002880B5F900008346FFF7EFFBA1688A463D
:100BE000FFF77BFBDFF8BC904946FFF7A8FB804688
:100BF000FFF70AFC2C4F2D4A81B2A7F856109045FA
:100C000016DDABF13200FFF7D8FB5146FFF765FB6D
:100C1000804627495046FFF760FB4946FFF78FFBA8
:100C20004146FFF702FBFFF7EFFBA7F8560001E094
:100C3000A7F856106188B7F85600DFF8788081422F
:100C400012D2A7F85610052E05D10846FFF7BEFBB5
:100C50001349496C0FE001EB81004000FFF7B6FB40
:100C60005146FFF76CFB0BE0FA2810D981420ED9F0
:100C7000FFF7ACFB5146FFF762FB4146FFF7D5FAA1
:100C8000FFF7A9FB2880B7F85600BDE8F09FA188C0
:100C90008142F8D9A7F85610DDE700005C02002079
:100CA00068070020000020411400002000007A4363
:100CB000000048420000344207480849C28A0A80BE
:100CC00083898B81037C0B83C3898B84437C0B8654
:100CD000008B104488877047281100206807002087
:100CE000704730B550F8045B039C156050F8045B06
:100CF000556030F8025B15810A6050F8042B1A60C9
:100D000050F80E2B5A6030F80A2C1A814B6050F8BC
:100D1000082C226050F8042C626030F8022B2281EB
:100D20008C6002888A814288CA8102790A74427979
:100D30004A74C2884A8202898A824289CA82828926
:100D40000A83D0F80E20CA61428A0A84007D81F8A5
:100D5000220030BD2DE9F8431E46089C1746884600
:100D600005460B46009402F089FC33463A46194684
:100D70002846009402F082FC2A463346414610463B
:100D8000009402F07BFC3A463346414610460094FC
:100D900002F074FCBDE8F8831CB500F025FD4FF4AB
:100DA000E01009F052F9482008F0B8FE02F0EEFD1C
:100DB000002002F011FC01211448CDE900011823A4
:100DC000642234211E2002F07CFF02F057FE4FF413
:100DD0007A6008F0B3FE40F2E731472003F07EF975
:100DE0004FF4E13009F05CF908F094FA6320FFF762
:100DF000DDFB08F0C1FB002008F0E0FB00F00AF882
:100E000003494FF07C5048601CBD000045030020A2
:100E1000C81300202DE9F0431D4885B0816941F0D9
:100E200004018161816901F004010491816941F04B
:100E3000040181618069032700F00400CDE903709B
:100E40004FF4006400250126DFF848908DE870001B
:100E50006946484600F0B8FB4FF4805801AACDF827
:100E6000008082E8E0006946484600F0ADFB21467C
:100E7000484600F0A1FC084C4146A08360834846E8
:100E800000F09AFC2084E083258305B0BDE8F08360
:100E90000010024000080140440200202DE9FF47F5
:100EA00002F084FB4748012447490078DFF81C9191
:100EB0004FF6FF76102510B101287ED145E0087865
:100EC00000274FF01808D0B141A1CDE90018CDE9B5
:100ED0000247002332462821184600F0B3F93DA10D
:100EE000CDE90018CDE902470023324640211846DB
:100EF00000F0A8F900233AA032465A211FE0CDE9BC
:100F0000004718233AA22821192002F027FFCDE933
:100F100000840323B9F8002028215F2002F09CFE02
:100F200035A0CDE90005CDE9024700233246502126
:100F3000184600F087F9002331A032466021CDE940
:100F40000005CDE90247002035E00878B8B131A0AE
:100F50000090CDE90154002332461E211846039427
:100F600000F070F92DA00090CDE901540023324625
:100F700034211846039400F065F919A013E0009499
:100F8000102329A228211920019402F0E7FECDE9BF
:100F900000540323B9F8002028215F2002F05CFEF2
:100FA00000E00AE022A00090CDE90154002332467F
:100FB00050211846039400F045F9BDE8FF4702F0C0
:100FC0005DBD000014000020210200202A02002044
:100FD0004C4F57005741544552204C4556454C0004
:100FE000504C4541534520524546494C4C00000069
:100FF0004552524F52000000434F4E54414354005B
:10100000435553544F4D455220534552564943453D
:10101000000000005741524E210000005741544546
:1010200052204C4F570000004552524F52210000B1
:10103000434F4E5441435420435553544F4D455212
:101040002053455256494345000000000649002000
:10105000C8610648016941F004010161016941F07C
:101060004001016170470000A811002000200240EB
:10107000064A0021D16106490A6942F002020A616A
:101080004861086940F0400008617047A8110020DD
:1010900000200240044B0022DA61044A136943F045
:1010A0000103136101807047A81100200020024055
:1010B00014490020CA68D306134A04D5D06940F009
:1010C0000200D0611020CB685B0705D5D36943F0DF
:1010D0000103D36140F00400CB69DB0707D0D3697B
:1010E00043F00403D361CA6922F00102CA61A0F58A
:1010F0008072013A01D0C8607047C86920F00100D1
:10110000C861704700200240A811002070B5044655
:1011100000F05CFB0546114E09E0601C07D024B1CD
:1011200000F054FB401BA04201D9032070BDF068C1
:10113000C007F2D1F068800601D52020F060F06889
:10114000C00605D4F069C00702D1F068400703D596
:10115000FFF7AEFF012070BD002070BD00200240EF
:1011600070B506460024084D04E03046FFF739F814
:1011700030B1641C55F834100029F6D1002070BD40
:1011800005EBC400406870BD180B0020C9B2C0B2A6
:10119000012202F0BFBA000070B5094D06460024D6
:1011A000032255F824103046FFF729F828B1641CB3
:1011B000DA2CF5D34FF0FF3070BD204670BD000033
:1011C000B00700202DE9FC410F46DDE90856044632
:1011D000012A02D022B101D002E01BB1012B01D0C3
:1011E000002000E0012080461FE0A2F120005E28E0
:1011F00004D90A2A1ED00D2A1FD010E00A2A19D0BD
:101200000D2A1AD00021CDE9008133463946204607
:1012100002F05CFC082E12D004EB5600C4B26D1C28
:10122000802C02D30024B819C7B22A78002ADCD156
:10123000BDE8FC81B819C7B200246D1CF5E7A41DF8
:10124000E4B2ECE72DE9FC5F8A460CA90F9E91E819
:1012500020090027012E04D0002128464FEA580318
:101260004AE0DFF8C0900024284659F83410FEF711
:10127000B8FF20B1641C552CF6D32C460AE009EBCC
:10128000C4004568F9E7400903D07F1CBFB2E41CE5
:1012900000E0641C20780028F5D1092F16D2DFE881
:1012A00007F0150507090B0D0F111300482314E073
:1012B000402312E0382310E030230EE028230CE016
:1012C00020230AE0182308E0102306E0B021A1EB58
:1012D000471000EBD070C0F34F03CDE900B6D8B291
:1012E0000AF0FF0143462A4615E0B8F1080F16D070
:1012F0001A46114489B2401C0278002AF5D1C1F186
:10130000A000CDE900B600EBD0700AF0FF01C0F3F9
:10131000470043462A4602F021FDBDE8FC9F062215
:10132000E7E70000180B00202DE9F05F90F821108E
:101330000024022903D004218163012485E001688F
:101340000A6822F00E020A6001680A6822F00102AF
:101350000A603F4E3E4FB215DFF8F4C0DFF8F09060
:10136000DFF8ECA0DFF8E8B0DFF8E4E00168783FF0
:1013700013011502ACF1640CA9F15009AAF13C0A61
:10138000ABF1280BAEF1140E4FF48018B14227D9FF
:10139000B9420ED0614512D049451DD0514518D0F3
:1013A000594518D0714501D1424615E0294EB14248
:1013B00001D1012210E0274E1436B14201D1102292
:1013C0000AE0244E2836B14206D0224A3C329142ED
:1013D00001D11A4600E02A461E49091F0A602BE087
:1013E000B94213D0614517D0494522D051451DD08F
:1013F00059451DD0714501D142461AE0B14202D192
:101400004FF0807215E0134EB14201D1012210E07D
:10141000104E1436B14201D110220AE00D4E28368A
:10142000B14206D00B4A3C32914201D11A4600E04B
:101430002A46074980394A60012180F8211000219D
:1014400080F82010416B01B188472046BDE8F09F2D
:10145000800002400804024080B208F06FBB000028
:101460002DE9F047054626480F460126017E012951
:101470000FD00121814601762868DFF888804CF280
:101480005034022808D0A2462046FFF73FFEA8B1FC
:1014900031E00220BDE8F0872046FFF737FE08BBA9
:1014A0000120FFF7D3FD2046FFF730FED8F81010DB
:1014B000064621F00401C8F810101CE04FF0FF3080
:1014C0003860AC6811E02046FFF7D2FD5046FFF7C8
:1014D0001DFED8F81010060021F00201C8F8101007
:1014E00001D03C6007E004F50064D5E9020100EB9F
:1014F000C120A042E7D8002189F818103046C9E77A
:10150000A8110020002002400348016941F0800139
:101510000161002070470000002002402DE9F05FCB
:1015200005461D4888460024017E16461F460129AF
:1015300009D00121814601764CF2503A5046FFF71E
:10154000E5FD18B123E00220BDE8F09F012D02D097
:10155000022D00D00425D346DFF840A015E022017B
:1015600030463946FEF702FE81B208EB4400FFF731
:1015700091FD5846FFF7CAFDDAF8102022F001026B
:10158000CAF8102018B9641CE4B2AC42E7D30022B8
:1015900089F81820D8E70000A81100200020024098
:1015A000064900200A69120607D5054A4A60054A1D
:1015B0004A600969090600D50120704700200240F1
:1015C00023016745AB89EFCD2DE9F84FDFF8C091D6
:1015D000002409F1040A0AF1040B23464FF00F0816
:1015E0000BF1040ECCE00127A7403A40BA4272D179
:1015F000DFF8A0C14D68A5EB0C0665452BD00DDCCE
:10160000032D34D005DC35B3012D19D0022D2FD197
:101610001BE0112D16D0122D2AD119E0B6F5881F26
:1016200019D006DCB6F5803F15D0B6F5801F1FD166
:1016300011E0B6F5001F0ED0B6F5041F18D10AE070
:10164000CB6815E0CB681B1D12E0CB6808330FE0B8
:10165000CB680C330CE08B682BB1012B4FF00803E7
:1016600003D0476104E0042302E0076100E00023A7
:10167000FF2A01D8064601E000F104064FEA84057E
:1016800001D9A5F12005376808FA05FC27EA0C07FF
:1016900003FA05F547EA050737604D68ED006ED59A
:1016A0003D4DAE6946F00106AE61AD6924F003061A
:1016B00005F001050095394D7719BE68A5072D0F76
:1016C00008FA05FC26EA0C06DFF8D4C0604503D111
:1016D0004FF0000C25E052E0DFF8C8C0604502D1B1
:1016E0004FF0010C1DE0DFF8C0C0604502D14FF0A3
:1016F000020C16E0DFF8B4C0604502D14FF0030CD5
:101700000FE0DFF8ACC0604502D14FF0040C08E0F8
:10171000DFF8A0C0604502D14FF0050C01E04FF0AA
:10172000060C0CFA05FC4CEA060CC7F808C04D681C
:10173000D9F80060ED034D4601D5164300E096430D
:101740002E604D68DAF80060AD03554601D51643AA
:1017500000E096432E604D68DBF80060ED025D46C8
:1017600001D5164300E096432E604D68DEF8006018
:10177000AD02754601D5164300E096432E60641C09
:101780000A6832FA04F57FF42EAFBDE8F88F000046
:101790000004014000001110001002400000014050
:1017A00000080140000C01400010014000140140FD
:1017B00000180140001C01408068084000D0012052
:1017C00070470AB1016170470904FBE7014880686E
:1017D00070470000380200200248816802781144F6
:1017E0008160704738020020074810B5016841F059
:1017F00010010160052000F057F80F2000F006F8F6
:1018000000F024F8002010BD0020024070B50D4DFE
:1018100004464FF47A712878B1FBF0F00A49096860
:10182000B1FBF0F000F0C6FE48B9102C07D2002240
:101830002146501E00F018F800206C6070BD012099
:1018400070BD000038020020100000207047002802
:1018500009DB00F01F02012191404009800000F1E6
:10186000E020C0F800117047F0B40E4B1B68C3F3C2
:101870000223C3F10704042C00D904241D1D072DE5
:1018800001D2002300E0DB1E012606FA04F56D1EDE
:101890000D409D409E40761E164045EA0601F0BC74
:1018A00007F0ACBF0CED00E0064A00F0070110683D
:1018B0004FF6FF03184040EA012003490843106037
:1018C000704700000CED00E00000FA052DE9F0473C
:1018D0000D46040067D0DFF81881D8F8000000F04A
:1018E0000700A8420CD2D8F8001021F007012943C4
:1018F000C8F80010D8F8000000F00700A84252D144
:1019000020683C4E810712D5400703D5706840F42B
:10191000E06070602078000703D5706840F4605084
:1019200070607068A16820F0F00008437060207853
:10193000C00727D06068012810D03168022810D075
:10194000890700292FDA716821F0030101437160D2
:10195000FFF73CFF074641F288390CE03168890304
:10196000EFE78901EDE7FFF731FFC11B494502D9D8
:101970000320BDE8F0877068616800F00C00B0EBF0
:10198000810FF0D1D8F80010404601F00701A942BC
:101990000BD9016821F0070129430160006800F0BC
:1019A0000700A84201D00120E3E72078400705D5D1
:1019B0007068E16820F4E0600843706020780007F8
:1019C00006D57068216920F4605040EAC10070605B
:1019D00000F038F87168084AC1F30311515CC8403F
:1019E0000649086006480068FFF710FF0020C0E7BE
:1019F0000020024000100240D8A000081000002083
:101A00003C0200200448054900684968044AC1F3C3
:101A10000221515CC84070471000002000100240B5
:101A2000E8A000080448054900684968044AC1F371
:101A3000C221515CC84070471000002000100240D5
:101A4000E8A0000812A085B00FC88DE80F0014A010
:101A5000144B006804905968134801F00C02042AE2
:101A600010D0082A0ED1C1F38342C9031DF8020029
:101A70000AD5596804AAC1F34041515C0A4A50434F
:101A8000B0FBF1F005B0704708494843FAE70000A1
:101A900002030405060708090A0B0C0D0E0F1010AF
:101AA000010200000010024000127A0000093D000F
:101AB0002DE9F84F04006FD02078BE4DC00747D005
:101AC0006868C0F38100012807D06868C0F381000E
:101AD000022809D16868C00306D52868800337D575
:101AE00060680028E7D033E06068B0F5803F0BD035
:101AF00010B1B0F5A02F11D0286820F480302860F4
:101B0000286820F4802002E0286840F480302860B3
:101B1000606888B1FFF75AFE064609E0286840F47D
:101B200080202860F0E7FFF751FE801B642873D8FF
:101B300028688003F7D50BE0FFF748FE064604E06F
:101B4000FFF744FE801B6428F1D828688003F7D48F
:101B50002078DFF8648280074FF0010A4FF0000917
:101B600039D5686810F00C0F07D06868C0F38100A1
:101B7000022809D16868C00306D42868800714D5F4
:101B80002069012808D110E02069B0B1C8F800A090
:101B9000FFF71CFE064605E007E1FFF717FE801B76
:101BA0000228C4D828688007F7D52868616920F022
:101BB000F80040EAC10028600DE0C8F80090FFF787
:101BC00005FE064604E0FFF701FE801B022823D82D
:101BD00028688007F7D4207800072CD57748A169BA
:101BE000D9B1C0F800A0FFF7F1FD064604E0FFF709
:101BF000EDFD801B02280FD8686A8007F7D5704872
:101C00004FF4FA510068B0FBF1F0009000BF00986B
:101C1000411E0091FAD20EE07CE0C0F80090FFF780
:101C2000D5FD064604E0FFF7D1FD801B022871D8E0
:101C3000686A8007F7D4207840075BD5E8690027F9
:101C4000C00008D4E86940F08050E861E8690127E5
:101C500000F0805000905B480168C90511D401680C
:101C6000834641F480710160FFF7B0FD064604E051
:101C7000FFF7ACFD801B64284CD8DBF80000C005E2
:101C8000F6D5E06801280AD008B1052813D0286AE3
:101C900020F001002862286A20F0040002E0286A8F
:101CA00040F001002862E06841F2883B88B1FFF70C
:101CB0008DFD064609E0286A40F004002862EEE740
:101CC000FFF784FD811B59455BD8286A8007F7D54B
:101CD0000BE0FFF77BFD064604E0FFF777FD811B75
:101CE00059454ED8286A8007F7D41FB1E86920F01B
:101CF0008050E861E069A8B36968C1F381010229F5
:101D000046D00228484606D0C8F86000FFF75EFDBE
:101D1000044639E035E04746C8F86000FFF756FD55
:101D2000064604E0FFF752FD801B022829D82868E8
:101D30008001F7D4206AB0F5803F05D16868A168BA
:101D400020F4003008436860D4E90801084369685A
:101D500021F4741108436860C7F860A0FFF736FDEE
:101D6000044605E023E0FFF731FD001B022808D8F8
:101D700028688001F7D51AE0FFF728FD001B02282C
:101D800002D90320BDE8F88F28688001F4D40EE062
:101D90000128F7D06868226A00F48031914204D1AA
:101DA000616A00F47010884201D00120EAE7002047
:101DB000E8E7000000100240000042428004424276
:101DC000100000200070004070B5040008D0606A68
:101DD000002538B12561656194F8510040B10CE0EF
:101DE000012070BD6068B0F5827FF5D0E561F3E752
:101DF00084F85050204600F047F8022084F8510043
:101E00002068016821F040010160A088218900F468
:101E1000827001F404410843A18901F40061084380
:101E2000217C01F002010843217D01F001010843FA
:101E3000218B01F400710843217F01F03801084330
:101E400094F8201001F080010843218D01F4005125
:101E5000084321680860A069042101EA1040216854
:101E60004860A06AB0F5005F03D1A08D216880B200
:101E700008612068C16921F40061C16165650120C4
:101E800084F85100002070BDF0B53C4A01683C4820
:101E900002260124032585B0914221D1816941F0B8
:101EA00004018161816901F004010491816941F0BB
:101EB000040181618069CDE9024500F004000490CD
:101EC0002020CDE900062F4C69462046FFF77CFB19
:101ED0008021009169462046FFF776FB05B0F0BDF2
:101EE000294A9142FAD1816941F0080181618169F1
:101EF00001F008010491816941F008018161816963
:101F000001F008010491816941F008018161816952
:101F100001F008010491816941F008018161806943
:101F20001A4F00F0080004905014CDE900066946ED
:101F30003846CDE90245FFF747FB4FF4804000905B
:101F40000020CDE9010469463846FFF73DFB4FF418
:101F50000040CDE9000669463846FFF735FBBE1460
:101F6000CDE9006469463846CDE90245FFF72CFB10
:101F7000012231463846FFF724FCAFE7003001402C
:101F8000001002400008014000380040000C0140F1
:101F90002DE9F84F0446406800261D4690468946C4
:101FA0004FF0040BB0F5827F01D1A06888B194F89E
:101FB0005000012817D0012084F85000FFF706FCDC
:101FC000074694F851004FF0000A01280DD0022670
:101FD000D8E084F851B0009313460A46204600F03A
:101FE000A4F9BDE8F88F0220FBE7B9F1000F72D029
:101FF000B8F1000FFBD084F851B0C4F854A0C4F875
:102000003890A4F83C80A4F83E80C4F830A0A4F82E
:1020100034A0A4F836A0C4F840A0C4F844A0A06A34
:102020004FF4005840450CD12068016821F400515C
:1020300001602068016841F400510160E08F401E9A
:10204000E087A068B0F5004F09D12068016821F051
:10205000400101602068016821F48041016020682E
:102060000168490603D4016841F040010160E0685D
:10207000B8B132E020688168C90709D0007BA16B44
:102080000870A06B401CA063E08F401EE08708E052
:10209000FFF79CFBC01BA84202D3681C01D037E0AD
:1020A000B5B3E08F0028E5D11AE020688168C90740
:1020B00009D0C068A16B0880A06B801CA063E08F72
:1020C000401EE08709E0FFF781FBC01BA84203D355
:1020D000681C02D01CE054E0D5B1E08F0028E4D1A8
:1020E000A06A404531D12068016841F48051016007
:1020F00020680168C90403D5016821F4805101609A
:1021000001222B4611462046009701F00FFF08B12F
:10211000032637E0E068B0F5006F20680FD0007B41
:10212000A16B087001222B4611462046009701F052
:10213000FDFE40B1606D40F002006065E8E7C068F8
:10214000A16B0880EEE72068C0683A462946204621
:1021500001F0AEFE08B12020606520688168C943A7
:10216000C9060CD4616D41F002016165016821F47A
:10217000005101602068016841F400510160606D08
:1021800000B10126012084F8510084F850A03046A7
:1021900027E72DE9F84F044690F8500000261D4629
:1021A0009046894601280ED04FF0010B84F850B0BC
:1021B000FFF70CFB074694F851004146B246012850
:1021C00004D00226ABE00220BDE8F88FB9F1000F81
:1021D0007BD0B8F1000F78D0032084F85100C4F808
:1021E00054A0C4F83090A4F83480A4F83680C4F821
:1021F00038A0A4F83CA0A4F83EA0C4F844A0C4F8B9
:1022000040A0A068B0F5004F09D12068026822F014
:10221000400202602068026842F480420260A06AC4
:102220004FF40058404509D12068026822F400525A
:1022300002602068026842F400520260206802686E
:10224000520603D4026842F040020260E068B0F532
:10225000006F606803D028B3012923D03FE008B1A4
:1022600001291BD1206B21680088C86006E0206826
:102270008168890709D5216B0988C160206B801CA2
:102280002063E08E401EE08608E0FFF79FFAC01B47
:10229000A84202D3681C01D038E0B5B3E08E002814
:1022A000E5D11FE0206B21680078087306E0206804
:1022B000816889070AD5216B09780173206B401C5E
:1022C0002063E08E401EE08609E027E0FFF77EFAFB
:1022D000C01BA84202D3681C01D017E0ADB1E08E4C
:1022E0000028E4D1A06A404504D12068016841F487
:1022F000805101603A462946204601F007FE08B1A8
:1023000020206065A06818B106E0FFE7032606E01C
:102310002068C16880680090606D00B1012684F873
:1023200051B084F850A030464EE72DE9F84F0446EE
:1023300090F85000012500270A9E984692468B4649
:1023400001280FD0012084F85000FFF73FFA94F8DD
:10235000511081466268404601290CD0B2F5827F57
:1023600007D102E00220BDE8F88FA2680AB904296B
:1023700001D002270AE1BBF1000F3CD0BAF1000FF7
:1023800039D0B8F1000F36D094F85110042902D09A
:10239000052184F8511000216165C4F838A0A4F823
:1023A0003E80A4F83C80C4F830B0A4F83680A4F88D
:1023B000348021646164A16A4FF40058414509D119
:1023C00021680A6822F400520A6021680A6842F40F
:1023D00000520A6021680A68520603D40A6842F073
:1023E00040020A60E168B1F5006F616805D0F1B3A1
:1023F00001284DD08DE00127C8E009B1012840D166
:10240000206B21680088C860206B801C2063E08EF0
:10241000401EE08635E020688168890717D5E18E87
:10242000A9B1012D13D1216B0988C160206B801CDB
:102430002063E08E401EE086E08E002538B9A06A59
:10244000404504D12068016841F480510160206852
:102450008168C9070DD0E18F59B1C068A16B0880B0
:10246000A06B801CA063E08F401EE08700E00FE0BF
:102470000125FFF7ABF9A0EB0900B04201D3701CB6
:102480005DD1E08E0028C6D1E08F0028C3D146E0A0
:10249000206B216800780873206B401C2063E08E5D
:1024A000401EE08635E020688168890717D5E18EF7
:1024B000A9B1012D13D1216B09780173206B401C48
:1024C0002063E08E401EE086E08E002538B9A06AC9
:1024D000404504D12068016841F4805101602068C2
:1024E0008168C9070BD0E18F49B1C068A16B087042
:1024F000A06B401CA063E08F401EE0870125FFF722
:1025000065F9A0EB0900B04202D3701C01D016E0BF
:10251000AEB1E08E0028C6D1E08F0028C3D1A06AFA
:10252000404510D10122334611462046CDF8009097
:1025300001F0FCFC28B1606D40F0020060650327EB
:1025400024E02068C06820688168C943C9060DD4AA
:10255000616D41F002016165016821F40051016083
:102560002068016841F40051016001274A46314664
:10257000204601F0CBFC18B101272020606505E062
:10258000A06818B92068C16880680090012084F8AC
:102590005100002084F850003846E4E64FF0E02176
:1025A0000428086903D020F004000861704740F057
:1025B0000400FAE710B5401EB0F1807F01D301207E
:1025C00010BD4FF0E02460610F21601707F016F98D
:1025D0000020A06107202061002010BD70477047D7
:1025E00010B5040003D094F83D0010B107E00120BD
:1025F00010BD002084F83C00204600F01FF80220A7
:1026000084F83D00211D206801F07EFD012084F842
:10261000460084F83E0084F83F0084F8400084F8C7
:10262000410084F8420084F8430084F8440084F8B0
:10263000450084F83D00002010BD000008B500688A
:102640000B49884212D10B48C16941F00401C161B4
:10265000C069032200F00400009001211E20FFF752
:1026600003F9BDE808401E20FFF7F1B808BD0000DF
:10267000000800400010024090F83D10012901D0F0
:1026800001207047022180F83D100168CA6842F0BD
:102690000102CA6000680E4988420ED00D49884286
:1026A0000BD0B0F1804F08D00B49884205D00B49C0
:1026B000884202D00A49884204D1816801F00701AA
:1026C000062903D0016841F0010101600020704734
:1026D000002C01400034014000040040000800408C
:1026E000000C0040704770B50446006801694FF067
:1026F0000005C943890715D4C168C943890711D4A6
:10270000E91E01610120207720688069800720464A
:1027100002D0FFF7E7FF04E000F098F8204600F051
:10272000C1F9257720680169C943490717D4C168F1
:10273000C943490713D46FF00401016102202077D7
:102740002068806910F4407F204602D0FFF7CAFF5E
:1027500004E000F07BF8204600F0A4F9257720681B
:102760000169C943090716D4C168C943090712D4CE
:102770006FF008010161042020772068C06980079C
:10278000204602D0FFF7AEFF04E000F05FF82046DD
:1027900000F088F9257720680169C943C90617D474
:1027A000C168C943C90613D46FF010010161082044
:1027B00020772068C06910F4407F204602D0FFF7E0
:1027C00091FF04E000F042F8204600F06BF9257715
:1027D00020680169C943C90708D1C168C943C9074D
:1027E00004D1891E0161204600F0BCF9206801690E
:1027F000C943090609D4C168C943090605D46FF065
:10280000800101612046FFF7E9FE20680169C943A4
:10281000490609D4C168C943490605D46FF040018F
:102820000161204600F00EFC20680169C943890659
:102830000BD4C168C943890607D46FF02001016138
:102840002046BDE87040FFF7CABE70BD704770B546
:10285000044690F83C000D4601280AD0012084F877
:102860003C0042B1042A18D0082A2AD00C2A4DD1A3
:1028700039E0022070BD206801F09AFC206881696F
:1028800041F0080181612068816921F004018161C2
:10289000206881692A69114311E0206801F0B8FCC1
:1028A0002068816941F4006181612068816921F4B7
:1028B00080618161206881692A6941EA0221816120
:1028C00024E0206801F0DAFC2068C16941F00801C9
:1028D000C1612068C16921F00401C1612068C1693A
:1028E0002A69114311E0206801F0FCFC2068C169ED
:1028F00041F40061C1612068C16921F48061C16156
:102900002068C1692A6941EA0221C161002084F876
:102910003C0070BD10B5040003D094F83D0010B128
:1029200007E0012010BD002084F83C00204600F0A4
:102930001FF8022084F83D00211D206801F0E4FB0F
:10294000012084F8460084F83E0084F83F0084F8B3
:10295000400084F8410084F8420084F8430084F881
:10296000440084F8450084F83D00002010BD0000BC
:102970002DE9F04F054600684FF0804ADFF81081DE
:10298000DFF810B1444C0226032785B04FF001094F
:10299000504529D1E06940F00100E061E06900F0B4
:1029A00001000490A06940F00400A061A06900F05B
:1029B00004000490A06940F00100A061A06900F04B
:1029C00001000490D8F8040020F4407040F0E0606A
:1029D00040F48070C8F80400B00303978DE841020A
:1029E00069465846FEF7F0FD2C49286888421FD1F9
:1029F000E06940F00200E061E06900F0020004904C
:102A0000A06940F00800A061A06900F008000490EF
:102A1000A06940F00100A061A069009600F00100EB
:102A200001960296CDE9037069461D48FEF7CCFD7C
:102A30002868504529D1E06940F00100E061E06973
:102A400000F001000490A06940F00400A061A069BA
:102A500000F004000490A06940F00100A061A069AA
:102A600000F001000490D8F8040020F4407040F019
:102A7000E06040F48070C8F80400042003978DE8FB
:102A8000410269465846FEF79FFD05B0BDE8F08F4C
:102A90000000014000080140001002400004004016
:102AA000000C01407047000010B5044649B10429EC
:102AB0000AD008290BD094F8410001280AD001203F
:102AC00010BD94F83E00F8E794F83F00F5E794F85D
:102AD0004000F2E7022081B3042932D0082933D024
:102AE00084F841000122206801F054FB184A206854
:102AF0001849904201D0884203D1436C43F400430B
:102B00004364206890420DD088420BD0B0F1804FD2
:102B100008D01149884205D01049884202D0104996
:102B2000884204D1816801F00701062903D00168B9
:102B300041F001010160002010BDFFE784F83E0074
:102B4000D0E784F83F00CDE784F84000CAE70000F2
:102B5000002C014000340140000400400008004007
:102B6000000C00402DE9F84FFA49884272D1FA4E24
:102B7000FA4C1021B08A401CB0822046FEF71CFEA1
:102B800030704021F648FEF717FE7070B178327849
:102B90000125914202D1F378834218D00AB9012964
:102BA00001D010B104E0F57111E0F378012B03D0EE
:102BB0000223012A02D002E0357208E011B1012897
:102BC00002D004E0F37102E0F07800B933724FF400
:102BD00000612046FEF7F0FD70834FF480512046DF
:102BE000FEF7EAFDF083F179327ADFF87883DFF8D7
:102BF00078A30A434FF0000412D1B6F91C20B6F9AD
:102C00001A309A420CD1B6F92020824208D19AF8A3
:102C1000000028B9B8F8000010B9D448008840B1C5
:102C2000F485B4854FF42F77012908D002291ED0EE
:102C300017E0B08D642870D2401CB0856DE0F07B49
:102C400048B1B47306F0B6FDF473F079012808D1E9
:102C5000306B03E0F2E1306B401C3063B84200DBC4
:102C6000F572307A01280CD0022823D01AE0306B9C
:102C70003338F92802D2707A401C70723463F471D0
:102C8000EFE7F07B40B1B47306F094FDF473307A53
:102C9000012807D1706B02E0706B401C7063B84272
:102CA00000DB3573B6F91A00B6F91C1088421CD047
:102CB00050B11AE0706B3338F92802D2B07A401C58
:102CC000B07274633472EDE7F07B20B1B47306F038
:102CD00071FDF47309E0B6F91E00B6F920108842C0
:102CE00003D010B9308B401C3083B6F91A00B6F906
:102CF0001C10884211D080B1F07B20B1B47306F073
:102D000059FDF47309E0B6F91E00B6F920108842A7
:102D100003D010B1308B401E30833078B0707078A3
:102D2000F070708BB083F08B3084307D80070ED1D3
:102D3000F079317A084316D0F08A401C80B2F082D4
:102D4000142801D2307900E0002006F037FCB08A68
:102D50000A21B0FBF1F201FB1200DFF814B2DFF838
:102D6000149210B184E0F482EEE78348834900684E
:102D700088420CDD7079401CC0B27071C82800D93F
:102D80007574B079082804D2401CB07102E07471E7
:102D9000F7E7B4719AF80010794F11B3B8F8000052
:102DA000192802D9B07C70731FE0A0F11502042A23
:102DB00002D8B07C401F12E0A0F11002042A02D811
:102DC000B07C0A380BE0A0F10B02042A02D8B07CD8
:102DD0000F3804E0401F0528B07C00D81438707309
:102DE00000E07473B8F8000020B13878022802D0EF
:102DF0003D7000E03C7063480078E0B362480078C2
:102E000008B3634861490068FDF767FAFDF7FCFA0B
:102E1000DFF84481020A08F14008594688F8022088
:102E200088F803005B480068FDF757FAFDF7ECFAF5
:102E3000020A88F8042088F80500397888F8061016
:102E4000B17941440EE044484930817099F800104E
:102E5000C1703978017198F8001041715A2181715F
:102E6000B179014401224C4800F000FB38783074FD
:102E7000B08A0C2100E005E0B0FBF1F201FB120189
:102E800069B115E034485230817099F80010C17072
:102E90003978017198F800104171717BDFE73F4983
:102EA0000A783F491AB10A78521C0A7000E00C7087
:102EB0006421B0FBF1F201FB120139B9B18D642933
:102EC00003D3F18D491CF18500E0F4854FF47A714C
:102ED000B0FBF1F201FB1200C8BBDFF8C880F16B58
:102EE000D8F8000000900746FDF7F1F95946FDF7C4
:102EF000F4F9C6E90E072C492D4F0A782B493AB34D
:102F00000A78521C0A709AF8001002290AD1B0F50A
:102F1000000F4FDAB9F90000FDF74FFA0099FDF7FD
:102F200091FA10D39AF80000012843D1B06B10F148
:102F3000FF4F3FD2B9F90000FDF73FFAD8F8001073
:102F4000FDF776FA36D23878401C387033E05BE013
:102F50003BE00000901200204402002000080140E5
:102F6000000C01401C0200201B0200202A0200204D
:102F70000000C8425200002034020020000030410E
:102F80001A020020000000204500002000401C46DE
:102F9000880000208C0000205811002041000020F3
:102FA000420000202C0200204D0000204E00002096
:102FB0004F0000203C702248007828B3708C401CE1
:102FC00080B270843C2802D005E00C70F2E7B08C2F
:102FD000401CB0847484B08C0A2803D1B484F08C73
:102FE000401CF084F08C062803D1F484308D401C02
:102FF0003085308D0A2803D13485708D401C708552
:10300000708D062800D17485B08A4EF66021B0FB21
:10301000F1F201FB1200002810D1F08D40F24E2198
:1030200088420AD3F485B07B092802D2401CB073D1
:1030300003E0B47301F028F8F573B482BDE8F88FAB
:10304000400000207047704770B502680446106861
:10305000D168536910F00F0F52D003F0010501F44D
:1030600090762E435FD0C20705D0CA0503D5E26B28
:1030700042F00102E263420705D5DA0703D0E26BB2
:1030800042F00202E263820705D5DA0703D0E26B61
:1030900042F00402E263020707D501F020022A434E
:1030A00003D0E26B42F00802E263E26B002A33D005
:1030B000800604D5880602D5204606F0B3F92068BC
:1030C0004069E16BC0F38010090700D428B32046A3
:1030D00006F09AF92068416949061AD5416921F03C
:1030E00040014161606BA0B12D494163606BFEF707
:1030F0001BF9002810D0606B416BBDE87040084799
:10310000830610D58B060ED52046BDE8704006F02C
:1031100089B92046FFF797FF70BD2046FFF793FF60
:103120000020E06370BD03062BD50B0629D594F86B
:1031300039002128F6D1A068B0F5805F01D120695F
:10314000B0B1206A411C2162216800784860E08C9F
:10315000401E0004000CE084E4D12068C16821F026
:103160008001C1602068C16841F04001C16070BD4C
:10317000206A0088C0F308005060206A801C20622A
:10318000E5E74006F3D54806F1D5D168204621F0A1
:103190004001D160202184F8391000F086F970BD1B
:1031A000F993000870B5040004D094F839000025A4
:1031B00010B106E0012070BD84F83850204600F0C0
:1031C00023F8242084F839002068C16821F40051D4
:1031D000C160204606F06CF92068016921F4904135
:1031E00001612068416921F02A0141612068C168BC
:1031F00041F40051C160E563202084F8390084F86F
:103200003A00002070BD000010B500681E4986B06D
:10321000884236D11D48816941F00401816181698C
:1032200001F004010491816941F004018161816927
:1032300001F004010491816941F480418161806958
:10324000134C00F4804004904FF400700090022072
:103250000190012002900320039069462046FEF76A
:10326000B3F9211500910021019169462046FEF72E
:10327000ABF92520FEF7EBFA032211462520FEF7D5
:10328000F3FA06B010BD0000003801400010024003
:103290000008014090F83A30202B22D1F9B1F2B168
:1032A00090F83830012B1CD081628285C2850021C4
:1032B000C163222280F83A2080F838100168CA6879
:1032C00042F48072CA6001684A6942F001024A61B0
:1032D0000068C16841F02001C160002070470120F2
:1032E00070470220704700002DE9F04100685849FE
:1032F00088426FD1574B0021574C0D4603F14C06C5
:10330000585CEB2804D0EA285ED0EC2877D090E017
:1033100000200A18082A01D89A5C02E01A4412F820
:10332000092C3254401CC0B20928F2D33078EB2863
:103330001ED17078B0281BD1708840BAFDF73DF8D7
:10334000464F3946FCF7FBFFE060B08840BAFDF716
:1033500034F83946FCF7F3FF2061B6F8070040BAAD
:10336000FDF72BF83E49FCF7EAFF6061B079608118
:103370003C48007818B1608940F0100060813A48FC
:10338000007818B1608940F02000608160894FF0BA
:10339000010110F0FF0F04D02171C20703D021708A
:1033A00002E02571F9E72570820701D5617000E020
:1033B0006570420701D5A17000E0A570000701D536
:1033C000E1703BE0E57039E000200A18082A02D8D5
:1033D0009A5C03E03AE01A4412F8092C3254401C7B
:1033E000C0B20928F1D33078EA2827D170787B2839
:1033F00024D1B078012821D165711FE0FFE70020BA
:103400000A18082A01D89A5C02E01A4412F8092C1A
:103410003254401CC0B20928F2D33078EC2808D1CD
:103420007078A02805D1B078A071F078E07130797B
:103430002072491CC9B20929FFF462AFBDE8F0410E
:103440000449092201F10C00FFF724BFBDE8F08117
:10345000003801404C1100202002002000002041D3
:1034600000004842500000205502002090F83930FA
:10347000202B18D1A9B1A2B190F83830012B12D06D
:1034800001628284C2840021C163212280F8392034
:1034900080F838100068C16841F08001C1600020E8
:1034A000704701207047022070477047FEE7000018
:1034B00010B50A4B0C4608B1012200E00022082199
:1034C0001846FEF77EF906480CB1012200E0002202
:1034D000BDE810408021FEF774B9000000080140EB
:1034E000000C014008B100211CE016481649008874
:1034F000020919D0020A1CD0020B21D00222B2EB21
:10350000103F19D00322B2EB103F15D00E22B2EBC0
:10351000103F15D00F22B2EB103F11D191F83700B8
:1035200050B10121002009E091F82F000028DAD1E4
:10353000F7E70648007818B100210120FFF7B8BF6F
:103540000121FAE70200002014000020AB02002055
:1035500010B5044604220146900206F069F8E078AE
:10356000A5284FF0000005D0207060700121A170E7
:10357000E070084610BDFEE77047000030B400213F
:10358000094B0A46002000EB800403EB8404401C36
:10359000C0B262548028F6D3491CC9B21429F1D3B1
:1035A00030BC00F06BBA0000D813002010B5002129
:1035B000084B0A46002000EB800403EB8404401C07
:1035C000C0B262548028F6D3491CC9B21429F1D381
:1035D00010BD0000D813002028B1012806D1002119
:1035E000A72000F0FBBB0021A620FAE7704710B52A
:1035F00000218D2000F0F2FB0021102000F0EEFBF6
:103600000021BDE81040AE2000F0E8BB2DE9FC5FD2
:103610000646994692460D46971B00D57F42B9EB68
:10362000050000D5404280464FF0FF30564501D29C
:10363000012100E0014601914D4500D20120A7EB98
:103640000804C8F1000B0090294630460C9A00F09F
:1036500061F8564501D14D450ED06000584504DD56
:103660000199A4EB08043144CEB2B842ECDA0098D8
:103670003C442844C5B2E7E7BDE8FC9F2DE9FE4F76
:103680000026171A8146701E3546A3EB010A8846AC
:10369000002F02DD4FF0010102E003D14FF00001E5
:1036A000019102E0C7F100070190BAF1000F02DDBD
:1036B0004FF0010002E003D14FF00000009002E063
:1036C000C7F1000A00905046574501DD3C4600E036
:1036D0000446601C4FF0000B029016E008F0FF015A
:1036E00009F0FF000C9A00F015F83E445544A6423C
:1036F00002DD0199361B8944A54202DD00992D1B8C
:1037000088440BF101001FFA80FB02998B45E5DB31
:10371000BDE8FE8F10B5C30800F007000124844007
:10372000E0B2084C01EB810104EB8101002ACA5C84
:1037300002D00243CA5410BD60EA0202D043C8540A
:1037400010BD0000D81300202DE9FF4F85B01E46A4
:10375000DDE9125B0446B5EB520F00D95508B5EB15
:10376000560F00D9750804EB020CCDE900BCACEB98
:1037700005086719069BA8F1010909F0FF02BA467E
:10378000F8B21946FFF77AFF0698CDF800B0064464
:10379000711ECBB209F0FF02C9B2F8B2FFF76EFF9B
:1037A0000698771B00EB05097E1E2246F3B2CDF882
:1037B00000B009F0FF011046FFF760FFDDF804C01C
:1037C000F3B2ACF1010CCDF800B00CF0FF0209F03F
:1037D000FF010CF0FF00FFF751FF002468420321B6
:1037E00001EB400655E0A9EB0400C1B20190AAEB41
:1037F00005000490C0B25A46FFF78CFFA9EB050004
:10380000C1B20090AAEB04000390C0B25A46FFF781
:1038100081FF01985A46C1B208EB0500401E029094
:10382000C0B2FFF777FF00985A46C1B208EB040018
:10383000401E0190C0B2FFF76DFF3819401EC1B2A3
:10384000009004985A46C0B2FFF764FF7819401EF2
:10385000C1B2049003985A46C0B2FFF75BFF0098CC
:103860005A46C1B20298C0B2FFF754FF04985A46B4
:10387000C1B20198C0B2FFF74DFF002E03DA06EB8C
:103880008406B61D04E0601B06EB80066D1E0A363A
:10389000641CAC42A7DD09B0BDE8F08FF0B5384834
:1038A00085B0816941F008018161816901F00801F9
:1038B0000491816941F008018161816901F0080189
:1038C0000491816941F008018161816901F0080179
:1038D0000491816941F004018161816901F0040171
:1038E0000491816941F0040181618069012400F043
:1038F000040004902020CDE90004224E03256946EF
:1039000003953046FDF760FE012220213046FDF789
:1039100058FF8020CDE90004694603953046FDF745
:1039200053FE012280213046FDF74BFFA602164FC1
:10393000CDE90064694638460395FDF745FE01224E
:1039400031463846FDF73DFF0220CDE900046946C7
:1039500003953846FDF738FE012202213846FDF76F
:1039600030FF00946946384603950194FDF72CFE1C
:10397000012211463846FDF724FF05B0F0BD0000D6
:103980000010024000080140000C014010B5FFF794
:1039900085FF354C002202212046FDF712FFC8208A
:1039A00006F0CCF8012202212046FDF70AFF002193
:1039B000AE2000F013FA0021812000F00FFA002160
:1039C000D02000F00BFA0021A42000F007FA00211B
:1039D000A62000F003FA0021A92000F0FFF9002141
:1039E000022000F0FBF90021AD2000F0F7F90021E2
:1039F000802000F0F3F90021C82000F0EFF9002149
:103A0000A02000F0EBF90021D52000F0E7F900211B
:103A1000402000F0E3F90021D92000F0DFF9002177
:103A20002F2000F0DBF90021DB2000F0D7F9002186
:103A30003F2000F0D3F90021202000F0CFF9002131
:103A4000DC2000F0CBF90021352000F0C7F900217F
:103A5000302000F0C3F9FFF791FD0021BDE81040D0
:103A6000AF2000F0BBB90000000C0140034601206C
:103A700000E05843491EC9B2FBD2704770B5124EE0
:103A800000250021B02000F0A9F90021284600F00F
:103A9000A5F90021084600F0A1F90021112000F04D
:103AA0009DF9002404EB840006EB80000121405DB9
:103AB00000F094F9641CE4B2802CF3D36D1CEDB2D9
:103AC000142DDED370BD0000D81300202DE9FF4F68
:103AD00082B0054610981C460E46AB468946E8B3B0
:103AE000600700D0012000EBD40060430090102C50
:103AF00032D10498DA282FD2002029E051490498C5
:103B0000002701EB401111F80A805FEAC87001D06C
:103B10000F9A02E00F9820B3002231462846FFF7A3
:103B2000F9FD761C7F1CFFB24FEA5808F6B2082F49
:103B3000EBD36D1CEDB2A5EB0B00A04204D109F153
:103B400008005D4600F0FF090AF101004E46C0B2D0
:103B5000009982468842D1D306B000E003E0BDE878
:103B6000F08F0122D9E70498212801D03A2802D108
:103B70000BF10305EDB2082C0ED0600700D0012038
:103B800000EBD40061084843C0B20190049820388B
:103B9000C0B2009000204DE00620F6E7102C13D0B4
:103BA000142C16D0182C1BD01C2CD5D100982649CB
:103BB000C0EBC00001EBC0014FF0000A11F8087023
:103BC000F80714D00F9A15E02049009801EB001176
:103BD000F2E700981E49C0EB001001EB4001EBE753
:103BE00000981C4900EBC00001EB8001E4E70F984E
:103BF00028B3002231462846FFF78CFD761C0AF1D7
:103C000001007F0800F0FF0AF6B2BAF1080FD7D31F
:103C10006D1CEDB2082C09D0A5EB0B00B0EB540FD6
:103C200004D109F108005D4600F0FF0908F1010028
:103C30004E46C0B2019980468842AFD38CE701223C
:103C4000D8E7000092CC0008AABF00083CA10008F9
:103C50002CA700084EB200082DE9FF4F82B00025C6
:103C6000DDE90F691F4693468046082E00D10225E4
:103C70000024A2461BE0381B401EC1B20A20FFF7F9
:103C8000F5FEBBFBF0F00A21B0FBF1F201FB1202E2
:103C900005EB560101FB0480C0B2334662B1CDE9A9
:103CA000009A30320399FFF711FF641CE4B2BC4262
:103CB000E1D306B0BDE8F08FCDE9009A3022039938
:103CC000F1E72DE9FF4F81B0064600900F464FF017
:103CD000000A8946580700D0012000EBD300049069
:103CE000002032E0002029E00E98002410F80A504D
:103CF0000AF101001FFA80FAE80701D00F9A02E0EA
:103D00000F9848B3002239463046FFF703FD7F1C69
:103D1000641C6D08E4B2FFB2082CEDD3761C009849
:103D2000F6B2311A0398814204D109F10800009ECD
:103D300000F0FF0908F101004F46C0B20399804628
:103D40008842D1D30BF10100C0B204998346884266
:103D5000C8D305B0BDE8F08F0122D4E72DE9FC47B8
:103D60001E46DDE90A78144689460546B8F1010F7A
:103D70002DD11046FDF7F4F948B3044627E0B8F119
:103D8000010F15D10721B1EB501F11D12046FDF7CE
:103D900003FA00280CDB0121CDE9007182B2334621
:103DA00049462846FFF792FEA819C5B2E41C0EE06A
:103DB0000020CDE900702278334649462846FFF7B7
:103DC00085FE082E08D070082844C5B2641C2078EF
:103DD0000028D4D1BDE8FC870620F5E72DE9F041A5
:103DE0001B4F054609B1012200E00022012138469F
:103DF000FDF7E7FC4FF48068002241463846FDF7A6
:103E0000E0FC144E0024002220213046FDF7D9FCAE
:103E1000280601D5012200E0002280213046FDF76E
:103E2000D0FC012220213046FDF7CBFC6806641C43
:103E3000050EE4B2082CE6D3012241463846FDF7D0
:103E4000C0FC3846BDE8F04101221146FDF7B9BC7F
:103E5000000C0140000801407047000038B51148CF
:103E6000C16941F48041C161C069104C00F48040D7
:103E700000900D4820604FF4827060600020A060C8
:103E8000E0604FF400712061C4E90501E061206247
:103E90002046FDF799FF2068016841F0400101606C
:103EA00038BD0000001002400038004030130020F0
:103EB000F8B5044640684FF48273984217D1A06861
:103EC0004FF48065B0F5004F01D0A8420FD12068B3
:103ED000066826F0400606606068984207D1A06830
:103EE000A84204D100920B460022012103E0009277
:103EF0000B4600228021204600F018F8002804D04C
:103F0000606D40F0200060650320F8BD38B50B46B9
:103F1000009204460022802100F008F8002804D016
:103F2000606D40F020006065032038BD2DE9F84346
:103F30001E46914688460446089DFDF747FC401BF7
:103F4000351AFDF743FC074625480068C0F3CB301F
:103F5000684338E0701C37D0FDF738FCC01BA8421E
:103F600003D215B1009860B32CE02068416821F0BD
:103F7000E00141606068B0F5827F0BD1A068B0F5C8
:103F8000004F02D0B0F5806F04D12068016821F0A5
:103F900040010160A06AB0F5005F09D120680168A6
:103FA00021F4005101602068016841F40051016072
:103FB000012084F85100002084F850000320BDE85F
:103FC000F8830025401E00902068816838EA0100CF
:103FD00004D000204845BDD10020F0E70120F9E7DA
:103FE00010000020704770B50446A520E0704FF423
:103FF0008055284605F0F6FA04222146284605F0A9
:1040000084FBBDE8704005F079BB70B50D460446F1
:10401000FF2240212846FCF7CBF82068016845F8CC
:10402000041B416845F8041B008925F8020B6068F1
:10403000016845F8041B416845F80E1B008925F806
:104040000A0CA068016845F8081C416845F8041C82
:10405000008925F8020BA0892880E0896880207CEF
:104060002871607C6871608AE880A08A2881E08A73
:104070006881208BA881E069C5F80E00208C6882D9
:1040800094F82200287570BD10B5FFF7B0FA094901
:104090000020024608700849088008490870082175
:1040A0000748FDF78EFB0022BDE81040802105483F
:1040B000FDF787BB1B0200201C02002040000020EF
:1040C00000080140000C0140FDF786BB704700006E
:1040D0000148FEF708BB000090120020094A10B505
:1040E000074BC2E900310021C2E9021010461161FC
:1040F000FEF776FABDE810400248FEF7BDBA0000B0
:104100000008004090120020F0B502681C4D1D4EC2
:104110001D4FDFF878C01E4B4FF0804EA84209D0EB
:10412000984207D0704505D0B04203D0B84201D0C4
:10413000604503D122F070044A682243A84209D0A6
:10414000984207D0704505D0B04203D0B84201D0A4
:10415000604503D122F44074CA6822434C6922F0BE
:104160008002224302608A68C2620A688262A842B0
:1041700001D0984201D10969016301214161F0BD7B
:10418000002C01400004004000080040000C0040EA
:104190000034014010B501F01F010123046A8B4077
:1041A0009C430462036A8A401343036210BD00000B
:1041B000F0B5026A22F001020262026A4368846971
:1041C000114E24F073050C68104F2C4322F00205A9
:1041D0008A682A43B04201D0B84205D122F00805CE
:1041E000CA682A4322F00402B04201D0B84205D185
:1041F0004D6923F440731D438B692B4343608461F5
:10420000496841630262F0BD002C01400034014066
:10421000F0B5026A22F010020262026A4368846901
:104220000D6824F4E64444EA05248D6822F0200257
:1042300042EA05120F4D104EA84201D0B04206D1FD
:10424000CF6822F0800242EA071222F04002A84220
:1042500001D0B04207D14D6923F4406343EA85039E
:104260008D6943EA85034360846149688163026222
:10427000F0BD0000002C014000340140F0B5026A9E
:1042800022F480720262026A4368C46922F40072F6
:1042900024F073050C68124E2C438D6842EA052207
:1042A0000E4DA84201D0B04206D1CF6822F4006280
:1042B00042EA072222F48062A84201D0B04207D12C
:1042C0004D6923F4405343EA05138D6943EA05130E
:1042D0004360C4614968C1630262F0BD002C0140C3
:1042E0000034014030B5026A22F480520262036A4F
:1042F0004268C4690D6824F4E64444EA05248D68E4
:1043000023F4005343EA0533084DA84202D0084D78
:10431000A84204D14D6922F4804242EA85124260EB
:10432000C46149680164036230BD0000002C014093
:10433000003401400FB42DE9F04F99B09A46FE4881
:104340004FF01009DFF8F483017800260125DDF82D
:1043500098B0299F4FF6FF7001294C467DD010215F
:1043600007911A21119156210591702109911E2161
:1043700006912E210E913E210C914E2104915E2139
:104380000A916E210891179000201690FFF70EF900
:10439000EB48007848B12298CDE90009CDE90256F2
:1043A0000A2133460020179A0AE098F80010E5A287
:1043B000CDE90251CDE90029DDE916320A210020BC
:1043C000FCF740FFE148CDE9000510231A4605201F
:1043D0000699FFF776FC98F800002346CDE90050D7
:1043E000DBA206991198FFF7B9FCCDE900564C20E5
:1043F0002346D9A20699FFF7B1FCCDE90056DDE9C5
:1044000005012346D5A2FFF7A9FC27980A214FEA08
:104410001048B8FBF1F2CDE900456620012306996A
:10442000FFF71AFCCDE9005670202346CCA206996E
:10443000FFF794FCCDE9004576200123424606991A
:10444000FFF70AFCC748742701780FFA8AF00029A1
:104450007DD0FBF7B2FFC44900E010E1FBF73DFF60
:104460004FF08441FBF7E1FE05F02CFDFBF7CCFF9C
:1044700082B2CDE9004503230E990598FFF7ECFBC6
:1044800076202346B9A2CDE900560E99FFF766FCC7
:104490000223012231217220009605F0AFFBCDE905
:1044A00000562346B2A20C990598FFF757FC0BF073
:1044B000FF0266200223CDE900450C99FFF7CCFBF3
:1044C000CDE900567A202346AAA20C99FFF746FCB4
:1044D000CDE900568A202346A7A20C99FFF73EFC9F
:1044E000A648CDE9000510231A4605200499FFF7D8
:1044F000E8FB9248A2A2079B00780499CDE90050FE
:104500001198FFF72BFCCDE900564FF04C094846B7
:10451000234691A20499FFF721FC924801784FEAC3
:104520002A4000297DD0FBF748FF8F49FBF7D5FED5
:104530004FF08441FBF779FE05F0C4FCFBF764FF04
:1045400082B2CDE90045DDE90410022300E077E006
:10455000FFF782FB0223012251210096099805F002
:104560004DFB3846234681A2CDE900560499FFF75A
:10457000F5FBCDE9005623467DA20A990598FFF781
:10458000EDFB4FF0660ACDE90045CBF3072202238D
:1045900050460A99FFF760FBCDE900567A20234682
:1045A00074A20A99FFF7DAFBCDE900568A20234668
:1045B00071A20A99FFF7D2FB7348CDE900051023D9
:1045C0006D211A460520FFF77CFB5C486FA200783E
:1045D000CDE90050DDE907311198FFF7BFFBCDE9C8
:1045E0000056484623465CA20899FFF7B7FBCDE981
:1045F0000056234659A208990598FFF7AFFB289962
:104600000A2089B208EB0107B7FBF0F20223CDE9DB
:10461000004550460899FFF71FFB7820234650A21B
:1046200000E019E0CDE900560899FFF797FB3A46FC
:1046300080200123CDE900450899FFF70DFBEDE04F
:104640000246CDE9004502230E990598FFF704FBC9
:10465000384623464FA216E70246CDE90045DDE97C
:1046600004100223FFF7F8FA0223012251210096D9
:10467000099805F0C3FA3846234646A274E73E215E
:10468000059155214FF00A0B4FF0000A0491FEF7F7
:104690008DFF98F8001040A2CDE90029CDE9025124
:1046A00053464FF6FF720A210020FCF7CBFD2D4840
:1046B00001782A98002980B27ED0FBF787FE3A491C
:1046C000FBF70BFE05F0EEF9FBF79EFE82B202232C
:1046D00037213E20CDE90045FFF7BEFA37212346BA
:1046E00032A25020CDE90056FFF738FB3048CDE923
:1046F000000518231A4632211E20FFF7E2FA2D4842
:10470000CDE9000518231A4650211E20FFF7D9FADB
:1047100048F6A040B7FBF0F2CDE90045DDE9041012
:104720000123FFF799FA4FF46160B7FBF0F24820DC
:104730000123CDE9004540E02300002014000020C3
:104740001F00002053554D4D41525900940F002039
:10475000424C4F4F4D0000003A000000313A00003B
:104760002E000000150000206666E63F46000000AF
:10477000302E00006D6C00002F730000B40F00207D
:104780004252455700000000D40F0020544F5441BE
:104790004C00000043000000524541445920544F52
:1047A00020425245573F00008D800A3D6F7A00003D
:1047B000740E0020BC0E002037E00499FFF74CFA7D
:1047C000CDE90056B046522023461FA20499FFF7B8
:1047D000C5FA3C26B7FBF6F0B0FBF6F106FB11017B
:1047E000B1FBFBF25C200123CDE900450499FFF702
:1047F00033FAB7FBF6F0B0FBF6F106FB11026620C8
:104800000123CDE900450499FFF726FACDE90058C8
:10481000702023460DA20499FFF7A0FA19B0BDE855
:10482000F00F5DF814EBFFF729B902460423372196
:104830003E20CDE90045FFF70FFA2346AFF2CC0248
:10484000372164204EE70000680000006D00000082
:104850002DE9FF410D46012458B164230A4619464B
:1048600000200094FEF70AFF66232A4619460094AA
:104870001FE0FEF79BFE142611A00025CDE90006DF
:104880004FF6FF772B463A4623212846CDE90245CD
:10489000FCF7D8FC0CA0CDE9000600233A463C21E9
:1048A0001846CDE90245FCF7CDFC6523A022194648
:1048B00000940020FEF7E2FEBDE8FF41FFF7DEB8FE
:1048C0004954275300000000434F4C4420425245B6
:1048D000572054494D4500002DE9FF4718240F4645
:1048E0004FF040090126E0B3874265D03C20B7FB7A
:1048F000F0F5B7FBF0F100FB11773148CDE9000688
:10490000182311201A464946FFF7DBF92E204FF0F5
:104910000A080A2D03D3B5FBF8F2012301E00123B5
:104920000022CDE900464946FFF796F9B5FBF8F0BD
:1049300008FB1052CDE900463A2001234946FFF713
:104940008BF9B7FBF8F2CDE900465E20012349461A
:10495000FFF782F9CDE900466A2001233A4649462D
:1049600000E002E0FFF778F926E0FEF71FFE1548A9
:10497000102115A20078CDE90021CDE902600023C5
:104980004FF6FF7219461846FCF75CFC0025CDE98E
:104990000065462023460FA24946FFF7DFF9CDE91F
:1049A0000065762023460CA24946FFF7D7F90F2071
:1049B000B7FBF0F009490880BDE8FF47FFF75EB894
:1049C000040F00201400002042524557204C41544F
:1049D00045520000680000006D0000005C020020ED
:1049E0002DE9FF471026DFF8BCA00D464FF02C093B
:1049F0004FF03608012420B39AF80800854214D3FA
:104A00009DB164232A46194600200094FEF736FE25
:104A100066232A46009466210020FEF72FFE8AF8BE
:104A20000850BDE8FF47FFF729B800246423A022FF
:104A3000194620460094FEF721FE6623A02200942A
:104A4000E9E7FEF7B3FD184F18A100233878CDE948
:104A50000016CDE902404FF6FF720A211846FCF716
:104A6000F1FB38783346CDE9004014A249460520D1
:104A7000FFF774F938783346CDE9004011A24021A0
:104A80000520FFF76BF938783346CDE900406E20FA
:104A90000EA24146FFF762F96523A0221946009451
:104AA000BAE70000A00200201400002043414E435A
:104AB000454C2042524557494E473F00484F4C44D1
:104AC00020544F0043414E43454C0000524553553E
:104AD0004D4500002DE9F14F84B01C264FF06009D0
:104AE0000A254FF0400A4FF0320B4FF03E08FEF718
:104AF0005DFD174801241027007816A1CDE90017A5
:104B0000CDE9024000234FF6FF7229461846FCF714
:104B100099FBCDE90064022359465046049AFFF7F9
:104B20009BF80020CDE900403B460EA24146484696
:104B3000FFF714F90C48CDE9000418231A465E214A
:104B40004620FFF7BEF805B0BDE8F04FFEF796BF70
:104B500014000020434F4646454520414444454407
:104B60000000000067000000FC0200202DE9F04F6B
:104B700087B08046102005900A200D461C24049022
:104B8000FEF714FD28B20026DFF8ECB306900127EB
:104B9000DFF8E8A3E8B24FF01009B8F1060F56D2DB
:104BA000DFE808F00363CCDEFDFC9AF80010F4A205
:104BB000CDE90029CDE9027100234FF6FF78424686
:104BC00018460499FCF73EFB9AF80010F0A2CDE9D4
:104BD0000029CDE90271002342461A211846FCF74C
:104BE00031FBEE48CDE9000718231A465E21462026
:104BF000FFF767F865B3CDE90076E9A23C213820DC
:104C0000059BFFF7ABF8CDE90076E6A23C214520F5
:104C1000059BFFF7A3F80A20B5FBF0F2CDE90047AA
:104C2000012332215020FFF717F8CDE900765E20EE
:104C30002346DDA23221FFF791F8CDE9004762203B
:104C400001232A463221FFF707F8ABF816508DE111
:104C5000ABF81660D5A003968DE89100002342467C
:104C600032211846FCF7EEFA80E19AF80010D0A243
:104C7000CDE90029CDE9027100234FF6FF784246C5
:104C800018460499FCF7DEFACC48CDE90007182352
:104C90001A465E214620FFF714F8C948008AA84248
:104CA0000AD3C8A003968DE8910000234246322122
:104CB0001846FCF7C7FA27E0C448007840B32846F6
:104CC000FBF784FBC249FBF708FB4FF08441FBF77D
:104CD000ACFA05F0F7F8FBF797FBCDE9004782B295
:104CE000032332213820FEF7B7FF022301223F21A0
:104CF0006620009604F082FFCDE90076B5A23C2143
:104D00006A20059BFFF72AF80698ABF80C002DE106
:104D1000CDE9004702232A4632213820FEF79CFFC6
:104D2000022301223F215E20009604F067FFCDE9B7
:104D300000763C21A8A26220059BE3E78BF81000D7
:104D40009AF80010A5A2CDE90029CDE9027100234F
:104D50004FF6FF7218460499FCF774FAA2487AE0FD
:104D60009AF80010A1A2CDE90029CDE90271002333
:104D70004FF6FF78424618460499FCF763FA9F48BD
:104D8000CDE9000718231A465E214620FEF799FF59
:104D90008B48C08CA8420DD88AA001E084E049E08D
:104DA00003968DE891000023424632211846FCF715
:104DB00049FA27E08548007840B32846FBF706FB10
:104DC0008349FBF78AFA4FF08441FBF72EFA05F08E
:104DD00079F8FBF719FBCDE9004782B202233221B3
:104DE0003820FEF739FF022301223F215E20009682
:104DF00004F004FFCDE90076059B76A23C216220F9
:104E0000FEF7ACFF0698ABF80E00AFE0CDE9004727
:104E100002232A4632213820FEF71EFF02230122F8
:104E20003F215E20009604F0E9FECDE900766AA2FB
:104E3000059BE3E78BF811009AF8001070A2CDE90A
:104E40000029CDE9027100234FF6FF72184604993C
:104E5000FCF7F8F96E48CDE9000718231A465E21E1
:104E60004620FEF72EFFCDE90076322123464EA2E2
:104E70000846FEF773FFCDE9004702232A46322198
:104E80003820FEF7E9FECDE900764B4661A23C21D1
:104E90005E20FEF763FFCDE900766E204B465EA2F2
:104EA0003C21FEF75BFF61E0BBF81610691AABF816
:104EB0001810B5F5827F0AD39AF8001057A2CDE9F1
:104EC0000029CDE9027100234FF6FF7209E09AF83C
:104ED00000202BA1CDE90272CDE9001900234FF685
:104EE000FF7200200499FCF7ADF99AF800104EA269
:104EF000CDE90029CDE9027100234FF6FF721A2196
:104F00001846FCF79FF92548CDE9000718231A46F3
:104F10005E214620FEF7D5FECDE900764B4620A265
:104F20003C213820FEF71AFFCDE900764B461DA242
:104F30003C214520FEF712FF0A20B5FBF0F2CDE937
:104F40000047022332215020FEF786FECDE900768D
:104F50006C20234614A23221FEF700FFCDE9004762
:104F6000702001232A463221FEF776FE07B0BDE805
:104F7000F04FFEF783BD0000281100201400002030
:104F8000434F464645453A574154455200000000BC
:104F9000424C4F4F4D20524154494F004C0F00207E
:104FA000310000003A0000002E0000004F4646008D
:104FB000424C4F4F4D2054454D5000003C100020B6
:104FC00068070020524F4F4D0000000015000020E0
:104FD0006666E63F4600000043000000424C4F4F2B
:104FE0004D20464C4F570000F40F0020434F4C44D7
:104FF00020425245572054454D500000CC1000200F
:10500000434F4C44204252455720464C4F570000D6
:10501000841000206D6C00002F7300005445413A4D
:105020005741544552000000544F54414C205241C6
:1050300054494F002DE9FF4705460E469246FEF7BC
:10504000B5FA2E4F4FF001084FF010093B782CA213
:105050002D4CCDE90283CDE90029638B228B0A21F7
:105060000020FCF7EFF8294890F82200062838D0F5
:10507000387810B101283DD129E00027207F56451E
:105080000CD1C1B2607801AA009582E88300A18AA0
:1050900001EB500081B2638B228B14E06178C0B2C7
:1050A00003970095CDE90110638B228BA18A002024
:1050B000FCF7C8F8207FA17803970096CDE901108E
:1050C000638B228BE18A0020FCF7BCF812E0217F81
:1050D000CDE90210CDE90059A08A617800EB5100BA
:1050E000D8E70B49CDE9001824231A4634213E2085
:1050F000FEF7E7FDBDE8FF47FEF7C0BC1400002047
:105100004D4F444500000000A0020020281100205F
:10511000C00D00202DE9F04F89B080460A2006908E
:105120006C200790DDF84CA04FF6FF710020102492
:105130001427CDE90401FEF739FA5A480025012663
:105140004FF070094FF0310BB8F1070F16D2DFE8BE
:1051500008F00410164B56A2A200007852A1CDE927
:105160000260CDE9001400234FF6FF72184606993D
:1051700002E0007850A139E0FCF764F88DE0007897
:105180004FA1CDE90260CDE90014DDE90521002041
:10519000049BFCF757F84D484FF070014FF00203A5
:1051A00000784FF00102009538B12C2004F026FD64
:1051B00049465846234646A206E01F2004F01EFD3D
:1051C00049462320234643A2CDE90065FEF7C6FDEC
:1051D000CDE9006578245A203B463FA20799FEF7A7
:1051E000BDFD0AF0FF023EE000783CA1CDE902607F
:1051F000CDE90014DDE905210020049BBCE700781F
:1052000038A1CDE90260CDE90014DDE905210020D7
:10521000049BFCF717F82D484FF070014FF0020384
:1052200000784FF00102009538B12C2004F0E6FC24
:1052300049465846234626A206E01F2004F0DEFC1D
:1052400049462320234623A2CDE90065FEF786FDCB
:10525000CDE9006578245A203B461FA20799FEF746
:105260007DFDCAF30722CDE9007664200223079969
:10527000FEF7F2FCCDE900653B461EA220460799E9
:10528000FEF76CFDCDE9006586203B461AA2079922
:10529000FEF764FD01E001F073FD09B0BDE8F04FD9
:1052A000FEF7ECBB140000205741495420544F2016
:1052B000535441525400000048454154494E470060
:1052C000424C4F4F4D494E47000000001500002052
:1052D00046000000430000002E000000434F4F4CEA
:1052E000494E4700434F4C442042524557494E4790
:1052F000000000006D6C00002F7300000FB46B4ABB
:105300002DE9F84F0FAD044695E80908694D6A4F3D
:10531000674E2D6897F836100095DFF8A0A100259C
:105320004FEA204C4FF0020E4FF0010900B2062C5C
:1053300029D2DFE804F0030A455F8BB60B98FBF730
:1053400033FB002871D0012418E039B187F83650BA
:1053500087F8395087F83A5087F83B50128A4FEA5D
:105360001B41904226DD41B3F88786F800E0FBF749
:1053700024F80099FBF75CF806D8022407F82C5FA4
:1053800003F0BEFF7D7387E00620FBF7D5FB20B15D
:10539000AAF8005087F82C5004E05021AAF8001019
:1053A00087F82C9087F8399097F83A1048461E29CC
:1053B00047D842E009B1022400E0032435706BE0D5
:1053C00061B1118A884202DD86F800E0F887FAF7B9
:1053D000F4FF0099FBF72CF85ED846E0D9B2AAF8A2
:1053E00000101814FBF7E0FAF8B1AAF80050357075
:1053F00003244AE039B187F8365087F8395087F8E6
:105400003A5087F83B50D08C84451DDAA7F83EC04F
:1054100086F800906046FAF7D0FF0099FBF712F883
:1054200004D8042487F8395036E033E087F83990FF
:1054300097F83A1048463C2903D897F83B100529BD
:105440002AD987F83C0027E00424B7E781B1D08C43
:10545000844503DA86F80090A7F83EC06046FAF764
:10546000ACFF0099FAF7EEFF16D887F8365013E034
:10547000C3F30721AAF800100FFA8BF0FBF794FA98
:1054800040B1AAF800503570052487F82C5003F07D
:1054900037FF01E087F82C902046BDE8F80F5DF853
:1054A00014FB00298AD087F8365087E76807002068
:1054B0001B0200202C020020140000201C020020EF
:1054C000F0B52048204995B0B0F900001FA200EBCC
:1054D000C00051F82030402104A804F075F9FEF70F
:1054E00065F81C480124102600781BA1CDE90016A0
:1054F000CDE9024000234FF6FF773A460A211846CD
:10550000FBF7A0FE04A80025CDE900062B463A468D
:1055100032212846CDE90245FBF794FE142311A25F
:105520005A210F20CDE90045FEF718FC14230EA2E6
:105530005A217D20CDE90045FEF710FCFEF79EFACA
:1055400015B0F0BD68000020900000205B25735D61
:105550003F000000140000205245504C4143454498
:10556000000000004E4F00005945530010B5FFF7F2
:10557000A7FF0D490D4A088810800D4A1278012AAC
:105580000CD00C4A1278012A0DD1C0F30B0040F464
:10559000A0400880BDE8104003F024BFC0F30B001A
:1055A00040F4E040F5E710BD0200002004000020B8
:1055B0004D0200204E0200202DE9F041214D224FE6
:1055C000224E28883988224C884203D0A07B308024
:1055D000FFF780FA307831460226A0733C2801D9C3
:1055E0003C2002E0022802D230460880A07394F8E2
:1055F0002610C0B2884201D0FFF76CFA15492888FE
:1056000038800978012904D01349097801290CD080
:1056100012E094F90B10012903D0022901D0C0B285
:1056200007E0E6724FF4805003E00121E17300F5DA
:105630008050288003F0D6FEA07B84F82600BDE8C9
:10564000F081000002000020040000205C02002025
:10565000140000204D0200204E02002070B51F4EA5
:105660001F4C30882188884203D000210846FFF76C
:10567000B7F91C4D012095F82E10FFF7B1F93088CD
:10568000208095F82E1000249F290BD300F00F00E6
:10569000308085F82D4003F0A5FEEC75AC75AC7438
:1056A00003F02EFE10480078012804D00F4800684F
:1056B000012805D00CE0308800F58050308009E0EA
:1056C00095F82E009F2803D2012085F82D0070BD8B
:1056D00085F82D40BDE8704003F084BE0200002034
:1056E00004000020140000204E0200204B02002085
:1056F0002DE9FF5F0025684E2C4604EBC40756F8E1
:10570000270058B1FAF766FD002807DD56F8270094
:1057100062A1FAF766FD08B16D1CEDB2641CE4B23B
:105720000A2CEAD35F4CFDF741FF217810205EA2DE
:105730000127CDE90020CDE9027100234FF6FF7269
:105740000A211846FBF77EFD5B48B0F90010A9421C
:1057500001DB691E0180B0F900104FF0000900293B
:1057600001DAA0F80090DFF854B1DFF854A1B0F9E5
:105770000000ABF80000BAF90E10884202DAAAF86D
:105780000E0004E0891C884201DD801EF7E700243A
:1057900040E0BAF90E0084423ADBC11C8C4237DA91
:1057A000201AC0EB0010282101EB400000F0FF0898
:1057B000BBF9000084421BD104EBC402182156F847
:1057C0002220CDE90021CDE9027900234FF6FF72B6
:1057D00041461846FBF736FD0320CDE90007A8F146
:1057E0000500C1B21E238C220A20FDF7ADFF0FE099
:1057F00004EBC402102156F82220CDE90021CDE9A6
:105800000279002348F2304241461846FBF71AFD60
:10581000641CE4B2AC42BCD3032D2AD92824012253
:1058200021469E20FDF776FFA41CE4B26E2CF6D331
:10583000BBF90000A022C0EB40104100681E91FBA4
:10584000F0F02830C4B204F10806F3B221469F20DC
:105850000097FDF713FFF3B29E2221469D2000978B
:10586000FDF70CFFF3B29F2221469E200097FDF723
:1058700005FF65B9182113A2CDE90021CDE9027910
:1058800000234FF6FF7234211846FBF7DBFCBDE81E
:10589000FF5FFEF7F3B80000900000204E6F6E65CA
:1058A000000000001400002053415645442050528F
:1058B0004F46494C450000005C0200205400002087
:1058C000A00200203C454D5054593E0070B52E4C6E
:1058D0002E4E2F4D2188308881420ED0B0F5304FAA
:1058E00032D00621B1EB103F03D1A879401EA5F8B4
:1058F000400000210846FFF7FBFE00210846FFF7A5
:10590000F7FE208830802348007801281FD02248E5
:105910001F4900787C3101281BD0204800780128DD
:1059200030D1B5F9400000EBC00051F8200028B399
:10593000017819B31AA1FAF754FCF8B12088C0F322
:105940000B0040F4104018E017480088CFE704200F
:1059500013E0B5F9400000EBC00051F8200068B139
:10596000017859B10EA1FAF73CFC38B10220E87277
:105970002088C0F30B0040F480502080BDE87040C8
:1059800003F030BD70BD00000200002004000020C4
:10599000140000204D0200204E0200205002002082
:1059A0004E6F6E65000000005C0200202DE9F04F94
:1059B0005C4C87B02078012820D01827FDF7F6FD31
:1059C0002278102158A3CDE900314FF00108CDE92C
:1059D00002820023A1464FF6FF720A211846FBF708
:1059E00031FC544804AB032607C883E8070052493A
:1059F000B1F90000032803DB022004E01027DDE7F3
:105A0000002801DA002008804C4AB1F90000108417
:105A1000B2F91E10884201DAD08304E0891C884262
:105A200001DD801EF8E7002493460DF1100ABBF952
:105A30001E0084423DDBC21C94423ADA201AC0EBBD
:105A40000010282202EB4000C5B2BBF920008442BE
:105A50001FD199F800305AF82420A7F11000CDE9A1
:105A6000028300EBD070CDE90027A5EB600081B286
:105A700000234FF6FF721846FBF7E4FB0321CDE944
:105A80000018ED1FE9B21E238C220A20FDF75CFEF0
:105A90000FE099F800305AF824001022CDE9028373
:105AA000CDE90002002348F2304229461846FBF7B0
:105AB000C9FB641CE4B2B442B9D3032E2CD9282408
:105AC000012221469E20FDF725FEA41CE4B26E2C87
:105AD000F6D3BBF92000761EC0EB4010400090FBCF
