:020000040800F2
:10000000C0120020450100088D1C0008891C000852
:100010008B1C00086D040008FD3000080000000083
:100020000000000000000000000000001523000890
:1000300071060008000000002D22000817230008A8
:100040005F0100085F0100085F0100085F01000810
:100050005F0100085F0100085F0100085F01000800
:100060005F0100085F0100085F0100085F010008F0
:100070005F0100085F0100085F0100085F010008E0
:100080005F0100085F0100085F0100085F010008D0
:100090005F0100085F0100085F0100085F010008C0
:1000A0005F0100085F0100085F0100085F010008B0
:1000B0005F0100085F0100081D2300085F010008C0
:1000C0005F0100085F0100085F0100085F01000890
:1000D0005F010008F13000085F0100085F010008BF
:1000E0005F0100085F0100085F0100085F01000870
:1000F0005F0100085F0100085F0100085F01000860
:100100005F0100085F0100085F0100085F0100084F
:100110005F0100085F0100085F0100085F0100083F
:100120005F0100085F0100085F0100085F0100082F
:10013000DFF80CD000F03AF90048004739330008E6
:10014000C01200200648804706480047FEE7FEE749
:10015000FEE7FEE7FEE7FEE7FEE7FEE7FEE7FEE777
:100160001B2300083101000840EA01039B0703D06C
:1001700009E008C9121F08C0042AFAD203E011F8E6
:10018000013B00F8013B521EF9D27047D2B201E0A8
:1001900000F8012B491EFBD270470022F6E710B58C
:1001A00013460A4604461946FFF7F0FF204610BDE5
:1001B000421C10F8011B0029FBD1801A704780EA0D
:1001C000010210B502F00043400022D04A001FD0C7
:1001D000010E01EB1261C0F35600C2F3560240F467
:1001E000000042F40002A0FB022000047F39140446
:1001F00000D0401C50EA124001D44000491EC2B257
:100200000C0604EBD010401C4008802A02D003E00A
:10021000002010BD20F00100002900DA0020184362
:1002200010BD30B480EA010202F0004530F0004217
:1002300021F0004013D090B1C30DD40DC2F31601CC
:10024000C0F31600E41A41F4000140F400027D34CA
:10025000914201D3641C00E04900002C02DA30BC5A
:10026000002070474FF400000023914201D3891A07
:10027000034340084FEA4101F7D151B1914202D105
:100280004FF0004105E002D24FF0010101E06FF0B4
:10029000010103EBC450284430BC00F04FB8C10F3B
:1002A00080EAE0700844CA079623002100F04FB8A6
:1002B00096230022114600F04AB800F0004220F0D8
:1002C0000040C10DC0F3160040F400007F2901DAA0
:1002D00000207047962903DCC1F19601C84001E077
:1002E00096398840002AF4D04042704720F0004000
:1002F000C10DC0F3160040F400007F2901DA002090
:100300007047962903DCC1F19601C84070479639C1
:1003100088407047002801DBC0F10040002901DB64
:10032000C1F1004181427047002801DBC0F100406B
:10033000002901DBC1F10041884270470029A8BFB4
:100340007047401C490008BF20F00100704710B4FE
:10035000B0FA80FC00FA0CF050EA010404BF10BCB3
:10036000704749B1CCF1200421FA04F411FA0CF1E0
:1003700018BF012121430843A3EB0C01CB1D4FEA19
:1003800000614FEA102042BF002010BC704700EB14
:10039000C35010440029A4BF10BC7047401C490042
:1003A00008BF20F0010010BC70470000064C074D4C
:1003B00006E0E06840F0010394E807009847103435
:1003C000AC42F6D3FFF7B8FEE087000800880008CB
:1003D00070B58C1810F8015B15F0070301D110F807
:1003E000013B2A1106D110F8012B03E010F8016B34
:1003F00001F8016B5B1EF9D12B0705D40023521EB7
:100400000DD401F8013BFAE710F8013BCB1A921C1E
:1004100003E013F8015B01F8015B521EF9D5A1421C
:10042000D8D3002070BD000010B50F494FF08042B6
:1004300000240A6023224A60C1E9024008460C6198
:1004400000F0F4FF0848602148300022C0E90014A1
:10045000022181600146483800F085FFBDE8104068
:100460000021014801F0ACB86C020020FEE700005A
:100470002DE9FC474749484A494B0988128801EB56
:10048000810102EB410245491B88474C098801EB79
:10049000810103EB4101C1EB011102EB8101414AF2
:1004A000A1EB01111288801A00EB81054FF4616005
:1004B000B5FBF0F1B5FBF0F800FB11513C20B1FBAE
:1004C000F0F9B5FBF0F100FB1157A06A874257D055
:1004D00001260096A079217A1830C0B2637833A241
:1004E00001F047FE0096A079217A3C30C0B26378D3
:1004F0002EA201F03EFE4FF00A0AB8FBFAF2607835
:10050000CDE90006217AA079012301F0FBFD607896
:10051000CDE90006A079217A0C30C0B20123424611
:1005200001F0F0FD6078CDE90006B9FBFAF2A079A0
:10053000217A2430C0B2012301F0E4FD6078CDE9D6
:100540000006A079217A3030C0B201234A4601F07A
:10055000D9FD6078CDE90006B7FBFAF2A079217ADF
:100560004830C0B2012301F0CDFD6078CDE900062E
:10057000A079217A5430C0B201233A4601F0C2FD7D
:10058000A76201F015FD15B10020BDE8FC87012030
:10059000FBE700006E0000206C00002072000020CD
:1005A000700000206A0000207C0000203A0000005B
:1005B0000F49104A114B0988128801EB810102EBA7
:1005C00041020D491B88098801EB810103EB4101C0
:1005D000C1EB011102EB8101094AA1EB0111128863
:1005E000801A10EB810001D0002070470120704775
:1005F0006E0000206C0000207200002070000020BF
:100600006A00002070B50A46164B00EB400103EB70
:100610008104154DA66882420CD013F8210000EB2E
:1006200080004000FFF744FE3146FFF7FAFDFFF778
:1006300044FE28806188B5F90000814202DBA18870
:10064000814200DD2980B5F90000FFF728FE314620
:10065000FFF7B5FD0549FFF7E4FDFFF747FE80B260
:1006600070BD0000B00100205E00002000002041AD
:10067000704710B500F02EFA4FF4E01003F070F858
:10068000482002F0CFFD01F01BFC002001F02EFB02
:1006900040F2E731472001F047FE4FF4E13003F02C
:1006A00089F802F0FBFB6320FFF7BEFE02F028FD95
:1006B000002002F047FDBDE8104000F001B8000046
:1006C0002DE9F0431D4885B0816941F00401816145
:1006D000816901F004010491816941F004018161A3
:1006E0008069032700F00400CDE903704FF4006433
:1006F00000250126DFF848908DE8700069464846DD
:1007000000F0D8F84FF4805801AACDF8008082E8B4
:10071000E0006946484600F0CDF82146484600F022
:10072000C1F9084C414660822082484600F0BAF97F
:10073000E082A082E58105B0BDE8F08300100240B0
:100740000008014050000020C9B2C0B2012201F0EF
:1007500025BBF8B50E46DDE906542846089FFFF78D
:1007600027FD80B26043A021A1EB500000EBD070C8
:10077000F1B2C0F3470023462A46009701F0F9FC86
:10078000F8BD00002DE9F05F90F821100024022947
:1007900003D004218163012485E001680A6822F006
:1007A0000E020A6001680A6822F001020A603F4EE8
:1007B0003E4FB215DFF8F4C0DFF8F090DFF8ECA0A0
:1007C000DFF8E8B0DFF8E4E00168783F13011502D4
:1007D000ACF1640CA9F15009AAF13C0AABF1280B69
:1007E000AEF1140E4FF48018B14227D9B9420ED0A1
:1007F000614512D049451DD0514518D0594518D0F2
:10080000714501D1424615E0294EB14201D1012284
:1008100010E0274E1436B14201D110220AE0244ED6
:100820002836B14206D0224A3C32914201D11A46C2
:1008300000E02A461E49091F0A602BE0B94213D086
:10084000614517D0494522D051451DD059451DD08D
:10085000714501D142461AE0B14202D14FF0807297
:1008600015E0134EB14201D1012210E0104E1436B2
:10087000B14201D110220AE00D4E2836B14206D015
:100880000B4A3C32914201D11A4600E02A46074900
:1008900080394A60012180F82110002180F8201061
:1008A000416B01B188472046BDE8F09F80000240BF
:1008B000080402402DE9F84FDFF8C091002409F147
:1008C000040A0AF1040B23464FF00F080BF1040E43
:1008D000CCE00127A7403A40BA4272D1DFF8A0C16C
:1008E0004D68A5EB0C0665452BD00DDC032D34D0EF
:1008F00005DC35B3012D19D0022D2FD11BE0112DB0
:1009000016D0122D2AD119E0B6F5881F19D006DCB1
:10091000B6F5803F15D0B6F5801F1FD111E0B6F5B2
:10092000001F0ED0B6F5041F18D10AE0CB6815E001
:10093000CB681B1D12E0CB6808330FE0CB680C338B
:100940000CE08B682BB1012B4FF0080303D04761FB
:1009500004E0042302E0076100E00023FF2A01D83D
:10096000064601E000F104064FEA840501D9A5F12D
:100970002005376808FA05FC27EA0C0703FA05F595
:1009800047EA050737604D68ED006ED53D4DAE690D
:1009900046F00106AE61AD6924F0030605F00105DD
:1009A0000095394D7719BE68A5072D0F08FA05FC8B
:1009B00026EA0C06DFF8D4C0604503D14FF0000CE6
:1009C00025E052E0DFF8C8C0604502D14FF0010CCD
:1009D0001DE0DFF8C0C0604502D14FF0020C16E008
:1009E000DFF8B4C0604502D14FF0030C0FE0DFF830
:1009F000ACC0604502D14FF0040C08E0DFF8A0C0A5
:100A0000604502D14FF0050C01E04FF0060C0CFAE6
:100A100005FC4CEA060CC7F808C04D68D9F8006020
:100A2000ED034D4601D5164300E096432E604D6818
:100A3000DAF80060AD03554601D5164300E0964351
:100A40002E604D68DBF80060ED025D4601D516436F
:100A500000E096432E604D68DEF80060AD027546FA
:100A600001D5164300E096432E60641C0A6832FAF2
:100A700004F57FF42EAFBDE8F88F000000040140BC
:100A80000000111000100240000001400008014069
:100A9000000C01400010014000140140001801400A
:100AA000001C01408068084000D0012070470AB156
:100AB000016170470904FBE7014880687047000046
:100AC0004400002002488168027811448160704728
:100AD00044000020074810B5016841F01001016092
:100AE000052000F057F80F2000F006F800F024F879
:100AF000002010BD0020024070B50D4D04464FF49B
:100B00007A712878B1FBF0F00A490968B1FBF0F07E
:100B100000F0DCFA48B9102C07D200222146501E02
:100B200000F018F800206C6070BD012070BD00005E
:100B3000440000201C0000207047002809DB00F062
:100B40001F02012191404009800000F1E020C0F81F
:100B500000117047F0B40E4B1B68C3F30223C3F1BE
:100B60000704042C00D904241D1D072D01D20023E5
:100B700000E0DB1E012606FA04F56D1E0D409D40C7
:100B80009E40761E164045EA0601F0BC02F0DEBA31
:100B90000CED00E0064A00F0070110684FF6FF0375
:100BA000184040EA012003490843106070470000E4
:100BB0000CED00E00000FA052DE9F0470D460400B9
:100BC00067D0DFF81881D8F8000000F00700A842CD
:100BD0000CD2D8F8001021F007012943C8F8001002
:100BE000D8F8000000F00700A84252D120683C4E1F
:100BF000810712D5400703D5706840F4E06070604B
:100C00002078000703D5706840F460507060706809
:100C1000A16820F0F000084370602078C00727D05A
:100C20006068012810D03168022810D08907002997
:100C30002FDA716821F0030101437160FFF73CFF77
:100C4000074641F288390CE031688903EFE78901F2
:100C5000EDE7FFF731FFC11B494502D90320BDE88D
:100C6000F0877068616800F00C00B0EB810FF0D184
:100C7000D8F80010404601F00701A9420BD90168DD
:100C800021F0070129430160006800F00700A84235
:100C900001D00120E3E72078400705D57068E168BE
:100CA00020F4E060084370602078000706D5706883
:100CB000216920F4605040EAC100706000F038F80B
:100CC0007168084AC1F30311515CC84006490860C5
:100CD00006480068FFF710FF0020C0E70020024030
:100CE00000100240EC3700081C00002048000020E3
:100CF0000448054900684968044AC1F30221515C6F
:100D0000C84070471C00002000100240FC3700085B
:100D10000448054900684968044AC1F3C221515C8E
:100D2000C84070471C00002000100240FC3700083B
:100D300012A085B00FC88DE80F0014A0144B0068F6
:100D400004905968134801F00C02042A10D0082AB4
:100D50000ED1C1F38342C9031DF802000AD55968B8
:100D600004AAC1F34041515C0A4A5043B0FBF1F080
:100D700005B0704708494843FAE70000020304053C
:100D8000060708090A0B0C0D0E0F101001020000D7
:100D90000010024000127A0000093D002DE9F84FD2
:100DA00004006FD02078BE4DC00747D06868C0F3FC
:100DB0008100012807D06868C0F38100022809D1AA
:100DC0006868C00306D52868800337D560680028A6
:100DD000E7D033E06068B0F5803F0BD010B1B0F5DC
:100DE000A02F11D0286820F480302860286820F4D3
:100DF000802002E0286840F480302860606888B174
:100E0000FFF75AFE064609E0286840F48020286073
:100E1000F0E7FFF751FE801B642873D82868800331
:100E2000F7D50BE0FFF748FE064604E0FFF744FE67
:100E3000801B6428F1D828688003F7D42078DFF875
:100E4000648280074FF0010A4FF0000939D56868C5
:100E500010F00C0F07D06868C0F38100022809D198
:100E60006868C00306D42868800714D52069012863
:100E700008D110E02069B0B1C8F800A0FFF71CFE4F
:100E8000064605E007E1FFF717FE801B0228C4D8DD
:100E900028688007F7D52868616920F0F80040EAE3
:100EA000C10028600DE0C8F80090FFF705FE064677
:100EB00004E0FFF701FE801B022823D82868800782
:100EC000F7D4207800072CD57748A169D9B1C0F8AC
:100ED00000A0FFF7F1FD064604E0FFF7EDFD801BE3
:100EE00002280FD8686A8007F7D570484FF4FA5186
:100EF0000068B0FBF1F0009000BF0098411E009127
:100F0000FAD20EE07CE0C0F80090FFF7D5FD06466F
:100F100004E0FFF7D1FD801B022871D8686A8007C2
:100F2000F7D4207840075BD5E8690027C00008D4D3
:100F3000E86940F08050E861E869012700F08050DE
:100F400000905B480168C90511D40168834641F4EB
:100F500080710160FFF7B0FD064604E0FFF7ACFDCD
:100F6000801B64284CD8DBF80000C005F6D5E0688B
:100F700001280AD008B1052813D0286A20F0010002
:100F80002862286A20F0040002E0286A40F001008C
:100F90002862E06841F2883B88B1FFF78DFD064684
:100FA00009E0286A40F004002862EEE7FFF784FDBC
:100FB000811B59455BD8286A8007F7D50BE0FFF7FE
:100FC0007BFD064604E0FFF777FD811B59454ED8AF
:100FD000286A8007F7D41FB1E86920F08050E861E3
:100FE000E069A8B36968C1F38101022946D00228EB
:100FF000484606D0C8F86000FFF75EFD044639E0B9
:1010000035E04746C8F86000FFF756FD064604E0A5
:10101000FFF752FD801B022829D828688001F7D4E9
:10102000206AB0F5803F05D16868A16820F40030DF
:1010300008436860D4E908010843696821F4741121
:1010400008436860C7F860A0FFF736FD044605E076
:1010500023E0FFF731FD001B022808D82868800133
:10106000F7D51AE0FFF728FD001B022802D903205C
:10107000BDE8F88F28688001F4D40EE00128F7D08D
:101080006868226A00F48031914204D1616A00F4F8
:101090007010884201D00120EAE70020E8E7000054
:1010A0000010024000004242800442421C00002026
:1010B000007000404FF0E0210428086903D020F0C0
:1010C00004000861704740F00400FAE710B5401EC4
:1010D000B0F1807F01D3012010BD4FF0E0246061AA
:1010E0000F21601702F032F80020A0610720206174
:1010F000002010BD7047704710B5040003D094F86D
:101100003D0010B107E0012010BD002084F83C0034
:10111000204600F01FF8022084F83D00211D2068C1
:1011200001F018F9012084F8460084F83E0084F8A4
:101130003F0084F8400084F8410084F8420084F8BD
:10114000430084F8440084F8450084F83D00002002
:1011500010BD000008B500680B49884212D10B4849
:10116000C16941F00401C161C069032200F00400BB
:10117000009001211E20FFF7EDFCBDE808401E2075
:10118000FFF7DBBC08BD0000000800400010024073
:1011900090F83D10012901D001207047022180F80C
:1011A0003D100168CA6842F00102CA6000680E4939
:1011B00088420ED00D4988420BD0B0F1804F08D044
:1011C0000B49884205D00B49884202D00A4988421F
:1011D00004D1816801F00701062903D0016841F0BC
:1011E0000101016000207047002C014000340140E3
:1011F0000004004000080040000C0040704770B53B
:101200000446006801694FF00005C943890715D4F9
:10121000C168C943890711D4E91E01610120207703
:10122000206880698007204602D0FFF7E7FF04E0CE
:1012300000F098F8204600F0C1F925772068016990
:10124000C943490717D4C168C943490713D46FF08C
:1012500004010161022020772068806910F4407F3A
:10126000204602D0FFF7CAFF04E000F07BF82046DA
:1012700000F0A4F9257720680169C943090716D44D
:10128000C168C943090712D46FF008010161042045
:1012900020772068C0698007204602D0FFF7AEFFA4
:1012A00004E000F05FF8204600F088F92577206818
:1012B0000169C943C90617D4C168C943C90613D413
:1012C0006FF010010161082020772068C06910F4D8
:1012D000407F204602D0FFF791FF04E000F042F883
:1012E000204600F06BF9257720680169C943C907DA
:1012F00008D1C168C943C90704D1891E01612046CC
:1013000000F0BCF920680169C943090609D4C16825
:10131000C943090605D46FF0800101612046FFF73B
:10132000E9FE20680169C943490609D4C168C94377
:10133000490605D46FF040010161204600F0DCFA57
:1013400020680169C94389060BD4C168C94389066D
:1013500007D46FF0200101612046BDE87040FFF71F
:10136000CABE70BD704770B5044690F83C000D468B
:1013700001280AD0012084F83C0042B1042A18D088
:10138000082A2AD00C2A4DD139E0022070BD2068ED
:1013900001F034F82068816941F00801816120681A
:1013A000816921F004018161206881692A69114302
:1013B00011E0206801F052F82068816941F4006171
:1013C00081612068816921F480618161206881697F
:1013D0002A6941EA0221816124E0206801F074F861
:1013E0002068C16941F00801C1612068C16921F02C
:1013F0000401C1612068C1692A69114311E02068B4
:1014000001F096F82068C16941F40061C16120686B
:10141000C16921F48061C1612068C1692A6941EA1A
:101420000221C161002084F83C0070BD10B50400A9
:1014300003D094F83D0010B107E0012010BD00205A
:1014400084F83C00204600F01FF8022084F83D009C
:10145000211D206800F07EFF012084F8460084F8FA
:101460003E0084F83F0084F8400084F8410084F88E
:10147000420084F8430084F8440084F8450084F86E
:101480003D00002010BD00002DE9F04F054600682A
:101490004FF0804ADFF81081DFF810B1444C02268B
:1014A000032785B04FF00109504529D1E06940F08C
:1014B0000100E061E06900F001000490A06940F0E3
:1014C0000400A061A06900F004000490A06940F04D
:1014D0000100A061A06900F001000490D8F80400A8
:1014E00020F4407040F0E06040F48070C8F80400E0
:1014F000B00303978DE8410269465846FFF7DAF9D1
:101500002C49286888421FD1E06940F00200E06160
:10151000E06900F002000490A06940F00800A061BA
:10152000A06900F008000490A06940F00100A061EB
:10153000A069009600F0010001960296CDE90370C3
:1015400069461D48FFF7B6F92868504529D1E0697A
:1015500040F00100E061E06900F001000490A06942
:1015600040F00400A061A06900F004000490A069AC
:1015700040F00100A061A06900F001000490D8F8DB
:10158000040020F4407040F0E06040F48070C8F83F
:101590000400042003978DE8410269465846FFF78E
:1015A00089F905B0BDE8F08F000001400008014056
:1015B0000010024000040040000C01407047000091
:1015C00010B5044649B104290AD008290BD094F873
:1015D000410001280AD0012010BD94F83E00F8E730
:1015E00094F83F00F5E794F84000F2E7022081B359
:1015F000042932D0082933D084F841000122206820
:1016000000F0EEFE184A20681849904201D0884246
:1016100003D1436C43F400434364206890420DD0EF
:1016200088420BD0B0F1804F08D01149884205D0D4
:101630001049884202D01049884204D1816801F0E3
:101640000701062903D0016841F001010160002073
:1016500010BDFFE784F83E00D0E784F83F00CDE7F7
:1016600084F84000CAE70000002C0140003401402B
:101670000004004000080040000C00402DE9F0414B
:101680009049884277D1904D904E1021288B401C74
:1016900028833046FFF706FADFF8348228704021AD
:1016A0004046FFF7FFF96870AA78297801230024E3
:1016B0004FF496778A4203D195F803C084451DD034
:1016C00009B9012A01D010B106E06B711EE095F84E
:1016D00003C0BCF1010F04D04FF0020C012902D06D
:1016E00002E0AB710AE012B1012803D006E085F8F0
:1016F00005C00FE0EA780AB985F806C06A79012AC0
:1017000004D0022A06D0012A0DD011E06A6A521CC8
:101710006A6209E06A6ABA4202DAEA79521CEA713C
:101720006C626C7104E06A6AB2F5FA7F00DB6B727E
:10173000AA79012A02D0022A1ED006E0AA6A521C07
:10174000AA62B2F5FA6F00DBAB72A970E8704FF4D1
:1017500000613046FFF7A6F928824FF480513046E9
:10176000FFF7A0F9A882B5F91010B5F9122091423F
:1017700013D051B111E0A2E0AA6ABA4202DA2A7A81
:10178000521C2A72AC62AC71DFE7B5F91630984290
:1017900003D010B9EB895B1CEB81914208D039B1C1
:1017A000B5F91620904203D010B1EA89521EEA81A1
:1017B0006982E882287E800720D16879A979084368
:1017C00018D0A889401C80B2A881142801D2287999
:1017D00000E0002001F0B6FC687918B101228021F8
:1017E000404604E0A87948B1012208213046FFF7BD
:1017F0005EF903E0AC81002001F0A4FC288B0A21F3
:10180000B0FBF1F201FB120098B9324807220178CF
:101810003148817031490978C170314909780171C5
:10182000304909784171E97A817101462E4800F00A
:101830000BFA288B1221B0FBF1F201FB120141B926
:101840002A490A782A491AB10A78521C0A7000E01B
:101850000C704FF47A71B0FBF1F201FB120129BB5D
:101860002449097811B3698B491C89B269833C29E1
:1018700003D1A98B491CA9836C83A98B0A2903D1A5
:10188000AC83E98B491CE983E98B062903D1EC83FE
:10189000298C491C2984298C0A2903D12C84698C20
:1018A000491C6984698C062900D16C844EF660213C
:1018B000B0FBF1F201FB1200002800D12C83BDE83F
:1018C000F081000034030020500000200008014097
:1018D000000C01402F000020240000202C000020DC
:1018E0002E000020300000202002002009000020EF
:1018F0000A000020080000207047704770B5026899
:1019000004461068D168536910F00F0F53D003F0EC
:10191000010501F490762E435FD0C20705D0CA05B9
:1019200003D5E26B42F00102E263420705D5DA0714
:1019300003D0E26B42F00202E263820705D5DA07C8
:1019400003D0E26B42F00402E263020707D501F024
:1019500020022A4303D0E26B42F00802E263E26B0A
:10196000002A34D0800604D5880602D5204601F02E
:101970001DFB20684069E16BC0F3801001F0080195
:101980000143204624D001F003FB20684169490649
:101990001AD5416921F040014161606BA0B12D4928
:1019A0004163606BFEF7EEFE002810D0606B416B68
:1019B000BDE87040084783060FD58B060DD520463D
:1019C000BDE8704001F0F2BA2046FFF796FF70BD07
:1019D000FFF793FF0020E06370BD03062BD50B06D5
:1019E00029D594F839002128F6D1A068B0F5805F98
:1019F00001D12069B0B1206A411C216221680078C0
:101A00004860E08C401E0004000CE084E4D12068B3
:101A1000C16821F08001C1602068C16841F04001C7
:101A2000C16070BD206A0088C0F308005060206A61
:101A3000801C2062E5E74006F3D54806F1D5D16861
:101A4000204621F04001D160202184F8391000F0B7
:101A50001AF970BD812F000870B5040004D094F805
:101A60003900002510B106E0012070BD84F838501F
:101A7000204600F023F8242084F839002068C1684B
:101A800021F40051C160204601F0D6FA20680169B6
:101A900021F4904101612068416921F02A014161EE
:101AA0002068C16841F40051C160E563202084F8DA
:101AB000390084F83A00002070BD000010B50068BD
:101AC0001E4986B0884236D11D48816941F0040123
:101AD0008161816901F004010491816941F004018F
:101AE0008161816901F004010491816941F48041BF
:101AF00081618069134C00F4804004904FF40070C1
:101B0000009002200190012002900320039069467A
:101B10002046FEF7CFFE2115009100210191694674
:101B20002046FEF7C7FE2520FFF707F803221146DF
:101B30002520FFF70FF806B010BD00000038014067
:101B4000001002400008014090F83A30202B22D1CA
:101B5000F9B1F2B190F83830012B1CD08162828546
:101B6000C2850021C163222280F83A2080F8381013
:101B70000168CA6842F48072CA6001684A6942F02A
:101B800001024A610068C16841F02001C160002083
:101B900070470120704702207047000070B5006850
:101BA0002449884244D1244B0021585CEB280BD0B7
:101BB000491CC9B20A29F8D3BDE870401E490A225F
:101BC00001F10C00FFF7C0BF1B4C00204C340A1879
:101BD000092A01D89A5C02E01A4412F80A2C22540D
:101BE000401CC0B20A28F2D32078EB28E4D16078F8
:101BF000B028E1D1608840BAFEF751FB0F4E314664
:101C0000FEF70FFB0E4D6860A08840BAFEF747FB59
:101C10003146FEF706FBA860A0790A49287094F9BE
:101C200007000A8810440880208940BAE860C3E7AA
:101C300070BD000000380140140200200000204167
:101C4000340000205E00002090F83930202B18D19D
:101C5000A9B1A2B190F83830012B12D00162828470
:101C6000C2840021C163212280F8392080F8381015
:101C70000068C16841F08001C16000207047012008
:101C80007047022070477047FEE7FEE7704700008C
:101C900030B40021094B0A46002000EB800403EB1E
:101CA0008404401CC0B262548028F6D3491CC9B2D7
:101CB0001429F1D330BC00F07BB900007C03002074
:101CC00010B50021084B0A46002000EB800403EB0E
:101CD0008404401CC0B262548028F6D3491CC9B2A7
:101CE0001429F1D310BD00007C03002028B1012885
:101CF00006D10021A72000F05BBA0021A620FAE758
:101D000070472DE9FE4F0026171A8146701E354692
:101D1000A3EB010A8846002F02DD4FF0010102E02B
:101D200003D14FF00001019102E0C7F100070190DB
:101D3000BAF1000F02DD4FF0010002E003D14FF0D5
:101D40000000009002E0C7F1000A0090504657459D
:101D500001DD3C4600E00446601C4FF0000B0290A1
:101D600016E008F0FF0109F0FF000C9A00F016F8E9
:101D70003E445544A64202DD0199361B8944A542E2
:101D800002DD00992D1B88440BF101001FFA80FB36
:101D900002998B45E5DBBDE8FE8F000010B5C30856
:101DA00000F0070001248440E0B2084C01EB8101FF
:101DB00004EB8101002ACA5C02D00243CA5410BD60
:101DC00060EA0202D043C85410BD00007C0300202A
:101DD000F0B5384885B0816941F0080181618169B9
:101DE00001F008010491816941F008018161816974
:101DF00001F008010491816941F008018161816964
:101E000001F008010491816941F004018161816957
:101E100001F004010491816941F00401816180694C
:101E2000012400F0040004902020CDE90004224E9B
:101E30000325694603953046FEF73CFD012220212B
:101E40003046FEF734FE8020CDE900046946039554
:101E50003046FEF72FFD012280213046FEF727FE97
:101E6000A602164FCDE90064694638460395FEF791
:101E700021FD012231463846FEF719FE0220CDE948
:101E80000004694603953846FEF714FD012202213D
:101E90003846FEF70CFE00946946384603950194D7
:101EA000FEF708FD012211463846FEF700FE05B098
:101EB000F0BD00000010024000080140000C01408D
:101EC00010B5FFF785FF354C002202212046FEF7B2
:101ED000EEFDC82001F0B6F9012202212046FEF7EE
:101EE000E6FD0021AE2000F063F90021812000F022
:101EF0005FF90021D02000F05BF90021A42000F060
:101F000057F90021A62000F053F90021A92000F084
:101F10004FF90021022000F04BF90021AD2000F024
:101F200047F90021802000F043F90021C82000F08B
:101F30003FF90021A02000F03BF90021D52000F05E
:101F400037F90021402000F033F90021D92000F0BA
:101F50002FF900212F2000F02BF90021DB2000F0C9
:101F600027F900213F2000F023F90021202000F074
:101F70001FF90021DC2000F01BF90021352000F0C2
:101F800017F90021302000F013F9FFF781FE00213E
:101F9000BDE81040AF2000F00BB90000000C01407C
:101FA0000346012000E05843491EC9B2FBD27047E6
:101FB00070B5124E00250021B02000F0F9F8002184
:101FC000284600F0F5F80021084600F0F1F800215D
:101FD000112000F0EDF8002404EB840006EB8000F3
:101FE0000121405D00F0E4F8641CE4B2802CF3D3DE
:101FF0006D1CEDB2142DDED370BD00007C030020FB
:102000002DE9FC4F1D468A4681468B460090082BE1
:102010000CD0680700D0012000EBD50069084843C8
:10202000C0B2203AD7B20026019058E00620F8E767
:102030000C2D13D0102D15D0142D17D0182D1BD00A
:102040001C2D1FD0202D4DD1284800EB87104FF0BC
:102050000008845DE0071BD00B9A1CE007EB4700EB
:1020600023490CE0234800EB0710F0E72249C7EBB7
:10207000071001EB4000EAE7204907EBC70001EB3E
:102080008000E4E71E49C7EBC70001EBC000DEE7B4
:102090000B9848B3002251464846FFF77FFE0AF1ED
:1020A000010000F0FF0A08F10100640800F0FF08D9
:1020B000B8F1080FCED309F1010000F0FF09082D97
:1020C0000AD00099A9EB0100B0EB550F04D10BF138
:1020D0000800894600F0FF0B761CDA46F6B201983C
:1020E0008642A5D3BDE8FC8F0122D4E7AE6F00087D
:1020F00004380008783C0008684200088A4D00084F
:10210000E65A00082DE9F84F0025DDE90A691F4667
:1021100092468B468046082E00D1022500241CE002
:10212000381B401EC1B20A20FFF73AFFBAFBF0F09D
:102130000A21B0FBF1F201FB1200CDF8009080B152
:102140003030C2B205EB560101FB0480C0B2334609
:102150005946FFF755FF641CE4B2BC42E0D3BDE82A
:10216000F88F05EB560101FB0480C0B233463022E4
:10217000EEE72DE9F8411E46154688460446079FBE
:102180000BE03346414620460097FFF739FF082E03
:102190000AD004EB5600C4B26D1C2A78A2F12000CC
:1021A0005E28EED9BDE8F881A41DE4B2F4E7000092
:1021B0002DE9F0411B4F054609B1012200E0002244
:1021C00001213846FEF773FC4FF480680022414637
:1021D0003846FEF76CFC144E0024002220213046C5
:1021E000FEF765FC280601D5012200E000228021CF
:1021F0003046FEF75CFC012220213046FEF757FCFA
:102200006806641C050EE4B2082CE6D301224146A0
:102210003846FEF74CFC3846BDE8F0410122114635
:10222000FEF745BC000C014000080140704700006B
:102230003649374A012323284CD019DC05283FD0E2
:1022400005DC0DD2DFE800F0313436383A001428CE
:102250003AD006DC0A2835D00F2801D102200870B8
:102260007047192833D01E28FAD10B701A2042E08B
:1022700041283BD010DC322832D006DC28282CD074
:102280002D28EDD10B70242035E037282BD03C28A9
:10229000E6D10B702C202EE046282AD04B282CD0DB
:1022A00050282DD05528DBD12DE00020087022E0E9
:1022B0000820D4E70720D2E70620D0E70520CEE7A4
:1022C0000420CCE70320CAE70B70172013E00B7043
:1022D000182010E00B701E200DE00B7021200AE08A
:1022E0000B70272007E00B702A2004E00B702F20D2
:1022F00001E00B703120108070470B70342010808B
:102300000B70362010800B703920F4E72E0000206F
:10231000300000207047FEF7D5BB70470148FEF73C
:102320006EBF000034030020094A10B5074BC2E914
:1023300000310021C2E9021010461161FEF7DCFEF7
:10234000BDE810400248FEF723BF0000000800402F
:1023500034030020F0B502681C4D1D4E1D4FDFF800
:1023600078C01E4B4FF0804EA84209D0984207D04B
:10237000704505D0B04203D0B84201D0604503D1CA
:1023800022F070044A682243A84209D0984207D03C
:10239000704505D0B04203D0B84201D0604503D1AA
:1023A00022F44074CA6822434C6922F0800222431E
:1023B00002608A68C2620A688262A84201D09842BA
:1023C00001D10969016301214161F0BD002C014087
:1023D0000004004000080040000C004000340140B0
:1023E00010B501F01F010123046A8B409C43046275
:1023F000036A8A401343036210BD0000F0B5026A0D
:1024000022F001020262026A43688469114E24F0DC
:1024100073050C68104F2C4322F002058A682A438A
:10242000B04201D0B84205D122F00805CA682A435B
:1024300022F00402B04201D0B84205D14D6923F424
:1024400040731D438B692B4343608461496841633A
:102450000262F0BD002C014000340140F0B5026A78
:1024600022F010020262026A436884690D6824F453
:10247000E64444EA05248D6822F0200242EA05126F
:102480000F4D104EA84201D0B04206D1CF6822F0C5
:10249000800242EA071222F04002A84201D0B04274
:1024A00007D14D6923F4406343EA85038D6943EA0C
:1024B000850343608461496881630262F0BD000066
:1024C000002C014000340140F0B5026A22F4807211
:1024D0000262026A4368C46922F4007224F0730540
:1024E0000C68124E2C438D6842EA05220E4DA8421C
:1024F00001D0B04206D1CF6822F4006242EA07223E
:1025000022F48062A84201D0B04207D14D6923F481
:10251000405343EA05138D6943EA05134360C461E0
:102520004968C1630262F0BD002C014000340140E3
:1025300030B5026A22F480520262036A4268C469BA
:102540000D6824F4E64444EA05248D6823F400531E
:1025500043EA0533084DA84202D0084DA84204D1F1
:102560004D6922F4804242EA85124260C4614968A2
:102570000164036230BD0000002C014000340140C2
:102580000FB450202DE9F04F85B01026CDE903603F
:102590004FF0180914244FF02C0B4FF0480A4FF05D
:1025A00064080027FFF78CFB33A0CDE90006012566
:1025B0003B464FF6FF720A2102950020FEF7C9F84C
:1025C0000E99CDE900193B464FF6FF720295594628
:1025D0000020FEF7BEF80F98CDE900063B464FF607
:1025E000FF72514602950020FEF7B3F80223322213
:1025F00041461420CDE90045FFF784FD28200095D1
:102600001FA26821039BFFF7B4FD0123002241466E
:10261000CDE900450498FFF775FD5A2001230022FB
:102620004146CDE90045FFF76DFD6426009515A2F2
:1026300068213046039BFFF79CFD01236E201A465C
:102640003146CDE90045FFF75DFD012378201A46AC
:102650003146CDE90045FFF755FD822000950AA2DD
:102660006821039BFFF785FD05B0BDE8F00F5DF81D
:1026700014EBFFF79DBC00005052455649455700EA
:102680006D6C0000680000006D0000002DE9F84F3F
:102690000446DDE90B20414B0D9F00260FFA87F918
:1026A000DFF8F4B015141B683D4F4FEA204A4FF095
:1026B00001080093062C67D2DFE804F0030C2F45D5
:1026C000536987F800800846FDF7D2FE00285BD0EA
:1026D000012456E0BAF1000F19D0324910B2454634
:1026E00008808BF80080FDF7DAFD0099FDF712FEF7
:1026F00001D8022445E03D700520FDF759FF20B1C7
:102700000020FFF795FD3E703EE0322018E025489E
:10271000032405808BF8008036E0C0B2FFF788FD07
:1027200087F800805046FDF7A3FE68B30020FFF74E
:102730007FFD1C48032405803E7000F0A5FB0020AF
:10274000FFF776FD20E0B9F1000F08D02846FDF72D
:10275000A6FD0099FDF7E8FD16D8042414E0052431
:1027600012E0C0F30720FFF763FD87F800804846BA
:10277000FDF77EFE40B10020FFF75AFD8BF80060A8
:1027800005243E7000F080FB2046BDE8F88F00F085
:1027900025FB8BF80060D2E72F00002038000020D6
:1027A000080000202C0000203EB50D46012458B141
:1027B00064230A46194600200094FFF7A2FA662314
:1027C0002A46194600941BE0FFF77AFA012280217D
:1027D0000F48FEF76CF9002208210E48FEF767F952
:1027E00018200DA1CDE9001000234FF6FF720294CE
:1027F00019461846FDF7ADFF6523A022194600943F
:102800000020FFF77EFABDE83E40FFF7D1BB000095
:10281000000C0140000801405354415254494E47B6
:10282000000000002DE9FE430D4602004FF01804A1
:102830004FF020004FF040084FF03C014FF00107EF
:102840003BD0954260D0B5FBF1F6B5FBF1F201FB50
:1028500012554FF00A09B6FBF9F2CDE90047012302
:102860004146FFF74FFCCDE900472C2001233246BB
:102870004146FFF747FCB5FBF9F2CDE9004744209C
:1028800001234146FFF73EFCCDE9004750200123DC
:102890002A464146FFF736FCCDE900476820012370
:1028A00000224146FFF72EFCCDE9004774200123AA
:1028B00000224146FFF726FC26E0FFF701FA01223D
:1028C00008211348FEF7F3F8012280211148FEF792
:1028D000EEF8182410A08DE8910000234FF6FF7247
:1028E00019461846FDF735FF382023460CA241460D
:1028F0000097FFF73EFC5C20234609A24146009763
:10290000FFF737FC07480580BDE8FE43FFF750BBE3
:1029100000080140000C0140524553455256450005
:102920003A0000005E0000202DE9FE4314272C260B
:10293000362589464FF01808012458B164234A46C9
:10294000194600200094FFF7DCF966234A46194631
:1029500000942FE0FFF7B4F9012280211948FEF717
:10296000A6F8012208211848FEF7A1F817A1CDE921
:10297000001800234FF6FF72029419461846FDF71F
:10298000E8FE3B4615A2314600200094FFF7F1FB1C
:102990003B4614A2402100200094FFF7EAFB63208D
:1029A0003B4612A229460094FFF7E3FB6523A022D1
:1029B000194600940020FFF7A4F9BDE8FE43FFF795
:1029C000F7BA0000000C01400008014043414E43AB
:1029D000454C20425245573F00000000486F6C6450
:1029E00020746F0043616E63656C000052657375FF
:1029F0006D6500002DE9F14F84B010241C274FF0C5
:102A000060090A264FF0400A4FF0320B4FF03E08A3
:102A1000FFF756F901250FA08DE8310000234FF68E
:102A2000FF7231461846FDF794FECDE9007502238A
:102A300059465046049AFFF765FB234609A24146D2
:102A400048460095FFF795FB05B0BDE8F04FFFF74E
:102A5000AFBA0000434F46464545204144444544F3
:102A6000000000006700000070B5064D0446A88B0A
:102A7000A04201D0FFF724F9AC83BDE87040FFF716
:102A800097BA00007C000020FEB505460E46FFF711
:102A900017F9134C012213A0A1788DE8070000213B
:102AA000238AE2890846FDF754FEA17CE078009570
:102AB000CDE90101238AE28961890020FDF749FE01
:102AC000A07CA1780096CDE90110238AE289A18932
:102AD0000020FDF73EFEBDE8FE40FFF769BA0000AA
:102AE0007C0000204D4F444500000000FEB52B4EF9
:102AF0002B4A2C4C31882C4D080903D094F9000046
:102B0000108028801078002740B22070082802DD4D
:102B10001780277004E0002802DA08201080207057
:102B200094F9000080B22880884204D1084394F9C7
:102B30000110084322D1012280211C48FDF7B7FF74
:102B4000002208211A48FDF7B2FF2888318808437F
:102B500020D0677094F900001C22C0EBC00115481A
:102B600000EB81011448FDF7FFFA134800F1100152
:102B70000EC98DE80E000FC8FFF786FF0F492888A1
:102B800030800978012908D110302880BDE8FE4046
:102B900000F0ECB901206070DCE7FEBD0E00002003
:102BA0005E000020200000200C000020000C0140EE
:102BB00000080140B4000020F80100205800002067
:102BC0002DE9F04F89B080462820079068200490B6
:102BD0001825DDF848B04FF6FF7100202C46CDE9EE
:102BE0000501FFF76DF81399212701200A26C1F38B
:102BF00007214FF0000A4FF088090391B8F1050F43
:102C000041D2DFE808F0030F264576005DA1CDE94B
:102C10000015002302904FF6FF7219461846FDF783
:102C200098FD30E080465BA18DE82201DDE90621B8
:102C30000020059BFDF78DFD0FFA8BF534E095FB29
:102C4000F6F2CDE90048012300200499FFF75AFA73
:102C50002EE0804651A14EE05846FDF747FB80B27A
:102C6000B0FBF6F2CDE90048012300200499FFF7FC
:102C700049FA51E0FFF77DFA484623464AA20095FB
:102C80000499FFF776FA09B0BDE8F04FFFF790B965
:102C9000804646A18DE82201DDE906210020059B42
:102CA000FDF757FD4FEA2B4595FBF6F00028C6D1FE
:102CB00095FBF6F006FB1052CDE9004845460C2086
:102CC00001230499FFF71EFA022301226E211D2021
:102CD000CDF800A000F0EEFA3846234635A2009564
:102CE0000499FFF746FA6C20234633A20095049915
:102CF000C0E7804631A18DE82201DDE906210020F0
:102D0000059BFDF726FD324D304928688346FDF7C7
:102D100088FA10F0FF4F9FD12868FDF7E7FA80B2DC
:102D2000B0FBF6F106FB1102CDE9004845460C2048
:102D300001230499FFF7E6F9022301226E211D20E9
:102D4000CDF800A000F0B6FA3846234619A2009547
:102D50000499FFF70EFA542023461EA20095049909
:102D6000FFF707FACDE90045DDE903217826602069
:102D70000223FFF7C7F9234617A2009530460499AE
:102D800078E700005741495420544F205354415292
:102D90005400000048454154494E4700424C4F4FB3
:102DA0004D494E47000000002F730000434F4F4C29
:102DB000494E4700430000002D6D6C00434F4C44CA
:102DC0002042524557494E47000000000000204174
:102DD000380000202E0000006D6C00000EB50122AE
:102DE000202105A08DE8070000234FF6FF725B212C
:102DF0001846FDF7AEFC0EBD454E4A4F5920210046
:102E00002DE9FC411C4D01248046402600943327C7
:102E10004F202B7819A23146FFF7ABF94046FDF75A
:102E200065FA02462878CDE9000402233146384687
:102E3000FFF768F912494046FDF7C1F9FDF756FA68
:102E400002462878CDE90004572001233146FFF7D8
:102E500059F900200090022301224621692000F048
:102E600029FA00946D202B7806A23146FFF781F9EC
:102E7000BDE8FC41FFF79CB87C0000202E0000005C
:102E800000002041430000000349002048840884DA
:102E9000C883888348837047500000202DE9F041A3
:102EA0002E4C86B0A06940F00100A061A06900F03E
:102EB00001000490A06940F00400A061A0692849C5
:102EC00000F004000490486820F0E06040F00070DA
:102ED00048601020002701250326CDE90007DFF810
:102EE0008480CDE9025669464046FDF7E3FCA069BF
:102EF00040F00800A061A069CDE9025600F008008A
:102F000004904020CDE90007174F69463846FDF789
:102F1000D1FCA06940F00400A061A069CDE902568F
:102F200000F0040004900820CDE900056946404601
:102F3000FDF7C0FCA06940F00800A061A069CDE9E0
:102F4000025600F0080004908020CDE90005694693
:102F50003846FDF7AFFC06B0BDE8F0810010024036
:102F60000000014000080140000C0140034900201E
:102F70000872C871887248727047000050000020C3
:102F800010B5406A0021C185C184FEF7B6FC10BDB2
:102F90000168CA6822F49072CA6001684A6922F026
:102FA00001024A61202180F83A10704710B590F86C
:102FB0003A10222901D0022010BD81684FF48053BD
:102FC000994201D1026922B1826A99421BD049B16A
:102FD0000AE00268816A5268C2F308020A80816AC4
:102FE000891C08E0016971B10168496801F07F013D
:102FF0001170816A491C8162C18D491E0904090C46
:10300000C18503D016E001684968F1E70168CA6824
:1030100022F02002CA600168CA6822F48072CA6085
:1030200001684A6922F001024A61202180F83A10C1
:10303000FEF7B4FD002010BD70B5044600680169BC
:10304000E26821F4405111430161A1682069014304
:10305000606901432068C26841F20C639A430A43E5
:10306000C26020684169A26921F440711143416145
:103070001E492068884202D1FDF74AFE01E0FDF7B3
:1030800037FE00EBC00101EB001160686422800094
:10309000B1FBF0F3B3FBF2F36FF018067343B1FB2F
:1030A000F0F5B1FBF0F605EB8305322303EB0515D4
:1030B000B5FBF2F5B6FBF2F605F0F00505EB0615EB
:1030C000B1FBF0F6B1FBF0F0B0FBF2F06FF01801DD
:1030D000484306EB800003EB0010B0FBF2F02168E0
:1030E00000F00F002844886070BD000000380140E7
:1030F0000148FEF703BC000020020020FEE70000AC
:1031000010B50F484FF08041002401601721C0E93D
:1031100001146321C0E90314FEF788F9084860210F
:1031200048300822C0E90014014684604838FEF7A0
:103130001AF9BDE8104008210148FEF741BA000025
:10314000D00200204FF08041C86370470907090E84
:10315000002804DB00F1E02080F80014704700F044
:103160000F0000F1E02080F8141D704702E008C84D
:10317000121F08C1002AFAD170477047002001E0F1
:1031800001C1121F002AFBD170472DE9F05F1546DF
:103190001C46DDF828B00E46074601EB040800EB9C
:1031A000050A1FFA88F11FFA8AF05A46FDF7CCFA91
:1031B0001FFA88F1A7EB05081FFA88F05A46FDF7B9
:1031C000C3FAA6EB04091FFA89F11FFA8AF05A46DE
:1031D000FDF7BAFA1FFA89F11FFA88F05A46FDF78F
:1031E000B3FA06EB050907EB04081FFA89F11FFA89
:1031F00088F05A46FDF7A8FA3C1B1FFA89F1A0B2E5
:103200005A46FDF7A1FA751BA9B21FFA88F05A4673
:10321000FDF79AFAA9B2A0B25A46BDE8F05FFDF7F1
:1032200093BA000010B54FF0E0220021044611616E
:103230000846FDF73FFF0249E008088010BD000086
:10324000220000204FF47A7170B5B0FBF1F2B0FBB0
:10325000F1F401FB1205094E03E0304600F010F8CE
:10326000641E002CF9D1002D06D04FF47A7068430B
:10327000BDE8704000F004B870BD000040420F008F
:103280000B49098848434FF0E021486100238B61D6
:10329000086940F0010008610869C20701D0C00355
:1032A000FAD5086920F0010008618B6170470000C1
:1032B000220000202DE9F84F89461E46904682469E
:1032C0000024714203220A9802EB4105C8B930E09C
:1032D000274608E03B46224649465046CDF8008046
:1032E000FFF753FF7F1CB742F4DD002D03DA05EB37
:1032F0008405AD1D04E0A01B05EB80050A35761E94
:10330000641CB442E4DDBDE8F88F334622464946EA
:103310005046CDF80080FFF738FF002D03DA05EBAB
:103320008405AD1D04E0A01B05EB80050A35761E63
:10333000641CB442E9DDE6E786B0FDF79AF9DFF8F0
:10334000ECA3FB4E0125DFF8ECB3DFF8EC93FB4F69
:103350000024B889010940D0010A41D0010B7DD079
:10336000B5EB103F7BD1F989884222D00122082198
:10337000F348FDF79CFB01228021F248FDF797FB03
:103380001820F1A1CDE9001000234FF6FF7202953D
:1033900019461846FDF7DDF90BF110010BF1040099
:1033A0000EC98DE80E0090E80E00DBF80000FFF774
:1033B000E7F8B889F88199F80010012971D03178BF
:1033C00001296FD0E24909780129C2D100F50050E6
:1033D000B881FFF7CBFD7D71BBE7FFF787FBB8E74F
:1033E00000F00F01052905D0FA899042B1D054D2DE
:1033F000B981AEE74FF001024FF00801D048FDF768
:1034000056FB01228021CF48FDF751FBB889F9898D
:10341000884203D0398A7878FFF726FBB978787824
:10342000FDF7F0F83882798A814203D1B9787A7849
:10343000914203D001467878FFF716FB7878B87090
:10344000388A7882B889F88199F80010012911D05A
:10345000F978042916D23078012801E023E061E0F0
:10346000BAD1FFF783FD7878401C7870F878401C5B
:10347000F8706EE700F00F00B881FFF777FD7C7001
:10348000FC70E8E731780129A6D100F58070B88199
:10349000FFF76CFD7C70FC705BE700F58070B88115
:1034A00057E739E03BE0F98988420ED00122082134
:1034B000A348FDF7FCFA01228021A248FDF7F7FAA4
:1034C0003878AAF80000FFF795FA9AF800003870EB
:1034D0003C2801D93C2002E0052803D20520AAF8A7
:1034E000000038703979C0B2884201D0FFF782FA03
:1034F000B889F88199F80010012903D031780129A1
:1035000002D006E0C0B201E000F58050B881FFF7BC
:103510002DFD387838711CE7C0F30B0043E000F54F
:10352000805040E00221B1EB103F20D1F989884260
:1035300003D000210846FFF737F9B889F8817D727A
:10354000B97A9E2904D94FF6FF721043B8817C7274
:103550000120FFF729F999F80000012889D1B889DD
:10356000C0F30B00B881FFF701FD7C72F1E6032187
:10357000B1EB103F1DD1F989884203D00020796951
:10358000FFF750F9BAF9001001207961FFF74AF905
:10359000B889F88199F80010012908D031780129FB
:1035A000B9D1A0F58050B881FFF7E0FCD1E67C717D
:1035B000B2E70E21B1EB103F20D1F989884203D048
:1035C00000210846FFF7B0F9B97A0120FFF7ACF9FE
:1035D000B889F881B97A9E2905D9C0F30B00B88162
:1035E0007C72FFF7C3FC3078012805D05948007879
:1035F000002890D07D72ACE6B88990E70F21B1EB3E
:10360000103F88D1F98988423ED0002208214C48D9
:10361000FDF74DFA012280214A48FDF748FA796901
:103620003846C1EB01118900B961797909B184711A
:1036300000E085719BF81010DC4641B1BCF8162003
:1036400003785A43B2FBF1F1ACF8121001E0ACF888
:1036500012409CF8111041B1BCF8182003785A436D
:10366000B2FBF1F1ACF8141001E0ACF814400CF12D
:103670000C0191E80E018DE80E01DCE90123B87917
:10368000DBF80010FFF79CFAB8892A49F881142268
:1036900008316846FCF768FDDBE90023D846B879B5
:1036A000B969FEF7F3FFB871052810D13D720A2001
:1036B000FCF77EFF58B13C72FFF7E6FB387B00F069
:1036C0000F00B881FC71BC71FFF750FC7C71B879B8
:1036D000012801D0032803D11F480068FFF790FBA1
:1036E000B879F979884209D008F10C0191E80E10F7
:1036F0008DE80E1098E80E00FFF762FAB879F871BD
:1037000099F8000001287FF467AE14480470002087
:10371000FEF78EFD3C72FC71BC71B889A0F580503B
:10372000B881FFF723FC7C7113E600005E000020E7
:1037300058000020F8010020570000200000002061
:1037400000080140000C01405245534552564500C7
:103750005A00002059000020380000202F000020CF
:1037600070B590B0064628216846FCF716FD142176
:103770000AA8FCF712FD0120010400248DE81300C3
:1037800002250996CDE907516846FDF707FB00B110
:10379000FEE70F20CDE90A054FF48060CDE90C402B
:1037A00002210AA80E94FDF707FA002800D0FEE7D0
:1037B00010B070BD0C4910B50A4AC1E900200020C4
:1037C0008860C860086188610C2048610846FEF77F
:1037D00043F905490A22BDE810400C390248FEF7BA
:1037E000B3B90000003801402002002000000000B2
:1037F00000000000010203040607080900000000A1
:1038000001020304000000000000000000000000AE
:1038100000F800000000000200000000003800383E
:1038200000000000000000000010F810F810000177
:1038300003010301003048FC48880002020702012E
:1038400000303080402000020100000300B04848F2
:10385000B040000102020102003800000000000038
:103860000000000000F00808000000010202000053
:10387000000808F00000000202010000004050E0D3
:103880005040000001000100004040F040400000B6
:103890000001000000000000000000090700000017
:1038A00000404040404000000000000000000000D8
:1038B0000000000200000000000000804020000224
:1038C0000100000000F0884828F000010202020117
:1038D000002010F800000002020302020090484895
:1038E00048300003020202020010084848B00001FC
:1038F0000202020100C0A09088F80000000000034E
:103900000078282828C800010202020100F0484877
:1039100048900001020202010008088848380000AF
:103920000003000000B0484848B000010202020154
:103930000030484848F000010202020100A00000E7
:10394000000000000000000000200000000000094E
:10395000070000000040A01000000000000100006F
:1039600000A0A0A0A0A00000000000000010A04047
:103970000000000100000000001008C848300000EE
:103980000002000000F008E8A8F0000102020202B4
:1039900000F0484848F000030000000300F84848E1
:1039A00048B000030202020100F0080808100001FC
:1039B0000202020100F8080808F0000302020201F6
:1039C00000F84848480800030202020200F848488C
:1039D000480800030000000000F00808889000017B
:1039E0000202020100F8404040F80003000000031A
:1039F000000808F8080800020203020200980808FC
:103A000008F800010202020100F84040A01800037B
:103A10000000000300F800000000000302020202A0
:103A200000F820C020F800030000000300F8204048
:103A300080F800030000000300F0080808F000010F
:103A40000202020100F8484848300003000000006C
:103A500000F0080808F000010202020500F848C85A
:103A60004830000300000102003048484888000246
:103A700002020201000808F8080800000003000024
:103A800000F8000000F800010202020100F8000046
:103A900000F800000102010000F800E000F8000159
:103AA000020102010018A040A0180003000000035A
:103AB000001820C0201800000003000000088848FB
:103AC000281800030202020200F8080800000003A0
:103AD00002020000001020408000000000000001F1
:103AE000000808F80000000202030000002010088F
:103AF0001020000000000000000000000000000294
:103B00000202020200081000000000000000000095
:103B10000000A0A0C00000010202030000F8202065
:103B2000C00000030202010000C0202020000001AC
:103B30000202020000C02020F8000001020203007F
:103B400000C0A0A0C0000001020202000020F02876
:103B5000080000000300000000C02020E000000179
:103B60000A0A070000F82020C0000003000003003C
:103B70000020E8000000000203020000002028E00E
:103B8000000000080807000000F880402000000343
:103B9000000102000008F80000000002030200001B
:103BA00000E020E020C000030003000300E020202C
:103BB000C00000030000030000C02020C00000017E
:103BC0000202010000E02020C000000F02020100FC
:103BD00000C02020E000000102020F0000E02020D1
:103BE00040000003000000000040A0A020000002F0
:103BF000020201000020F820000000000102020083
:103C000000E00000E00000010202010000E000000E
:103C1000E00000000102010000E000C000E000013F
:103C200002010201006080806000000300000300C8
:103C300000E00000E00000010A0A07000020A0A048
:103C400060000003020202000040F80808000000C3
:103C50000302020000F80000000000030000000062
:103C6000000808F8400000020203000000C02040E5
:103C70008060000000000000000000000000000064
:103C8000000000000000000000F000000000000044
:103C9000001700000000000000700000700000002D
:103CA00000000000000000000040F0F040F0400084
:103CB00000041F1F041F040000E01010F810200073
:103CC000000811113F110E0000600000806000002C
:103CD000001806060118000000E010101010E000A7
:103CE000000E111111110E00007000000000000004
:103CF000000000000000000000E0101010000000B4
:103D0000000F10101000000000101010E000000064
:103D1000001010100F000000000040408040000024
:103D2000000105050305010000000000C0000000BF
:103D30000001010107010100000000000000000077
:103D40000090707000000000000000000000000003
:103D5000000101010101010000000000000000005D
:103D60000010000000000000000000008060000063
:103D7000001806060100000000E010101090E0009E
:103D8000000F121211100F0000402020F000000060
:103D9000001010101F101000002010101010E00074
:103DA0000018141412111000002010101010E00060
:103DB0000008101011110E0000F000000000F000CB
:103DC0000001010101011F0000F09090909010008F
:103DD0000009101010100F0000E09090909020004B
:103DE000000F101010100F00003010101010F00015
:103DF000000000001E01000000E010101010E000A4
:103E0000000E111111110E0000E010101010E00052
:103E10000009121212120F00004000000000000002
:103E2000000400000000000000400000000000004E
:103E300000907070000000000000808040200000B2
:103E40000001020204080000008080808080800061
:103E50000002020202020200002040408000000036
:103E60000008040402010000002010101010E000FF
:103E7000000000001601000000E01010D050E0002B
:103E8000000F10101714070000E010101010E000D1
:103E9000001F010101011F0000F010101010E000D0
:103EA000001F111111110E0000E010101010200061
:103EB000000F10101010080000F010101010E0009B
:103EC000001F101010100F0000F010101010100044
:103ED000001F11111111100000F01010101010002F
:103EE000001F01010101000000E01010101020006F
:103EF000000F101010110F0000F000000000F00083
:103F0000001F010101011F0000101010F01010002F
:103F1000001010101F101000003010101010F000D2
:103F2000000C101010100F0000F000008040300056
:103F3000001F01010204180000F000000000000052
:103F4000001F10101010100000F080800080F000A2
:103F5000001F000003001F0000F080800000F00040
:103F6000001F000001021F0000E010101010E00010
:103F7000000F101010100F0000F010101010E000D3
:103F8000001F02020202010000E010101010E00009
:103F9000000F10101008170000F010101010E000B3
:103FA000001F0202060A110000E01010101020008D
:103FB0000008111111110E0000101010F010101057
:103FC000000000001F00000000F000000000F000F2
:103FD000000F101010100F0000F000000000F000A3
:103FE000000708081008070000F00000800000F03B
:103FF000000F10100F10100F0070808000807000F4
:10400000001C020201021C00007080800080700011
:10401000000000001F000000001010101090700041
:10402000001C12121110100000F0101010000000FF
:10403000001F1010100000000060808000000000D1
:10404000000001010618000000101010F000000030
:10405000001010101F000000004020201020400021
:104060000000000000000000000000000000000050
:104070000010101010101000001020200000000090
:104080000000000000000000008040404040800030
:10409000000C121212121F0000F04040404080003D
:1040A000001F101010100F000080404040408000A2
:1040B000000F101010100800008040404040F00039
:1040C000000F101010101F00008040404040800082
:1040D000000F121212120B00008080E0909020005E
:1040E0000000001F000000000080404040408000B1
:1040F000004F909090907F0000F040404040800042
:10410000001F000000001F00004050D040000000D1
:104110000010101F1000000000405050C0000000B0
:10412000008080807F00000000F0000000804000E0
:10413000001F020205081000001010F0000000002F
:104140000010101F1000000000C040408040408060
:10415000001F00001F00001F00C0404040408000C2
:10416000001F000000001F00008040404040800011
:10417000000F101010100F0000C0404040408000A1
:1041800000FF101010100F00008040404040C000A1
:10419000000F10101010FF0000C080804040800011
:1041A000001F0000000000000080404040408000F0
:1041B0000009121212120C00008080F080800000B2
:1041C0000000000F1010080000C000000000C00038
:1041D000000F101010100F0000C000000000C00001
:1041E000000708081008070000C00000C00000C059
:1041F000000F10100F10100F00C000000000C000D2
:10420000001805050205180000C000000000C000ED
:10421000004F909090907F00004040404040C00090
:1042200000181414121110000000E0E0101000003B
:1042300000010E0E1010000000F000000000000051
:10424000001F00000000000000101010E00000003F
:10425000001010100E01000000000000000000001F
:10426000000601010102040000000000000000003F
:10427000000000000000000000000000000000003E
:10428000000000000000F8F800000000000000003E
:10429000DFDF000000000000000000000000000060
:1042A00000000000F8F80000F8F80000000001012C
:1042B00000000101000000000000000000000000FC
:1042C00000006060F8F860F8F86060003030FFFFD0
:1042D00030FFFF3030000000000000000000000050
:1042E000E0E018FCFC18186060003131C6FFFFC622
:1042F000C638380000000003030000000000787892
:1043000078780080806060003030181E06F1F1F08F
:10431000F00000000000000000000000E0E01818BD
:1043200018E0E00000003939C6C6C63939C6C6C62D
:1043300000000000000000000000F8F8000000008D
:10434000000000000101000000000000000000006B
:104350000000000000000000E0E01818000000006D
:1043600000003F3FC0C0000000000000000000004F
:104370000000000000001818E0E00000000000004D
:10438000C0C03F3F0000000000000000000000002F
:1043900000000000606080E0E080806060003636F1
:1043A0001F3F391F1F3636000000000000000000CC
:1043B0000000000000E0E000000000000606063FEC
:1043C0003F06060606000000000000000000000096
:1043D000000000000000000000003030F0F000009D
:1043E00000000000030300000000000000000000C7
:1043F000000000000000000006060606060606068D
:1044000006000000000000000000000000000000A6
:10441000000000000000F0F0F0F0000000000000DC
:10442000000000000000000000000000000000800C
:10443000806060003030181E06010100000000009E
:104440000000000000000000E0E01818189898E054
:10445000E0003F3FD8DEC6C1C13F3F000000000082
:10446000000000000000808060F8F80000000000FC
:10447000C1C1C0FFFFC0C0C0C000000000000000FC
:104480000000000060601818181818E0E000C0C0B4
:10449000F0F8D8C6C6C1C10000000000000000004E
:1044A000000060601818181818E0E0003030C0C62E
:1044B000C6C6C63939000000000000000000000038
:1044C000000080E060F8F80000001E1E191918FFB7
:1044D000FF18180000000000000000000000F8F8BD
:1044E00098989898981818003131C1C1C1C1C13E3F
:1044F0003E0000000000000000000000E0E098988E
:104500009898980000003F3FC1C1C1C1C13E3E0024
:10451000000000000000000000001818181818988B
:10452000987878000000F8FE060101000000000005
:104530000000000000000000E0E01818181818E063
:10454000E0003939C6C6C6C6C639390000000000C9
:10455000000000000000E0E01818181818E0E00063
:104560000707D8D8D8D8D83F3F0000000000000087
:1045700000000000E0E0E0E0000000000000393949
:1045800039390000000000000000000000000000B9
:104590000000E0E0E0E00000000000003131F1F157
:1045A0000000000000000303000000000000000005
:1045B000000080806060000000000606191930309D
:1045C00000000000000000000000000000008080EB
:1045D0008080808080808000191919191919191993
:1045E00019000000000000000000000060608080F2
:1045F000000000000000303019190606000000001D
:10460000000000000000000000006060181818188A
:1046100018E0E000000000D8D80606010100000004
:104620000000000000000000E0E01898989898E072
:10463000E0003F3FC0DFDFDFDF07070000000000D2
:10464000000000000000E0E01818181818E0E00072
:10465000FFFF0606060606FFFF0000000000000040
:1046600000000000F8F81818181818E0E000FFFF24
:10467000C6C6C6C6C63939000000000000000000EA
:104680000000E0E018181818186060003F3FC0C034
:10469000C0C0C0303000000000000000000000007A
:1046A000F8F81818181818E0E000FFFFC0C0C0C0E4
:1046B000C03F3F0000000000000000000000F8F8CC
:1046C0001818181818181800FFFFC6C6C6C6C6C0A6
:1046D000C00000000000000000000000F8F81818FA
:1046E000181818181800FFFF060606060600000036
:1046F00000000000000000000000E0E0181818189A
:10470000186060003F3FC0C0C0D8D83838000000F3
:104710000000000000000000F8F80000000000F8B1
:10472000F800FFFF0606060606FFFF000000000077
:104730000000000000001818F8F818180000000029
:10474000C0C0FFFFC0C0000000000000000000006B
:104750000000000000001818181818F8F800303091
:10476000C0C0C0C0C03F3F0000000000000000000B
:104770000000F8F80080806060181800FFFF061F36
:10478000193030C0C0000000000000000000000030
:10479000F8F80000000000000000FFFFC0C0C0C02B
:1047A000C0C0C00000000000000000000000F8F8D9
:1047B00060E0806060F8F800FFFF0007070000FF7E
:1047C000FF0000000000000000000000F8F88080FA
:1047D000000000F8F800FFFF0107061818FFFF00AF
:1047E00000000000000000000000E0E018181818A9
:1047F00018E0E0003F3FC0C0C0C0C03F3F00000025
:104800000000000000000000F8F81818181818E060
:10481000E000FFFF0606060606010100000000009A
:10482000000000000000E0E01818181818E0E00090
:104830003F3FC0C0C0F0F0FFFF00000000000000DC
:1048400000000000F8F81818181818E0E000FFFF42
:10485000061E1E3636C1C100000000000000000028
:104860000000E0E018181818186060003131C6C662
:10487000C6C6C63838000000000000000000000076
:10488000181818F8F81818181800000000FFFF0092
:104890000000000000000000000000000000F8F828
:1048A0000000000000F8F8003F3FC0C0C0C0C03F9B
:1048B0003F0000000000000000000000F8F80000C9
:1048C000000000F8F8001F1F30F0C030301F1F003C
:1048D00000000000000000000000F8F800000000E8
:1048E00000F8F8003F3FC0F838C0C03F3F0000006C
:1048F0000000000000000000787880800080807850
:104900007800F0F0191F061919F0F00000000000FF
:1049100000000000000078788080008080787800B7
:10492000000001FFFE010100000000000000000087
:104930000000000018181818189898787800F0F0FF
:10494000D8DEC6C1C1C0C0000000000000000000E9
:104950000000F8F81818181800000000FFFFC0C089
:10496000C0C00000000000000000000000000000C7
:104970006060808000000000000000000107061851
:10498000183030000000000000000000000018187F
:104990001818F8F800000000C0C0C0C0FFFF0000F9
:1049A000000000000000000000000000808060782F
:1049B000186060808000010100000000000101001B
:1049C00000000000000000000000000000000000E7
:1049D00000000000C0C0C0C0C0C0C0C0C000000017
:1049E00000000000000000000018186060000000D7
:1049F00000000000000000000000000000000000B7
:104A00000000000000000080808080800000000026
:104A100000F9F9D9D9D9FEFE00000000000000001D
:104A20000000000000F8F88080800000000000FF17
:104A3000FFC1C1C13E3E00000000000000000000B8
:104A4000000000000080808000000000003E3EC1A9
:104A5000C1C1363600000000000000000000000068
:104A6000000000808080F8F80000003E3EC1C1C117
:104A7000FFFF000000000000000000000000000038
:104A80000080808000000000003E3ED9D9D9DEDEE3
:104A9000000000000000000000000000008080E036
:104AA000F89898980000000101FFFF010101000043
:104AB0000000000000000000000000000080808076
:104AC00080800000003E3EC1C1C1FFFF0000000029
:104AD000000C0C0C0303000000F8F880808000003C
:104AE000000000FFFF010101FEFE000000000000C9
:104AF0000000000000000098980000000000000086
:104B000000FFFF00000000000000000000000000A7
:104B10000000000000000000009898000000000065
:104B2000000000FFFF000000000C0C0C0C03030051
:104B3000000000F8F80000008080000000FFFF186F
:104B40001818F7F700000000000000000000000047
:104B500000F8F80000000000000000FFFF00000067
:104B60000000000000000000000000000000808045
:104B70008080808080808080FFFF0101FFFF010135
:104B8000FFFF0000000000000000000000808080A7
:104B900080800000000000FFFF010101FEFE000018
:104BA0000000000000000000000000000080808085
:104BB00000000000003E3EC1C1C13E3E00000000BA
:104BC0000000000000000000008080808080000065
:104BD000000000FFFFC1C1C13E3E0000000F0F00FA
:104BE0000000000000000000008080808080000045
:104BF000003E3EC1C1C1FFFF0000000000000000F8
:104C00000F0F00000000008080808000000000FE88
:104C1000FE01010101000000000000000000000092
:104C200000000000008080808080000000C6C6D99F
:104C3000D9D9313100000000000000000000000060
:104C4000008080F8F880808000000001013FFFC1F3
:104C5000C1C1000000000000000000000000008052
:104C60008000000080800000003F3FC0C0C0FFFF08
:104C70000000000000000000000000000080800034
:104C8000000000008080001F1F30F0C030301F1F68
:104C90000000000000000000000000808000000014
:104CA0000000808000FFFF3038183030FFFF000028
:104CB00000000000000000000080800000008080F4
:104CC000000000F7F7181818F7F7000000000000C0
:104CD00000000000000000808000000080800000D4
:104CE000003F3FC0C0C0FFFF0000000C0C0C0C0CCC
:104CF000030300000080808080808080000000F13D
:104D0000F1D9DFC7C1C100000000000000000000B1
:104D100000000000E0E01818000000000606393925
:104D2000C0C0000000000000000000000000000003
:104D3000F8F80000000000000000FFFF0000000085
:104D40000000000000000000000000000000181833
:104D5000E0E0000000000000C0C039390606000095
:104D60000000000000000000000000000000808043
:104D70000080800000000606010706010100000017
:104D80000000000000000000000000000000000023
:104D90000000000000000000000000000000000013
:104DA0000000000000000000000000000000E0E043
:104DB000000000000000000000007F7F00000000F5
:104DC00000000000000006060000000000000000D7
:104DD0000000E0E00000E0E0000000000000070745
:104DE00000000707000000000000000000000000B5
:104DF0000000000000008080E0E08080E0E0808033
:104E000000008181FFFF8181FFFF8181000001019E
:104E10000707010107070101000080806060F8F8C2
:104E200060608080000087871818FFFF1818E1E194
:104E30000000010106061F1F060601010000E0E058
:104E4000E0E00000000080800000818161611818AE
:104E50008686818100000101000000000707070726
:104E60000000808060606060808000000000E7E7F4
:104E700018181818E7E7181818180101060606068A
:104E8000010106060606E0E0000000000000000048
:104E90000000070700000000000000000000000004
:104EA0000000000000000000000080806060000042
:104EB000000000000000FFFF0000000000000000F4
:104EC0000000010106060000000000000000606014
:104ED000808000000000000000000000FFFF0000D4
:104EE00000000000000006060101000000000000B4
:104EF0000000808000008080000080800000999980
:104F00007E7EE7E77E7E99990000010100000101A5
:104F1000000001010000000000008080000000008F
:104F2000000018181818FFFF1818181800000000C3
:104F3000000001010000000000000000000000006F
:104F40000000000000008080808000000000000061
:104F50000000191907070000000000000000000011
:104F600000000000000000000000181818181818B1
:104F700018181818000000000000000000000000D1
:104F80000000000000000000000000000000808021
:104F900080800000000000000000070707070000F5
:104FA0000000000000000000000000000000808001
:104FB00000008080606018180606010100000101F1
:104FC0000000000000000000000080806060606061
:104FD000606080800000FFFF606018180606FFFF19
:104FE0000000010106060606060601010000000099
:104FF0008080E0E000000000000006060101FFFFE5
:105000000000000000000606060607070606060662
:10501000000080806060606060608080000001014E
:10502000808060601818070700000606070706065C
:105030000606060600008080606060606060808018
:1050400000008181000018181818E7E7000001012E
:10505000060606060606010100000000000080802A
:10506000E0E000000000787866666161FFFF606044
:105070000000000000000000070700000000E0E062
:1050800060606060606060600000878706060606FA
:105090000606F8F8000001010606060606060101EC
:1050A0000000808060606060606000000000FFFFC2
:1050B000060606060606F8F80000010106060606C2
:1050C0000606010100006060606060606060E0E012
:1050D00000000000E0E018180606010100000000D2
:1050E0000707000000000000000080806060606032
:1050F000606080800000E7E7181818181818E7E7C4
:105100000000010106060606060601010000808077
:10511000606060606060808000001F1F6060606091
:105120006060FFFF0000000006060606060601019B
:105130000000808080800000000000000000E7E7A1
:10514000E7E700000000000000000101010100008D
:10515000000000000000808080800000000000004F
:1051600000008787878700000000000000001919F1
:105170000707000000000000000000000000808021
:105180000000000000001818666681810000000021
:10519000000000000000010100000000000000000D
:1051A000000000000000000000006666666666669B
:1051B0006666666600000000000000000000000057
:1051C00000008080000000000000000000008181DD
:1051D00066661818000000000000010100000000D1
:1051E000000000000000808060606060606080807F
:1051F00000000101000060601818070700000000AF
:105200000000060600000000000080806060606012
:10521000606080800000FFFF00007E7E7E7E1F1F9A
:105220000000010106060606060600000000808058
:1052300060606060606080800000FFFF18181818D0
:105240001818FFFF00000707000000000000070714
:105250000000E0E060606060606080800000FFFF50
:10526000181818181818E7E70000070706060606BA
:1052700006060101000080806060606060608080E0
:105280000000FFFF0000000000008181000001011C
:1052900006060606060601010000E0E060606060A8
:1052A000606080800000FFFF000000000000FFFF42
:1052B0000000070706060606060601010000E0E0FA
:1052C00060606060606060600000FFFF1818181880
:1052D0001818000000000707060606060606060660
:1052E0000000E0E060606060606060600000FFFF00
:1052F0001818181818180000000007070000000010
:10530000000000000000808060606060606080805D
:105310000000FFFF000000006060E1E1000001010B
:1053200006060606060601010000E0E00000000097
:105330000000E0E00000FFFF181818181818FFFF21
:105340000000070700000000000007070000606081
:10535000E0E060600000000000000000FFFF0000CF
:105360000000000000000606070706060000000017
:1053700000000000606060606060E0E0000080802D
:10538000000000000000FFFF000001010606060605
:10539000060601010000E0E000000000808060607F
:1053A0000000FFFF181866668181000000000707F3
:1053B00000000000010106060000E0E0000000001F
:1053C000000000000000FFFF0000000000000000DF
:1053D0000000070706060606060606060000E0E0CF
:1053E000808000008080E0E00000FFFF01011E1EC1
:1053F0000101FFFF00000707000000000000070791
:105400000000E0E0000000000000E0E00000FFFF1E
:10541000060618186060FFFF000007070000000084
:10542000000007070000808060606060606080802E
:105430000000FFFF000000000000FFFF000001016E
:1054400006060606060601010000E0E060606060F6
:10545000606080800000FFFF1818181818180707F0
:10546000000007070000000000000000000080802E
:1054700060606060606080800000FFFF00000000EE
:105480008080FFFF000001010606060607070707E8
:105490000000E0E060606060606080800000FFFF0E
:1054A0001818787898980707000007070000000090
:1054B000010106060000808060606060606080809E
:1054C00000008787181818181818E1E1000001017A
:1054D0000606060606060101000060606060E0E066
:1054E00060606060000000000000FFFF000000003E
:1054F0000000000000000707000000000000E0E0DE
:10550000000000000000E0E00000FFFF00000000DD
:105510000000FFFF00000101060606060606010165
:105520000000E0E0000000000000E0E000007F7FFD
:105530008080000080807F7F00000000010106065F
:10554000010100000000E0E0000000000000E0E0D9
:105550000000FFFF0000E0E00000FFFF000001018D
:1055600006060101060601010000E0E0000000005F
:105570000000E0E00000818166661818666681819F
:105580000000070700000000000007070000E0E03F
:10559000000000000000E0E0000001010606F8F84D
:1055A00006060101000000000000070700000000DF
:1055B00000006060606060606060E0E0000080802B
:1055C00060601818060601010000070706060606B7
:1055D000060606060000E0E0606060600000000073
:1055E0000000FFFF000000000000000000000707AF
:1055F0000606060600000000000080800000000093
:10560000000000000000010106061818606080809C
:1056100000000000000000000000010100006060C8
:105620006060E0E000000000000000000000FFFFFC
:105630000000000000000606060607070000000044
:10564000000000008080606080800000000006068E
:10565000010100000101060600000000000000003A
:10566000000000000000000000000000000000003A
:10567000000000000000000000000000000006061E
:10568000060606060606060600006060808000002A
:105690000000000000000000010100000000000008
:1056A00000000000000000000000000000000000FA
:1056B00000000000000000000000E6E66666666686
:1056C000F8F80000000007070606060607070000B6
:1056D0000000E0E000000000000000000000FFFF0C
:1056E00006060606F8F8000000000707060606068C
:1056F00001010000000000000000000000000000A8
:105700000000F8F80606060698980000000001015F
:10571000060606060101000000000000000000006F
:10572000E0E000000000F8F806060606FFFF0000B3
:105730000000010106060606070700000000000041
:1057400000000000000000000000F8F866666666D1
:105750007878000000000101060606060606000033
:1057600000000000808060606060000000000606AD
:10577000FFFF060606060000000000000707000005
:105780000000000000000000000000000000000019
:105790000000F8F806060606FEFE00000000010103
:1057A000666666661F1F00000000E0E00000000063
:1057B000000000000000FFFF06060606F8F80000E3
:1057C00000000707000000000707000000006060FD
:1057D00000000000000000000000FEFE00000000CD
:1057E00000000000000007070000000000000000AB
:1057F00000000000000060600000000000000000E9
:105800000000FEFE000000000000606060601F1FDE
:10581000000000000000E0E00000000000000000C8
:105820000000FFFF606060609E9E000000000707B0
:1058300000000000070700000000E0E0000000009A
:10584000000000000000FFFF00000000000000005A
:10585000000007070000000000000000000000003A
:1058600000000000000000000000FEFE0606FEFE34
:105870000606FEFE000007070000070700000707F6
:105880000000000000000000000000000000FEFE1C
:1058900006060606F8F800000000070700000000F2
:1058A00007070000000000000000000000000000EA
:1058B0000000F8F806060606F8F8000000000101EE
:1058C00006060606010100000000000000000000BE
:1058D000000000000000FEFE06060606F8F80000C4
:1058E00000007F7F060606060101000000000000A0
:1058F00000000000000000000000F8F806060606A0
:10590000FEFE000000000101060606067F7F000083
:105910000000000000000000000000000000F8F897
:105920000606060600000000000007070000000051
:105930000000000000000000000000000000000067
:105940000000181866666666868600000000060677
:10595000060606060101000000000000E0E000006D
:105960000000000000000606FFFF06060606000015
:10597000000000000101060606060000000000000D
:1059800000000000000000000000FEFE000000001B
:10599000FEFE0000000001010606060607070000E3
:1059A00000000000000000000000000000007E7EFB
:1059B0008080000080807E7E0000000001010606DD
:1059C00001010000000000000000000000000000D5
:1059D0000000FEFE808060608080FEFE0000070701
:1059E00001010000010107070000000000000000A5
:1059F0000000000000009E9E606060609E9E0000AF
:105A0000000007070000000007070000000000007A
:105A100000000000000000000000FEFE000000008A
:105A2000FEFE000000006161666666661F1F0000E2
:105A3000000000000000000000000000000086865A
:105A400066661E1E0606000000000707060606061C
:105A5000060600000000000080806060000000007A
:105A600000001818E7E70000000000000000000038
:105A700001010606000000000000E0E00000000058
:105A8000000000000000FFFF000000000000000018
:105A90000000070700000000000000000000606038
:105AA000808000000000000000000000E7E71818F8
:105AB00000000000000006060101000000000000D8
:105AC00000000000000000000000000000001818A6
:105AD000060618180606000000000000000000007E
