:020000040800F2
:1000000070130020CD0100082D19000829190008DF
:100010002B1900086D0300087D2200080000000075
:10002000000000000000000000000000631D000848
:100030006F03000800000000611D0008651D000836
:10004000E7010008E7010008E7010008E7010008F0
:10005000E7010008E7010008E7010008E7010008E0
:10006000E7010008E7010008E7010008E7010008D0
:10007000E7010008E7010008E7010008E7010008C0
:10008000E7010008E7010008E7010008E7010008B0
:10009000E7010008E7010008E7010008E7010008A0
:1000A000E7010008E7010008E7010008E701000890
:1000B000E7010008E70100086D1D0008E7010008DE
:1000C000E7010008E7010008E7010008E701000870
:1000D000E701000871220008E7010008E7010008B5
:1000E000E7010008E7010008E7010008E701000850
:1000F000E7010008E7010008E7010008E701000840
:10010000E7010008E7010008E7010008E70100082F
:10011000E7010008E7010008E7010008E70100081F
:10012000E7010008E7010008E7010008E70100080F
:1001300000F002F800F03AF80AA090E8000C8244BF
:100140008344AAF10107DA4501D100F02FF8AFF29C
:10015000090EBAE80F0013F0010F18BFFB1A43F0A5
:10016000010318473043000050430000103A24BFF9
:1001700078C878C1FAD8520724BF30C830C144BF0C
:1001800004680C607047000000230024002500264E
:10019000103A28BF78C1FBD8520728BF30C148BFEA
:1001A0000B6070471FB51FBD10B510BD00F077F88C
:1001B0001146FFF7F7FF02F0E7F800F095F803B4F7
:1001C000FFF7F2FF03BC00F09DF8000009488047EC
:1001D00009480047FEE7FEE7FEE7FEE7FEE7FEE729
:1001E000FEE7FEE7FEE7FEE704480549054A064B41
:1001F00070470000691D000831010008700D0020E3
:1002000070130020700F0020700F002010B5431CE9
:1002100002E010F8011B71B18107FAD14FF00132F1
:1002200002C88C1A8C4314EAC211F9D0C01A0A060B
:1002300003D0C01E10BDC01A10BD0A0401D0801E1C
:1002400010BD0902FCD0401E10BD4FF0000200B5E9
:10025000134694469646203922BFA0E80C50A0E8E9
:100260000C50B1F12001BFF4F7AF090728BFA0E897
:100270000C5048BF0CC05DF804EB890028BF40F863
:10028000042B08BF704748BF20F8022B11F0804FA5
:1002900018BF00F8012B70477047704770477546CC
:1002A00000F02CF8AE4605006946534620F00700E2
:1002B000854618B020B5FFF797FFBDE820404FF006
:1002C00000064FF000074FF000084FF0000B21F040
:1002D0000701AC46ACE8C009ACE8C009ACE8C0090D
:1002E000ACE8C0098D46704710B50446AFF30080F6
:1002F0002046BDE81040FFF762BF0000004870478D
:100300000C0D002001491820ABBEFEE726000200BC
:100310007047000070B50E4905464FF0804001C19E
:100320002320002431C10A480C6000F0C7FE0849B0
:10033000602048316D1C8C60C1E900050022044832
:1003400000F059FEBDE870400021014800F04CBFAC
:1003500020010020002804484FF0000101D000F0E7
:10036000A1BF00F041BF000020010020FEE7704760
:1003700010B500F0F7F94FF4E01002F00AF8482049
:1003800001F0BAFF01F08AFB002001F0E9FA40F227
:10039000E731472001F0F0FC4FF4E13002F024F89F
:1003A00001F046FE6320FFF7B5FF01F069FF002270
:1003B0000421074800F0C3F906490120064A0870E5
:1003C00064211180054A10700548018010BD0000AD
:1003D0000008014015000020120000201400002039
:1003E00016000020F8B50E46DDE906542846089FA1
:1003F000FFF70CFF80B26043A021A1EB500000EB9F
:10040000D070F1B2C0F3470023462A46009701F0AE
:100410004BFCF8BD2DE9F05F90F821100024022973
:1004200003D004218163012485E001680A6822F079
:100430000E020A6001680A6822F001020A603F4E5B
:100440003E4FB215DFF8F4C0DFF8F090DFF8ECA013
:10045000DFF8E8B0DFF8E4E00168783F1301150247
:10046000ACF1640CA9F15009AAF13C0AABF1280BDC
:10047000AEF1140E4FF48018B14227D9B9420ED014
:10048000614512D049451DD0514518D0594518D065
:10049000714501D1424615E0294EB14201D10122F8
:1004A00010E0274E1436B14201D110220AE0244E4A
:1004B0002836B14206D0224A3C32914201D11A4636
:1004C00000E02A461E49091F0A602BE0B94213D0FA
:1004D000614517D0494522D051451DD059451DD001
:1004E000714501D142461AE0B14202D14FF080720B
:1004F00015E0134EB14201D1012210E0104E143626
:10050000B14201D110220AE00D4E2836B14206D088
:100510000B4A3C32914201D11A4600E02A46074973
:1005200080394A60012180F82110002180F82010D4
:10053000416B01B188472046BDE8F09F8000024032
:10054000080402402DE9F84FDFF8C091002409F1BA
:10055000040A0AF1040B23464FF00F080BF1040EB6
:10056000CCE00127A7403A40BA4272D1DFF8A0C1DF
:100570004D68A5EB0C0665452BD00DDC032D34D062
:1005800005DC35B3012D19D0022D2FD11BE0112D23
:1005900016D0122D2AD119E0B6F5881F19D006DC25
:1005A000B6F5803F15D0B6F5801F1FD111E0B6F526
:1005B000001F0ED0B6F5041F18D10AE0CB6815E075
:1005C000CB681B1D12E0CB6808330FE0CB680C33FF
:1005D0000CE08B682BB1012B4FF0080303D047616F
:1005E00004E0042302E0076100E00023FF2A01D8B1
:1005F000064601E000F104064FEA840501D9A5F1A1
:100600002005376808FA05FC27EA0C0703FA05F508
:1006100047EA050737604D68ED006ED53D4DAE6980
:1006200046F00106AE61AD6924F0030605F0010550
:100630000095394D7719BE68A5072D0F08FA05FCFE
:1006400026EA0C06DFF8D4C0604503D14FF0000C59
:1006500025E052E0DFF8C8C0604502D14FF0010C40
:100660001DE0DFF8C0C0604502D14FF0020C16E07B
:10067000DFF8B4C0604502D14FF0030C0FE0DFF8A3
:10068000ACC0604502D14FF0040C08E0DFF8A0C018
:10069000604502D14FF0050C01E04FF0060C0CFA5A
:1006A00005FC4CEA060CC7F808C04D68D9F8006094
:1006B000ED034D4601D5164300E096432E604D688C
:1006C000DAF80060AD03554601D5164300E09643C5
:1006D0002E604D68DBF80060ED025D4601D51643E3
:1006E00000E096432E604D68DEF80060AD0275466E
:1006F00001D5164300E096432E60641C0A6832FA66
:1007000004F57FF42EAFBDE8F88F0000000401402F
:1007100000001110001002400000014000080140DC
:10072000000C01400010014000140140001801407D
:10073000001C01408068084000D0012070470AB1C9
:10074000016170470904FBE70148806870470000B9
:1007500028000020024881680278114481607047B7
:1007600028000020074810B5016841F01001016021
:10077000052000F057F80F2000F006F800F024F8EC
:10078000002010BD0020024070B50D4D04464FF40E
:100790007A712878B1FBF0F00A490968B1FBF0F0F2
:1007A00000F0DCFA48B9102C07D200222146501E76
:1007B00000F018F800206C6070BD012070BD0000D2
:1007C00028000020040000207047002809DB00F00A
:1007D0001F02012191404009800000F1E020C0F893
:1007E00000117047F0B40E4B1B68C3F30223C3F132
:1007F0000704042C00D904241D1D072D01D2002359
:1008000000E0DB1E012606FA04F56D1E0D409D403A
:100810009E40761E164045EA0601F0BC01F05CBD24
:100820000CED00E0064A00F0070110684FF6FF03E8
:10083000184040EA01200349084310607047000057
:100840000CED00E00000FA052DE9F0470D4604002C
:1008500067D0DFF81881D8F8000000F00700A84240
:100860000CD2D8F8001021F007012943C8F8001075
:10087000D8F8000000F00700A84252D120683C4E92
:10088000810712D5400703D5706840F4E0607060BE
:100890002078000703D5706840F46050706070687D
:1008A000A16820F0F000084370602078C00727D0CE
:1008B0006068012810D03168022810D0890700290B
:1008C0002FDA716821F0030101437160FFF73CFFEB
:1008D000074641F288390CE031688903EFE7890166
:1008E000EDE7FFF731FFC11B494502D90320BDE801
:1008F000F0877068616800F00C00B0EB810FF0D1F8
:10090000D8F80010404601F00701A9420BD9016850
:1009100021F0070129430160006800F00700A842A8
:1009200001D00120E3E72078400705D57068E16831
:1009300020F4E060084370602078000706D57068F6
:10094000216920F4605040EAC100706000F038F87E
:100950007168084AC1F30311515CC8400649086038
:1009600006480068FFF710FF0020C0E700200240A3
:10097000001002406A260008040000202C0000201D
:100980000448054900684968044AC1F30221515CE2
:10099000C840704704000020001002407A2600087A
:1009A0000448054900684968044AC1F3C221515C02
:1009B000C840704704000020001002407A2600085A
:1009C00012A085B00FC88DE80F0014A0144B00686A
:1009D00004905968134801F00C02042A10D0082A28
:1009E0000ED1C1F38342C9031DF802000AD559682C
:1009F00004AAC1F34041515C0A4A5043B0FBF1F0F4
:100A000005B0704708494843FAE7000002030405AF
:100A1000060708090A0B0C0D0E0F1010010200004A
:100A20000010024000127A0000093D002DE9F84F45
:100A300004006FD02078BE4DC00747D06868C0F36F
:100A40008100012807D06868C0F38100022809D11D
:100A50006868C00306D52868800337D56068002819
:100A6000E7D033E06068B0F5803F0BD010B1B0F54F
:100A7000A02F11D0286820F480302860286820F446
:100A8000802002E0286840F480302860606888B1E7
:100A9000FFF75AFE064609E0286840F480202860E7
:100AA000F0E7FFF751FE801B642873D828688003A5
:100AB000F7D50BE0FFF748FE064604E0FFF744FEDB
:100AC000801B6428F1D828688003F7D42078DFF8E9
:100AD000648280074FF0010A4FF0000939D5686839
:100AE00010F00C0F07D06868C0F38100022809D10C
:100AF0006868C00306D42868800714D520690128D7
:100B000008D110E02069B0B1C8F800A0FFF71CFEC2
:100B1000064605E007E1FFF717FE801B0228C4D850
:100B200028688007F7D52868616920F0F80040EA56
:100B3000C10028600DE0C8F80090FFF705FE0646EA
:100B400004E0FFF701FE801B022823D828688007F5
:100B5000F7D4207800072CD57748A169D9B1C0F81F
:100B600000A0FFF7F1FD064604E0FFF7EDFD801B56
:100B700002280FD8686A8007F7D570484FF4FA51F9
:100B80000068B0FBF1F0009000BF0098411E00919A
:100B9000FAD20EE07CE0C0F80090FFF7D5FD0646E3
:100BA00004E0FFF7D1FD801B022871D8686A800736
:100BB000F7D4207840075BD5E8690027C00008D447
:100BC000E86940F08050E861E869012700F0805052
:100BD00000905B480168C90511D40168834641F45F
:100BE00080710160FFF7B0FD064604E0FFF7ACFD41
:100BF000801B64284CD8DBF80000C005F6D5E068FF
:100C000001280AD008B1052813D0286A20F0010075
:100C10002862286A20F0040002E0286A40F00100FF
:100C20002862E06841F2883B88B1FFF78DFD0646F7
:100C300009E0286A40F004002862EEE7FFF784FD2F
:100C4000811B59455BD8286A8007F7D50BE0FFF771
:100C50007BFD064604E0FFF777FD811B59454ED822
:100C6000286A8007F7D41FB1E86920F08050E86156
:100C7000E069A8B36968C1F38101022946D002285E
:100C8000484606D0C8F86000FFF75EFD044639E02C
:100C900035E04746C8F86000FFF756FD064604E019
:100CA000FFF752FD801B022829D828688001F7D45D
:100CB000206AB0F5803F05D16868A16820F4003053
:100CC00008436860D4E908010843696821F4741195
:100CD00008436860C7F860A0FFF736FD044605E0EA
:100CE00023E0FFF731FD001B022808D828688001A7
:100CF000F7D51AE0FFF728FD001B022802D90320D0
:100D0000BDE8F88F28688001F4D40EE00128F7D000
:100D10006868226A00F48031914204D1616A00F46B
:100D20007010884201D00120EAE70020E8E70000C7
:100D300000100240000042428004424204000020B1
:100D4000007000404FF0E0210428086903D020F033
:100D500004000861704740F00400FAE710B5401E37
:100D6000B0F1807F01D3012010BD4FF0E02460611D
:100D70000F21601701F0B0FA0020A0610720206168
:100D8000002010BD7047704710B5040003D094F8E0
:100D90003D0010B107E0012010BD002084F83C00A8
:100DA000204600F01FF8022084F83D00211D206835
:100DB00000F0F8FF012084F8460084F83E0084F833
:100DC0003F0084F8400084F8410084F8420084F831
:100DD000430084F8440084F8450084F83D00002076
:100DE00010BD000008B500680B49884212D10B48BD
:100DF000C16941F00401C161C069032200F004002F
:100E0000009001211E20FFF7EDFCBDE808401E20E8
:100E1000FFF7DBBC08BD00000008004000100240E6
:100E200090F83D10012901D001207047022180F87F
:100E30003D100168CA6842F00102CA6000680E49AC
:100E400088420ED00D4988420BD0B0F1804F08D0B7
:100E50000B49884205D00B49884202D00A49884292
:100E600004D1816801F00701062903D0016841F02F
:100E70000101016000207047002C01400034014056
:100E80000004004000080040000C0040704770B5AE
:100E90000446006801694FF00005C943890715D46D
:100EA000C168C943890711D4E91E01610120207777
:100EB000206880698007204602D0FFF7E7FF04E042
:100EC00000F098F8204600F08DF925772068016938
:100ED000C943490717D4C168C943490713D46FF000
:100EE00004010161022020772068806910F4407FAE
:100EF000204602D0FFF7CAFF04E000F07BF820464E
:100F000000F070F9257720680169C943090716D4F4
:100F1000C168C943090712D46FF0080101610420B8
:100F200020772068C0698007204602D0FFF7AEFF17
:100F300004E000F05FF8204600F054F925772068BF
:100F40000169C943C90617D4C168C943C90613D486
:100F50006FF010010161082020772068C06910F44B
:100F6000407F204602D0FFF791FF04E000F042F8F6
:100F7000204600F037F9257720680169C943C90781
:100F800008D1C168C943C90704D1891E016120463F
:100F900000F0C6F920680169C943090609D4C1688F
:100FA000C943090605D46FF0800101612046FFF7AF
:100FB000E9FE20680169C943490609D4C168C943EB
:100FC000490605D46FF040010161204600F0E4FAC3
:100FD00020680169C94389060BD4C168C9438906E1
:100FE00007D46FF0200101612046BDE87040FFF793
:100FF000CABE70BD704770B5044690F83C000D46FF
:1010000001280AD0012084F83C0042B1042A18D0FB
:10101000082A2AD00C2A4DD139E0022070BD206860
:1010200000F014FF2068816941F0080181612068A7
:10103000816921F004018161206881692A69114375
:1010400011E0206800F032FF2068816941F40061FE
:1010500081612068816921F48061816120688169F2
:101060002A6941EA0221816124E0206800F054FFEE
:101070002068C16941F00801C1612068C16921F09F
:101080000401C1612068C1692A69114311E0206827
:1010900000F076FF2068C16941F40061C1612068F9
:1010A000C16921F48061C1612068C1692A6941EA8E
:1010B0000221C161002084F83C0070BD10B504001D
:1010C00003D094F83D0010B107E0012010BD0020CE
:1010D00084F83C00204600F01FF8022084F83D0010
:1010E000211D206800F05EFE012084F8460084F88F
:1010F0003E0084F83F0084F8400084F8410084F802
:10110000420084F8430084F8440084F8450084F8E1
:101110003D00002010BD0000F0B5054600682C4CD5
:101120000226032785B0B0F1804F2AD1E06940F054
:101130000100E061E06900F001000490A06940F066
:101140000400A061A06900F004000490A06940F0D0
:101150000100A061A0691F4900F0010004904868E7
:1011600020F4407040F0E06040F440704860B0030C
:10117000CDE900060120CDE9020769461648FFF7D0
:10118000E1F91649286888421FD1E06940F0020061
:10119000E061E06900F002000490A06940F00800FE
:1011A000A061A06900F008000490A06940F001006F
:1011B000A061A069009600F0010001960296CDE9B9
:1011C000037069460648FFF7BDF905B0F0BD0000A1
:1011D00000100240000001400008014000040040EF
:1011E000000C01407047000010B5044649B10429C5
:1011F0000AD008290BD094F8410001280AD0012018
:1012000010BD94F83E00F8E794F83F00F5E794F835
:101210004000F2E7022081B3042932D0082933D0FC
:1012200084F841000122206800F002FE184A20687C
:101230001849904201D0884203D1436C43F40043E3
:101240004364206890420DD088420BD0B0F1804FAB
:1012500008D01149884205D01049884202D010496F
:10126000884204D1816801F00701062903D0016892
:1012700041F001010160002010BDFFE784F83E004D
:10128000D0E784F83F00CDE784F84000CAE70000CB
:10129000002C0140003401400004004000080040E0
:1012A000000C004030B504460D460068002200F0F6
:1012B000BFFD194941F2111220689310884202D0F3
:1012C0001649884209D1016A114206D1016A1942C0
:1012D00003D1416C21F4004141642068016A11424C
:1012E00006D1016A194203D1016821F001010160B0
:1012F00001203DB1042D08D0082D09D084F841000B
:10130000002030BD84F83E00FAE784F83F00F7E79C
:1013100084F84000F4E70000002C01400034014054
:101320002DE9F05F9149884276D1914D4021288B7B
:10133000401C28838F48FFF7FDF9DFF83CB2287086
:1013400010215846FFF7F6F96870AA782978012627
:1013500000244FF496774FF4FA738A4203D195F83C
:1013600003C084451DD009B9012A01D010B106E09F
:101370006E711EE095F803C0BCF1010F04D04FF070
:10138000020C012902D002E0AE710AE012B101287C
:1013900003D006E085F805C00FE0EA780AB985F8C1
:1013A00006C06A79012A04D0022A06D0012A0DD08B
:1013B00010E06A6A521C6A6209E06A6ABA4202DA9A
:1013C000EA79521CEA716C626C7103E06A6A9A42B3
:1013D00000DB6E72AA79012A02D0022A13D005E03E
:1013E000AA6A521CAA629A4200DBAE72A970E87027
:1013F000287E624FDFF88881DFF88891DFF888A1C6
:1014000080070AD05CE0AA6ABA4202DA2A7A521C41
:101410002A72AC62AC71E9E7A5E06879A979084362
:1014200028D0A889401C80B2A881192806D20122A0
:1014300004215846FFF783F901200BE00022042124
:101440005846FFF77CF90020FEF784FF0020FEF7E6
:1014500081FF0020FEF77EFF687918B1012280210C
:10146000444804E0A879C0B1012208215846FFF79A
:1014700066F912E0AC81002204215846FFF75FF9BB
:10148000002208215846FFF75AF9002280213948E6
:10149000FFF755F90020FEF75DFF3C483978072239
:1014A000817098F80010C17099F8001001719AF8D5
:1014B00000104171E97A81710146354800F014FA53
:1014C000288B4FF47A71B0FBF1F201FB1201E9BBFA
:1014D0002979032909D83E706421A8F8001089F8F9
:1014E0000060AAF80010E97209E03C70A8F800401A
:1014F00089F80040AAF80040EC7205212971297989
:10150000491C29712349097801B3698B491C89B2A7
:1015100069833C2903D1A98B491CA9836C83A98BBE
:101520000A2903D1AC83E98B491CE983E98B06299D
:1015300003D1EC83298C491C2984298C0A2903D1E5
:101540002C84698C491C6984698C00E002E00629BE
:1015500000D16C844EF66021B0FBF1F201FB120069
:10156000002800D12C83BDE8F09F000084010020FA
:1015700034000020000C014000080140150000204C
:101580001200002014000020160000200A00002095
:10159000D4000020000000207047704770B502683A
:1015A00004461068D168536910F00F0F52D003F051
:1015B000010501F490762E435FD0C20705D0CA051D
:1015C00003D5E26B42F00102E263420705D5DA0778
:1015D00003D0E26B42F00202E263820705D5DA072C
:1015E00003D0E26B42F00402E263020707D501F088
:1015F00020022A4303D0E26B42F00802E263E26B6E
:10160000002A33D0800604D5880602D5204600F093
:101610008DFD20684069E16BC0F38010090700D49C
:1016200028B3204600F074FD2068416949061AD5A8
:10163000416921F040014161606BA0B12D494163D6
:10164000606BFEF7E7FE002810D0606B416BBDE8D1
:1016500070400847830610D58B060ED52046BDE89E
:10166000704000F063BD2046FFF797FF70BD204635
:10167000FFF793FF0020E06370BD03062BD50B0638
:1016800029D594F839002128F6D1A068B0F5805FFB
:1016900001D12069B0B1206A411C21622168007823
:1016A0004860E08C401E0004000CE084E4D1206817
:1016B000C16821F08001C1602068C16841F040012B
:1016C000C16070BD206A0088C0F308005060206AC5
:1016D000801C2062E5E74006F3D54806F1D5D168C5
:1016E000204621F04001D160202184F8391000F01B
:1016F0001AF970BD0121000870B5040004D094F8F7
:101700003900002510B106E0012070BD84F8385082
:10171000204600F023F8242084F839002068C168AE
:1017200021F40051C160204600F046FD20680169A7
:1017300021F4904101612068416921F02A01416151
:101740002068C16841F40051C160E563202084F83D
:10175000390084F83A00002070BD000010B5006820
:101760001E4986B0884236D11D48816941F0040186
:101770008161816901F004010491816941F00401F2
:101780008161816901F004010491816941F4804122
:1017900081618069134C00F4804004904FF4007024
:1017A00000900220019001200290032003906946DE
:1017B0002046FEF7C7FE21150091002101916946E0
:1017C0002046FEF7BFFE2520FEF7FFFF032211464D
:1017D0002520FFF707F806B010BD000000380140D3
:1017E000001002400008014090F83A30202B22D12E
:1017F000F9B1F2B190F83830012B1CD081628285AA
:10180000C2850021C163222280F83A2080F8381076
:101810000168CA6842F48072CA6001684A6942F08D
:1018200001024A610068C16841F02001C1600020E6
:1018300070470120704702207047000070B50068B3
:101840002449884244D1244B0021585CEB280BD01A
:10185000491CC9B20A29F8D3BDE870401E490A22C2
:1018600001F10C00FFF7C0BF1B4C00204C340A18DC
:10187000092A01D89A5C02E01A4412F80A2C225470
:10188000401CC0B20A28F2D32078EB28E4D160785B
:10189000B028E1D1608840BA00F084FE0F4E314696
:1018A00000F0BEFD0E4D6860A08840BA00F07AFEE0
:1018B000314600F0B5FDA860A0790A49287094F976
:1018C00007000A8810440880208940BAE860C3E70E
:1018D00070BD000000380140C80000200000204119
:1018E000180000204200002090F83930202B18D139
:1018F000A9B1A2B190F83830012B12D001628284D4
:10190000C2840021C163212280F8392080F8381078
:101910000068C16841F08001C1600020704701206B
:101920007047022070477047FEE7FEE770470000EF
:1019300030B40021094B0A46002000EB800403EB81
:101940008404401CC0B262548028F6D3491CC9B23A
:101950001429F1D330BC00F011B90000CC010020F3
:1019600028B1012806D10021A72000F0BBB9002131
:10197000A620FAE77047000010B5C30800F0070082
:1019800001248440E0B2084C01EB810104EB8101A9
:10199000002ACA5C02D00243CA5410BD60EA0202A7
:1019A000D043C85410BD0000CC010020F0B5384829
:1019B00085B0816941F008018161816901F0080108
:1019C0000491816941F008018161816901F0080198
:1019D0000491816941F008018161816901F0080188
:1019E0000491816941F004018161816901F0040180
:1019F0000491816941F0040181618069012400F052
:101A0000040004902020CDE90004224E03256946FD
:101A100003953046FEF796FD012220213046FEF761
:101A20008EFE8020CDE90004694603953046FEF71E
:101A300089FD012280213046FEF781FEA602164F65
:101A4000CDE90064694638460395FEF77BFD012227
:101A500031463846FEF773FE0220CDE900046946A0
:101A600003953846FEF76EFD012202213846FEF747
:101A700066FE00946946384603950194FEF762FDC0
:101A8000012211463846FEF75AFE05B0F0BD0000AF
:101A90000010024000080140000C014010B5FFF7A3
:101AA00085FF354C002202212046FEF748FEC82063
:101AB00000F032FC012202212046FEF740FE002108
:101AC000AE2000F00FF90021812000F00BF9002179
:101AD000D02000F007F90021A42000F003F9002134
:101AE000A62000F0FFF80021A92000F0FBF800215B
:101AF000022000F0F7F80021AD2000F0F3F80021FB
:101B0000802000F0EFF80021C82000F0EBF8002161
:101B1000A02000F0E7F80021D52000F0E3F8002134
:101B2000402000F0DFF80021D92000F0DBF8002190
:101B30002F2000F0D7F80021DB2000F0D3F800219F
:101B40003F2000F0CFF80021202000F0CBF800214A
:101B5000DC2000F0C7F80021352000F0C3F8002198
:101B6000302000F0BFF8FFF7E3FE0021BDE8104091
:101B7000AF2000F0B7B80000000C014070B5124E65
:101B800000250021B02000F0ADF80021284600F02B
:101B9000A9F80021084600F0A5F80021112000F066
:101BA000A1F8002404EB840006EB80000121405DD5
:101BB00000F098F8641CE4B2802CF3D36D1CEDB2F5
:101BC000142DDED370BD0000CC0100202DE9FC4FA8
:101BD0001D46884681468B460090082B0DD068072D
:101BE00000D0012000EBD50069084843C0B2203A7C
:101BF00002F0FF0A0026019046E00620F7E7082DD4
:101C000010D00C2D14D0102D16D0182D3FD12249F4
:101C10000AEBCA0001EB80000027845DE0070FD0CB
:101C20000B9A10E01D490AEB4A0001EB4000F3E774
:101C30000AEB4A001A49EDE71A4901EB0A10EBE7F3
:101C40000B9830B3002241464846FFF795FE7F1CB3
:101C5000640808F10100FFB200F0FF08082FDDD38F
:101C600009F1010000F0FF09082D0AD00099A9EB45
:101C70000100B0EB550F04D10BF10800894600F0CC
:101C8000FF0B761CD846F6B201988642B7D3BDE862
:101C9000FC8F0122D7E700000E33000882260008DF
:101CA000AA2800081E2D00082DE9F8411E461546F9
:101CB00088460446079F0BE033464146204600977E
:101CC000FFF784FF082E0AD004EB5600C4B26D1C47
:101CD0002A78A2F120005E28EED9BDE8F881A41D83
:101CE000E4B2F4E72DE9F0411B4F054609B10122AA
:101CF00000E0002201213846FEF721FD4FF4806804
:101D0000002241463846FEF71AFD144E00240022F8
:101D100020213046FEF713FD280601D5012200E000
:101D2000002280213046FEF70AFD012220213046A4
:101D3000FEF705FD6806641C050EE4B2082CE6D328
:101D4000012241463846FEF7FAFC3846BDE8F0412C
:101D500001221146FEF7F3BC000C014000080140CF
:101D600070477047FEF7F6BC704700000148FFF768
:101D70008EB8000084010020094A10B5074BC2E963
:101D800000310021C2E9021010461161FEF7FCFF8C
:101D9000BDE810400248FFF743B8000000080040CB
:101DA00084010020F0B502681C4D1D4E1D4FDFF868
:101DB00078C01E4B4FF0804EA84209D0984207D001
:101DC000704505D0B04203D0B84201D0604503D180
:101DD00022F070044A682243A84209D0984207D0F2
:101DE000704505D0B04203D0B84201D0604503D160
:101DF00022F44074CA6822434C6922F080022243D4
:101E000002608A68C2620A688262A84201D098426F
:101E100001D10969016301214161F0BD002C01403C
:101E20000004004000080040000C00400034014065
:101E300010B501F01F010123046A8B409C4304622A
:101E4000036A8A401343036210BD0000F0B5026AC2
:101E500022F001020262026A43688469114E24F092
:101E600073050C68104F2C4322F002058A682A4340
:101E7000B04201D0B84205D122F00805CA682A4311
:101E800022F00402B04201D0B84205D14D6923F4DA
:101E900040731D438B692B434360846149684163F0
:101EA0000262F0BD002C014000340140F0B5026A2E
:101EB00022F010020262026A436884690D6824F409
:101EC000E64444EA05248D6822F0200242EA051225
:101ED0000F4D104EA84201D0B04206D1CF6822F07B
:101EE000800242EA071222F04002A84201D0B0422A
:101EF00007D14D6923F4406343EA85038D6943EAC2
:101F0000850343608461496881630262F0BD00001B
:101F1000002C014000340140F0B5026A22F48072C6
:101F20000262026A4368C46922F4007224F07305F5
:101F30000C68124E2C438D6842EA05220E4DA842D1
:101F400001D0B04206D1CF6822F4006242EA0722F3
:101F500022F48062A84201D0B04207D14D6923F437
:101F6000405343EA05138D6943EA05134360C46196
:101F70004968C1630262F0BD002C01400034014099
:101F800030B5026A22F480520262036A4268C46970
:101F90000D6824F4E64444EA05248D6823F40053D4
:101FA00043EA0533084DA84202D0084DA84204D1A7
:101FB0004D6922F4804242EA85124260C461496858
:101FC0000164036230BD0000002C01400034014078
:101FD0000EB5FFF7ADFC0120FFF7C2FCFFF7CEFD09
:101FE000322000F099F9FFF7A3FC0020FFF7B8FCBE
:101FF0000C480DA3C27A90F84C10CDE90032029142
:10200000B0F84A30B0F84820B0F846100020FEF78B
:10201000E9F9FFF7B3FDBDE80E404FF47A7000F028
:102020007BB90000600000205445535400000000BC
:102030002DE9F0412E4C86B0A06940F00100A0616E
:10204000A06900F001000490A06940F00800A061C0
:10205000A069284900F008000490486820F0E0607A
:1020600040F0007048604020002701250326CDE99C
:102070000007DFF88480CDE9025669464046FEF746
:1020800061FAA06940F00400A061A069CDE90256A0
:1020900000F0040004901020CDE90007174F6946B6
:1020A0003846FEF74FFAA06940F00400A061A0692D
:1020B000CDE9025600F0040004900820CDE90005A7
:1020C00069463846FEF73EFAA06940F00800A06174
:1020D000A069CDE9025600F0080004908020CDE907
:1020E000000569464046FEF72DFA06B0BDE8F081CE
:1020F0000010024000000140000C014000080140B7
:1021000010B5406A0021C185C184FFF746FA10BDB1
:102110000168CA6822F49072CA6001684A6922F0B4
:1021200001024A61202180F83A10704710B590F8FA
:102130003A10222901D0022010BD81684FF480534B
:10214000994201D1026922B1826A99421BD049B1F8
:102150000AE00268816A5268C2F308020A80816A52
:10216000891C08E0016971B10168496801F07F01CB
:102170001170816A491C8162C18D491E0904090CD4
:10218000C18503D016E001684968F1E70168CA68B3
:1021900022F02002CA600168CA6822F48072CA6014
:1021A00001684A6922F001024A61202180F83A1050
:1021B000FFF744FB002010BD70B5044600680169BC
:1021C000E26821F4405111430161A1682069014393
:1021D000606901432068C26841F20C639A430A4374
:1021E000C26020684169A26921F4407111434161D4
:1021F0001E492068884202D1FEF7D2FB01E0FEF7BB
:10220000BFFB00EBC00101EB00116068642280009D
:10221000B1FBF0F3B3FBF2F36FF018067343B1FBBD
:10222000F0F5B1FBF0F605EB8305322303EB051562
:10223000B5FBF2F5B6FBF2F605F0F00505EB061579
:10224000B1FBF0F6B1FBF0F0B0FBF2F06FF018016B
:10225000484306EB800003EB0010B0FBF2F021686E
:1022600000F00F002844886070BD00000038014075
:102270000148FFF793B90000D4000020FEE70000FA
:10228000134800B5C16985B041F00101C161C16960
:1022900001F001010491816941F0040181618169CA
:1022A00001F004010491816941F0010181618069BB
:1022B000694600F001000490042000900120019084
:1022C0000290032003900348FEF73CF905B000BDDF
:1022D00000100240000801400907090E002804DB35
:1022E00000F1E02080F80014704700F00F0000F1CA
:1022F000E02080F8141D704710B54FF0E022002157
:10230000044611610846FEF71DFD0249E0080880F9
:1023100010BD0000080000204FF47A7170B5B0FBCA
:10232000F1F2B0FBF1F401FB1205094E03E0304677
:1023300000F010F8641E002CF9D1002D06D04FF4E7
:102340007A706843BDE8704000F004B870BD0000CA
:1023500040420F000B49098848434FF0E021486193
:1023600000238B61086940F0010008610869C20719
:1023700001D0C003FAD5086920F0010008618B6123
:102380007047000008000020FDF7F2FFFFF720FE75
:10239000FCE770B590B0064628216846FDF755FF6A
:1023A00014210AA8FDF751FF0120010400248DE843
:1023B000130002250996CDE907516846FEF736FB62
:1023C00000B1FEE70F20CDE90A054FF48060CDE9AA
:1023D0000C4002210AA80E94FEF736FA002800D01D
:1023E000FEE710B070BD00000C4910B50A4AC1E903
:1023F000002000208860C860086188610C20486166
:102400000846FFF779F905490A22BDE810400C3962
:102410000248FFF7E9B9000000380140D40000206D
:102420004FF47F0C1CEAD0121EBF1CEAD11392EAB3
:102430000C0F93EA0C0F00F0858090EA010F48BF63
:1024400042F4807240F4000C41F400002CF07F4113
:1024500020F07F4000B58142A2EB03020FF2081C7E
:10246000ACEB504EC0F100009EF800E04FEA4E0E7B
:1024700000FB0EFC38BF49004FEA2C1C02F5FA02A3
:102480000CFB0EF34FEACE1E4FEA112C4FEAC1218E
:102490000EEB635E42EB22420EFB0CFC4FEA1C5338
:1024A00000FB03114FEA112C4FEA01310EFB0CFC2B
:1024B0004FEADC4C00FB0C11C14228BF09184CEB61
:1024C00003335DF804EB10EB410143EBC250B2F56E
:1024D0007C0F38BF704729D512F0F00F1CBF00F1F8
:1024E000C04000F000407047008182838485868769
:1024F00088898B8C8D8E8F919293959697999A9CC3
:102500009D9FA0A2A3A5A7A8AAACAEB0B2B3B5B731
:10251000B9BCBEC0C2C5C7C9CCCED1D4D7D9DCDF07
:10252000E2E6E9ECF0F3F7FAFE0000004FEA400CB7
:102530000CF1807CBCF17E4F28BF7047B0F1C040E9
:1025400000F08EB890EA010F0CEAD11348BF42F4B4
:102550008072624538BF634507D213F47F0F16D0EF
:1025600080EA010000F00040704710B500F032F83A
:10257000097EFC3E00F005B880EA010000F0004052
:10258000704780EA010000F0004000F069B812F4E2
:102590007F0F04BF0248704780EA010000F060B876
:1025A0000000C07F10F0004148BF4042B0FA80F305
:1025B00010FA03F2C3F19D030BD051EAC35101EBB2
:1025C0001220530638BF704700F1010008BF20F009
:1025D000010070470EF1020E2EF0030E5EF8044B60
:1025E000244204D44FEA4102B2F17F4F11D84FEA9E
:1025F0004003B3F17F4F0CD80ED14FEAD07CB2F13B
:102600007F4F0CEB4C0C0CF1020C08BF4CEBD17C57
:1026100004E04FF0080C01E04FEAD17C0CEB4C03D6
:1026200024FA03F404F00704B4F1040C06D20EEB10
:10263000840CBDE810404CF0010C6047DFE80CF062
:10264000070802024FF00040A0F5800010BD0846C8
:10265000420018BFD2F1807288BF00F0004010BD68
:10266000FF2141EAD050C005704700000000000083
:10267000000001020304060708090000000001022F
:1026800003040000000000000000002F0000000014
:102690000700070000147F147F1400242A7F2A12E9
:1026A00000626408132300364955225000000503D8
:1026B000000000001C224100000041221C00001408
:1026C000083E08140008083E0808000000A060004A
:1026D00000080808080800006060000000201008DA
:1026E0000402003E5149453E0000427F4000004246
:1026F00061514946002141454B31001814127F10A9
:10270000002745454539003C4A49493000017109D7
:10271000050300364949493600064949291E00008B
:102720003636000000005636000000081422410032
:102730000014141414140000412214080002015162
:10274000090600324959513E007C1211127C007F6B
:1027500049494936003E41414122007F4141221C06
:10276000007F49494941007F09090901003E41496B
:10277000497A007F0808087F0000417F410000205F
:1027800040413F01007F08142241007F404040400B
:10279000007F020C027F007F0408107F003E414151
:1027A000413E007F09090906003E4151215E007F3C
:1027B000091929460046494949310001017F0101B3
:1027C000003F4040403F001F2040201F003F403856
:1027D000403F006314081463000708700807006195
:1027E0005149454300007F41410000552A552A5573
:1027F000000041417F00000402010204004040400B
:102800004040000001020400002054545478007F2E
:102810004844443800384444442000384444487F05
:1028200000385454541800087E0901020018A4A46A
:10283000A47C007F080404780000447D4000004030
:1028400080847D00007F102844000000417F40000C
:10285000007C04180478007C0804047800384444A0
:10286000443800FC242424180018242418FC007C7C
:102870000804040800485454542000043F444020F5
:10288000003C4040207C001C2040201C003C40308C
:10289000403C004428102844001CA0A0A07C004418
:1028A00064544C4414141414141400000000000068
:1028B0000000000000000000FC000000000002001A
:1028C0000000000C020C020000000000000090D08C
:1028D000BCD0BC900003000300001824FE448C0010
:1028E0000302070201001824D8B04C800003000145
:1028F0000201C038E438E0000102020102020806C9
:1029000000000000000000000000000000F80402C9
:10291000000000010204000204F8000000040201AB
:1029200000009060F860900000000100000020208E
:10293000FC2020000000010000000000000000005A
:1029400008060000000020202020200000000000D9
:1029500000000000000000000002000000000080F5
:10296000601C0200040300000000F8040404F800E6
:102970000102020201000008FC0000000002030244
:102980000000188444241800030202020200080414
:102990002424D80001020202010040B088FC80001B
:1029A0000000000302003C242424C40001020202AF
:1029B0000100F824242CC0000102020201000C04D2
:1029C000E41C0400000003000000D8242424D800E4
:1029D00001020202010038444444F80000030202EC
:1029E00001000000100000000000020000000000D4
:1029F00020000000000006000000002050880402B3
:102A000000000000010290909090900000000000F3
:102A10000000000204885020000201000000180499
:102A2000C4241800000002000000F804E494F80038
:102A300001020202020000E09CF08000020300009C
:102A4000030204FC2424D800020302020100F8045B
:102A500004040C0001020202010004FC0404F8005A
:102A600002030202010004FC24740C0002030202AF
:102A7000030004FC24740C00020302000000F008B0
:102A80000444CC4000010202010004FC2020FC04AC
:102A90000203000003020404FC0404000202030217
:102AA0000200000404FC040406040403000004FC07
:102AB00024D00C0402030200030204FC0400000002
:102AC000020302020203FC3CC03CFC0003000300C2
:102AD000030004FC30C4FC04020302000300F804F9
:102AE0000404F80001020202010004FC242418007E
:102AF000020302000000F8848404F80001020207C7
:102B0000050004FC24649800020302000302182458
:102B100024448C000302020201000C04FC040C009B
:102B200000020302000004FC0000FC040001020299
:102B30000100047C80E01C040000030000001CE095
:102B40003CE01C00000300030000049C609C0400A7
:102B5000020300030200041CE01C04000002030244
:102B600000000C84641C0400020302020300000045
:102B7000FE020200000007040400000E30C0000046
:102B8000000000010200000202FE00000004040731
:102B9000000000040204000000000000000000002B
:102BA00000000000080808080808000002000000F3
:102BB0000000000000000040A0A0C00000010202D0
:102BC000030204FC2020C00000030202010000C038
:102BD0002020600000010202020000C02024FC004E
:102BE00000010202030200C0A0A0C0000001020216
:102BF00002000020F8242404000203020200004026
:102C0000A0A0602000070A0A0A0404FC2020C000DB
:102C10000203020003020020E4000000000203029D
:102C20000000000020E4000008080807000004FC81
:102C300080E020200203020003020404FC000000E4
:102C4000020203020200E020E020C00003000300B3
:102C5000030020E02020C00002030200030200C0A5
:102C60002020C00000010202010020E02020C0005E
:102C7000080F0A02010000C02020E0000001020A43
:102C80000F0820E040202000020302000000006046
:102C9000A0A020000002020203000020F820000093
:102CA00000000102020020E00020E000000102021A
:102CB000030220E02080602000000301000060800B
:102CC000E0806000000300030000206080602000BE
:102CD00002030003020020E02080602008080701B2
:102CE00000000020A060200000020302020000009B
:102CF00020DE0200000000070400000000FF0000CA
:102D00000000000F00000002DE20000000040700A9
:102D100000000201020404020000000000000000A4
:102D200000000000000000000000000000000000A3
:102D300000F8000000000000003330000000001028
:102D40000C06100C0600000000000000000040C04F
:102D50007840C0784000043F04043F040400007041
:102D600088FC08300000001820FF211E0000F00839
:102D7000F000E018000000211C031E211E0000F0DE
:102D80000888700000001E21232419272110101626
:102D90000E00000000000000000000000000000025
:102DA00000E01804020000000007182040000002A4
:102DB0000418E00000000040201807000000404018
:102DC00080F0804040000202010F0102020000007A
:102DD00000F0000000000101011F010101000000DE
:102DE00000000000000080B0700000000000000043
:102DF00000000000000000010101010101010000CC
:102E00000000000000000030300000000000000062
:102E1000000080601804006018060100000000E057
:102E200010080810E000000F102020100F00001004
:102E300010F8000000000020203F2020000000705B
:102E40000808088870000030282422213000003053
:102E50000888884830000018202020110E0000004B
:102E6000C02010F8000000070424243F240000F8CC
:102E70000888880808000019212020110E0000E0B1
:102E8000108888180000000F112020110E00003853
:102E90000808C83808000000003F0000000000706B
:102EA000880808887000001C222121221C0000E0F4
:102EB00010080810E0000000312222110F0000006D
:102EC00000C0C00000000000003030000000000022
:102ED0000080000000000000806000000000000092
:102EE000804020100800000102040810200040402B
:102EF000404040404000040404040404040000086E
:102F00001020408000000020100804020100007022
:102F100048080808F0000000003036010000C0300A
:102F2000C828E810E0000718272423140B0000002D
:102F3000C038E0000000203C23020227382008F8B7
:102F4000888888700000203F202020110E00C030AB
:102F5000080808083800071820202010080008F882
:102F600008080810E000203F202020100F0008F87B
:102F70008888E8081000203F20202320180008F847
:102F80008888E8081000203F200003000000C030BF
:102F900008080838000007182020221E020008F840
:102FA00008000008F808203F210101213F20000807
:102FB00008F8080800000020203F20200000000042
:102FC0000808F8080800C08080807F00000008F82A
:102FD00088C028180800203F20012638200008F863
:102FE000080000000000203F20202020300008F8CA
:102FF000F800F8F80800203F003F003F200008F8E4
:1030000030C00008F808203F200007183F00E010FB
:1030100008080810E0000F10202020100F0008F80A
:1030200008080808F000203F210101010000E0101D
:1030300008080810E0000F18242438504F0008F842
:10304000888888887000203F2000030C30200070A2
:103050008808080838000038202121221C001808A0
:1030600008F8080818000000203F2000000008F8B9
:1030700008000008F808001F202020201F00087802
:10308000880000C83808000007380E010000F80862
:1030900000F80008F800033C0700073C030008188C
:1030A00068808068180820302C03032C30200838F2
:1030B000C800C83808000000203F200000001008A9
:1030C0000808C838080020382621202018000000F1
:1030D00000FE020202000000007F40404000000CA1
:1030E00030C000000000000000010638C0000002EF
:1030F0000202FE000000004040407F00000000008F
:1031000004020202040000000000000000000000B1
:1031100000000000000080808080808080800002AD
:103120000204000000000000000000000000000099
:103130008080808000000019242222223F2008F88D
:10314000008080000000003F112020110E000000D0
:10315000008080800000000E11202020110000005F
:1031600000808088F800000E112020103F20000011
:10317000808080800000001F222222221300008015
:1031800080F0888888180020203F20200000000060
:10319000808080808000006B94949493600008F895
:1031A000008080800000203F210000203F20008020
:1031B0009898000000000020203F20200000000020
:1031C00000809898000000C08080807F000008F890
:1031D000000080808000203F24022D302000000865
:1031E00008F8000000000020203F20200000808020
:1031F000808080808000203F20003F20003F808032
:10320000008080800000203F210000203F2000003F
:10321000808080800000001F202020201F008080F0
:1032200000808000000080FFA12020110E0000001F
:10323000008080808000000E112020A0FF80808010
:1032400080008080800020203F21200001000000BD
:103250008080808080000033242424241900008092
:1032600080E0808000000000001F2020000080809F
:10327000000000808000001F202020103F20808060
:1032800080000080808000010E30080601008080F0
:103290000080008080800F300C030C300F00008015
:1032A0008000808080000020312E0E312000808040
:1032B00080000080808080818E7018060100008070
:1032C0008080808080000021302C2221300000008E
:1032D0000000807C020200000000003F404000002F
:1032E0000000FF00000000000000FF0000000002DE
:1032F000027C800000000040403F0000000000060B
:1033000001010202040400000000000000000000AF
:1033100000000000000000000000000000000000AD
:10332000000000000000000000000000000000009D
:1033300000000000000000F0F0F0000000000000BD
:10334000000000017F010000000000000000001CE0
:103350001C1C0000000000008060301C8C60301CD1
:103360000C00000000000000000000000000000051
:1033700000000000000000000000000000E000006D
:10338000000000E000000086E69F86868686E69FB5
:10339000860000011F01010101011F010100000061
:1033A00080C06020F820E0C00000000003070C1877
:1033B000FF70E18100000000070F10107F100F0761
:1033C00000008060206080000000E02000000F30DE
:1033D00020309F70DC371030C0000000100E03005A
:1033E0000718101807000000C02020E0C0000000EF
:1033F000000080E01F38E88703C43C040000070F8A
:103400001810100B070D1010080000808C4C3800AD
:1034100000000000000000000000000000000000AC
:10342000000000000000000000000000000000009C
:103430000000000080E0300804000000000000FEF2
:10344000FF0100000000000000000000030F182032
:10345000400000040830E080000000000000000090
:10346000000001FFFE0000000000004020180F03D4
:10347000000000000000000000000000C00000008C
:103480000000004266663C18FF183C666642000079
:103490000000000003000000000000000000000029
:1034A000800000000000001010101010FF1010101D
:1034B00010100000000000000300000000000000E9
:1034C00000000000000000000000000000000000FC
:1034D00000000000000000808C4C3800000000005C
:1034E00000000000000000000000000000000010CC
:1034F000101010101010101010000000000000003C
:1035000000000000000000000000000000000000BB
:1035100000000000000000000000000000000000AB
:103520001C1C1C0000000000000000000000000047
:103530000000E0380C000000000080701C03000058
:1035400000000060380E01000000000000000000D4
:1035500080C060202060C080000000FEFF010000ED
:10356000000001FFFE000001070E181010180E07E2
:1035700001000000808080C0E0000000000000002A
:10358000000000FFFF000000000000001010101FEE
:103590001F10101000000080402020202060C080FC
:1035A000000000030300804020381F070000001CBB
:1035B0001A1918181818181F00000080C0202020A1
:1035C00060C080000000000303001010182FE78087
:1035D000000000070F10101010180F070000000067
:1035E00000000000C0E0F000000000C0B08886814C
:1035F00080FFFF808000000000000010101F1F10DF
:1036000010000000E060606060606060000000002A
:103610003F1008080818F0E0000000070B10101019
:10362000101C0F030000000080C040202020E0C0DC
:10363000000000FCFF211008080818F0E00000015D
:10364000070C18101010080F03000000C0E06060A5
:10365000606060E06000000003000000E018070008
:10366000000000000000001F1F000000000000809C
:10367000C0602020202060C080000087EF2C181838
:10368000303068CF830000070F0810101010180F9B
:1036900007000000C0C020202020C0800000001FC4
:1036A0003F604040402010FFFE0000000C1C101046
:1036B00010080F03000000000000000000000000E0
:1036C000000000000000000E0E0E000000000000D0
:1036D0000000001C1C1C0000000000000000000096
:1036E00000000000000000000000000C0C000000C2
:1036F000000000000000005838000000000000003A
:1037000000000000008040201000000010284482CB
:103710000100000000000000000000000102040899
:103720001000000000000000000000000000008405
:1037300084848484848484848400000000000000E5
:103740000000000000000000102040800000000089
:10375000000000000000000001824428100000006A
:103760001008040201000000000000C0202010101A
:10377000101030E0C0000003030000F010080C0738
:103780000300000000001C1C1C00000000000000E2
:1037900000C0406020202040C00000FCFF01F00E6F
:1037A00003C1FE03807F0001070E081111101109EB
:1037B00004020000000080E0E000000000000000C3
:1037C000807C4340477FF880000010181F100000E5
:1037D0000000131F1C1020E0E02020202060C0808B
:1037E000000000FFFF10101010182FE78000101FBE
:1037F0001F1010101010180F0700000080C040208C
:1038000020202060E00000FCFF010000000000001C
:1038100001000001070E181010100804030020E03A
:10382000E02020202040C080000000FFFF000000BA
:10383000000001FFFE00101F1F10101018080E07D7
:10384000010020E0E020202020202060800000FFF8
:10385000FF101010107C00000000101F1F1010102F
:1038600010101018060020E0E020202020206060CA
:10387000800000FFFF101010107C00000100101FDE
:103880001F100000000000000000000080C0602049
:10389000202040E0000000FCFF0100004040C0C1CB
:1038A00040400001070E181010100F0F000020E01C
:1038B000E0200000000020E0E02000FFFF101010DA
:1038C000101010FFFF00101F1F1000000000101F3D
:1038D0001F100000202020E0E02020200000000039
:1038E000000000FFFF000000000000001010101F8B
:1038F0001F101010000000000000202020E0E02039
:10390000202000000000000000FFFF000000006019
:10391000E0808080C07F3F00000020E0E0200000C9
:1039200020A06020200000FFFF30187CE3C00000D2
:103930000000101F1F10000001131F1C181020E0B2
:10394000E020000000000000000000FFFF00000079
:10395000000000000000101F1F10101010101018A1
:10396000060020E0E0E000000000E0E0E02000FFD2
:10397000013FFEC0E01E01FFFF00101F1000031FEB
:103980000300101F1F1020E0E0C000000000002016
:10399000E02000FF0003071C78E08000FF00101FFC
:1039A000100000000000030F1F00000080C0602016
:1039B0002060C080000000FEFF010000000000FF4A
:1039C000FE000001070E181010180C07010020E07F
:1039D000E0202020202060C0800000FFFF20202069
:1039E0002020301F0F00101F1F10000000000000DB
:1039F0000000000080C060202060C080000000FE49
:103A0000FF010000000000FFFE000001070E111181
:103A1000133C7C67210020E0E0202020202060C0B3
:103A2000800000FFFF101030F0D0080F0700101FBB
:103A30001F10000000030F1C10100080C060202029
:103A400020204040E00000070F0C1818303060E0E4
:103A50008100001F0C0810101010180F0700806064
:103A6000202020E0E020202060800100000000FFF6
:103A7000FF000000000100000000101F1F100000E8
:103A8000000020E0E020000000000020E02000FF17
:103A9000FF00000000000000FF0000070F181010DA
:103AA0001010100807002060E0E02000000020E077
:103AB00060200000077FF88000807C030000000089
:103AC0000000071F1C070000000020E0E02000E0CD
:103AD000E0200020E0200007FFF8E01FFFFCE01FCF
:103AE00000000000031F0300011F0300000000206E
:103AF00060E0A0000020E0602000000000038F7C58
:103B0000F8C6010000000010181E130001171F184E
:103B100010002060E0E02000000020E060200000B5
:103B200001073EF8E0180700000000000010101F19
:103B30001F101000000000806020202020A0E0E086
:103B4000200000000000C0F03E0F03000000001045
:103B50001C1F17101010101806000000000000FCB9
:103B60000404040404000000000000FF0000000042
:103B7000000000000000007F404040404000000086
:103B800010E0000000000000000000000000031C26
:103B900060800000000000000000000000030C70C6
:103BA000800000000404040404FC00000000000085
:103BB0000000000000FF0000000000004040404006
:103BC000407F0000000000000010080C040C0810EA
:103BD00000000000000000000000000000000000E5
:103BE00000000000000000000000000000000000D5
:103BF00000000000000000000000000000000000C5
:103C000000008080808080808080808080800000B4
:103C1000000404080800000000000000000000008C
:103C20000000000000000000000000000000000094
:103C30000000000000000000000000000000000084
:103C400098D844642424FCF80000000F1F181010BA
:103C500010081F1F10180020E0F0000000000000F6
:103C600000000000FFFF180804040CF8F00000003A
:103C70001F0F18101010180F0300000000000000A4
:103C800000000000000000E0F8180404043C3800C4
:103C9000000000030F0C10101010080600000000B8
:103CA000000000000020E0F0000000E0F81C040428
:103CB0000408FFFF000000030F18101010081F0F6A
:103CC00008000000000000000000000000000000EC
:103CD000E0F8484444444C7870000000030F0C188E
:103CE0001010100804000000000080C0602020E0D8
:103CF000C00000040404FFFF0404040400000000EA
:103D000010101F1F10101000000000000000000025
:103D1000000000000000000070F88C04048CF874AF
:103D2000040C007076CF8D8D8D89C87870000020CE
:103D3000E0F000000000000000000000FFFF0804A9
:103D40000404FCF8000000101F1F100000101F1FCB
:103D50001000000000000060600000000000000093
:103D6000040404FCFC000000000000001010101F00
:103D70001F10101000000000000000000060600034
:103D8000000000000000040404FCFC00000000002F
:103D9000C0C08080C07F3F0000000020E0F0000035
:103DA0000000000000000000FFFF80C0F41C0404BD
:103DB000000000101F1F1100031F1C101000000046
:103DC000202020E0F000000000000000000000FFC4
:103DD000FF000000000000001010101F1F10101046
:103DE000000000000000000000000000000004FCD3
:103DF000FC0804FCFC0804FCFC00101F1F10001F42
:103E00001F10001F1F100000000000000000000035
:103E100000000004FCFC08080404FCF8000000108A
:103E20001F1F100000101F1F1000000000000000E6
:103E300000000000000000E0F0180C04040C18F072
:103E4000E00000030F0C101010100C0F0300000016
:103E5000000000000000000000000004FCFC08045A
:103E600004040CF8F0000080FFFF889010101C0F75
:103E7000030000000000000000000000000000E05F
:103E8000F81C04040408F8FC000000030F181010CC
:103E90009088FFFF8000000000000000000000008C
:103EA0000000040404FCFC100804040C0C001010B6
:103EB000101F1F1010100000000000000000000084
:103EC00000000000000000003078CCC48484840C22
:103ED0001C0000001E1810101011190F0600000021
:103EE000000000C000000000000000040404FFFF08
:103EF000040404000000000000000F1F1010100C4C
:103F000000000000000000000000000000000004AD
:103F1000FCFE00000004FCFE000000000F1F181053
:103F200010081F0F08000000000000000000000043
:103F3000000000040C3CFCC40000C43C0C04000065
:103F40000000010F1E0E0100000000000000000034
:103F5000000000000000043CFCC400E47CFC848001
:103F60007C040000071F070000071F070000000077
:103F7000000000000000000000000004041C7CE4BD
:103F8000C0341C0404000010101C1601131F1C1860
:103F9000100000000000000000000000000000040D
:103FA0000C3CFCC400C43C0404000000C080C137C9
:103FB0000E010000000000000000000000000000F2
:103FC000000000001C0404C4F47C1C040000000079
:103FD000101C1F17111010180E0000000000000028
:103FE00000F80C04000000000000001028EF0000A2
:103FF0000000000000000000003F604000000000E2
:1040000000000000FF0000000000000000000000B1
:10401000FF0000000000000000000000FF000000A2
:1040200000000000040CF800000000000000000088
:104030000000EF28100000000000000040603F007A
:1040400000000000000000180602020408102020F2
:104050003008000000000000000000000000000028
:10406000000000000000000000000000F010101030
:1040700010FF10101010F000000000000F040404E6
:1040800004FF040404040F0000004040405F555545
:1040900055755555555F404040000040200F094977
:1040A00089790909090F2040000000FE02424ACA2E
:1040B0004A4ACA4A4A4202FE000000FF40504C43AE
:1040C00040404F50505C40FF00000000F888888856
:1040D00088FF88888888F800000000001F0808080A
:1040E000087F888888889F80F00080828282828210
:1040F00082E2A2928A868280800000000000004056
:10410000807F0000000000000000101010FF1090E1
:1041100008888888FF88888808000444827F018096
:104120008040432C1028468180000010101010D0D1
:1041300030FF30D0121C10100000100804020100E3
:1041400000FF000001020408100004040484E43CA1
:104150002724242424E40404040004020100FF09A9
:1041600009090949897F0000000000FE225A8600E3
:10417000FE9292929292FE00000000FF0408070057
:10418000FF4020030C14224140000080402018060C
:1041900080000718204080000000010020702826C1
:1041A0002120202438600001010000101292929218
:1041B000929292121202FE0000000000003F1010C6
:1041C00010103F0040807F000000000000C0808091
:1041D0008080808080FC84808080808080C0C0005F
:1041E0000000000000FF7F404040404040FF404052
:1041F0004040404040FF7F00000000000000000001
:1042000000000000007F70000000000000000000BF
:10421000000000000000000000000000000000009E
:1042200000FCF8000000000000000000000000009A
:10423000000000000000FFFE020202020202020271
:1042400002FFFF020202020202020202FF0300005A
:104250000000000000001F1F040404040404040400
:1042600004FFFF0404040404040404041F00000009
:10427000000000000000000000000000000000003E
:10428000007F3F0000000000000000000000000070
:10429000000000000000000000000000000000001E
:1042A000000000000000000000000000000000F816
:1042B000F8F0F07020000000000000000000000096
:1042C00000000000000000000000000000000000EE
:1042D000000000000000000000008000000000005E
:1042E000000000000000000000000000000000FFCF
:1042F000FFFFFF00000000000000000000000000C1
:1043000000000000000080800000000000000000AD
:104310000000000000000000000000FFFFFE060695
:10432000060606060606060606060606060606FF34
:10433000FFFFFF0606060606060606060606060632
:104340000606060606FFFFFFFF070200000000004A
:104350000000000000000000000000FFFFFF000060
:10436000000000000000000000000000000000FF4E
:10437000FFFFFF0000000000000000000000000040
:104380000000000000FFFFFFFF0000000000000031
:104390000000000000000000000000FFFFFF1818F0
:1043A000181818181818181818181818181818FFA6
:1043B000FFFFFF18181818181818181818181818C8
:1043C0001818181818FFFFFFFF0000000000000079
:1043D00000000000000000000000020101000000D9
:1043E000000000000000000000000000000000FFCE
:1043F000FFFFFF00000000000000000000000000C0
:1044000000000000000101000000000000000000AA
:10441000000000000000000000000000000000009C
:10442000000000000000000000000000000000FF8D
:10443000FFFFFF000000000000000000000000007F
:10444000000000000000000000000000000000006C
:10445000000000000000000000000000000000005C
:104460000000000000000000000000000000001F2D
:104470001F0F0F00000000000000000000000000FF
:10448000000000000000000000000000000000002C
:1044900000000000B444000800000020C800000034
:1044A0006C0100087C450008C8000020A81200002C
:1044B00088010008000000000024F4000000BEA0F5
:1044C00000000000000000000000000000000000EC
:1044D00000000000000000000000000001000000DB
:1044E00010000000000000000101010100000000B8
:1044F00000000000000000000000000000000000BC
:1045000000000000000000000000000000000000AB
:104510000000000018000000000000201818121809
:1045200057007000200040004000FFFF0000010025
:1045300028002000FFFF0000460070007B00AB0059
:104540002000FFFF000000004000180028001800B5
:10455000FFFF00007800700020004000FFFF000017
:10456000010000000000000000000000000000004A
:0C45700000F8E0071F00E0FF1FF800004B
:0400000508000131BD
:00000001FF
